:020000040800F2
:1000000000000120A9280008492800084B28000802
:100010004D2800084F280008512800080000000063
:10002000000000000000000000000000532800084D
:10003000552800080000000057280008592800082B
:10004000F9280008F9280008F9280008F92800080C
:10005000F9280008F9280008F9280008F9280008FC
:10006000F9280008F9280008F9280008F9280008EC
:10007000F9280008F9280008F9280008F9280008DC
:10008000F9280008F9280008F9280008F9280008CC
:10009000F9280008F9280008F9280008F9280008BC
:1000A000F9280008F9280008F9280008F9280008AC
:1000B000F92800080000000000000000F9280008EE
:1000C000F92800080000000000000000F9280008DE
:1000D00000000000F9280008F928000800000000CE
:1000E000F9280008F92800080000000000000000BE
:1000F0000000000000000000000000000000000000
:10010000000000000000000000000000F9280008C6
:100110000000000000000000F9280008F92800088D
:10012000F9280008F9280008F9280008F92800082B
:10013000F928000800000000000000000000000096
:10014000F9280008F9280008F9280008F92800080B
:10015000F9280008F9280008F9280008F9280008FB
:10016000F9280008F9280008F92800080000000014
:10017000F9280008F928000800000000000000002D
:10018000F9280008F9280008F928000800000000F4
:1001900010B5054C237833B9044B13B10448AFF3C1
:1001A00000800123237010BD10000020000000001B
:1001B0005429000808B5034B1BB103490348AFF3AA
:1001C000008008BD00000000140000205429000831
:1001D00053B94AB9002908BF00281CBF4FF0FF31AE
:1001E0004FF0FF3000F072B9ADF1080C6DE904CEAC
:1001F00000F006F8DDF804E0DDE9022304B0704702
:100200002DE9F047089E04468846002B4BD18A42D0
:10021000154667D9B2FA82F24AB1C2F1200701FA53
:1002200002F320FA07F7954047EA030894404FEAA3
:10023000154E230CB8FBFEF71FFA85FC0EFB178842
:1002400043EA084307FB0CF1994209D9EB1807F17F
:10025000FF3080F01B81994240F21881023F2B440D
:100260005B1AA4B2B3FBFEF00EFB103344EA034466
:1002700000FB0CFCA44509D92C1900F1FF3380F0D8
:100280000781A44540F2048102382C4440EA07402B
:10029000A4EB0C0400271EB1D4400023C6E90043A0
:1002A0003946BDE8F0878B4209D9002E00F0EB807B
:1002B0000027C6E9000138463946BDE8F087B3FAA1
:1002C00083F7002F47D18B4202D3824200F2FA809B
:1002D000841A61EB030301209846002EE0D0C6E9A2
:1002E0000048DDE702B9FFDEB2FA82F2002A40F0F0
:1002F0008F80491B4FEA154E1FFA85F80127B1FB85
:10030000FEFC230C0EFB1C1143EA014308FB0CF11D
:10031000994207D9EB180CF1FF3002D2994200F252
:10032000CD808446591AA3B2B1FBFEF00EFB101427
:1003300043EA044408FB00F8A04507D92C1900F152
:10034000FF3302D2A04500F2B6801846A4EB0804A1
:1003500040EA0C409FE7C7F1200CBB4022FA0CFE9C
:100360004EEA030E01FA07F420FA0CF521FA0CF319
:100370004FEA1E482543B3FBF8F92C0C08FB193350
:100380001FFA8EFA44EA034309FB0AF49C4202FA7C
:1003900007F200FA07F10BD91EEB030309F1FF3056
:1003A00080F087809C4240F28480A9F10209734466
:1003B0001B1BADB2B3FBF8F008FB103345EA034456
:1003C00000FB0AFAA24508D91EEB040400F1FF3332
:1003D0006BD2A24569D90238744440EA0940A0FBB7
:1003E0000289A4EB0A044C45C2464B4654D351D073
:1003F000002E69D0B1EB0A0564EB030404FA0CFC8F
:10040000FD40FC404CEA0505C6E90054002747E7DB
:10041000C2F1200320FA03F7954001FA02F021FA15
:1004200003F34FEA154E3843010CB3FBFEF71FFAF6
:1004300085F80EFB173341EA034107FB08F38B42B3
:1004400004FA02F407D9691807F1FF3C2FD28B4256
:100450002DD9023F2944CB1A81B2B3FBFEF00EFB2B
:10046000103341EA034100FB08F38B4207D96918B6
:1004700000F1FF3C17D28B4215D902382944C91A22
:1004800040EA07473BE73746304609E70746E7E6D5
:100490001846FBE64145ABD2B8EB020A69EB0E0207
:1004A00001381346A4E76046E9E7184695E7674632
:1004B000D1E781467CE702382C4447E7ACF1020CD7
:1004C0002B442FE7384608E73746E9E6704700BF78
:1004D000104B1B680BB90120704710B504464FF450
:1004E0007A70B0FBF3F30C4A1068B0FBF3F000F045
:1004F00091F868B90F2C01D901200AE000222146A9
:100500004FF0FF3000F052F8024B5C60002000E03A
:10051000012010BD000000200800002010B50320BD
:1005200000F032F80020FFF7D3FF10B1012420467D
:1005300010BD044602F0FCF8F9E70000034A136816
:10054000034909680B441360704700BF2C0000206A
:1005500000000020014B1868704700BF2C000020ED
:1005600038B50446FFF7F6FF0546B4F1FF3F02D069
:10057000044B1B681C44FFF7EDFF401BA042FAD35D
:1005800038BD00BF00000020074AD36823F4E063B1
:100590001B041B0C000200F4E060184340F0BF6035
:1005A00040F40030D060704700ED00E030B4174BED
:1005B000DB68C3F30223C3F10704042C28BF04241F
:1005C0001D1D062D18D9033B4FF0FF3505FA04F425
:1005D00021EA0401994005FA03F322EA03031943CF
:1005E00000280BDB0901C9B200F1604000F5614051
:1005F00080F8001330BC70470023E5E700F00F00DF
:100600000901C9B2024B1954F4E700BF00ED00E044
:1006100014ED00E00138B0F1807F0AD2064B58603B
:10062000064AF02182F823100020986007221A6001
:1006300070470120704700BF10E000E000ED00E0CF
:10064000F0B482B000236FE0866805EA060CCE683D
:10065000BE4046EA0C068660466826EA04044E68F8
:10066000C6F300169E4026434660C46825408C6849
:10067000BC402C43C4604C6814F0805F53D04C4C99
:10068000256E45F001052566246E04F001040194F1
:10069000019C9D08AE1C474C54F8267003F00304DF
:1006A000A6000F24B44027EA0407B0F1904F77D09A
:1006B000414CA04276D004F58064A0426ED007245D
:1006C000B4403C4302353B4E46F825403B4C256840
:1006D000D44304EA05064F6817F4803F01D042EA8C
:1006E0000506364D2E606D6804EA05064F6817F45E
:1006F000003F01D042EA0506304D6E60AD6804EA65
:1007000005064F6817F4801F01D042EA05062B4DFD
:10071000AE60ED682C404E6816F4001F01D042EA2E
:100720000504264AD46001330A6832FA03F43BD048
:1007300001249C402240F6D04D68022D01D0122D9C
:1007400010D1DE08083650F826C003F00705AF00C8
:100750000F25BD402CEA050C0D69BD4045EA0C058E
:1007600040F8265006685F000325BD40ED4305EACA
:10077000060C4E6806F00306BE4046EA0C0606600C
:100780004E6806F1FF3CBCF1010F7FF65DAF112E04
:100790003FF45AAF122E7FF468AF55E702248FE77B
:1007A00000248DE701248BE702B0F0BC704700BF46
:1007B0000010024000000140000400480004014015
:1007C0000AB981627047816170470000024B186866
:1007D00000F4C060704700BF00700040B0F5007FBB
:1007E0000FD01F4B1B6803F4C063B3F5806F34D088
:1007F0001B4A136823F4C06343F480631360002032
:100800007047174B1B6803F4C063B3F5007F22D019
:10081000134A136823F4C06343F400731360114B4D
:100820001A68322303FB02F30F4AA2FB03239B0C3B
:10083000013300E0013B0A4A526912F4806F01D093
:10084000002BF7D1064B5B6913F4806F01D10020B8
:10085000704703207047002070470020704700BF9A
:10086000007000400800002083DE1B4330B583B0D9
:100870000546204B9B6D13F0805F0BD0FFF7A6FF62
:10088000B0F5007F17D0802D1FD82DD0702D2DD022
:1008900000211BE0174CA36D43F08053A365A36DAB
:1008A00003F080530193019BFFF790FFA36D23F0AA
:1008B0008053A365E4E7802D03D9A02D03D902213D
:1008C00004E0002102E0012100E003210A4A13684C
:1008D00023F007030B431360136803F007038B42F5
:1008E00006D0012003B030BD0221EFE70121EDE782
:1008F0000020F7E70010024000200240284A9368D9
:10090000D26802F0030213F00C030AD00C2B06D0BD
:10091000042B1FD0082B20D00020024610E0012A13
:10092000F6D11F4A126812F0080F0CD11C4AD2F8F7
:100930009420C2F303221B4951F8222043B1002026
:100940000C2B0DD07047164A1268C2F30312F2E75F
:100950001046F5E714480022F2E714480022EFE7BA
:100960000F4BDB6803F00303022B15D0032B15D0CC
:100970000B4BD868C0F302100130D968C1F30621CF
:1009800002FB01F2B2FBF0F2D868C0F34160013023
:100990004000B2FBF0F0D5E7034AE9E7034AE7E796
:1009A00000100240702900080024F40000127A00B0
:1009B000002800F00883F0B583B00446AD4B9D6875
:1009C00005F00C05DE6806F00306036813F0100F4F
:1009D0005ED0E5B10C2D18D0A369002B00F0B880D3
:1009E000A44A136843F001031360FFF7B3FD074601
:1009F000A04B1B6813F0020F40F09780FFF7AAFD91
:100A0000C01B0228F4D90323E9E2012EE4D1994B5B
:100A10001B6813F0020F03D0A369002B00F0D682ED
:100A2000206A944B1B6813F0080F5ED0914B1B6833
:100A300003F0F00398425FD9FFF718FF002840F059
:100A4000C7828C4B1A6842F008021A601A6822F0BA
:100A5000F002216A0A431A605A6822F47F42E1696F
:100A600042EA01225A60FFF749FF824B9B68C3F3B9
:100A70000313814AD35C03F01F03D8407F4B1860F7
:100A80007F4B1868FFF724FD0346002840F0A7823B
:100A9000236813F0010F7AD0082D6FD00C2D6BD086
:100AA0006368B3F5803F00F09180B3F5A02F00F0AC
:100AB0009380704B1A6822F480321A601A6822F40C
:100AC00080221A606368002B00F09380FFF742FDDC
:100AD0000746684B1B6813F4003F58D1FFF73AFDF7
:100AE000C01B6428F5D9032379E2624BD3F8943014
:100AF0001B0903F0F0039DE75E4B1A6842F0080201
:100B00001A601A6822F0F002216A0A431A605A68D1
:100B100022F47F42E16942EA01225A60206AFFF72B
:100B2000A5FE00289FD0012359E2524B1A6842F0DB
:100B300008021A601A6822F0F002216A0A431A6059
:100B40005A6822F47F42E16942EA01225A609FE733
:100B5000484A136823F001031360FFF7FBFC0746C4
:100B6000444B1B6813F0020F92D0FFF7F3FCC01B3D
:100B70000228F5D9032332E2032E91D13D4B1B68A5
:100B800013F4003F03D06368002B00F02382236836
:100B900013F0020F4FD0042D3CD00C2D38D0E36859
:100BA000002B78D0334A136843F480731360FFF747
:100BB000D1FC06462F4B1B6813F4806F62D1FFF700
:100BC000C9FC801B0228F5D9032308E2294A1368CF
:100BD00043F48033136075E703F18043A3F53C339E
:100BE0001A6842F480221A601A6842F480321A604D
:100BF00068E7FFF7AFFC07461E4B1B6813F4003F86
:100C0000C5D0FFF7A7FCC01B6428F5D90323E6E194
:100C1000022EC4D1174B1B6813F4806F03D0E36816
:100C2000002B00F0D981134A536823F0F85321694F
:100C300043EA01635360236813F0080F56D06369D9
:100C4000002B3CD00B4AD2F8943043F00103C2F899
:100C50009430FFF77FFC0646064BD3F8943013F030
:100C6000020F43D1FFF776FC801B0228F4D903233F
:100C7000B5E100BF00100240A029000808000020D4
:100C800004000020B64A536823F0F853216943EA70
:100C900001635360CFE7B24A136823F48073136093
:100CA000FFF758FC0646AE4B1B6813F4806FC2D0AA
:100CB000FFF750FC801B0228F5D903238FE1A84AD7
:100CC000D2F8943023F00103C2F89430FFF742FCCD
:100CD0000646A34BD3F8943013F0020F06D0FFF76B
:100CE00039FC801B0228F4D9032378E1236813F030
:100CF000040F7AD09A4B9B6D13F0805F0BD1984B09
:100D00009A6D42F080529A659B6D03F08053019377
:100D1000019B012600E00026924B1B6813F4807FA4
:100D200026D0A368012B37D0052B3DD08C4BD3F8B0
:100D3000902022F00102C3F89020D3F8902022F0F6
:100D40000402C3F89020A368002B3BD0FFF702FCFD
:100D50000746834BD3F8903013F0020F44D1FFF7CE
:100D6000F9FBC01B41F288339842F2D9032336E1E4
:100D70007C4A136843F480731360FFF7EBFB07466C
:100D8000784B1B6813F4807FCBD1FFF7E3FBC01BCC
:100D90000228F5D9032322E1714AD2F8903043F0BA
:100DA0000103C2F89030CEE76D4BD3F8902042F0AB
:100DB0000402C3F89020D3F8902042F00102C3F857
:100DC0009020C0E7FFF7C6FB0746654BD3F890308D
:100DD00013F0020F08D0FFF7BDFBC01B41F28833B0
:100DE0009842F2D90323FAE0E6B9236813F0200F02
:100DF00035D0636AE3B15A4AD2F8983043F0010320
:100E0000C2F89830FFF7A6FB0646554BD3F898304A
:100E100013F0020F23D1FFF79DFB801B0228F4D9AA
:100E20000323DCE04E4A936D23F080539365DCE7A7
:100E30004B4AD2F8983023F00103C2F89830FFF7FC
:100E400089FB0646464BD3F8983013F0020F06D0C4
:100E5000FFF780FB801B0228F4D90323BFE0A36ABD
:100E6000002B00F0BB800C2D6FD0022B23D03C4B0D
:100E70001A6822F080721A601B6813F0006F04D1A8
:100E8000374AD36823F00303D360354AD36823F08D
:100E9000887323F48033D360FFF75CFB0446304B48
:100EA0001B6813F0007F4ED0FFF754FB001B022895
:100EB000F5D9032393E02A4A136823F08073136063
:100EC000FFF748FB0546264B1B6813F0007F06D052
:100ED000FFF740FB401B0228F5D903237FE0204A9F
:100EE000D36821491940E36A206B013843EA0013B3
:100EF000606B43EA0023E06B4008013843EA40534B
:100F0000206C4008013843EA4063A06B43EAC063A9
:100F10000B43D360136843F080731360D36843F0CE
:100F20008073D360FFF716FB04460D4B1B6813F06C
:100F3000007F06D1FFF70EFB001B0228F5D9032323
:100F40004DE000234BE0002349E0012B4AD0044B45
:100F5000DB6803F00301E26A914207D001233EE01F
:100F600000100240007000408C809D0103F0700270
:100F7000216B0139B2EB011F01D001232FE003F4F3
:100F8000FE42616BB2EB012F01D0012327E003F099
:100F90007842A16BB2EBC16F01D001231FE003F4D3
:100FA000C001E26B5208013AB1EB425F01D001236C
:100FB00015E003F0C063226C5208013AB3EB426FB4
:100FC00012D001230BE0012318467047012306E0ED
:100FD000012304E0012302E0012300E0002318467E
:100FE00003B0F0BD0123FAE70023F8E7002800F082
:100FF0009B8070B504464E4B1B6803F007038B4281
:101000000CD24B4A136823F007030B431360136899
:1010100003F007038B4201D0012070BD0D46236809
:1010200013F0010F39D06368032B09D0022B26D0AF
:1010300063BB404A126812F0020F06D10120ECE7B0
:101040003C4A126812F0007F70D03A498A6822F058
:10105000030213438B60FFF77DFA0646354B9B680E
:1010600003F00C036268B3EB820F16D0FFF772FA3D
:10107000801B41F288339842F0D90320CDE72D4AF6
:10108000126812F4003FE0D10120C6E7294A126835
:1010900012F4806FD9D10120BFE7236813F0020F4B
:1010A00006D0244A936823F0F003A1680B439360B1
:1010B0001F4B1B6803F00703AB420CD91C4A136893
:1010C00023F007032B431360136803F00703AB42BD
:1010D00001D00120A1E7236813F0040F06D0154AC0
:1010E000936823F4E063E1680B439360236813F093
:1010F000080F07D00F4A936823F46053216943EA2D
:10110000C1039360FFF7FAFB0A4B9B68C3F3031319
:10111000094AD35C03F01F03D840084B1860084B02
:101120001868FFF7D5F978E701207047012074E7C8
:101130000020024000100240A02900080800002002
:1011400004000020014B1868704700BF0800002011
:1011500008B5FFF7F7FF054B9B68C3F30223044A6A
:10116000D35C03F01F03D84008BD00BF001002404D
:10117000B029000808B5FFF7E5FF054B9B68C3F3EE
:10118000C223044AD35C03F01F03D84008BD00BF4C
:1011900000100240B0290008F8B5594BDB6813F085
:1011A000030F18D0564BDB6803F003030268934229
:1011B00002D001252846F8BD002A00F09F80504B40
:1011C000DB68C3F3021301334268934201D0012567
:1011D000F0E700251AE00368022B58D0032B5DD0FE
:1011E000012B01D001250FE0454A126812F0020FD1
:1011F00060D0434DEA6822F073024468013C43EA40
:1012000004131343EB600025002DD3D10F46044691
:101210003B4A136823F080631360FFF79BF906468F
:10122000374B1B6813F0006F05D0FFF793F9801B55
:101230000228F5D90325002DBCD1002F3CD130491F
:101240000B6923F0784323F4FE43A068E268D206DA
:1012500042EA002213430B61294A136843F080637A
:101260001360FFF777F90646254B1B6813F0006FF4
:1012700005D1FFF76FF9801B0228F5D90325002D52
:1012800098D11F4A1369A1690B43136192E71C4A65
:10129000126812F4806FACD10125B5E7184A1268C4
:1012A00012F4003FA5D1164A126812F4802FA0D183
:1012B0000125A9E70125A7E7012F0FD010480269F2
:1012C00022F0C06222F4FE42A16863695B08013B20
:1012D0005B0643EA012313430361BDE70848026943
:1012E00022F4C00222F4FE42A16823695B08013B9C
:1012F0005B0543EA012313430361ADE7012559E789
:10130000001002402DE9F04182B00446036813F456
:10131000006F26D0C36BB3F5000F06D0B3F5400FB6
:101320001DD09BB1012637461DE0AE4AD36843F479
:101330008033D3600027AB4AD2F8883023F44003CF
:10134000E16B0B43C2F8883000260CE0002104302A
:10135000FFF722FF07460028EDD0064603E00027EE
:10136000E9E700263746236813F4003F6BD09D4B16
:101370009B6D13F0805F4CD19A4B9A6D42F0805276
:101380009A659B6D03F080530193019B4FF0010818
:10139000954A136843F480731360FFF7DBF8054642
:1013A000914B1B6813F4807F05D1FFF7D3F8401BE6
:1013B0000228F5D90327002F40D18A4BD3F890306B
:1013C00013F4407315D0226D9A4212D0854AD2F898
:1013D000903023F44073D2F8901041F48031C2F879
:1013E0009010D2F8901021F48031C2F89010C2F819
:1013F000903013F0010F0FD1002F40F0C980794ACF
:10140000D2F8903023F44073216D0B43C2F8903032
:1014100015E04FF00008BBE7FFF79CF80546714B5D
:10142000D3F8903013F0020FE6D1FFF793F8401B8A
:1014300041F288339842F2D90327DDE73E46B8F1FE
:10144000000F40F0A780236813F0010F08D0654A11
:10145000D2F8883023F00303216A0B43C2F88830A6
:10146000236813F0020F08D05E4AD2F8883023F0C8
:101470000C03616A0B43C2F88830236813F0200F15
:1014800008D0584AD2F8883023F44063A16A0B434D
:10149000C2F88830236813F4007F08D0514AD2F88C
:1014A000883023F44023616B0B43C2F888302368F3
:1014B00013F4806F08D04B4AD2F8883023F44013DD
:1014C000A16B0B43C2F88830236813F0400F08D09B
:1014D000444AD2F8883023F44053E16A0B43C2F8FF
:1014E0008830236813F4807F08D03E4AD2F88830D1
:1014F00023F44033216B0B43C2F88830236813F484
:10150000005F0FD0374AD2F8883023F04063216C57
:101510000B43C2F88830236CB3F1006F40D0B3F1B5
:10152000806F42D0236813F4802F0FD02D4AD2F859
:10153000883023F04063616C0B43C2F88830636CE1
:10154000B3F1006F39D0B3F1806F3BD0236813F44F
:10155000804F0CD0234AD2F8883023F04053A16C3E
:101560000B43C2F88830A36CB3F1805F32D023689C
:1015700013F4004F08D01B4AD2F8883023F0804380
:10158000E16C0B43C2F88830304602B0BDE8F08110
:101590003E4654E7134A936D23F08053936552E718
:1015A000D36843F48013D360BCE70121201DFFF70B
:1015B000F3FD0028B6D00646B4E7D36843F48013A1
:1015C000D360C3E70121201DFFF7E6FD0028BDD051
:1015D0000646BBE70221201DFFF7DEFD0028C6D02E
:1015E0000646C4E70010024000700040F8B505460A
:1015F0000F4616461C462B689B6837EA03030CBF50
:1016000001230023B34237D0B4F1FF3FF3D0FEF7FC
:10161000A1FF069BC01AA04201D2002CEBD12A6880
:10162000536823F0E00353606B68B3F5827F0BD0FF
:10163000AB6AB3F5005F14D0012385F85D30002359
:1016400085F85C30032018E0AB68B3F5004F02D09A
:10165000B3F5806FECD12A68136823F04003136060
:10166000E6E72A68136823F4005313602A681368B6
:1016700043F400531360DFE70020F8BDF8B50746D8
:101680000C4615461E4602E0B6F1FF3F0BD13A6804
:1016900093682340AB423BD0B4F5C06FF4D1002D2A
:1016A000F2D1137BF0E7FEF755FF069BC01AB0425C
:1016B00001D2002EEBD13A68536823F0E003536067
:1016C0007B68B3F5827F0BD0BB6AB3F5005F14D0A3
:1016D000012387F85D30002387F85C30032018E091
:1016E000BB68B3F5004F02D0B3F5806FECD13A6818
:1016F000136823F040031360E6E73A68136823F4A5
:10170000005313603A68136843F400531360DFE733
:101710000020F8BD70B582B004460D461646009212
:101720000B4600224FF4C051FFF7A8FFB8B900964E
:101730002B46002280212046FFF758FFB8B90096BB
:101740002B4600224FF4C0612046FFF797FF034667
:1017500050B1236E43F020032366032304E0236E7D
:1017600043F0200323660323184602B070BD236EA6
:1017700043F0200323660323F6E770B582B00446E6
:101780000D4616464368B3F5827F0FD000962B4670
:10179000002280212046FFF729FF034698B962689E
:1017A000B2F5827F15D0184602B070BD8368B3F5DC
:1017B000004F02D0B3F5806FE8D12268136823F0A0
:1017C00040031360E2E7236E43F020032366032304
:1017D000E9E7A268B2F5004F02D0B2F5806FE2D11E
:1017E00000962B4600224FF4C0612046FFF746FFCB
:1017F00003460028D7D0236E43F02003236603233B
:10180000D1E7002853D010B504460023836290F836
:101810005D30002B40D0022384F85D3022681368CD
:1018200023F040031360E368B3F5E06F39D9002279
:10183000B3F5706F04D0B3F5E06F01D00021A16261
:10184000216B21B9B3F5E06F2ED9022323636368BE
:10185000A1680B4321690B4361690B43A16901F442
:1018600000710B43E1690B43216A0B43A06A2168B5
:1018700003430B60638B03F00403616A0B43616BEA
:101880000B43E1680B43216813434B600020206643
:10189000012384F85D3010BD80F85C3000F060FFFB
:1018A000B9E74FF48052C3E701232363CFE7012058
:1018B00070472DE9F04182B090F85C40012C00F0B7
:1018C000E4801E46154688460446012380F85C30B5
:1018D000FEF740FE074694F85D20D2B2012A09D0F7
:1018E0000220012384F85D30002384F85C3002B0CC
:1018F000BDE8F081B8F1000F00F0B980002D00F0D4
:10190000B880032384F85D3000232366C4F8388050
:10191000A587E5872364A4F84430A4F846302365FE
:10192000E364A368B3F5004F1CD023681A6812F073
:10193000400F03D11A6842F040021A60E368B3F521
:10194000E06F33D963680BB1012D1BD1A26B236803
:101950001288DA60A36B0233A363E38F013B9BB26F
:10196000E3870FE02268136843F480431360DCE7E9
:10197000FEF7F0FDC01BB04202D3B6F1FF3F7AD1B3
:10198000002E7AD0E38F9BB2002B5BD023689A683D
:1019900012F0020FECD0A26B1288DA60A36B023354
:1019A000A363E38F013B9BB2E387EBE763680BB173
:1019B000012D30D1E38F9BB2012B0BD9A26B236891
:1019C0001288DA60A36B0233A363E38F023B9BB2FE
:1019D000E38720E0A26B236812781A73A36B0133AC
:1019E000A363E38F013B9BB2E38714E0A36B1B78F7
:1019F0001373A36B0133A363E38F013B9BB2E387B4
:101A000009E0FEF7A7FDC01BB04202D3B6F1FF3FCD
:101A100035D1002E35D0E38F9BB29BB122689368FD
:101A200013F0020FEDD0E38F9BB2012BDED9A36B35
:101A30001B88D360A36B0233A363E38F023B9BB28B
:101A4000E387E8E73A4631462046FFF763FE08B1F0
:101A500020232366A36833B901932368DA680192CF
:101A60009B680193019B236E6BB9002039E701202D
:101A700037E7012035E7032033E7032031E7032070
:101A80002FE703202DE701202BE702202FE72DE988
:101A9000F843DDF8208090F85C40012C00F05C8178
:101AA0001D4617460E460446012380F85C30FEF7BB
:101AB00051FD814694F85D00C0B26368012814D0DE
:101AC000B3F5827F09D00223012284F85D20002231
:101AD00084F85C201846BDE8F883A368002B40F02A
:101AE0002D81042801D00223EEE7002E00F028818A
:101AF000002F00F02781002D00F0268194F85D3042
:101B0000DBB2042B02D0052384F85D30002323666A
:101B10002764A4F84650A4F84450A663E587A58737
:101B2000E3642365E368B3F5E06F01D8012D22D9A2
:101B30002268536823F48053536023681A6812F0B4
:101B4000400F03D11A6842F040021A60E368B3F50F
:101B5000E06F56D963680BB1012D0AD1A26B2368DF
:101B60001288DA60A36B0233A363E38F013B9BB25D
:101B7000E387012525E02268536843F480535360CE
:101B8000DBE723689A6812F0010F10D0B4F8462002
:101B900092B262B1DA68236C1A80236C0233236438
:101BA000B4F84630013B9BB2A4F846300125FEF75D
:101BB000D1FCA0EB0900404503D3B8F1FF3F40F052
:101BC000C580E38F9BB22BB9B4F846309BB2002B93
:101BD00000F0A78023689A6812F0020FD1D0E28F3C
:101BE00092B2002ACDD0002DCBD0A26B1288DA6041
:101BF000A36B0233A363E38F013B9BB2E387002512
:101C0000BFE763680BB1012D0ED1E38F9BB2012BAF
:101C10000CD9A26B23681288DA60A36B0233A3632A
:101C2000E38F023B9BB2E387012547E0A26B236869
:101C300012781A73A36B0133A363E38F013B9BB24A
:101C4000E387F1E7E28F92B2012A0BD9A26B1288E7
:101C5000DA60A36B0233A363E38F023B9BB2E3879B
:101C600000253CE0A26B12781A73A36B0133A363C7
:101C7000E38F013B9BB2E387002530E02268536885
:101C800043F48053536001250CE0226C1B7B1370DE
:101C9000236C01332364B4F84630013B9BB2A4F8B3
:101CA00046300125FEF756FCA0EB0900404502D363
:101CB000B8F1FF3F4CD1B8F1000F4BD0E38F9BB28E
:101CC0001BB9B4F846309BB25BB323689A6812F034
:101CD000020F04D0E28F92B20AB1002DB2D1236874
:101CE0009A6812F0010FDDD0B4F8462092B2002AB3
:101CF000D8D0B4F8462092B2012AC6D9DA68236C4B
:101D00001A80236C02332364B4F84630023B9BB242
:101D1000A4F84630B4F846309BB2012BAED9012569
:101D2000C0E74A4641462046FFF7F4FC0346002838
:101D30003FF4CAAE202323660123C5E60223C3E68F
:101D40000123C1E60123BFE60123BDE60323BBE671
:101D50000323B9E60323B7E60223BBE62DE9F041EE
:101D600082B004460F4690461D464368B3F5827F15
:101D700019D094F85C30012B00F0B880012384F86E
:101D80005C30FEF7E7FB064694F85D30DBB2012BD2
:101D900015D00220012384F85D30002384F85C30E4
:101DA00002B0BDE8F0818368002BE2D1042380F803
:101DB0005D30009513460A46FFF769FEF0E7002FF5
:101DC00000F08680B8F1000F00F08480042384F8CE
:101DD0005D30002323662764A4F84480A4F846807D
:101DE000A363A387E387E3642365E368B3F5E06F48
:101DF00016D92268536823F480535360A368B3F55F
:101E0000004F13D023681A6812F0400F03D11A68EC
:101E100042F040021A60E368B3F5E06F16D935E08E
:101E20002268536843F480535360E7E722681368DD
:101E300023F480431360E5E7FEF78CFB801BA84288
:101E400002D3B5F1FF3F47D1002D47D0B4F846305B
:101E50009BB2002B30D023689A6812F0010FEBD0B0
:101E6000226C1B7B1370236C01332364B4F846305F
:101E7000013B9BB2A4F84630E8E7FEF76BFB801B02
:101E8000A84202D3B5F1FF3F2AD15DB3B4F8463082
:101E90009BB28BB123689A6812F0010FEDD0DA681B
:101EA000236C1A80236C02332364B4F84630013B60
:101EB0009BB2A4F84630E9E7324629462046FFF7B0
:101EC0005CFC08B120232366236E6BB9002061E718
:101ED00001205FE701205DE703205BE7032059E76E
:101EE000032057E7032055E7012053E7022057E777
:101EF0002DE9F0480446016883680269134342698A
:101F00001343C26913430868A14A024013430B609C
:101F10002268536823F44053E1680B435360A1697E
:101F200022689C4B9A4201D0236A1943936823F498
:101F300030630B4393602368974A93421CD0974ABF
:101F400093422DD0934A934243D01025914A934215
:101F50005ED0E369B3F5004F00F0D580082D00F2A4
:101F60006F81DFE815F02F0145014F016D015A0126
:101F70006D016D016D01640102F55842D2F88820AF
:101F800002F00302032A09D8DFE802F002043C064B
:101F90000125DBE70425D9E70825D7E71025D5E794
:101FA00002F5E632D2F8882002F00C020C2A0ED894
:101FB000DFE802F0070D0D0D090D0D0D2A0D0D0DB9
:101FC0000B000025C2E70425C0E70825BEE7102561
:101FD000BCE702F5C832D2F8882002F44062B2F5BC
:101FE000806F0BD007D9B2F5006F0FD0B2F5406FFC
:101FF00006D10825AAE71AB90025A7E70425A5E711
:102000001025A3E70225A1E702259FE702259DE70A
:10201000082D00F21881DFE815F00C0016011400FD
:102020001601110016011601160109004FF40040B7
:1020300008E0FFF78DF828B90020D4E0FEF75EFC39
:10204000F9E75748626802EB4203834200F2FD80E1
:10205000B0EB023F00F2FB80082D51D8DFE805F01D
:1020600005502050305050504300FFF771F80025C4
:10207000070E0602626850082B4616EB000B47F16C
:10208000000C58466146FEF7A3F803462846A3F520
:102090004071444A914200F2DC802268D360A2E0A1
:1020A000560800252B46DFF800B14FF0000C1BEB63
:1020B00006004CF10001FEF78BF803462846E6E7E0
:1020C000FEF71CFC0025070E0602626850082B462E
:1020D00016EB000B47F1000C58466146FEF778F806
:1020E00003462846D3E75008002700252B4610F565
:1020F000000047F10001FEF76BF803462846C6E7EB
:1021000001200023C3E7082D59D8DFE805F0051F9B
:102110002A58355858584F00FFF71AF86268530884
:1021200003EB4003B3FBF2F39BB20020A3F11001D9
:102130004FF6EF72914200F28E809AB222F00F02B7
:10214000C3F3420313432268D3604CE0FFF712F855
:102150006268530803EB4003B3FBF2F39BB2002029
:10216000E4E76268530803F1F47303F59043B3FBAB
:10217000F2F39BB20020D9E7FEF7C0FB6268530878
:1021800003EB4003B3FBF2F39BB20020CEE700BFAA
:10219000F369FFEF00800040003801400044004038
:1021A0000024F400FFFC0F00000024F462685308D0
:1021B00003F58033B3FBF2F39BB20020B6E70120B6
:1021C0000023B3E7FEF7C4FF636800EB5302B2FBE2
:1021D000F3F292B20020A2F110014FF6EF73994290
:1021E0003BD82368DA60002222666266BDE8F08888
:1021F000FEF7C0FF636800EB5302B2FBF3F292B24A
:102200000020E8E763685A0802F5740202F51052EC
:10221000B2FBF3F292B20020DDE7FEF76FFB6368DA
:1022200000EB5302B2FBF3F292B20020D3E76368F3
:102230005A0802F50042B2FBF3F292B20020CAE75C
:1022400001200022C7E70120CDE70120CBE70120D4
:10225000C9E70120C7E70120C5E70120C3E700BFA8
:10226000436A13F0010F06D00268536823F4003369
:10227000816A0B435360436A13F0020F06D0026871
:10228000536823F48033C16A0B435360436A13F0ED
:10229000040F06D00268536823F48023016B0B43BC
:1022A0005360436A13F0080F06D00268536823F4A2
:1022B0000043416B0B435360436A13F0100F06D089
:1022C0000268936823F48053816B0B439360436AE5
:1022D00013F0200F06D00268936823F40053C16BFB
:1022E0000B439360436A13F0400F0AD002685368AF
:1022F00023F48013016C0B435360036CB3F5801F10
:102300000BD0436A13F0800F06D00268536823F4A1
:102310000023816C0B43536070470268536823F4B9
:10232000C003416C0B435360EBE72DE9F0410546D8
:102330000F4616469846069C2B68DB6937EA03036E
:102340000CBF01230023B3421CD1B4F1FF3FF3D0F3
:10235000FEF700F9A0EB0800A04201D8002CEBD159
:102360002A68136823F4D07313602A68936823F0F3
:102370000103936020236B67AB67002385F87030FF
:10238000032000E00020BDE8F08130B583B00446B2
:102390000023C367FEF7DEF8054623681B6813F0C9
:1023A000080F0CD123681B6813F0040F15D12023EC
:1023B0006367A367002084F8700003B030BD6FF03E
:1023C0007E430093034600224FF400112046FFF79E
:1023D000ACFF0028E6D00320EFE76FF07E430093C8
:1023E0002B4600224FF480012046FFF79EFF002875
:1023F000DDD00320E1E768B310B50446436F03B3B3
:10240000242363672268136823F0010313602046C6
:10241000FFF76EFD012813D0636ABBB922685368C9
:1024200023F4904353602268936823F02A03936057
:102430002268136843F0010313602046FFF7A5FFED
:1024400010BD80F8703000F0BFF9D9E72046FFF7E3
:1024500007FFE3E70120704770B588B000240394BC
:102460000494059406940794214BDA6C42F004021C
:10247000DA64DA6C02F004020092009ADA6C42F03C
:102480000102DA64DA6C02F001020192019ADA6C5C
:1024900042F00202DA64DB6C03F002030293029B57
:1024A000144D012211462846FEF78AF922460821DA
:1024B0002846FEF785F90126039604960594032322
:1024C000069303A92846FEF7BBF80223039304945E
:1024D000059303A92846FEF7B3F80823039304964F
:1024E0000594069403A92846FEF7AAF808B070BD23
:1024F000001002400004004800B587B01648174B92
:1025000003604FF482734360002383604FF4E06202
:10251000C260036143614FF4007282612822C2618C
:102520000362436283620722C26203630823436338
:10253000FFF767F9C2230193022302930123039358
:10254000032304930523059301A94FF09040FEF760
:1025500077F807B05DF804FB44000020003001402C
:1025600008B50948094B03604FF4E1334360002389
:102570008360C36003610C2242618361C3610362B3
:102580004362FFF738FF08BDA80000200044004068
:102590002DE9F04383B0804691460A248DF805402A
:1025A00002AD05F8041D2046FDF7DAFF0E4E0022AD
:1025B00001213046FEF704F90C4F6423022229461C
:1025C0003846FFF776F964234A4641463846FFF716
:1025D00070F92046FDF7C4FF012211463046FEF790
:1025E000EFF803B0BDE8F083000400484400002089
:1025F0002DE9F04182B0074690460B238DF8053057
:1026000002AC04F8041D0A20FDF7AAFF0E4D0022BB
:1026100001212846FEF7D4F80C4E642302222146FD
:102620003046FFF746F96423424639463046FFF705
:1026300095FB0A20FDF794FF012211462846FEF77C
:10264000BFF802B0BDE8F08100040048440000205B
:1026500070B5ACB0202200211DA800F073F9002451
:1026600016941794189419941A945422214601A888
:1026700000F068F901231B934FF4A0221C9202255D
:10268000259503262696279310232893072329931D
:102690002A952B951BA8FEF78BF90F2316931796F7
:1026A000189419941A94314616A8FEF79FFC0195C8
:1026B0000A9401A8FEF726FE4FF40070FEF78EF88C
:1026C0002CB070BD08B5FDF729FFFFF7C1FFFFF77C
:1026D000C3FEFFF711FFFFF743FF1048AD23037060
:1026E00001220021FFF754FF0D4C03220021204658
:1026F000FFF77EFF6278237843EA0223094A1380BA
:10270000E278A37843EA0223074A138062792379A7
:1027100043EA0223054A1380DFE700BF3C000020A4
:102720002C01002030000020420000203800002052
:1027300082B00A4B1A6E42F001021A661A6E02F05B
:1027400001020092009A9A6D42F080529A659B6D48
:1027500003F080530193019B02B0704700100240C8
:1027600000B589B000230393049305930693079360
:102770000268144B9A4202D009B05DF804FB03F5DD
:1027800060431A6E42F480521A661A6E02F4805246
:102790000192019ADA6C42F00102DA64DB6C03F018
:1027A00001030293029BC223039302230493032396
:1027B00006930523079303A94FF09040FDF740FFD0
:1027C000DAE700BF0030014030B589B00023039341
:1027D000049305930693079302681A4B9A4201D01B
:1027E00009B030BD03F5E6339A6D42F400329A65C4
:1027F0009A6D02F400320192019ADA6C42F0010201
:10280000DA64DB6C03F001030293029B042303935D
:1028100002250495032406940723079303A94FF088
:102820009040FDF70DFF4FF4004303930495002300
:1028300005930694079403A94FF09040FDF700FF1D
:10284000CEE700BF004400407047FEE7FEE7FEE72A
:10285000FEE770477047704708B5FDF76FFE08BD8B
:102860000F49D1F8883043F47003C1F888300D4B1C
:102870001A6842F001021A60002098601A6822F07B
:10288000A85222F410221A604FF48052DA601A68BB
:1028900022F480221A6098614FF000638B607047C9
:1028A00000ED00E000100240DFF834D0002103E02A
:1028B0000C4B5B58435004310B480C4B42189A4266
:1028C000F6D30B4A02E0002342F8043B094B9A423C
:1028D000F9D3FFF7C5FF00F011F8FFF7F3FEFEE7AD
:1028E00000000120D0290008000000201000002076
:1028F0001000002034010020FEE7000070B50D4EEE
:102900000D4CA41BA4100025A54209D10B4E0C4C64
:1029100000F020F8A41BA4100025A54205D170BD2D
:1029200056F8253098470135EEE756F82530984798
:102930000135F2E7C0290008C0290008C0290008B5
:10294000C429000802440346934200D1704703F8AB
:10295000011BF9E7F8B500BFF8BC08BC9E467047FC
:10296000F8B500BFF8BC08BC9E46704700000000E8
:10297000A0860100400D0300801A060000350C00FF
:1029800040420F0080841E0000093D0000127A00C2
:102990000024F40000366E010048E801006CDC02FF
:1029A00000000000000000000102030406070809FF
:0829B000000000000102030415
:0829B80048D8FF7F0100000078
:0829C000B50100080000000051
:0829C80091010008000000006D
:1029D000010000001000000000093D0000000000A0
:04000005080028A91E
:00000001FF
