:020000040800F2
:100000000000012025290008712800087328000835
:1000100075280008772800087928000800000000EB
:100020000000000000000000000000007B28000825
:100030007D280008000000007F28000881280008B3
:100040007529000875290008752900087529000818
:1000500075290008752900088928000893280008D8
:1000600075290008752900087529000875290008F8
:1000700075290008752900089D280008AD2800088A
:1000800075290008752900087529000875290008D8
:1000900075290008752900087529000875290008C8
:1000A00075290008752900087529000875290008B8
:1000B00075290008000000000000000075290008F4
:1000C0007529000875290008752900087529000898
:1000D0007529000875290008752900087529000888
:1000E00075290008752900080000000000000000C4
:1000F0000000000000000000000000000000000000
:1001000000000000752900080000000075290008A3
:100110000000000000000000752900087529000893
:100120007529000875290008752900087529000837
:100130007529000800000000000000000000000019
:100140007529000875290008752900087529000817
:10015000BD280008CD280008752900087529000869
:10016000752900087529000875290008000000009D
:10017000752900087529000875290008000000008D
:10018000752900087529000875290008000000007D
:1001900010B5054C237833B9044B13B10448AFF3C1
:1001A00000800123237010BD180000200000000013
:1001B000D029000808B5034B1BB103490348AFF32E
:1001C000008008BD000000001C000020D0290008AD
:1001D00053B94AB9002908BF00281CBF4FF0FF31AE
:1001E0004FF0FF3000F072B9ADF1080C6DE904CEAC
:1001F00000F006F8DDF804E0DDE9022304B0704702
:100200002DE9F047089E04468846002B4BD18A42D0
:10021000154667D9B2FA82F24AB1C2F1200701FA53
:1002200002F320FA07F7954047EA030894404FEAA3
:10023000154E230CB8FBFEF71FFA85FC0EFB178842
:1002400043EA084307FB0CF1994209D9EB1807F17F
:10025000FF3080F01B81994240F21881023F2B440D
:100260005B1AA4B2B3FBFEF00EFB103344EA034466
:1002700000FB0CFCA44509D92C1900F1FF3380F0D8
:100280000781A44540F2048102382C4440EA07402B
:10029000A4EB0C0400271EB1D4400023C6E90043A0
:1002A0003946BDE8F0878B4209D9002E00F0EB807B
:1002B0000027C6E9000138463946BDE8F087B3FAA1
:1002C00083F7002F47D18B4202D3824200F2FA809B
:1002D000841A61EB030301209846002EE0D0C6E9A2
:1002E0000048DDE702B9FFDEB2FA82F2002A40F0F0
:1002F0008F80491B4FEA154E1FFA85F80127B1FB85
:10030000FEFC230C0EFB1C1143EA014308FB0CF11D
:10031000994207D9EB180CF1FF3002D2994200F252
:10032000CD808446591AA3B2B1FBFEF00EFB101427
:1003300043EA044408FB00F8A04507D92C1900F152
:10034000FF3302D2A04500F2B6801846A4EB0804A1
:1003500040EA0C409FE7C7F1200CBB4022FA0CFE9C
:100360004EEA030E01FA07F420FA0CF521FA0CF319
:100370004FEA1E482543B3FBF8F92C0C08FB193350
:100380001FFA8EFA44EA034309FB0AF49C4202FA7C
:1003900007F200FA07F10BD91EEB030309F1FF3056
:1003A00080F087809C4240F28480A9F10209734466
:1003B0001B1BADB2B3FBF8F008FB103345EA034456
:1003C00000FB0AFAA24508D91EEB040400F1FF3332
:1003D0006BD2A24569D90238744440EA0940A0FBB7
:1003E0000289A4EB0A044C45C2464B4654D351D073
:1003F000002E69D0B1EB0A0564EB030404FA0CFC8F
:10040000FD40FC404CEA0505C6E90054002747E7DB
:10041000C2F1200320FA03F7954001FA02F021FA15
:1004200003F34FEA154E3843010CB3FBFEF71FFAF6
:1004300085F80EFB173341EA034107FB08F38B42B3
:1004400004FA02F407D9691807F1FF3C2FD28B4256
:100450002DD9023F2944CB1A81B2B3FBFEF00EFB2B
:10046000103341EA034100FB08F38B4207D96918B6
:1004700000F1FF3C17D28B4215D902382944C91A22
:1004800040EA07473BE73746304609E70746E7E6D5
:100490001846FBE64145ABD2B8EB020A69EB0E0207
:1004A00001381346A4E76046E9E7184695E7674632
:1004B000D1E781467CE702382C4447E7ACF1020CD7
:1004C0002B442FE7384608E73746E9E6704700BF78
:1004D000104B1B680BB90120704710B504464FF450
:1004E0007A70B0FBF3F30C4A1068B0FBF3F000F045
:1004F00091F868B90F2C01D901200AE000222146A9
:100500004FF0FF3000F044F8024B5C60002000E048
:10051000012010BD000000201400002010B5094A81
:10052000136843F480731360032000F01FF8002069
:10053000FFF7CEFF10B10124204610BD044602F0A3
:10054000A9F8F9E700200240034A13680349096843
:100550000B441360704700BF3400002000000020EF
:10056000014B1868704700BF34000020074AD36869
:1005700023F4E0631B041B0C000200F4E06018434A
:1005800040F0BF6040F40030D060704700ED00E004
:1005900030B4174BDB68C3F30223C3F10704042C08
:1005A00028BF04241D1D062D18D9033B4FF0FF352D
:1005B00005FA04F421EA0401994005FA03F322EA5A
:1005C0000303194300280BDB0901C9B200F16040A5
:1005D00000F5614080F8001330BC70470023E5E768
:1005E00000F00F000901C9B2024B1954F4E700BF33
:1005F00000ED00E014ED00E0002807DB00F01F0232
:10060000400901239340024A42F82030704700BF5E
:1006100000E100E00138B0F1807F0AD2064B58605B
:10062000064AF02182F823100020986007221A6001
:1006300070470120704700BF10E000E000ED00E0CF
:1006400070B4446C04F01C05066C0124AC4074606A
:10065000046863608368102B05D0036899600368A1
:10066000DA6070BC704703689A600368D960F8E785
:10067000002869D010B403460168344A914245D835
:10068000334A0A443349A1FB021212099200426420
:10069000314A0264022283F825201868016821F497
:1006A000FF4121F070019A68DC6822431C692243F3
:1006B0005C6922439C692243DC6922431C6A224311
:1006C0000A4302609A68B2F5804F15D0196C224A2D
:1006D000914226D0214A1168586C00F01C040F206A
:1006E000A04021EA00011160116858685C6C04F0B8
:1006F0001C04A040014311600020D863012283F84C
:10070000252083F824005DF8044B7047144A0A44FE
:100710001049A1FB0212120992004264114A0264BC
:10072000B8E7A8321168586C00F01C040F20A040F4
:1007300021EA00011160116858685C6C04F01C0427
:10074000A04001431160D7E7012070470704024031
:10075000F8FFFDBFCDCCCCCC00000240A804024085
:10076000F8FBFDBF0004024038B590F82440012C8E
:1007700033D0012480F8244090F82540E4B2012CC5
:1007800004D0002380F82430022038BD0446022023
:1007900084F825000020E0632568286820F0010027
:1007A00028602046FFF74CFF236B5BB1226813687B
:1007B00043F00E0313602268136843F001031360D3
:1007C0000020E2E72268136823F004031360226824
:1007D000136843F00A031360EDE70220D5E738B54C
:1007E000036C196804682568436C03F01C03042239
:1007F0009A400A4215D015F0040F12D0236813F066
:10080000200F03D1236823F004032360436C03F01B
:100810001C02016C042393404B60036B03B19847A7
:1008200038BD02229A400A421CD015F0020F19D09E
:10083000236813F0200F06D1236823F00A032360F6
:10084000012380F82530436C03F01C02016C022365
:1008500093404B60002380F82430C36A002BDFD024
:100860009847DDE7082202FA03F30B42D8D015F0CF
:10087000080FD5D0236823F00E032360436C03F0E8
:100880001C03016C012202FA03F34B60C26380F87F
:100890002520002380F82430436B002BC0D09847DC
:1008A000BEE70000F0B482B0002336E0042400E08C
:1008B0000024B4403C4302355B4E46F825405B4C77
:1008C0002568D44304EA05064F6817F4803F01D039
:1008D00042EA0506554D2E606D6804EA05064F682C
:1008E00017F4003F01D042EA0506504D6E60AD6836
:1008F00004EA05064F6817F4801F01D042EA050696
:100900004A4DAE60ED682C404E6816F4001F01D0D1
:1009100042EA0504454AD46001330A6832FA03F416
:100920007ED001249C402240F6D04D68022D01D09B
:10093000122D10D1DE08083650F826C003F0070546
:10094000AF000F25BD402CEA050C0D69BD4045EAFE
:100950000C0540F8265006685F000325BD40ED43B6
:1009600005EA060C4E6806F00306BE4046EA0C0691
:1009700006604E6806F1FF3CBCF1010F03D9112E51
:1009800001D0122E10D1866805EA060CCE68BE4052
:1009900046EA0C068660466826EA04044E68C6F3FA
:1009A00000169E4026434660C46825408C68BC40C3
:1009B0002C43C4604C6814F0805FADD01C4C256E95
:1009C00045F001052566246E04F001040194019CA4
:1009D0009D08AE1C144C54F8267003F00304A600C6
:1009E0000F24B44027EA0407B0F1904F3FF460AF02
:1009F000104CA0420ED004F58064A0420CD004F547
:100A00008064A0420AD004F58064A0423FF44EAF57
:100A100007244EE701244CE702244AE7032448E771
:100A200002B0F0BC704700BF00000140000401406C
:100A300000100240000400480AB9816270478161D9
:100A40007047704708B5054B5B69034200D108BD8C
:100A5000024B5861FFF7F5FFF9E700BF00040140C2
:100A6000024B186800F4C060704700BF007000407F
:100A7000B0F5007F0FD01F4B1B6803F4C063B3F5C4
:100A8000806F34D01B4A136823F4C06343F480633F
:100A9000136000207047174B1B6803F4C063B3F565
:100AA000007F22D0134A136823F4C06343F4007319
:100AB0001360114B1A68322303FB02F30F4AA2FBA7
:100AC00003239B0C013300E0013B0A4A526912F4F4
:100AD000806F01D0002BF7D1064B5B6913F4806F58
:100AE00001D100207047032070470020704700208C
:100AF000704700BF007000401400002083DE1B43DD
:100B000030B583B00546204B9B6D13F0805F0BD052
:100B1000FFF7A6FFB0F5007F17D0802D1FD82DD08E
:100B2000702D2DD000211BE0174CA36D43F0805396
:100B3000A365A36D03F080530193019BFFF790FF22
:100B4000A36D23F08053A365E4E7802D03D9A02D86
:100B500003D9022104E0002102E0012100E0032189
:100B60000A4A136823F007030B431360136803F06A
:100B700007038B4206D0012003B030BD0221EFE70E
:100B80000121EDE70020F7E70010024000200240BD
:100B9000284A9368D26802F0030213F00C030AD0CB
:100BA0000C2B06D0042B1FD0082B20D0002002468F
:100BB00010E0012AF6D11F4A126812F0080F0CD17A
:100BC0001C4AD2F89420C2F303221B4951F8222078
:100BD00043B100200C2B0DD07047164A1268C2F3A7
:100BE0000312F2E71046F5E714480022F2E7144832
:100BF0000022EFE70F4BDB6803F00303022B15D055
:100C0000032B15D00B4BD868C0F302100130D96804
:100C1000C1F3062102FB01F2B2FBF0F2D868C0F387
:100C2000416001304000B2FBF0F0D5E7034AE9E74C
:100C3000034AE7E700100240E82900080024F40016
:100C400000127A00002800F00883F0B583B0044653
:100C5000AD4B9D6805F00C05DE6806F003060368E1
:100C600013F0100F5ED0E5B10C2D18D0A369002B46
:100C700000F0B880A44A136843F001031360FFF743
:100C80006FFC0746A04B1B6813F0020F40F09780E3
:100C9000FFF766FCC01B0228F4D90323E9E2012E0A
:100CA000E4D1994B1B6813F0020F03D0A369002B0A
:100CB00000F0D682206A944B1B6813F0080F5ED0B8
:100CC000914B1B6803F0F00398425FD9FFF718FFC0
:100CD000002840F0C7828C4B1A6842F008021A6064
:100CE0001A6822F0F002216A0A431A605A6822F454
:100CF0007F42E16942EA01225A60FFF749FF824BD5
:100D00009B68C3F30313814AD35C03F01F03D840ED
:100D10007F4B18607F4B1868FFF7DAFB034600280B
:100D200040F0A782236813F0010F7AD0082D6FD00E
:100D30000C2D6BD06368B3F5803F00F09180B3F564
:100D4000A02F00F09380704B1A6822F480321A6052
:100D50001A6822F480221A606368002B00F09380E6
:100D6000FFF7FEFB0746684B1B6813F4003F58D1A2
:100D7000FFF7F6FBC01B6428F5D9032379E2624B29
:100D8000D3F894301B0903F0F0039DE75E4B1A681B
:100D900042F008021A601A6822F0F002216A0A433F
:100DA0001A605A6822F47F42E16942EA01225A60DD
:100DB000206AFFF7A5FE00289FD0012359E2524B7D
:100DC0001A6842F008021A601A6822F0F002216ADA
:100DD0000A431A605A6822F47F42E16942EA01221A
:100DE0005A609FE7484A136823F001031360FFF736
:100DF000B7FB0746444B1B6813F0020F92D0FFF776
:100E0000AFFBC01B0228F5D9032332E2032E91D198
:100E10003D4B1B6813F4003F03D06368002B00F0C8
:100E20002382236813F0020F4FD0042D3CD00C2DE9
:100E300038D0E368002B78D0334A136843F48073CA
:100E40001360FFF78DFB06462F4B1B6813F4806F72
:100E500062D1FFF785FB801B0228F5D9032308E246
:100E6000294A136843F48033136075E703F1804324
:100E7000A3F53C331A6842F480221A601A6842F4DF
:100E800080321A6068E7FFF76BFB07461E4B1B6852
:100E900013F4003FC5D0FFF763FBC01B6428F5D9EE
:100EA0000323E6E1022EC4D1174B1B6813F4806FB5
:100EB00003D0E368002B00F0D981134A536823F074
:100EC000F853216943EA01635360236813F0080F64
:100ED00056D06369002B3CD00B4AD2F8943043F0D3
:100EE0000103C2F89430FFF73BFB0646064BD3F8EC
:100EF000943013F0020F43D1FFF732FB801B02281E
:100F0000F4D90323B5E100BF00100240182A0008FD
:100F10001400002004000020B64A536823F0F85360
:100F2000216943EA01635360CFE7B24A136823F4AF
:100F300080731360FFF714FB0646AE4B1B6813F477
:100F4000806FC2D0FFF70CFB801B0228F5D903236A
:100F50008FE1A84AD2F8943023F00103C2F894300C
:100F6000FFF7FEFA0646A34BD3F8943013F0020FB6
:100F700006D0FFF7F5FA801B0228F4D9032378E1A5
:100F8000236813F0040F7AD09A4B9B6D13F0805FA7
:100F90000BD1984B9A6D42F080529A659B6D03F08D
:100FA00080530193019B012600E00026924B1B68B1
:100FB00013F4807F26D0A368012B37D0052B3DD0BA
:100FC0008C4BD3F8902022F00102C3F89020D3F884
:100FD000902022F00402C3F89020A368002B3BD09D
:100FE000FFF7BEFA0746834BD3F8903013F0020F99
:100FF00044D1FFF7B5FAC01B41F288339842F2D9C9
:10100000032336E17C4A136843F480731360FFF7CF
:10101000A7FA0746784B1B6813F4807FCBD1FFF704
:101020009FFAC01B0228F5D9032322E1714AD2F8A6
:10103000903043F00103C2F89030CEE76D4BD3F807
:10104000902042F00402C3F89020D3F8902042F0A0
:101050000102C3F89020C0E7FFF782FA0746654B0C
:10106000D3F8903013F0020F08D0FFF779FAC01BC5
:1010700041F288339842F2D90323FAE0E6B92368B3
:1010800013F0200F35D0636AE3B15A4AD2F8983092
:1010900043F00103C2F89830FFF762FA0646554B59
:1010A000D3F8983013F0020F23D1FFF759FA801BC1
:1010B0000228F4D90323DCE04E4A936D23F08053D9
:1010C0009365DCE74B4AD2F8983023F00103C2F86D
:1010D0009830FFF745FA0646464BD3F8983013F0A0
:1010E000020F06D0FFF73CFA801B0228F4D9032335
:1010F000BFE0A36A002B00F0BB800C2D6FD0022B49
:1011000023D03C4B1A6822F080721A601B6813F0DF
:10111000006F04D1374AD36823F00303D360354A04
:10112000D36823F0887323F48033D360FFF718FA71
:101130000446304B1B6813F0007F4ED0FFF710FAC7
:10114000001B0228F5D9032393E02A4A136823F0F1
:1011500080731360FFF704FA0546264B1B6813F0F3
:10116000007F06D0FFF7FCF9401B0228F5D90323C6
:101170007FE0204AD36821491940E36A206B013897
:1011800043EA0013606B43EA0023E06B4008013838
:1011900043EA4053206C4008013843EA4063A06BA7
:1011A00043EAC0630B43D360136843F0807313605A
:1011B000D36843F08073D360FFF7D2F904460D4B38
:1011C0001B6813F0007F06D1FFF7CAF9001B022845
:1011D000F5D903234DE000234BE0002349E0012B28
:1011E0004AD0044BDB6803F00301E26A914207D066
:1011F00001233EE000100240007000408C809D0101
:1012000003F07002216B0139B2EB011F01D0012301
:101210002FE003F4FE42616BB2EB012F01D00123FA
:1012200027E003F07842A16BB2EBC16F01D001233C
:101230001FE003F4C001E26B5208013AB1EB425FD8
:1012400001D0012315E003F0C063226C5208013A7B
:10125000B3EB426F12D001230BE001231846704715
:10126000012306E0012304E0012302E0012300E062
:101270000023184603B0F0BD0123FAE70023F8E786
:10128000002800F09B8070B504464E4B1B6803F0AD
:1012900007038B420CD24B4A136823F007030B431E
:1012A0001360136803F007038B4201D0012070BD67
:1012B0000D46236813F0010F39D06368032B09D062
:1012C000022B26D063BB404A126812F0020F06D1EF
:1012D0000120ECE73C4A126812F0007F70D03A49D6
:1012E0008A6822F0030213438B60FFF739F9064640
:1012F000354B9B6803F00C036268B3EB820F16D08A
:10130000FFF72EF9801B41F288339842F0D9032071
:10131000CDE72D4A126812F4003FE0D10120C6E764
:10132000294A126812F4806FD9D10120BFE72368DF
:1013300013F0020F06D0244A936823F0F003A1684B
:101340000B4393601F4B1B6803F00703AB420CD9A0
:101350001C4A136823F007032B431360136803F040
:101360000703AB4201D00120A1E7236813F0040F6B
:1013700006D0154A936823F4E063E1680B43936059
:10138000236813F0080F07D00F4A936823F46053C3
:10139000216943EAC1039360FFF7FAFB0A4B9B689C
:1013A000C3F30313094AD35C03F01F03D840084B6F
:1013B0001860084B1868FFF78BF878E70120704732
:1013C000012074E70020024000100240182A0008A3
:1013D0001400002004000020014B1868704700BF73
:1013E0001400002008B5FFF7F7FF054B9B68C3F317
:1013F0000223044AD35C03F01F03D84008BD00BF9A
:1014000000100240282A000808B5FFF7E5FF054B49
:101410009B68C3F3C223044AD35C03F01F03D84084
:1014200008BD00BF00100240282A0008F8B5594B3B
:10143000DB6813F0030F18D0564BDB6803F003038F
:101440000268934202D001252846F8BD002A00F028
:101450009F80504BDB68C3F3021301334268934211
:1014600001D00125F0E700251AE00368022B58D0CF
:10147000032B5DD0012B01D001250FE0454A1268F6
:1014800012F0020F60D0434DEA6822F07302446804
:10149000013C43EA04131343EB600025002DD3D134
:1014A0000F4604463B4A136823F080631360FFF73E
:1014B00057F80646374B1B6813F0006F05D0FFF74F
:1014C0004FF8801B0228F5D90325002DBCD1002F31
:1014D0003CD130490B6923F0784323F4FE43A068E4
:1014E000E268D20642EA002213430B61294A1368DC
:1014F00043F080631360FFF733F80646254B1B6803
:1015000013F0006F05D1FFF72BF8801B0228F5D9E7
:101510000325002D98D11F4A1369A1690B4313615C
:1015200092E71C4A126812F4806FACD10125B5E72E
:10153000184A126812F4003FA5D1164A126812F434
:10154000802FA0D10125A9E70125A7E7012F0FD002
:101550001048026922F0C06222F4FE42A168636969
:101560005B08013B5B0643EA012313430361BDE7CC
:101570000848026922F4C00222F4FE42A1682369ED
:101580005B08013B5B0543EA012313430361ADE7BD
:10159000012559E7001002402DE9F04182B00446D0
:1015A000036813F4006F26D0436CB3F5000F06D028
:1015B000B3F5400F1DD09BB1012637461DE0BD4A53
:1015C000D36843F48033D3600027BA4AD2F8883016
:1015D00023F44003616C0B43C2F8883000260CE012
:1015E00000210430FFF722FF07460028EDD0064611
:1015F00003E00027E9E700263746236813F4003F9D
:101600006BD0AC4B9B6D13F0805F4CD1A94B9A6DA6
:1016100042F080529A659B6D03F080530193019BC9
:101620004FF00108A44A136843F480731360FEF777
:1016300097FF0546A04B1B6813F4807F05D1FEF78A
:101640008FFF401B0228F5D90327002F40D1994B6B
:10165000D3F8903013F4407315D0E26D9A4212D053
:10166000944AD2F8903023F44073D2F8901041F4A9
:101670008031C2F89010D2F8901021F48031C2F875
:101680009010C2F8903013F0010F0FD1002F40F0EE
:10169000F780884AD2F8903023F44073E16D0B4311
:1016A000C2F8903015E04FF00008BBE7FEF758FF96
:1016B0000546804BD3F8903013F0020FE6D1FEF7C9
:1016C0004FFF401B41F288339842F2D90327DDE7F0
:1016D0003E46B8F1000F40F0D580236813F0010FAB
:1016E00008D0744AD2F8883023F00303216A0B43F0
:1016F000C2F88830236813F0020F08D06D4AD2F880
:10170000883023F00C03616A0B43C2F888302368E9
:1017100013F0040F08D0674AD2F8883023F0300362
:10172000A16A0B43C2F88830236813F0200F08D059
:10173000604AD2F8883023F44063E16A0B43C2F870
:101740008830236813F4007F08D05A4AD2F88830D2
:1017500023F44023E16B0B43C2F88830236813F471
:10176000806F08D0534AD2F8883023F44013216C9C
:101770000B43C2F88830236813F0400F08D04D4A5D
:10178000D2F8883023F44053216B0B43C2F88830E1
:10179000236813F0800F08D0464AD2F8883023F42B
:1017A0004043616B0B43C2F88830236813F4807F99
:1017B00008D0404AD2F8883023F44033A16B0B4361
:1017C000C2F88830236813F4005F0FD0394AD2F88A
:1017D000883023F04063A16C0B43C2F88830A36CBF
:1017E000B3F1006F54D0B3F1806F56D0236813F477
:1017F000002F0FD02F4AD2F8883023F04063E16CDD
:101800000B43C2F88830E36CB3F1006F4DD0B3F1F5
:10181000806F53D0236813F4802F0FD0254AD2F85D
:10182000883023F04063216D0B43C2F88830236D6C
:10183000B3F1006F4AD0B3F1806F4CD0236813F43A
:10184000804F0CD01B4AD2F8883023F04053616D92
:101850000B43C2F88830636DB3F1805F43D02368D7
:1018600013F4004F08D0134AD2F8883023F0804395
:10187000A16D0B43C2F88830304602B0BDE8F0815C
:101880003E4626E70B4A936D23F08053936524E789
:10189000D36843F48013D360A8E70121201DFFF72C
:1018A000C5FD0028A2D00646A0E7D36843F4801304
:1018B000D360AFE700100240007000400121201DFE
:1018C000FFF7B4FD0028A5D00646A3E7D36843F48C
:1018D0008013D360B2E70121201DFFF7A7FD002888
:1018E000ACD00646AAE70221201DFFF79FFD002885
:1018F000B5D00646B3E700BFF8B505460F46164615
:101900001C462B689B6837EA03030CBF01230023A6
:10191000B34237D0B4F1FF3FF3D0FEF721FE069B70
:10192000C01AA04201D2002CEBD12A68536823F0E0
:10193000E00353606B68B3F5827F0BD0AB6AB3F5FD
:10194000005F14D0012385F85D30002385F85C30FA
:10195000032018E0AB68B3F5004F02D0B3F5806FF9
:10196000ECD12A68136823F040031360E6E72A6885
:10197000136823F4005313602A68136843F4005378
:101980001360DFE70020F8BDF8B507460C461546A2
:101990001E4602E0B6F1FF3F0BD13A689368234040
:1019A000AB423BD0B4F5C06FF4D1002DF2D1137B24
:1019B000F0E7FEF7D5FD069BC01AB04201D2002E1B
:1019C000EBD13A68536823F0E00353607B68B3F5CA
:1019D000827F0BD0BB6AB3F5005F14D0012387F878
:1019E0005D30002387F85C30032018E0BB68B3F556
:1019F000004F02D0B3F5806FECD13A68136823F042
:101A000040031360E6E73A68136823F40053136059
:101A10003A68136843F400531360DFE70020F8BD11
:101A200070B582B004460D46164600920B46002261
:101A30004FF4C051FFF7A8FFB8B900962B4600221B
:101A400080212046FFF758FFB8B900962B460022A8
:101A50004FF4C0612046FFF797FF034650B1236E55
:101A600043F020032366032304E0236E43F02003A6
:101A700023660323184602B070BD236E43F0200393
:101A800023660323F6E770B582B004460D4616467A
:101A90004368B3F5827F0FD000962B460022802149
:101AA0002046FFF729FF034698B96268B2F5827FA6
:101AB00015D0184602B070BD8368B3F5004F02D050
:101AC000B3F5806FE8D12268136823F040031360F8
:101AD000E2E7236E43F0200323660323E9E7A268CD
:101AE000B2F5004F02D0B2F5806FE2D100962B46DE
:101AF00000224FF4C0612046FFF746FF034600284E
:101B0000D7D0236E43F0200323660323D1E70028B8
:101B100053D010B504460023836290F85D30002B4B
:101B200040D0022384F85D302268136823F040031C
:101B30001360E368B3F5E06F39D90022B3F5706F35
:101B400004D0B3F5E06F01D00021A162216B21B96F
:101B5000B3F5E06F2ED9022323636368A1680B43BA
:101B600021690B4361690B43A16901F400710B43C7
:101B7000E1690B43216A0B43A06A216803430B60B0
:101B8000638B03F00403616A0B43616B0B43E168F1
:101B90000B43216813434B6000202066012384F827
:101BA0005D3010BD80F85C3000F08CFDB9E74FF47B
:101BB0008052C3E701232363CFE701207047000071
:101BC00038B590F85C40012C00F0F280044601200A
:101BD00084F85C0094F85D00C0B26568012810D0FC
:101BE000B5F5827F05D00223002284F85C201846D8
:101BF00038BDA568002D40F0D380042801D0022311
:101C0000F2E7002900F0CE80002A00F0CD80002B02
:101C100000F0CC8094F85D00C0B2042802D005200A
:101C200084F85D0000202066A163A387E387226417
:101C3000A4F84430A4F84630E06420652268536874
:101C400023F4C0435360E368B3F5E06F27D92268FB
:101C5000536823F48053536094F85D30DBB2042B57
:101C600064D0A36D534A1A63A36D534ADA62A36D1D
:101C7000524A5A63A36D00229A632168B4F8463031
:101C8000226C0C31A06DFEF76FFD002855D0236E3D
:101C900043F010032366012384F85D30A4E7226833
:101CA000536843F480535360636D9B69B3F5806F51
:101CB00019D0A36D9B69B3F5806FCDD122685368AD
:101CC00023F480535360B4F8463013F0010F21D150
:101CD0002268536823F400535360B4F846305B081D
:101CE000A4F84630B8E7A38F13F0010F08D122689B
:101CF000536823F480435360E38F5B08E387D8E79E
:101D00002268536843F480435360E38F5B080133D8
:101D1000E387CEE72268536843F400535360B4F876
:101D200046305B080133A4F8463095E7A36D244A9A
:101D30001A63A36D234ADA6299E72268536843F075
:101D400001035360626D00231363626DD362626DA1
:101D50005363626D93632268E38F0C32A16B606DF5
:101D6000FEF702FD034638B1236E43F010032366ED
:101D7000012384F85D3037E72268116811F0400FC5
:101D800003D1116841F04001116021684A6842F0B6
:101D900020024A6021684A6842F002024A6023E752
:101DA000022321E701231FE701231DE701231BE78E
:101DB00002231CE7D91D00085F1E0008E51D00086E
:101DC000CD1D0008071E00087047704708B5806ADF
:101DD000FFF7FBFF08BD704708B5806AFFF7FBFF00
:101DE00008BD704708B5806A0268536823F0030392
:101DF0005360036E43F010030366012380F85D30E7
:101E0000FFF7EFFF08BD38B50546846AFEF7A8FB6B
:101E10002B681B6813F0200F19D12268536823F038
:101E2000200353602268536823F003035360024683
:101E300064212046FFF727FE08B1202323660023F4
:101E4000A4F84630012384F85D30236E1BB9204688
:101E5000FFF7BAFF38BD2046FFF7C3FFFAE738B5F2
:101E60000546846AFEF77CFB2B681B6813F0200F85
:101E70001CD12268536823F020035360024664217A
:101E80002046FFF7CDFD18B1236E43F020032366F3
:101E90002268536823F0030353600023E387A4F808
:101EA0004630012384F85D30236E1BB9204600F0D4
:101EB00097FB38BD2046FFF794FFFAE72DE9F0487D
:101EC0000446016883680269134342691343C26987
:101ED000134308689E4A024013430B60226853680C
:101EE00023F44053E1680B435360A1692268994B86
:101EF0009A4201D0236A1943936823F430630B4359
:101F000093602368944A93421FD0944A934230D0FE
:101F1000934A934246D08F4A934259D010258D4A16
:101F2000934276D0E369B3F5004F00F0ED80082DC1
:101F300000F28981DFE815F049015F01690187013D
:101F400074018701870187017E0102F55842D2F8AA
:101F5000882002F00302032A09D8DFE802F0020415
:101F600052060125DBE70425D9E70825D7E7102528
:101F7000D5E702F5E632D2F8882002F00C020C2AEE
:101F80000ED8DFE802F0070D0D0D090D0D0D400D07
:101F90000D0D0B000025C2E70425C0E70825BEE7AC
:101FA0001025BCE702F5E432D2F8882002F03002B6
:101FB000102A09D005D9202A27D0302A06D1082591
:101FC000ADE71AB90025AAE70425A8E71025A6E77A
:101FD00002F5C832D2F8882002F44062B2F5806F70
:101FE0000BD007D9B2F5006F11D0B2F5406F06D112
:101FF000082594E71AB9002591E704258FE71025F5
:102000008DE702258BE7022589E7022587E7022570
:1020100085E7082D00F21A81DFE815F00C001801A1
:1020200014001801110018011801180109004FF4DB
:10203000004008E0FFF7D6F928B90020D6E0FEF707
:10204000A7FDF9E74748626802EB4203834200F2CA
:10205000FF80B0EB023F00F2FD80082D51D8DFE891
:1020600005F005502050305050504300FFF7BAF9AA
:102070000025070E0602626850082B4616EB000B7F
:1020800047F1000C58466146FEF7A2F80346284681
:10209000A3F54071344A914200F2DE802268D36099
:1020A000A4E0560800252B46DFF8C0B04FF0000C26
:1020B0001BEB06004CF10001FEF78AF803462846A8
:1020C000E6E7FEF765FD0025070E06026268500888
:1020D0002B4616EB000B47F1000C58466146FEF705
:1020E00077F803462846D3E75008002700252B46FB
:1020F00010F5000047F10001FEF76AF80346284694
:10210000C6E701200023C3E7082D5BD8DFE805F010
:1021100005303B5A465A5A5A5100FFF763F9626834
:10212000530803EB4003B3FBF2F39BB20020A3F18F
:1021300010014FF6EF72914200F290809AB222F0B5
:102140000F02C3F3420313432268D3604EE000BF83
:10215000F369FFEF00800040003801400044004078
:10216000004800400024F400FFFC0F00000024F4AD
:10217000FFF74AF96268530803EB4003B3FBF2F33D
:102180009BB20020D3E76268530803F1F47303F5B0
:102190009043B3FBF2F39BB20020C8E7FEF7F8FCD4
:1021A0006268530803EB4003B3FBF2F39BB20020D9
:1021B000BDE76268530803F58033B3FBF2F39BB2CB
:1021C0000020B4E701200023B1E7FFF70BF96368B3
:1021D00000EB5302B2FBF3F292B20020A2F1100125
:1021E0004FF6EF7399423BD82368DA6000222266EB
:1021F0006266BDE8F088FFF707F9636800EB5302F9
:10220000B2FBF3F292B20020E8E763685A0802F5E5
:10221000740202F51052B2FBF3F292B20020DDE735
:10222000FEF7B6FC636800EB5302B2FBF3F292B226
:102230000020D3E763685A0802F50042B2FBF3F2CC
:1022400092B20020CAE701200022C7E70120CDE7B3
:102250000120CBE70120C9E70120C7E70120C5E73E
:102260000120C3E7436A13F0010F06D002685368E8
:1022700023F40033816A0B435360436A13F0020F67
:1022800006D00268536823F48033C16A0B4353605D
:10229000436A13F0040F06D00268536823F48023C6
:1022A000016B0B435360436A13F0080F06D00268BA
:1022B000536823F40043416B0B435360436A13F0AC
:1022C000100F06D00268936823F48053816B0B4390
:1022D0009360436A13F0200F06D00268936823F4DA
:1022E0000053C16B0B439360436A13F0400F0AD055
:1022F0000268536823F48013016C0B435360036C32
:10230000B3F5801F0BD0436A13F0800F06D002682C
:10231000536823F40023816C0B43536070470268B9
:10232000536823F4C003416C0B435360EBE72DE982
:10233000F04105460F4616469846069C2B68DB6919
:1023400037EA03030CBF01230023B3421CD1B4F1CD
:10235000FF3FF3D0FEF704F9A0EB0800A04201D83C
:10236000002CEBD12A68136823F4D07313602A6819
:10237000936823F00103936020236B67AB6700230E
:1023800085F87030032000E00020BDE8F08130B512
:1023900083B004460023C367FEF7E2F805462368CE
:1023A0001B6813F0080F0CD123681B6813F0040F8F
:1023B00015D120236367A367002084F8700003B061
:1023C00030BD6FF07E430093034600224FF40011AE
:1023D0002046FFF7ACFF0028E6D00320EFE76FF0C0
:1023E0007E4300932B4600224FF480012046FFF7E6
:1023F0009EFF0028DDD00320E1E768B310B5044656
:10240000436F03B3242363672268136823F0010337
:1024100013602046FFF752FD012813D0636ABBB951
:102420002268536823F4904353602268936823F032
:102430002A0393602268136843F001031360204667
:10244000FFF7A5FF10BD80F8703000F0A7F9D9E7BD
:102450002046FFF707FFE3E70120704730B589B05A
:10246000002403940494059406940794204BDA6C9A
:1024700042F00102DA64DA6C02F001020192019A80
:10248000DA6C42F00202DA64DB6C03F002030293BE
:10249000029B01224FF400614FF09040FEF7CCFA0E
:1024A00003250395134B0493059403A94FF0904023
:1024B000FEF7F8F94FF400630393012304930594A6
:1024C000069503A94FF09040FEF7ECF9224621460D
:1024D0000620FEF75DF80620FEF78EF8224621461C
:1024E0000720FEF755F80720FEF786F809B030BD43
:1024F000001002400000111000B583B01A4B9A6C16
:1025000042F001029A649A6C02F001020092009A71
:102510009A6C42F002029A649B6C03F002030193EE
:10252000019B002211460E20FEF732F80E20FEF726
:1025300063F8002211460F20FEF72AF80F20FEF75D
:102540005BF8002211464420FEF722F84420FEF7F3
:1025500053F8002211464520FEF71AF84520FEF7F1
:102560004BF803B05DF804FB0010024008B50E48BC
:102570000E4B03604FF482734360002383604FF47B
:10258000E062C260036143614FF400728261202205
:10259000C2610362436283620722C262036308234B
:1025A0004363FFF7B4FA08BD3C0000200038004048
:1025B00008B50948094B03604FF4E1334360002339
:1025C0008360C36003610C2242618361C361036263
:1025D0004362FFF712FF08BD900100200038014060
:1025E000FEE730B5AFB0242200211EA800F0E8F9C4
:1025F0000024189419941A941B941C946022214668
:10260000684600F0DDF902231D934FF4807220929A
:102610001022219227932893012529950A222A9294
:1026200007222B922C932D931DA8FEF70BFB0F2353
:102630001893032319931A941B941C94042118A82B
:10264000FEF71EFE009508946846FEF7A5FF4FF4BE
:102650000070FEF70DFA2FB030BD000008B5FDF791
:102660005DFFFFF7BEFFFFF7F9FEFFF745FFFFF73E
:102670007DFFFFF79DFF0A23024A03490348FFF746
:102680009FFAFEE7F0000020080000203C00002038
:102690007047000082B00A4B1A6E42F001021A66BF
:1026A0001A6E02F001020092009A9A6D42F0805276
:1026B0009A659B6D03F080530193019B02B07047B4
:1026C0000010024010B588B00023039304930593D3
:1026D0000693079302682B4B9A4201D008B010BDB5
:1026E000044603F5EC339A6D42F480429A659A6D84
:1026F00002F480420192019ADA6C42F00202DA643A
:10270000DB6C03F002030293029B4FF460430393DC
:1027100002230493032306930523079303A91A486E
:10272000FEF7C0F819481A4B0360012343601023D9
:1027300083600023C3608022026143618361C361BF
:102740000362FDF795FFB8B9104B63659C621148B1
:10275000114B03600123436000238360C360802228
:10276000026143618361C3610362FDF781FF30B998
:10277000084BA3659C62B1E7FFF78AFFE4E7FFF728
:1027800087FFF5E700380040000400481C020020E5
:1027900058000240A40000204400024030B589B037
:1027A00000230393049305930693079302682B4B2E
:1027B0009A4201D009B030BD044603F558431A6E61
:1027C00042F480421A661A6E02F480420192019A23
:1027D000DA6C42F00102DA64DB6C03F0010302936D
:1027E000029B4FF4C06303930225049503230693D1
:1027F0000723079303A94FF09040FEF753F81848BA
:10280000184B0360456000238360C360802202612F
:1028100043618361C3610362FDF72AFFC0B9104BB6
:10282000E3669C621048114B03600223436010234F
:1028300083600023C3608022026143618361C361BE
:102840000362FDF715FF30B9074BA3669C62B1E741
:10285000FFF71EFFE3E7FFF71BFFF5E70038014036
:102860004801002080040240FC0000206C0402406B
:102870007047FEE7FEE7FEE7FEE7704770477047E8
:1028800008B5FDF761FE08BD08B50120FEF7DAF8CE
:1028900008BD08B50220FEF7D5F808BD08B5024806
:1028A000FDF79DFF08BD00BFA400002008B5024849
:1028B000FDF795FF08BD00BF1C02002008B50248C7
:1028C000FDF78DFF08BD00BFFC00002008B50248E1
:1028D000FDF785FF08BD00BF480100200F49D1F872
:1028E000883043F47003C1F888300D4B1A6842F009
:1028F00001021A60002098601A6822F0A85222F49F
:1029000010221A604FF48052DA601A6822F4802292
:102910001A6098614FF000638B60704700ED00E033
:1029200000100240DFF834D0002103E00C4B5B586C
:10293000435004310B480C4B42189A42F6D30B4AD1
:1029400002E0002342F8043B094B9A42F9D3FFF717
:10295000C5FF00F011F8FFF781FEFEE7000001203F
:10296000482A00080000002018000020180000205D
:102970006C020020FEE7000070B50D4E0D4CA41B4C
:10298000A4100025A54209D10B4E0C4C00F020F8F4
:10299000A41BA4100025A54205D170BD56F8253012
:1029A00098470135EEE756F8253098470135F2E7AC
:1029B000382A0008382A0008382A00083C2A00086B
:1029C00002440346934200D1704703F8011BF9E724
:1029D000F8B500BFF8BC08BC9E467047F8B500BF0C
:0829E000F8BC08BC9E467047DC
:1029E800A0860100400D0300801A060000350C0087
:1029F80040420F0080841E0000093D0000127A004A
:102A08000024F40000366E010048E801006CDC0286
:102A18000000000000000000010203040607080986
:082A280000000000010203049C
:082A3000D0D7FF7F0100000078
:082A3800B501000800000000D8
:082A40009101000800000000F4
:102A48000100000010000000000102030405060751
:082A58000809000000093D001F
:0400000508002925A1
:00000001FF
