:020000040800F2
:100000000000012079310008693000086B300008D9
:100010006D3000086F3000087130000800000000EB
:100020000000000000000000000000007330000825
:1000300075300008000000007730000879300008B3
:10004000C9310008C9310008C9310008C9310008A8
:10005000C9310008C9310008813000088B30000820
:10006000C9310008C9310008C9310008C931000888
:10007000C9310008C931000895300008A5300008D2
:10008000B5300008C5300008C9310008C931000882
:10009000C9310008C9310008C9310008C931000858
:1000A000C9310008C9310008C9310008C931000848
:1000B000C93100080000000000000000C93100083C
:1000C000C9310008C9310008C9310008C931000828
:1000D000C9310008C9310008C9310008C931000818
:1000E000C9310008C931000800000000000000000C
:1000F0000000000000000000000000000000000000
:1001000000000000C931000800000000C9310008EB
:100110000000000000000000C9310008C9310008DB
:10012000C9310008C9310008C9310008C9310008C7
:10013000C9310008000000000000000000000000BD
:10014000C9310008C9310008C9310008C9310008A7
:10015000D5300008E5300008C9310008C931000871
:10016000C9310008C9310008C93100080000000089
:10017000C9310008C9310008C93100080000000079
:10018000C9310008C9310008C93100080000000069
:1001900010B5054C237833B9044B13B10448AFF3C1
:1001A00000800123237010BD7000002000000000BB
:1001B0003C3A000808B5034B1BB103490348AFF3B1
:1001C000008008BD00000000740000203C3A0008D8
:1001D00053B94AB9002908BF00281CBF4FF0FF31AE
:1001E0004FF0FF3000F072B9ADF1080C6DE904CEAC
:1001F00000F006F8DDF804E0DDE9022304B0704702
:100200002DE9F047089E04468846002B4BD18A42D0
:10021000154667D9B2FA82F24AB1C2F1200701FA53
:1002200002F320FA07F7954047EA030894404FEAA3
:10023000154E230CB8FBFEF71FFA85FC0EFB178842
:1002400043EA084307FB0CF1994209D9EB1807F17F
:10025000FF3080F01B81994240F21881023F2B440D
:100260005B1AA4B2B3FBFEF00EFB103344EA034466
:1002700000FB0CFCA44509D92C1900F1FF3380F0D8
:100280000781A44540F2048102382C4440EA07402B
:10029000A4EB0C0400271EB1D4400023C6E90043A0
:1002A0003946BDE8F0878B4209D9002E00F0EB807B
:1002B0000027C6E9000138463946BDE8F087B3FAA1
:1002C00083F7002F47D18B4202D3824200F2FA809B
:1002D000841A61EB030301209846002EE0D0C6E9A2
:1002E0000048DDE702B9FFDEB2FA82F2002A40F0F0
:1002F0008F80491B4FEA154E1FFA85F80127B1FB85
:10030000FEFC230C0EFB1C1143EA014308FB0CF11D
:10031000994207D9EB180CF1FF3002D2994200F252
:10032000CD808446591AA3B2B1FBFEF00EFB101427
:1003300043EA044408FB00F8A04507D92C1900F152
:10034000FF3302D2A04500F2B6801846A4EB0804A1
:1003500040EA0C409FE7C7F1200CBB4022FA0CFE9C
:100360004EEA030E01FA07F420FA0CF521FA0CF319
:100370004FEA1E482543B3FBF8F92C0C08FB193350
:100380001FFA8EFA44EA034309FB0AF49C4202FA7C
:1003900007F200FA07F10BD91EEB030309F1FF3056
:1003A00080F087809C4240F28480A9F10209734466
:1003B0001B1BADB2B3FBF8F008FB103345EA034456
:1003C00000FB0AFAA24508D91EEB040400F1FF3332
:1003D0006BD2A24569D90238744440EA0940A0FBB7
:1003E0000289A4EB0A044C45C2464B4654D351D073
:1003F000002E69D0B1EB0A0564EB030404FA0CFC8F
:10040000FD40FC404CEA0505C6E90054002747E7DB
:10041000C2F1200320FA03F7954001FA02F021FA15
:1004200003F34FEA154E3843010CB3FBFEF71FFAF6
:1004300085F80EFB173341EA034107FB08F38B42B3
:1004400004FA02F407D9691807F1FF3C2FD28B4256
:100450002DD9023F2944CB1A81B2B3FBFEF00EFB2B
:10046000103341EA034100FB08F38B4207D96918B6
:1004700000F1FF3C17D28B4215D902382944C91A22
:1004800040EA07473BE73746304609E70746E7E6D5
:100490001846FBE64145ABD2B8EB020A69EB0E0207
:1004A00001381346A4E76046E9E7184695E7674632
:1004B000D1E781467CE702382C4447E7ACF1020CD7
:1004C0002B442FE7384608E73746E9E6704700BF78
:1004D000034613F8012B002AFBD1181A0138704784
:1004E00001F0FF01102A2BDB10F0070F08D010F8E5
:1004F000013B013A8B422DD010F0070F42B3F6D1E9
:10050000F0B441EA012141EA014122F007047FF001
:1005100000070023F0E80256083C85EA010586EA58
:10052000010685FA47F5A3FA87F586FA47F6A5FA94
:1005300087F68EB9EED1F0BC01F0FF0102F00702A0
:1005400032B110F8013B013A83EA010313B1F8D14B
:100550000020704701387047002D06BF354603382C
:10056000073815F0010F07D1013015F4807F02BF65
:10057000013015F4C03F0130F0BC0138704700BFB6
:10058000104B1B680BB90120704710B504464FF49F
:100590007A70B0FBF3F30C4A1068B0FBF3F000F094
:1005A000B7F868B90F2C01D901200AE000222146D2
:1005B0004FF0FF3000F058F8024B5C60002000E084
:1005C000012010BD000000200800002010B5094ADD
:1005D000136843F480731360032000F033F80020A5
:1005E000FFF7CEFF10B10124204610BD044602F0F3
:1005F000EDFBF9E700200240034A1368034909684C
:100600000B441360704700BFA800002000000020CA
:10061000014B1868704700BFA800002038B5044699
:10062000FFF7F6FF0546B4F1FF3F02D0044B1B680D
:100630001C44FFF7EDFF401BA042FAD338BD00BFBA
:1006400000000020074AD36823F4E0631B041B0C5E
:10065000000200F4E060184340F0BF6040F4003056
:10066000D060704700ED00E030B4174BDB68C3F397
:100670000223C3F10704042C28BF04241D1D062DEA
:1006800018D9033B4FF0FF3505FA04F421EA0401C1
:10069000994005FA03F322EA0303194300280BDB10
:1006A0000901C9B200F1604000F5614080F8001313
:1006B00030BC70470023E5E700F00F000901C9B224
:1006C000024B1954F4E700BF00ED00E014ED00E028
:1006D000002807DB00F01F02400901239340024A73
:1006E00042F82030704700BF00E100E000280CDB3A
:1006F00000F01F024009012393402030034A42F8D2
:100700002030BFF34F8FBFF36F8F704700E100E0E1
:100710000138B0F1807F0AD2064B5860064AF021BA
:1007200082F823100020986007221A607047012089
:10073000704700BF10E000E000ED00E070B4446CD2
:1007400004F01C05066C0124AC407460046863600E
:100750008368102B05D0036899600368DA6070BC69
:10076000704703689A600368D960F8E7002869D089
:1007700010B403460168344A914245D8334A0A44CA
:100780003349A1FB0212120992004264314A026409
:10079000022283F825201868016821F4FF4121F026
:1007A00070019A68DC6822431C6922435C69224319
:1007B0009C692243DC6922431C6A22430A4302608B
:1007C0009A68B2F5804F15D0196C224A914226D012
:1007D000214A1168586C00F01C040F20A04021EA47
:1007E00000011160116858685C6C04F01C04A040A2
:1007F000014311600020D863012283F8252083F88B
:1008000024005DF8044B7047144A0A441049A1FBC8
:100810000212120992004264114A0264B8E7A83237
:100820001168586C00F01C040F20A04021EA000160
:100830001160116858685C6C04F01C04A04001430E
:100840001160D7E70120704707040240F8FFFDBFA1
:10085000CDCCCCCC00000240A8040240F8FBFDBF88
:100860000004024038B590F82440012C33D0012414
:1008700080F8244090F82540E4B2012C04D00023F5
:1008800080F82430022038BD0446022084F8250078
:100890000020E0632568286820F0010028602046D9
:1008A000FFF74CFF236B5BB12268136843F00E0324
:1008B00013602268136843F0010313600020E2E72D
:1008C0002268136823F0040313602268136843F05E
:1008D0000A031360EDE70220D5E738B5036C196809
:1008E00004682568436C03F01C0304229A400A4202
:1008F00015D015F0040F12D0236813F0200F03D188
:10090000236823F004032360436C03F01C02016C92
:10091000042393404B60036B03B1984738BD022218
:100920009A400A421CD015F0020F19D0236813F028
:10093000200F06D1236823F00A032360012380F8E7
:100940002530436C03F01C02016C022393404B6082
:10095000002380F82430C36A002BDFD09847DDE7FE
:10096000082202FA03F30B42D8D015F0080FD5D0B5
:10097000236823F00E032360436C03F01C03016C17
:10098000012202FA03F34B60C26380F825200023A2
:1009900080F82430436B002BC0D09847BEE700009E
:1009A000F0B482B0002336E0042400E00024B44018
:1009B0003C4302355B4E46F825405B4C2568D443EA
:1009C00004EA05064F6817F4803F01D042EA0506A5
:1009D000554D2E606D6804EA05064F6817F4003F18
:1009E00001D042EA0506504D6E60AD6804EA050686
:1009F0004F6817F4801F01D042EA05064A4DAE60E9
:100A0000ED682C404E6816F4001F01D042EA050440
:100A1000454AD46001330A6832FA03F47ED00124D7
:100A20009C402240F6D04D68022D01D0122D10D1ED
:100A3000DE08083650F826C003F00705AF000F2582
:100A4000BD402CEA050C0D69BD4045EA0C0540F897
:100A5000265006685F000325BD40ED4305EA060CFD
:100A60004E6806F00306BE4046EA0C0606604E6875
:100A700006F1FF3CBCF1010F03D9112E01D0122E5B
:100A800010D1866805EA060CCE68BE4046EA0C0620
:100A90008660466826EA04044E68C6F300169E4047
:100AA00026434660C46825408C68BC402C43C46023
:100AB0004C6814F0805FADD01C4C256E45F00105EC
:100AC0002566246E04F001040194019C9D08AE1C6F
:100AD000144C54F8267003F00304A6000F24B4400D
:100AE00027EA0407B0F1904F3FF460AF104CA042EA
:100AF0000ED004F58064A0420CD004F58064A042BE
:100B00000AD004F58064A0423FF44EAF07244EE7BC
:100B100001244CE702244AE7032448E702B0F0BC72
:100B2000704700BF00000140000401400010024077
:100B3000000400480369194201D1002070470120D8
:100B400070470AB9816270478161704708B5054BEB
:100B50005B69034200D108BD024B586102F052F8B4
:100B6000F9E700BF00040140024B186800F4C060C0
:100B7000704700BF00700040B0F5007F0FD01F4BE2
:100B80001B6803F4C063B3F5806F34D01B4A13684D
:100B900023F4C06343F48063136000207047174B55
:100BA0001B6803F4C063B3F5007F22D0134A1368B7
:100BB00023F4C06343F400731360114B1A683223AB
:100BC00003FB02F30F4AA2FB03239B0C013300E05B
:100BD000013B0A4A526912F4806F01D0002BF7D111
:100BE000064B5B6913F4806F01D10020704703202E
:100BF0007047002070470020704700BF0070004021
:100C00000800002083DE1B4330B583B00546204B2F
:100C10009B6D13F0805F0BD0FFF7A6FFB0F5007F50
:100C200017D0802D1FD82DD0702D2DD000211BE086
:100C3000174CA36D43F08053A365A36D03F080535D
:100C40000193019BFFF790FFA36D23F08053A365F1
:100C5000E4E7802D03D9A02D03D9022104E000216F
:100C600002E0012100E003210A4A136823F0070390
:100C70000B431360136803F007038B4206D0012077
:100C800003B030BD0221EFE70121EDE70020F7E7D7
:100C90000010024000200240284A9368D26802F007
:100CA000030213F00C030AD00C2B06D0042B1FD028
:100CB000082B20D00020024610E0012AF6D11F4A5E
:100CC000126812F0080F0CD11C4AD2F89420C2F31B
:100CD00003221B4951F8222043B100200C2B0DD0D8
:100CE0007047164A1268C2F30312F2E71046F5E79E
:100CF00014480022F2E714480022EFE70F4BDB68AC
:100D000003F00303022B15D0032B15D00B4BD8682F
:100D1000C0F302100130D968C1F3062102FB01F2D1
:100D2000B2FBF0F2D868C0F3416001304000B2FB82
:100D3000F0F0D5E7034AE9E7034AE7E7001002408D
:100D4000583A00080024F40000127A00002800F04D
:100D50000883F0B583B00446AD4B9D6805F00C05E3
:100D6000DE6806F00306036813F0100F5ED0E5B1ED
:100D70000C2D18D0A369002B00F0B880A44A13688A
:100D800043F001031360FFF743FC0746A04B1B68C9
:100D900013F0020F40F09780FFF73AFCC01B0228C7
:100DA000F4D90323E9E2012EE4D1994B1B6813F037
:100DB000020F03D0A369002B00F0D682206A944B67
:100DC0001B6813F0080F5ED0914B1B6803F0F00313
:100DD00098425FD9FFF718FF002840F0C7828C4B7C
:100DE0001A6842F008021A601A6822F0F002216ABA
:100DF0000A431A605A6822F47F42E16942EA0122FA
:100E00005A60FFF749FF824B9B68C3F30313814A83
:100E1000D35C03F01F03D8407F4B18607F4B1868EA
:100E2000FFF7AEFB0346002840F0A782236813F0CB
:100E3000010F7AD0082D6FD00C2D6BD06368B3F5FD
:100E4000803F00F09180B3F5A02F00F09380704BAD
:100E50001A6822F480321A601A6822F480221A601A
:100E60006368002B00F09380FFF7D2FB0746684BC6
:100E70001B6813F4003F58D1FFF7CAFBC01B64285E
:100E8000F5D9032379E2624BD3F894301B0903F0C0
:100E9000F0039DE75E4B1A6842F008021A601A6878
:100EA00022F0F002216A0A431A605A6822F47F4253
:100EB000E16942EA01225A60206AFFF7A5FE002894
:100EC0009FD0012359E2524B1A6842F008021A607F
:100ED0001A6822F0F002216A0A431A605A6822F462
:100EE0007F42E16942EA01225A609FE7484A13685B
:100EF00023F001031360FFF78BFB0746444B1B688D
:100F000013F0020F92D0FFF783FBC01B0228F5D924
:100F1000032332E2032E91D13D4B1B6813F4003FB3
:100F200003D06368002B00F02382236813F0020FC4
:100F30004FD0042D3CD00C2D38D0E368002B78D056
:100F4000334A136843F480731360FFF761FB06466E
:100F50002F4B1B6813F4806F62D1FFF759FB801B86
:100F60000228F5D9032308E2294A136843F48033A1
:100F7000136075E703F18043A3F53C331A6842F42C
:100F800080221A601A6842F480321A6068E7FFF71C
:100F90003FFB07461E4B1B6813F4003FC5D0FFF70D
:100FA00037FBC01B6428F5D90323E6E1022EC4D128
:100FB000174B1B6813F4806F03D0E368002B00F01D
:100FC000D981134A536823F0F853216943EA016336
:100FD0005360236813F0080F56D06369002B3CD090
:100FE0000B4AD2F8943043F00103C2F89430FFF773
:100FF0000FFB0646064BD3F8943013F0020F43D193
:10100000FFF706FB801B0228F4D90323B5E100BFDC
:1010100000100240883A0008080000200400002068
:10102000B64A536823F0F853216943EA01635360D9
:10103000CFE7B24A136823F480731360FFF7E8FA2E
:101040000646AE4B1B6813F4806FC2D0FFF7E0FA80
:10105000801B0228F5D903238FE1A84AD2F89430E7
:1010600023F00103C2F89430FFF7D2FA0646A34BEF
:10107000D3F8943013F0020F06D0FFF7C9FA801BA3
:101080000228F4D9032378E1236813F0040F7AD0FF
:101090009A4B9B6D13F0805F0BD1984B9A6D42F089
:1010A00080529A659B6D03F080530193019B01264A
:1010B00000E00026924B1B6813F4807F26D0A368C3
:1010C000012B37D0052B3DD08C4BD3F8902022F04C
:1010D0000102C3F89020D3F8902022F00402C3F854
:1010E0009020A368002B3BD0FFF792FA0746834B72
:1010F000D3F8903013F0020F44D1FFF789FAC01BE8
:1011000041F288339842F2D9032336E17C4A1368CE
:1011100043F480731360FFF77BFA0746784B1B6834
:1011200013F4807FCBD1FFF773FAC01B0228F5D9E7
:10113000032322E1714AD2F8903043F00103C2F850
:101140009030CEE76D4BD3F8902042F00402C3F804
:101150009020D3F8902042F00102C3F89020C0E71D
:10116000FFF756FA0746654BD3F8903013F0020F9D
:1011700008D0FFF74DFAC01B41F288339842F2D9EC
:101180000323FAE0E6B9236813F0200F35D0636A31
:10119000E3B15A4AD2F8983043F00103C2F89830CC
:1011A000FFF736FA0646554BD3F8983013F0020F86
:1011B00023D1FFF72DFA801B0228F4D90323DCE0AA
:1011C0004E4A936D23F080539365DCE74B4AD2F887
:1011D000983023F00103C2F89830FFF719FA064659
:1011E000464BD3F8983013F0020F06D0FFF710FAF1
:1011F000801B0228F4D90323BFE0A36A002B00F070
:10120000BB800C2D6FD0022B23D03C4B1A6822F0F0
:1012100080721A601B6813F0006F04D1374AD368DC
:1012200023F00303D360354AD36823F0887323F493
:101230008033D360FFF7ECF90446304B1B6813F0A2
:10124000007F4ED0FFF7E4F9001B0228F5D90323F5
:1012500093E02A4A136823F080731360FFF7D8F9EC
:101260000546264B1B6813F0007F06D0FFF7D0F928
:10127000401B0228F5D903237FE0204AD368214987
:101280001940E36A206B013843EA0013606B43EABC
:101290000023E06B4008013843EA4053206C4008CB
:1012A000013843EA4063A06B43EAC0630B43D36059
:1012B000136843F080731360D36843F08073D36086
:1012C000FFF7A6F904460D4B1B6813F0007F06D10B
:1012D000FFF79EF9001B0228F5D903234DE00023F8
:1012E0004BE0002349E0012B4AD0044BDB6803F0BC
:1012F0000301E26A914207D001233EE00010024060
:10130000007000408C809D0103F07002216B013958
:10131000B2EB011F01D001232FE003F4FE42616B09
:10132000B2EB012F01D0012327E003F07842A16B3B
:10133000B2EBC16F01D001231FE003F4C001E26BE7
:101340005208013AB1EB425F01D0012315E003F0EE
:10135000C063226C5208013AB3EB426F12D00123F2
:101360000BE0012318467047012306E0012304E047
:10137000012302E0012300E00023184603B0F0BD82
:101380000123FAE70023F8E7002800F09B8070B5FE
:1013900004464E4B1B6803F007038B420CD24B4AAA
:1013A000136823F007030B431360136803F007036C
:1013B0008B4201D0012070BD0D46236813F0010F50
:1013C00039D06368032B09D0022B26D063BB404A77
:1013D000126812F0020F06D10120ECE73C4A1268B5
:1013E00012F0007F70D03A498A6822F0030213435A
:1013F0008B60FFF70DF90646354B9B6803F00C0335
:101400006268B3EB820F16D0FFF702F9801B41F23E
:1014100088339842F0D90320CDE72D4A126812F4A0
:10142000003FE0D10120C6E7294A126812F4806F1C
:10143000D9D10120BFE7236813F0020F06D0244A58
:10144000936823F0F003A1680B4393601F4B1B6864
:1014500003F00703AB420CD91C4A136823F00703BF
:101460002B431360136803F00703AB4201D0012044
:10147000A1E7236813F0040F06D0154A936823F4FC
:10148000E063E1680B439360236813F0080F07D013
:101490000F4A936823F46053216943EAC1039360C0
:1014A000FFF7FAFB0A4B9B68C3F30313094AD35CAB
:1014B00003F01F03D840084B1860084B1868FFF76B
:1014C0005FF878E701207047012074E700200240B0
:1014D00000100240883A00080800002004000020A4
:1014E000014B1868704700BF0800002008B5FFF7DF
:1014F000F7FF054B9B68C3F30223044AD35C03F058
:101500001F03D84008BD00BF00100240983A0008F1
:1015100008B5FFF7E5FF054B9B68C3F3C223044AF8
:10152000D35C03F01F03D84008BD00BF0010024089
:10153000983A0008F8B5594BDB6813F0030F18D040
:10154000564BDB6803F003030268934202D0012587
:101550002846F8BD002A00F09F80504BDB68C3F39B
:10156000021301334268934201D00125F0E70025C0
:101570001AE00368022B58D0032B5DD0012B01D059
:1015800001250FE0454A126812F0020F60D0434D6A
:10159000EA6822F073024468013C43EA04131343EF
:1015A000EB600025002DD3D10F4604463B4A13685B
:1015B00023F080631360FFF72BF80646374B1B6858
:1015C00013F0006F05D0FFF723F8801B0228F5D930
:1015D0000325002DBCD1002F3CD130490B6923F0ED
:1015E000784323F4FE43A068E268D20642EA002270
:1015F00013430B61294A136843F080631360FFF7BC
:1016000007F80646254B1B6813F0006F05D1FEF75F
:10161000FFFF801B0228F5D90325002D98D11F4A12
:101620001369A1690B43136192E71C4A126812F413
:10163000806FACD10125B5E7184A126812F4003F5B
:10164000A5D1164A126812F4802FA0D10125A9E76E
:101650000125A7E7012F0FD01048026922F0C062D0
:1016600022F4FE42A16863695B08013B5B0643EA22
:10167000012313430361BDE70848026922F4C00255
:1016800022F4FE42A16823695B08013B5B0543EA43
:10169000012313430361ADE7012559E70010024020
:1016A0002DE9F04182B00446036813F4006F26D0A0
:1016B000436CB3F5000F06D0B3F5400F1DD09BB1BE
:1016C000012637461DE0BD4AD36843F48033D3601A
:1016D0000027BA4AD2F8883023F44003616C0B43E8
:1016E000C2F8883000260CE000210430FFF722FF0A
:1016F00007460028EDD0064603E00027E9E700266C
:101700003746236813F4003F6BD0AC4B9B6D13F04E
:10171000805F4CD1A94B9A6D42F080529A659B6DC7
:1017200003F080530193019B4FF00108A44A136812
:1017300043F480731360FEF76BFF0546A04B1B68F4
:1017400013F4807F05D1FEF763FF401B0228F5D913
:101750000327002F40D1994BD3F8903013F44073F6
:1017600015D0E26D9A4212D0944AD2F8903023F408
:101770004073D2F8901041F48031C2F89010D2F842
:10178000901021F48031C2F89010C2F8903013F01C
:10179000010F0FD1002F40F0F780884AD2F8903027
:1017A00023F44073E16D0B43C2F8903015E04FF025
:1017B0000008BBE7FEF72CFF0546804BD3F89030BE
:1017C00013F0020FE6D1FEF723FF401B41F28833EE
:1017D0009842F2D90327DDE73E46B8F1000F40F00A
:1017E000D580236813F0010F08D0744AD2F88830EE
:1017F00023F00303216A0B43C2F88830236813F0F7
:10180000020F08D06D4AD2F8883023F00C03616AC9
:101810000B43C2F88830236813F0040F08D0674ADE
:10182000D2F8883023F03003A16A0B43C2F8883025
:10183000236813F0200F08D0604AD2F8883023F4D0
:101840004063E16A0B43C2F88830236813F4007FD9
:1018500008D05A4AD2F8883023F44023E16B0B4376
:10186000C2F88830236813F4806F08D0534AD2F846
:10187000883023F44013216C0B43C2F8883023686E
:1018800013F0400F08D04D4AD2F8883023F440536B
:10189000216B0B43C2F88830236813F0800F08D007
:1018A000464AD2F8883023F44043616B0B43C2F8B8
:1018B0008830236813F4807F08D0404AD2F88830FB
:1018C00023F44033A16B0B43C2F88830236813F430
:1018D000005F0FD0394AD2F8883023F04063A16C02
:1018E0000B43C2F88830A36CB3F1006F54D0B3F14E
:1018F000806F56D0236813F4002F0FD02F4AD2F8F0
:10190000883023F04063E16C0B43C2F88830E36C0D
:10191000B3F1006F4DD0B3F1806F53D0236813F44F
:10192000802F0FD0254AD2F8883023F04063216DF4
:101930000B43C2F88830236DB3F1006F4AD0B3F186
:10194000806F4CD0236813F4804F0CD01B4AD2F820
:10195000883023F04053616D0B43C2F88830636DCB
:10196000B3F1805F43D0236813F4004F08D0134ACB
:10197000D2F8883023F08043A16D0B43C2F8883041
:10198000304602B0BDE8F0813E4626E70B4A936D33
:1019900023F08053936524E7D36843F48013D36026
:1019A000A8E70121201DFFF7C5FD0028A2D00646AB
:1019B000A0E7D36843F48013D360AFE70010024080
:1019C000007000400121201DFFF7B4FD0028A5D0C4
:1019D0000646A3E7D36843F48013D360B2E701213E
:1019E000201DFFF7A7FD0028ACD00646AAE702217C
:1019F000201DFFF79FFD0028B5D00646B3E700BFC6
:101A0000F8B505460F4616461C462B689B6837EA14
:101A100003030CBF01230023B34237D0B4F1FF3FCF
:101A2000F3D0FEF7F5FD069BC01AA04201D2002CB0
:101A3000EBD12A68536823F0E00353606B68B3F579
:101A4000827F0BD0AB6AB3F5005F14D0012385F819
:101A50005D30002385F85C30032018E0AB68B3F5F7
:101A6000004F02D0B3F5806FECD12A68136823F0E1
:101A700040031360E6E72A68136823F400531360F9
:101A80002A68136843F400531360DFE70020F8BDB1
:101A9000F8B507460C4615461E4602E0B6F1FF3F74
:101AA0000BD13A6893682340AB423BD0B4F5C06F8A
:101AB000F4D1002DF2D1137BF0E7FEF7A9FD069BD0
:101AC000C01AB04201D2002EEBD13A68536823F01D
:101AD000E00353607B68B3F5827F0BD0BB6AB3F53C
:101AE000005F14D0012387F85D30002387F85C3055
:101AF000032018E0BB68B3F5004F02D0B3F5806F48
:101B0000ECD13A68136823F040031360E6E73A68C3
:101B1000136823F4005313603A68136843F40053C6
:101B20001360DFE70020F8BD70B582B004460D46B3
:101B3000164600920B4600224FF4C051FFF7A8FF53
:101B4000B8B900962B46002280212046FFF758FFA7
:101B5000B8B900962B4600224FF4C0612046FFF72B
:101B600097FF034650B1236E43F0200323660323FF
:101B700004E0236E43F0200323660323184602B0DB
:101B800070BD236E43F0200323660323F6E770B590
:101B900082B004460D4616464368B3F5827F0FD0E7
:101BA00000962B46002280212046FFF729FF03469E
:101BB00098B96268B2F5827F15D0184602B070BD40
:101BC0008368B3F5004F02D0B3F5806FE8D1226887
:101BD000136823F040031360E2E7236E43F0200311
:101BE00023660323E9E7A268B2F5004F02D0B2F5FD
:101BF000806FE2D100962B4600224FF4C061204650
:101C0000FFF746FF03460028D7D0236E43F020039A
:101C100023660323D1E7002853D010B504460023E0
:101C2000836290F85D30002B40D0022384F85D3051
:101C30002268136823F040031360E368B3F5E06F94
:101C400039D90022B3F5706F04D0B3F5E06F01D03D
:101C50000021A162216B21B9B3F5E06F2ED90223D7
:101C600023636368A1680B4321690B4361690B43DC
:101C7000A16901F400710B43E1690B43216A0B4335
:101C8000A06A216803430B60638B03F00403616A5D
:101C90000B43616B0B43E1680B43216813434B60BB
:101CA00000202066012384F85D3010BD80F85C3090
:101CB00001F0A4F8B9E74FF48052C3E7012323638E
:101CC000CFE701207047000038B590F85C40012C48
:101CD00000F0F2800446012084F85C0094F85D0076
:101CE000C0B26568012810D0B5F5827F05D0022307
:101CF000002284F85C20184638BDA568002D40F00D
:101D0000D380042801D00223F2E7002900F0CE801E
:101D1000002A00F0CD80002B00F0CC8094F85D000C
:101D2000C0B2042802D0052084F85D00002020669F
:101D3000A163A387E3872264A4F84430A4F8463063
:101D4000E06420652268536823F4C0435360E3686D
:101D5000B3F5E06F27D92268536823F480535360AA
:101D600094F85D30DBB2042B64D0A36D534A1A6340
:101D7000A36D534ADA62A36D524A5A63A36D0022DF
:101D80009A632168B4F84630226C0C31A06DFEF7DE
:101D900069FD002855D0236E43F01003236601230C
:101DA00084F85D30A4E72268536843F4805353609D
:101DB000636D9B69B3F5806F19D0A36D9B69B3F513
:101DC000806FCDD12268536823F480535360B4F8F8
:101DD000463013F0010F21D12268536823F40053D9
:101DE0005360B4F846305B08A4F84630B8E7A38FD8
:101DF00013F0010F08D12268536823F48043536025
:101E0000E38F5B08E387D8E72268536843F4804395
:101E10005360E38F5B080133E387CEE722685368A2
:101E200043F400535360B4F846305B080133A4F820
:101E3000463095E7A36D244A1A63A36D234ADA62FC
:101E400099E72268536843F001035360626D0023F1
:101E50001363626DD362626D5363626D9363226834
:101E6000E38F0C32A16B606DFEF7FCFC034638B1CA
:101E7000236E43F010032366012384F85D3037E7B7
:101E80002268116811F0400F03D1116841F0400140
:101E9000116021684A6842F020024A6021684A685D
:101EA00042F002024A6023E7022321E701231FE7F1
:101EB00001231DE701231BE702231CE7E11E0008A5
:101EC000671F0008ED1E0008D51E00080F1F000840
:101ED0007047704708B5806AFFF7FBFF08BD704781
:101EE00008B5806AFFF7FBFF08BD704708B5806A38
:101EF0000268536823F003035360036E43F010033A
:101F00000366012380F85D30FFF7EFFF08BD38B5A9
:101F10000546846AFEF77CFB2B681B6813F0200FD4
:101F200019D12268536823F0200353602268536854
:101F300023F003035360024664212046FFF727FE87
:101F400008B1202323660023A4F84630012384F837
:101F50005D30236E1BB92046FFF7BAFF38BD20461F
:101F6000FFF7C3FFFAE738B50546846AFEF750FB72
:101F70002B681B6813F0200F1CD12268536823F0D4
:101F800020035360024664212046FFF7CDFD18B1BF
:101F9000236E43F0200323662268536823F0030373
:101FA00053600023E387A4F84630012384F85D30B2
:101FB000236E1BB9204600F023FE38BD2046FFF7F4
:101FC00094FFFAE790F85D00704700002DE9F048B3
:101FD0000446016883680269134342691343C26976
:101FE000134308689E4A024013430B6022685368FB
:101FF00023F44053E1680B435360A1692268994B75
:102000009A4201D0236A1943936823F430630B4347
:1020100093602368944A93421FD0944A934230D0ED
:10202000934A934246D08F4A934259D010258D4A05
:10203000934276D0E369B3F5004F00F0ED80082DB0
:1020400000F28981DFE815F049015F01690187012C
:1020500074018701870187017E0102F55842D2F899
:10206000882002F00302032A09D8DFE802F0020404
:1020700052060125DBE70425D9E70825D7E7102517
:10208000D5E702F5E632D2F8882002F00C020C2ADD
:102090000ED8DFE802F0070D0D0D090D0D0D400DF6
:1020A0000D0D0B000025C2E70425C0E70825BEE79B
:1020B0001025BCE702F5E432D2F8882002F03002A5
:1020C000102A09D005D9202A27D0302A06D1082580
:1020D000ADE71AB90025AAE70425A8E71025A6E769
:1020E00002F5C832D2F8882002F44062B2F5806F5F
:1020F0000BD007D9B2F5006F11D0B2F5406F06D101
:10210000082594E71AB9002591E704258FE71025E3
:102110008DE702258BE7022589E7022587E702255F
:1021200085E7082D00F21A81DFE815F00C00180190
:1021300014001801110018011801180109004FF4CA
:10214000004008E0FFF7D2F928B90020D6E0FEF7FA
:10215000A3FDF9E74748626802EB4203834200F2BD
:10216000FF80B0EB023F00F2FD80082D51D8DFE880
:1021700005F005502050305050504300FFF7B6F99D
:102180000025070E0602626850082B4616EB000B6E
:1021900047F1000C58466146FEF71AF803462846F8
:1021A000A3F54071344A914200F2DE802268D36088
:1021B000A4E0560800252B46DFF8C0B04FF0000C15
:1021C0001BEB06004CF10001FEF702F8034628461F
:1021D000E6E7FEF761FD0025070E0602626850087B
:1021E0002B4616EB000B47F1000C58466146FDF7F5
:1021F000EFFF03462846D3E75008002700252B466B
:1022000010F5000047F10001FDF7E2FF0346284604
:10221000C6E701200023C3E7082D5BD8DFE805F0FF
:1022200005303B5A465A5A5A5100FFF75FF9626827
:10223000530803EB4003B3FBF2F39BB20020A3F17E
:1022400010014FF6EF72914200F290809AB222F0A4
:102250000F02C3F3420313432268D3604EE000BF72
:10226000F369FFEF00800040003801400044004067
:10227000004800400024F400FFFC0F00000024F49C
:10228000FFF746F96268530803EB4003B3FBF2F330
:102290009BB20020D3E76268530803F1F47303F59F
:1022A0009043B3FBF2F39BB20020C8E7FEF7F4FCC7
:1022B0006268530803EB4003B3FBF2F39BB20020C8
:1022C000BDE76268530803F58033B3FBF2F39BB2BA
:1022D0000020B4E701200023B1E7FFF707F96368A6
:1022E00000EB5302B2FBF3F292B20020A2F1100114
:1022F0004FF6EF7399423BD82368DA6000222266DA
:102300006266BDE8F088FFF703F9636800EB5302EB
:10231000B2FBF3F292B20020E8E763685A0802F5D4
:10232000740202F51052B2FBF3F292B20020DDE724
:10233000FEF7B2FC636800EB5302B2FBF3F292B219
:102340000020D3E763685A0802F50042B2FBF3F2BB
:1023500092B20020CAE701200022C7E70120CDE7A2
:102360000120CBE70120C9E70120C7E70120C5E72D
:102370000120C3E7436A13F0010F06D002685368D7
:1023800023F40033816A0B435360436A13F0020F56
:1023900006D00268536823F48033C16A0B4353604C
:1023A000436A13F0040F06D00268536823F48023B5
:1023B000016B0B435360436A13F0080F06D00268A9
:1023C000536823F40043416B0B435360436A13F09B
:1023D000100F06D00268936823F48053816B0B437F
:1023E0009360436A13F0200F06D00268936823F4C9
:1023F0000053C16B0B439360436A13F0400F0AD044
:102400000268536823F48013016C0B435360036C20
:10241000B3F5801F0BD0436A13F0800F06D002681B
:10242000536823F40023816C0B43536070470268A8
:10243000536823F4C003416C0B435360EBE72DE971
:10244000F04105460F4616469846069C2B68DB6908
:1024500037EA03030CBF01230023B3421CD1B4F1BC
:10246000FF3FF3D0FEF7D4F8A0EB0800A04201D85C
:10247000002CEBD12A68136823F4D07313602A6808
:10248000936823F00103936020236B67AB670023FD
:1024900085F87030032000E00020BDE8F0812DE9D0
:1024A000F04182B01E46436F202B55D104460D46A5
:1024B0009046002955D0002A55D090F87030012B55
:1024C00053D0012380F870300023C3672123436772
:1024D000FEF79EF80746A4F85080A4F85280A3683F
:1024E000B3F5805F02D04FF0000813E0236913B109
:1024F0004FF000080EE0A84600250BE038F8023B3C
:102500002268C3F308031385B4F85230013B9BB231
:10251000A4F85230B4F852309BB273B100963B46E7
:10252000002280212046FFF78AFF00BB002DE5D066
:10253000236815F8012B1A85E6E700963B46002232
:1025400040212046FFF77BFF034690B920226267B7
:10255000002284F8702000E00223184602B0BDE893
:10256000F0810123F9E70123F7E70223F5E70323CD
:10257000F3E70323F1E730B583B004460023C367D4
:10258000FEF746F8054623681B6813F0080F0CD1C8
:1025900023681B6813F0040F15D120236367A3671A
:1025A000002084F8700003B030BD6FF07E430093CC
:1025B000034600224FF400112046FFF740FF002899
:1025C000E6D00320EFE76FF07E4300932B46002216
:1025D0004FF480012046FFF732FF0028DDD00320B2
:1025E000E1E768B310B50446436F03B32423636780
:1025F0002268136823F0010313602046FFF7E6FC0E
:10260000012813D0636ABBB92268536823F490434E
:1026100053602268936823F02A039360226813684A
:1026200043F0010313602046FFF7A5FF10BD80F8BB
:10263000703000F04FFCD9E72046FFF79BFEE3E740
:102640000120704700B583B000228DF802208DF87C
:1026500001000B238DF800304FF400614FF09040E3
:10266000FEF76FFA032301AA69460A48FFF72CFB1D
:102670000848FFF7A7FC0128FAD101224FF40061B6
:102680004FF09040FEF75DFA9DF8060003B05DF84C
:1026900004FB00BFF400002000B583B08DF80610E5
:1026A0008DF805000A238DF8043000224FF40061F4
:1026B0004FF09040FEF745FA03236A4601A9094806
:1026C000FFF702FB0748FFF77DFC0128FAD1012242
:1026D0004FF400614FF09040FEF733FA03B05DF81D
:1026E00004FB00BFF40000202DE9F04186B08046D5
:1026F0000E4615461C46002203920492ADF81420A3
:10270000CDF80220CDF806200E238DF8013006AF5B
:102710000B2307F8183D4FF400614FF09040FEF78F
:1027200010FA0A2303AA39461748FFF7CDFA1648CC
:10273000FFF748FC0128FAD101224FF400614FF065
:102740009040FEF7FEF99DF80F209DF80E3043EA09
:102750000223A8F800309DF811209DF8103043EABC
:10276000022333809DF813209DF8123043EA0223A0
:102770002B809DF815209DF8143043EA0223238016
:1027800006B0BDE8F08100BFF400002000B585B0C0
:102790008DF80C10030A8DF80B308DF80A002023F9
:1027A0008DF809300A238DF8083000224FF40061BB
:1027B0004FF09040FEF7C5F905236A4602A9094883
:1027C000FFF782FA0748FFF7FDFB0128FAD1012243
:1027D0004FF400614FF09040FEF7B3F905B05DF89B
:1027E00004FB00BFF400002000B585B00B0A8DF893
:1027F0000D308DF80C10030A8DF80B308DF80A009F
:1028000023238DF809300A238DF8083000224FF475
:1028100000614FF09040FEF794F906236A4602A942
:102820000848FFF751FA0748FFF7CCFB0128FAD117
:1028300001224FF400614FF09040FEF782F905B09D
:102840005DF804FBF400002070B58EB00026694BE3
:102850001E600620FDF74AFF0720FDF747FF01AC89
:10286000654D0FCD0FC495E8030084E8030001A86F
:10287000FDF72EFE614C4FF6FF7382B201A9204690
:10288000FFF70DFE52211F20FFF706FF0120FDF785
:10289000C5FE3046FFF7D6FE0246594901A800F0B2
:1028A000C7FC01A8FDF714FE4FF6FF7382B201A921
:1028B0002046FFF7F4FD64214FF4AF70FFF766FF89
:1028C0004FF47A714FF49670FFF78EFF3F21272067
:1028D000FFF7E2FE2720FFF7B5FE0246494901A8AF
:1028E00000F0A6FC01A8FDF7F3FD4FF6FF7382B2DE
:1028F00001A92046FFF7D3FD40212A20FFF7CCFE97
:102900002A20FFF79FFE02463F4901A800F090FCF5
:1029100001A8FDF7DDFD4FF6FF7382B201A9204645
:10292000FFF7BDFD01212B20FFF7B6FE2B20FFF79F
:1029300089FE0246354901A800F07AFC01A8FDF79E
:10294000C7FD4FF6FF7382B201A92046FFF7A7FD2E
:1029500013212C20FFF7A0FE2C20FFF773FE024668
:102960002B4901A800F064FC01A8FDF7B1FD4FF66A
:10297000FF7382B201A92046FFF791FD24212D208B
:10298000FFF78AFE2D20FFF75DFE0546214E024629
:10299000314601A800F04CFC01A8FDF799FD4FF667
:1029A000FF7382B201A92046FFF779FD45F00201CD
:1029B000C9B22D20FFF770FE2D20FFF743FE02461F
:1029C000314601A800F034FC01A8FDF781FD4FF667
:1029D000FF7382B201A92046FFF761FD6420FDF775
:1029E0001DFE0620FDF774FE0720FDF771FE0EB0F8
:1029F00070BD00BFE4020020A03A00086803002078
:102A0000B83A0008C83A0008E43A0008F83A000862
:102A10000C3B0008243B000830B589B00024039427
:102A20000494059406940794254BDA6C42F0040252
:102A3000DA64DA6C02F004020092009ADA6C42F076
:102A40000102DA64DA6C02F001020192019ADA6C96
:102A500042F00202DA64DB6C03F002030293029B91
:102A600001224FF401614FF09040FEF76AF8032510
:102A70000395144B0493059403A94FF09040FDF780
:102A80008FFF4FF40163039301230493059406958C
:102A900003A94FF09040FDF783FF22462146062010
:102AA000FDF7E2FD0620FDF713FE22462146072032
:102AB000FDF7DAFD0720FDF70BFE09B030BD00BFC2
:102AC000001002400000111000B583B0224B9A6C38
:102AD00042F001029A649A6C02F001020092009A9C
:102AE0009A6C42F002029A649B6C03F00203019319
:102AF000019B002211460E20FDF7B6FD0E20FDF7CA
:102B0000E7FD002211460F20FDF7AEFD0F20FDF777
:102B1000DFFD002211461020FDF7A6FD1020FDF775
:102B2000D7FD002211461120FDF79EFD1120FDF773
:102B3000CFFD002211464420FDF796FD4420FDF70D
:102B4000C7FD002211464520FDF78EFD4520FDF70B
:102B5000BFFD03B05DF804FB0010024008B50E484D
:102B60000E4B03604FF482734360002383604FF485
:102B7000E062C260036143614FF40072826110221F
:102B8000C2610362436283620722C2620363082355
:102B90004363FFF740F808BDF40000200038004010
:102BA00008B50948094B03604FF4E1334360002343
:102BB0008360C36003610C2242618361C36103626D
:102BC0004362FFF70EFD08BD68030020004400408B
:102BD00008B50948094B03604FF4E1334360002313
:102BE0008360C36003610C2242618361C36103623D
:102BF0004362FFF7F6FC08BDE80200200038014000
:102C000070470000012800D07047F8B50E4E0F4CF9
:102C100006F1200735460FCD20606160A260E360B9
:102C20002E461034BD42F5D1286820602B792371DF
:102C3000064C2046FDF74CFC4FF6FF7382B221464E
:102C40000348FFF72CFCF8BD3C3B0008A80100201E
:102C50006803002030B5AFB0242200211EA800F088
:102C6000DFFA0024189419941A941B941C9460227F
:102C70002146684600F0D4FA02231D934FF4807277
:102C80002092102221922793289301222992082230
:102C90002A9207222B922C932D931DA8FEF756F80B
:102CA0000F231893032519951A941B941C942946F5
:102CB00018A8FEF769FB0095089409946846FEF78A
:102CC000EFFC4FF40070FDF757FF2FB030BD000050
:102CD00080B582B0FDF77AFCFFF7BCFFFFF79CFEE2
:102CE000FFF7F2FEFFF73AFFFFF75AFFFFF770FF1B
:102CF000FFF7AAFD2BE00A20FDF790FC012210212E
:102D00004FF09040FDF71DFF294C2346A21C211DCA
:102D1000A01DFFF7E9FCB4F90430B4F90620254DF5
:102D2000B4F900100191B4F902100091224928462B
:102D300000F07EFA2846FDF7CBFB4FF6FF7382B218
:102D400029461E48FFF7ABFB1420FDF767FC012165
:102D50004FF09040FDF7EEFE194B18601B68002BFA
:102D6000C9D1184E134C06F1300735460FCD2060FF
:102D70006160A260E3602E461034BD42F5D12A881E
:102D8000AB782280A3700B4C2046FDF7A1FB4FF6D9
:102D9000FF7382B221460948FFF781FB0022102110
:102DA0004FF09040FDF7CDFE6420FDF737FCCBE7F8
:102DB0008C000020A8010020983B00086803002038
:102DC000E4020020643B00087047000082B00A4B18
:102DD0001A6E42F001021A661A6E02F001020092A7
:102DE000009A9A6D42F080529A659B6D03F0805371
:102DF0000193019B02B070470010024010B588B0EB
:102E000000230393049305930693079302682B4BC7
:102E10009A4201D008B010BD044603F5EC339A6D18
:102E200042F480429A659A6D02F480420192019ABE
:102E3000DA6C42F00202DA64DB6C03F00203029304
:102E4000029B4FF4604303930223049303230693EE
:102E50000523079303A91A48FDF7A2FD19481A4B49
:102E6000036001234360102383600023C36080223A
:102E7000026143618361C3610362FDF777FCB8B906
:102E8000104B63659C621148114B03600123436042
:102E900000238360C3608022026143618361C36158
:102EA0000362FDF763FC30B9084BA3659C62B1E790
:102EB000FFF78AFFE4E7FFF787FFF5E700380040F8
:102EC00000040048E8030020580002405C01002094
:102ED0004400024030B58BB00446002305930693AE
:102EE0000793089309930368544A934204D0544AC1
:102EF000934251D00BB030BD524B1A6E42F4804217
:102F00001A661A6E02F480420192019ADA6C42F05B
:102F10000102DA64DB6C03F001030293029B4FF4BD
:102F2000C06305930225069503230893072309939D
:102F300005A94FF09040FDF733FD4348434B036034
:102F4000456000238360C360802202614361836126
:102F5000C3610362FDF70AFCC0B93B4BE3669C62A8
:102F60003B483C4B036002234360102383600023F3
:102F7000C3608022026143618361C3610362FDF724
:102F8000F5FB30B9324BA3669C62B3E7FFF71CFF39
:102F9000E3E7FFF719FFF5E72A4B9A6D42F4003299
:102FA0009A659A6D02F400320392039ADA6C42F049
:102FB0000102DA64DB6C03F001030493049B0C232D
:102FC000059302250695032308930723099305A972
:102FD0004FF09040FDF7E4FC1F48204B0360456034
:102FE00000238360C36080220261436183612022E9
:102FF000C2610362FDF7BAFBC8B9174BE3669C6276
:103000001748184B0360022343601023836000239A
:10301000C36080220261436183612022C261036236
:10302000FDF7A4FB30B90E4BA3669C6262E7FFF785
:10303000CBFEE2E7FFF7C8FEF5E700BF003801402E
:10304000004400400010024054020020800402406E
:103050000C0200206C040240AC0000206C00024016
:103060009C020020800002407047FEE7FEE7FEE77A
:10307000FEE770477047704708B5FDF7BDFA08BD19
:1030800008B50120FDF762FD08BD08B50220FDF777
:103090005DFD08BD08B50248FDF71FFC08BD00BF77
:1030A0005C01002008B50248FDF717FC08BD00BF11
:1030B000E803002008B50248FDF70FFC08BD00BF7B
:1030C000AC00002008B50248FDF707FC08BD00BFB2
:1030D0009C02002008B50248FDF7FFFB08BD00BFB9
:1030E0000C02002008B50248FDF7F7FB08BD00BF41
:1030F0005402002008B503460B4A126842B10A4A3E
:10310000106803446A46934206D8074A136008BD14
:10311000054A06491160F2E700F058F80C230360F5
:103120004FF0FF30F3E700BF980000203804002084
:103130000F49D1F8883043F47003C1F888300D4B43
:103140001A6842F001021A60002098601A6822F0A2
:10315000A85222F410221A604FF48052DA601A68E2
:1031600022F480221A6098614FF000638B607047F0
:1031700000ED00E000100240DFF834D0002103E051
:103180000C4B5B58435004310B480C4B42189A428D
:10319000F6D30B4A02E0002342F8043B094B9A4263
:1031A000F9D3FFF7C5FF00F017F8FFF791FDFEE731
:1031B00000000120183C00080000002070000020E2
:1031C0007000002034040020FEE70000014B186866
:1031D000704700BF0C00002070B50D4E0D4CA41BB5
:1031E000A4100025A54209D10B4E0C4C00F026FC82
:1031F000A41BA4100025A54205D170BD56F82530AA
:1032000098470135EEE756F8253098470135F2E743
:10321000083C0008083C0008083C00080C3C00087A
:1032200002440346934200D1704703F8011BF9E7BB
:103230000EB400B59CB01DAB029006906FF000413B
:10324000094807910491094953F8042B0591006836
:10325000019302A900F066F8029B00221A701CB0CC
:103260005DF804EB03B070470C0000200802FFFF7C
:103270002DE9F0478E689E4282460C46904699465C
:1032800037D88A8912F4906F31D0256809696F1A8E
:103290006569022305EB450595FBF3F509F101038B
:1032A0003B449D4238BF1D46530530D5294600F0AA
:1032B0002BFB064650B90C23CAF80030A38943F013
:1032C0004003A3814FF0FF30BDE8F0873A46216903
:1032D00000F0A8FAA38923F4906343F08003A3814C
:1032E000266165613E44ED1B2660A5604E464E4555
:1032F00000D94E4632464146206800F09EFAA36847
:103300009B1BA36023681E4426600020DCE72A463E
:1033100000F054FB06460028E2D12169504600F037
:10332000A5FAC8E72DE9F04F1D468B891F069DB011
:1033300080460C4616460FD50B696BB9402100F04C
:10334000E3FA2060206128B90C23C8F800304FF060
:10335000FF30C8E0402363610023099320238DF8E8
:10336000293030238DF82A3003954FF0010B374672
:103370003D4615F8013B0BB1252B3ED1B7EB060AB4
:103380000BD05346324621464046FFF771FF0130CD
:1033900000F0A480099B534409933B78002B00F074
:1033A0009D8000234FF0FF32CDE90523049307935E
:1033B0008DF853301A932F46052217F8011B5048F9
:1033C000FDF78EF8049BD0B9D90644BF20228DF8B2
:1033D00053201A0744BF2B228DF853202A782A2A1B
:1033E00015D0079A2F4600200A25394611F8013BCF
:1033F000303B092B4DD9B8B10FE02F46B8E7404A12
:10340000801A0BFA00F0184304903D46D3E7039A64
:10341000111D12680391002A01DB079204E0524259
:1034200043F00203079204933B782E2B0CD17B7858
:103430002A2B33D1039B1A1D1B680392002BB8BFA4
:103440004FF0FF33023705932E4D3978032228467B
:10345000FDF746F838B14023401B03FA00F0049B07
:10346000034301370493397827488DF82810062242
:103470007E1CFDF735F8002838D0244B13BB039B86
:10348000073323F0070308330393099B4B44099345
:103490006DE705FB023201200F46A6E70023013746
:1034A000059319460A25384610F8012B303A092AA7
:1034B00003D9002BC8D00591C6E705FB01210123E4
:1034C0000746F0E703AB00932246114B04A94046A0
:1034D000AFF30080B0F1FF3F8146D6D1A3895B06F0
:1034E0003FF535AF09981DB0BDE8F08F03AB0093F1
:1034F0002246074B04A9404600F082F8EAE700BFE5
:10350000C83B0008CE3B0008D23B0008000000008A
:10351000713200082DE9F04791461F468A680B6911
:10352000DDF820809342B8BF1346C9F8003091F807
:10353000432006460C4612B10133C9F80030236817
:10354000990642BFD9F800300233C9F80030256827
:1035500015F0060507D104F1190AE368D9F800202F
:103560009B1AAB4228DC94F843302268003318BF22
:10357000012392062DD404F1430239463046C04758
:10358000013020D02368E568D9F8002003F0060355
:10359000042B08BFAD1AA36822690CBF25EAE575A4
:1035A00000259342C4BF9B1AED184FF000091A344E
:1035B0004D451AD1002008E00123524639463046D5
:1035C000C047013003D14FF0FF30BDE8F08701352F
:1035D000C3E7E1185A1C302081F84300224494F8D4
:1035E000451082F843100233C5E7012322463946CD
:1035F0003046C0470130E6D009F10109D8E70000A4
:103600002DE9F04301F1430C0C46097E85B06E298B
:103610001746064698460C9A00F0B38022D86329D4
:1036200036D00AD8002900F0B980582900F08380EC
:1036300004F1420584F8421032E0642901D069297E
:10364000F6D120681368050603F104012AD51B682A
:103650001160002B03DA2D225B4284F843206F486F
:103660000A2239E0732900F09D8008D86F2920D004
:103670007029DDD1236843F02003236003E075291E
:1036800017D07829D4D1782384F84530644855E0A0
:103690001368191D1B68116004F1420584F842305B
:1036A00001238CE01B68116010F0400F18BF1BB2A3
:1036B000CFE713682568181D1060280601D51B6820
:1036C00002E06806FBD51B8854486F2914BF0A2204
:1036D0000822002184F843106568A560002DC0F21F
:1036E0009580216821F004012160002B3DD1002D3F
:1036F00040F08E806546082A0BD12368DB0708D589
:10370000236962689A42DEBF302305F8013C05F167
:10371000FF35ACEB05032361CDF800803B4603AADF
:1037200021463046FFF7F6FE01304DD14FF0FF3015
:1037300005B0BDE8F083394884F845101368216866
:103740001D1D1B6815600A060BD5CA0744BF41F052
:10375000200121601BB9226822F020022260102281
:10376000B7E74D0648BF9BB2EFE76546B3FBF2F102
:1037700002FB1133C35C05F8013D0B460029F5D16E
:10378000B9E7136825686169181D106028061B6871
:1037900001D5196002E06A06FBD519800023236178
:1037A0006546B9E71368191D11601D68626800213C
:1037B0002846FCF795FE08B1401B606063682361F2
:1037C000002384F84330A7E723692A463946304668
:1037D000C0470130AAD023689B0713D4E068039B3D
:1037E0009842B8BF1846A3E701234A4639463046F7
:1037F000C04701309AD00135E368039A9B1AAB4267
:10380000F2DCEBE7002504F11909F5E7002BACD158
:10381000037884F8423004F142056CE7D93B000894
:10382000EA3B000810B5431E0A44914200D110BD86
:1038300011F8014B03F8014FF7E7884210B501EB8F
:10384000020307D8421E99420AD011F8014B02F830
:10385000014FF8E78342F5D98118D21AD34200D13B
:1038600010BD13F8014D01F8014DF7E738B50546D5
:10387000002945D051F8043C0C1F002BB8BFE418B8
:1038800000F0D2F81F4A1368104633B96360146021
:103890002846BDE8384000F0C8B8A3420CD92168DA
:1038A0006218934204BF1A685B68636004BF5218D1
:1038B00022600460ECE713465A680AB1A242FAD9C2
:1038C00019685818A0420BD1206801445818824248
:1038D0001960DDD1106852685A6001441960D7E759
:1038E00002D90C232B60D3E7206821188A4204BF39
:1038F00011685268626004BF091821605C60C7E704
:1039000038BD00BFA000002070B5CD1C25F0030518
:1039100008350C2D38BF0C25002D064601DBA942C9
:1039200003D90C233360002070BD00F07DF8214ADC
:103930001468214691B9204C23681BB9304600F029
:1039400063F820602946304600F05EF8431C24D11D
:103950000C233360304600F068F8E4E70B685B1B2B
:1039600018D40B2B0FD90B60CD50CC18304600F07B
:103970005CF804F10B00231D20F00700C31AD3D01C
:103980005A42E250D0E78C424B6816BF6360136026
:103990000C46EBE70C464968CCE7C41C24F0030452
:1039A000A04205D0211A304600F02EF80130CFD0C9
:1039B0002560DBE7A0000020A4000020F8B5074642
:1039C00014460E4621B91146BDE8F840FFF79CBFEA
:1039D00022B9FFF74BFF25462846F8BD00F026F830
:1039E000A0420FD221463846FFF78EFF0546002839
:1039F000F2D031462246FFF715FF31463846FFF731
:103A000035FFE9E73546E7E738B5064C00230546BC
:103A100008462360FFF76EFB431C02D1236803B105
:103A20002B6038BD300400207047704751F8043CCB
:103A3000181F002BBCBF0B58C0187047F8B500BF4B
:103A4000F8BC08BC9E467047F8B500BFF8BC08BC7F
:083A50009E46704700000000D3
:103A5800A0860100400D0300801A060000350C0006
:103A680040420F0080841E0000093D0000127A00C9
:103A78000024F40000366E010048E801006CDC0206
:103A88000000000000000000010203040607080906
:103A980000000000010203040D0A496E697469619F
:103AA80074696E67204144584C333632210D0A0040
:103AB8000D0A494430203D20307825580D0A000071
:103AC8000D0A4143545F494E4143545F43544C20CF
:103AD8003D20307825580D0A000000000D0A494E97
:103AE800544D415031203D20307825580D0A0000B2
:103AF8000D0A494E544D415032203D20307825580A
:103B08000D0A00000D0A46494C5445525F43544C77
:103B1800203D20307825580D0A0000000D0A504F2E
:103B28005745525F43544C203D20307825580D0AA4
:103B3800000000000D0A4D43552068617320617232
:103B48006973656E2066726F6D2069747320736C7B
:103B5800756D626572210D0A000000000D0A41446E
:103B6800584C33363220697320736C656570696E02
:103B7800672E204D435520697320676F696E672053
:103B88006E69676874206E69676874210D0A0000A1
:103B980078203D20252B3035642C2079203D2025A8
:103BA8002B3035642C207A203D20252B3035642C91
:103BB8002074656D70203D20252B3035640D0A007A
:103BC800232D302B2000686C4C00656667454647FE
:103BD8000030313233343536373839414243444581
:103BE80046003031323334353637383961626364F0
:083BF8006566000000000000FA
:083C000000C6FF7F0100000077
:083C0800B501000800000000F6
:083C1000910100080000000012
:103C1800010000001000000000093D001000002015
:103C2800000000000000000000000000000000008C
:103C3800000000000000000000000000000000007C
:103C4800000000000000000000000000000000006C
:103C5800000000000000000000000000000000005C
:103C6800000000000000000000000000000000004C
:103C7800000000000000000000000000000000003C
:040000050800317945
:00000001FF
