:020000040800F2
:10000000000001206D3C00085D3B00085F3B0008DC
:10001000613B0008633B0008653B000800000000EE
:10002000000000000000000000000000673B000826
:10003000693B0008000000006B3B00086D3B0008B6
:10004000BD3C0008BD3C0008BD3C0008BD3C0008AC
:10005000BD3C0008BD3C0008753B00087F3B000824
:10006000BD3C0008BD3C0008BD3C0008BD3C00088C
:10007000BD3C0008BD3C0008893B0008993B0008D6
:10008000A93B0008B93B0008BD3C0008BD3C000886
:10009000BD3C0008BD3C0008BD3C0008BD3C00085C
:1000A000BD3C0008BD3C0008BD3C0008BD3C00084C
:1000B000BD3C00080000000000000000BD3C00083E
:1000C000BD3C0008BD3C0008BD3C0008BD3C00082C
:1000D000BD3C0008BD3C0008BD3C0008BD3C00081C
:1000E000BD3C0008BD3C000800000000000000000E
:1000F0000000000000000000000000000000000000
:1001000000000000BD3C000800000000BD3C0008ED
:100110000000000000000000BD3C0008BD3C0008DD
:10012000BD3C0008BD3C0008BD3C0008BD3C0008CB
:10013000BD3C0008000000000000000000000000BE
:10014000BD3C0008BD3C0008BD3C0008BD3C0008AB
:10015000C93B0008D93B0008BD3C0008BD3C000875
:10016000BD3C0008BD3C0008BD3C0008000000008C
:10017000BD3C0008BD3C0008BD3C0008000000007C
:10018000BD3C0008BD3C0008BD3C0008000000006C
:1001900010B5054C237833B9044B13B10448AFF3C1
:1001A00000800123237010BDE0010020000000004A
:1001B000A05D000808B5034B1BB103490348AFF32A
:1001C000008008BD00000000E4010020A05D0008E0
:1001D00081F0004102E000BF83F0004330B54FEAF8
:1001E00041044FEA430594EA050F08BF90EA020F65
:1001F0001FBF54EA000C55EA020C7FEA645C7FEAF8
:10020000655C00F0E2804FEA5454D4EB5555B8BF1A
:100210006D420CDD2C4480EA020281EA030382EA8B
:10022000000083EA010180EA020281EA0303362D1D
:1002300088BF30BD11F0004F4FEA01314FF4801CF0
:100240004CEA113102D0404261EB410113F0004F02
:100250004FEA03334CEA133302D0524263EB4303B9
:1002600094EA050F00F0A780A4F10104D5F1200E57
:100270000DDB02FA0EFC22FA05F2801841F10001B2
:1002800003FA0EF2801843FA05F359410EE0A5F186
:1002900020050EF1200E012A03FA0EFC28BF4CF0B7
:1002A000020C43FA05F3C01851EBE37101F000456D
:1002B00007D54FF0000EDCF1000C7EEB00006EEB7A
:1002C0000101B1F5801F1BD3B1F5001F0CD3490804
:1002D0005FEA30004FEA3C0C04F101044FEA44525B
:1002E00012F5800F80F09A80BCF1004F08BF5FEAE2
:1002F000500C50F1000041EB045141EA050130BDC2
:100300005FEA4C0C404141EB010111F4801FA4F164
:100310000104E9D191F0000F04BF01460020B1FAB9
:1003200081F308BF2033A3F10B03B3F120020CDAF1
:100330000C3208DD02F1140CC2F10C0201FA0CF0CF
:1003400021FA02F10CE002F11402D8BFC2F1200C34
:1003500001FA02F120FA0CFCDCBF41EA0C019040EA
:10036000E41AA2BF01EB0451294330BD6FEA040433
:100370001F3C1CDA0C340EDC04F11404C4F120021E
:1003800020FA04F001FA02F340EA030021FA04F330
:1003900045EA030130BDC4F10C04C4F1200220FA87
:1003A00002F001FA04F340EA0300294630BD21FAC5
:1003B00004F0294630BD94F0000F83F4801306BF8B
:1003C00081F480110134013D4EE77FEA645C18BF7F
:1003D0007FEA655C29D094EA050F08BF90EA020F16
:1003E00005D054EA000C04BF1946104630BD91EA0E
:1003F000030F1EBF0021002030BD5FEA545C05D111
:100400004000494128BF41F0004130BD14F580044F
:100410003CBF01F5801130BD01F0004545F0FE41C3
:1004200041F470014FF0000030BD7FEA645C1ABFF8
:10043000194610467FEA655C1CBF0B46024650EA2F
:10044000013406BF52EA033591EA030F41F400215B
:1004500030BD00BF90F0000F04BF0021704730B5E1
:100460004FF4806404F132044FF000054FF00001B6
:1004700050E700BF90F0000F04BF0021704730B577
:100480004FF4806404F1320410F0004548BF40424C
:100490004FF000013EE700BF42004FEAE2014FEAA1
:1004A00031014FEA02701FBF12F07F4393F07F4F7C
:1004B00081F06051704732F07F4208BF704793F07F
:1004C0007F4F04BF41F40021704730B54FF4607492
:1004D00001F0004521F000411CE700BF50EA010295
:1004E00008BF704730B54FF000050AE050EA01023E
:1004F00008BF704730B511F0004502D5404261EBAE
:1005000041014FF4806404F132045FEA915C3FF4EE
:10051000D8AE4FF003025FEADC0C18BF03325FEA8B
:10052000DC0C18BF033202EBDC02C2F1200300FA3C
:1005300003FC20FA02F001FA03FE40EA0E0021FA61
:1005400002F11444BDE600BF70B54FF0FF0C4CF44F
:10055000E06C1CEA11541DBF1CEA135594EA0C0F01
:1005600095EA0C0F00F0DEF82C4481EA030621EA3C
:100570004C5123EA4C5350EA013518BF52EA033577
:1005800041F4801143F4801338D0A0FB02CE4FF029
:100590000005E1FB02E506F00042E0FB03E54FF059
:1005A0000006E1FB03569CF0000F18BF4EF0010E51
:1005B000A4F1FF04B6F5007F64F5407404D25FEA4D
:1005C0004E0E6D4146EB060642EAC62141EA555100
:1005D0004FEAC52040EA5E504FEACE2EB4F1FD0C42
:1005E00088BFBCF5E06F1ED8BEF1004F08BF5FEAC0
:1005F000500E50F1000041EB045170BD06F0004672
:1006000046EA010140EA020081EA0301B4EB5C041E
:10061000C2BFD4EB0C0541EA045170BD41F4801116
:100620004FF0000E013C00F3AB8014F1360FDEBF3B
:10063000002001F0004170BDC4F10004203C35DA17
:100640000C341BDC04F11404C4F1200500FA05F39A
:1006500020FA04F001FA05F240EA020001F000423B
:1006600021F0004110EBD37021FA04F642EB0601B1
:100670005EEA430E08BF20EAD37070BDC4F10C04DB
:10068000C4F1200500FA04F320FA05F001FA04F29F
:1006900040EA020001F0004110EBD37041F100018B
:1006A0005EEA430E08BF20EAD37070BDC4F1200596
:1006B00000FA05F24EEA020E20FA04F301FA05F2FE
:1006C00043EA020321FA04F001F0004121FA04F2A6
:1006D00020EA020000EBD3705EEA430E08BF20EA76
:1006E000D37070BD94F0000F0FD101F000464000B0
:1006F00041EB010111F4801F08BF013CF7D041EA32
:10070000060195F0000F18BF704703F00046520035
:1007100043EB030313F4801F08BF013DF7D043EA06
:100720000603704794EA0C0F0CEA135518BF95EABC
:100730000C0F0CD050EA410618BF52EA4306D1D143
:1007400081EA030101F000414FF0000070BD50EA62
:10075000410606BF1046194652EA430619D094EAEC
:100760000C0F02D150EA013613D195EA0C0F05D1D6
:1007700052EA03361CBF104619460AD181EA03012A
:1007800001F0004141F0FE4141F470014FF00000E2
:1007900070BD41F0FE4141F4780170BD70B54FF07D
:1007A000FF0C4CF4E06C1CEA11541DBF1CEA1355FD
:1007B00094EA0C0F95EA0C0F00F0A7F8A4EB0504DF
:1007C00081EA030E52EA03354FEA013100F08880D6
:1007D0004FEA03334FF0805545EA131343EA12639F
:1007E0004FEA022245EA111545EA10654FEA002654
:1007F0000EF000419D4208BF964244F1FD0404F50D
:10080000407402D25B084FEA3202B61A65EB030568
:100810005B084FEA32024FF480104FF4002CB6EB25
:10082000020E75EB030E22BFB61A754640EA0C00A5
:100830005B084FEA3202B6EB020E75EB030E22BFE5
:10084000B61A754640EA5C005B084FEA3202B6EB26
:10085000020E75EB030E22BFB61A754640EA9C00E5
:100860005B084FEA3202B6EB020E75EB030E22BFB5
:10087000B61A754640EADC0055EA060E18D04FEA73
:10088000051545EA16754FEA06164FEAC30343EA13
:1008900052734FEAC2025FEA1C1CC0D111F4801FE0
:1008A0000BD141EA00014FF000004FF0004CB6E7D9
:1008B00011F4801F04BF01430020B4F1FD0C88BF78
:1008C000BCF5E06F3FF6AFAEB5EB030C04BFB6EB83
:1008D000020C5FEA500C50F1000041EB045170BD76
:1008E0000EF0004E4EEA113114EB5C04C2BFD4EBA3
:1008F0000C0541EA045170BD41F480114FF0000E27
:10090000013C90E645EA060E8DE60CEA135594EAA2
:100910000C0F08BF95EA0C0F3FF43BAF94EA0C0FA5
:100920000AD150EA01347FF434AF95EA0C0F7FF41A
:1009300025AF104619462CE795EA0C0F06D152EA6E
:1009400003353FF4FDAE1046194622E750EA410652
:1009500018BF52EA43067FF4C5AE50EA41047FF463
:100960000DAF52EA43057FF4EBAE12E753B94AB933
:10097000002908BF00281CBF4FF0FF314FF0FF30A7
:1009800000F072B9ADF1080C6DE904CE00F006F884
:10099000DDF804E0DDE9022304B070472DE9F047FB
:1009A000089E04468846002B4BD18A42154667D9DB
:1009B000B2FA82F24AB1C2F1200701FA02F320FA38
:1009C00007F7954047EA030894404FEA154E230C79
:1009D000B8FBFEF71FFA85FC0EFB178843EA0843B5
:1009E00007FB0CF1994209D9EB1807F1FF3080F0B1
:1009F0001B81994240F21881023F2B445B1AA4B23A
:100A0000B3FBFEF00EFB103344EA034400FB0CFC86
:100A1000A44509D92C1900F1FF3380F00781A445C2
:100A200040F2048102382C4440EA0740A4EB0C0455
:100A300000271EB1D4400023C6E900433946BDE873
:100A4000F0878B4209D9002E00F0EB800027C6E921
:100A5000000138463946BDE8F087B3FA83F7002F26
:100A600047D18B4202D3824200F2FA80841A61EBB2
:100A7000030301209846002EE0D0C6E90048DDE7D8
:100A800002B9FFDEB2FA82F2002A40F08F80491BE1
:100A90004FEA154E1FFA85F80127B1FBFEFC230C27
:100AA0000EFB1C1143EA014308FB0CF1994207D9E4
:100AB000EB180CF1FF3002D2994200F2CD8084464F
:100AC000591AA3B2B1FBFEF00EFB101443EA044422
:100AD00008FB00F8A04507D92C1900F1FF3302D21A
:100AE000A04500F2B6801846A4EB080440EA0C408A
:100AF0009FE7C7F1200CBB4022FA0CFE4EEA030E22
:100B000001FA07F420FA0CF521FA0CF34FEA1E481B
:100B10002543B3FBF8F92C0C08FB19331FFA8EFAA6
:100B200044EA034309FB0AF49C4202FA07F200FA82
:100B300007F10BD91EEB030309F1FF3080F087802A
:100B40009C4240F28480A9F1020973441B1BADB2A0
:100B5000B3FBF8F008FB103345EA034400FB0AFA44
:100B6000A24508D91EEB040400F1FF336BD2A24565
:100B700069D90238744440EA0940A0FB0289A4EB19
:100B80000A044C45C2464B4654D351D0002E69D07E
:100B9000B1EB0A0564EB030404FA0CFCFD40FC40D5
:100BA0004CEA0505C6E90054002747E7C2F12003D7
:100BB00020FA03F7954001FA02F021FA03F34FEA15
:100BC000154E3843010CB3FBFEF71FFA85F80EFBF8
:100BD000173341EA034107FB08F38B4204FA02F49E
:100BE00007D9691807F1FF3C2FD28B422DD9023F5C
:100BF0002944CB1A81B2B3FBFEF00EFB103341EA5D
:100C0000034100FB08F38B4207D9691800F1FF3C50
:100C100017D28B4215D902382944C91A40EA07472E
:100C20003BE73746304609E70746E7E61846FBE666
:100C30004145ABD2B8EB020A69EB0E02013813460C
:100C4000A4E76046E9E7184695E76746D1E781469D
:100C50007CE702382C4447E7ACF1020C2B442FE729
:100C6000384608E73746E9E6704700BF034613F801
:100C7000012B002AFBD1181A013870470000000030
:100C800001F0FF01102A2BDB10F0070F08D010F83D
:100C9000013B013A8B422DD010F0070F42B3F6D141
:100CA000F0B441EA012141EA014122F007047FF05A
:100CB00000070023F0E80256083C85EA010586EAB1
:100CC000010685FA47F5A3FA87F586FA47F6A5FAED
:100CD00087F68EB9EED1F0BC01F0FF0102F00702F9
:100CE00032B110F8013B013A83EA010313B1F8D1A4
:100CF0000020704701387047002D06BF3546033885
:100D0000073815F0010F07D1013015F4807F02BFBD
:100D1000013015F4C03F0130F0BC0138704700BF0E
:100D20004FF0FF3C06E000BF4FF0010C02E000BFB7
:100D30004FF0010C4DF804CD4FEA410C7FEA6C5C9A
:100D40004FEA430C18BF7FEA6C5C1BD001B050EA3D
:100D5000410C0CBF52EA430C91EA030F02BF90EA28
:100D6000020F0020704710F1000F91EA030F58BFE7
:100D7000994208BF90422CBFD8176FEAE37040F049
:100D8000010070474FEA410C7FEA6C5C02D150EAE7
:100D9000013C07D14FEA430C7FEA6C5CD6D152EAA2
:100DA000033CD3D05DF8040B704700BF8446104667
:100DB00062468C461946634600E000BF01B5FFF766
:100DC000B7FF002848BF10F1000F01BD4DF808ED36
:100DD000FFF7F4FF0CBF012000205DF808FB00BF07
:100DE0004DF808EDFFF7EAFF34BF012000205DF861
:100DF00008FB00BF4DF808EDFFF7E0FF94BF0120AE
:100E000000205DF808FB00BF4DF808EDFFF7CEFFAE
:100E100094BF012000205DF808FB00BF4DF808EDED
:100E2000FFF7C4FF34BF012000205DF808FB00BFBE
:100E30004FEA410C7FEA6C5C02D150EA013C0AD1D6
:100E40004FEA430C7FEA6C5C02D152EA033C02D1C8
:100E50004FF0000070474FF0010070474FEA410229
:100E600012F5001215D211D56FF47873B3EB6252FC
:100E700012D94FEAC12343F0004343EA505311F023
:100E8000004F23FA02F018BF404270474FF00000B5
:100E9000704750EA013005D111F0004008BF6FF0F3
:100EA000004070474FF00000704700BF104B1B68B8
:100EB0000BB90120704710B504464FF47A70B0FBAF
:100EC000F3F30C4A1068B0FBF3F000F0C7F868B910
:100ED0000F2C01D901200AE0002221464FF0FF30FB
:100EE00000F068F8024B5C60002000E0012010BDBB
:100EF000000000200800002010B5094A136843F4E0
:100F000080731360032000F043F80020FFF7CEFF4A
:100F100010B10124204610BD044602F0D1FCF9E7CF
:100F200000200240034A1368034909680B44136018
:100F3000704700BF1C02002000000020014B186811
:100F4000704700BF1C02002038B50446FFF7F6FFCB
:100F50000546B4F1FF3F02D0044B1B681C44FFF769
:100F6000EDFF401BA042FAD338BD00BF00000020B7
:100F7000024A136823F002031360704710E000E098
:100F8000024A136843F002031360704710E000E068
:100F9000074AD36823F4E0631B041B0C000200F42F
:100FA000E060184340F0BF6040F40030D06070470C
:100FB00000ED00E030B4174BDB68C3F30223C3F14C
:100FC0000704042C28BF04241D1D062D18D9033B3B
:100FD0004FF0FF3505FA04F421EA0401994005FABF
:100FE00003F322EA0303194300280BDB0901C9B20A
:100FF00000F1604000F5614080F8001330BC70479C
:101000000023E5E700F00F000901C9B2024B1954B3
:10101000F4E700BF00ED00E014ED00E0002807DB7E
:1010200000F01F02400901239340024A42F8203099
:10103000704700BF00E100E000280CDB00F01F0259
:101040004009012393402030034A42F82030BFF387
:101050004F8FBFF36F8F704700E100E00138B0F1B0
:10106000807F0AD2064B5860064AF02182F823108E
:101070000020986007221A6070470120704700BF67
:1010800010E000E000ED00E070B4446C04F01C05DA
:10109000066C0124AC407460046863608368102BA4
:1010A00005D0036899600368DA6070BC7047036814
:1010B0009A600368D960F8E7002869D010B4034645
:1010C0000168344A914245D8334A0A443349A1FB66
:1010D0000212120992004264314A0264022283F829
:1010E00025201868016821F4FF4121F070019A68F9
:1010F000DC6822431C6922435C6922439C692243C9
:10110000DC6922431C6A22430A4302609A68B2F5F2
:10111000804F15D0196C224A914226D0214A11687D
:10112000586C00F01C040F20A04021EA000111605F
:10113000116858685C6C04F01C04A0400143116005
:101140000020D863012283F8252083F824005DF86D
:10115000044B7047144A0A441049A1FB02121209B9
:1011600092004264114A0264B8E7A8321168586CD0
:1011700000F01C040F20A04021EA0001116011685A
:1011800058685C6C04F01C04A04001431160D7E770
:101190000120704707040240F8FFFDBFCDCCCCCC46
:1011A00000000240A8040240F8FBFDBF000402401A
:1011B00038B590F82440012C33D0012480F8244025
:1011C00090F82540E4B2012C04D0002380F82430AC
:1011D000022038BD0446022084F825000020E06388
:1011E0002568286820F0010028602046FFF74CFFA2
:1011F000236B5BB12268136843F00E03136022680F
:10120000136843F0010313600020E2E722681368CB
:1012100023F0040313602268136843F00A03136089
:10122000EDE70220D5E738B5036C19680468256836
:10123000436C03F01C0304229A400A4215D015F0B7
:10124000040F12D0236813F0200F03D1236823F07A
:1012500004032360436C03F01C02016C04239340DD
:101260004B60036B03B1984738BD02229A400A4293
:101270001CD015F0020F19D0236813F0200F06D1EF
:10128000236823F00A032360012380F82530436C90
:1012900003F01C02016C022393404B60002380F892
:1012A0002430C36A002BDFD09847DDE7082202FA1A
:1012B00003F30B42D8D015F0080FD5D0236823F0E4
:1012C0000E032360436C03F01C03016C012202FA3D
:1012D00003F34B60C26380F82520002380F824309C
:1012E000436B002BC0D09847BEE70000F0B482B03B
:1012F000002336E0042400E00024B4403C430235DF
:101300005B4E46F825405B4C2568D44304EA05064D
:101310004F6817F4803F01D042EA0506554D2E6014
:101320006D6804EA05064F6817F4003F01D042EAF1
:101330000506504D6E60AD6804EA05064F6817F467
:10134000801F01D042EA05064A4DAE60ED682C4090
:101350004E6816F4001F01D042EA0504454AD460E5
:1013600001330A6832FA03F47ED001249C40224003
:10137000F6D04D68022D01D0122D10D1DE080836AE
:1013800050F826C003F00705AF000F25BD402CEA3A
:10139000050C0D69BD4045EA0C0540F8265006686D
:1013A0005F000325BD40ED4305EA060C4E6806F0DC
:1013B0000306BE4046EA0C0606604E6806F1FF3C96
:1013C000BCF1010F03D9112E01D0122E10D1866865
:1013D00005EA060CCE68BE4046EA0C068660466802
:1013E00026EA04044E68C6F300169E402643466073
:1013F000C46825408C68BC402C43C4604C6814F021
:10140000805FADD01C4C256E45F001052566246E2D
:1014100004F001040194019C9D08AE1C144C54F886
:10142000267003F00304A6000F24B44027EA040743
:10143000B0F1904F3FF460AF104CA0420ED004F5D5
:101440008064A0420CD004F58064A0420AD004F568
:101450008064A0423FF44EAF07244EE701244CE7DE
:1014600002244AE7032448E702B0F0BC704700BFFB
:101470000000014000040140001002400004004848
:101480000369194201D100207047012070470AB951
:10149000816270478161704708B5054B5B69034203
:1014A00000D108BD024B586102F0A8F8F9E700BF6F
:1014B0000004014010B50C46A0B90F4B5B6913F452
:1014C000007F0AD10D4A136923F004031361012C34
:1014D00010D040BF20BF20BF10BD00F069F8002829
:1014E000F0D0F9E7044B5B6913F4007FEAD100F018
:1014F00057F8E7E730BFEFE70070004000ED00E08D
:10150000024B186800F4C060704700BF00700040D4
:10151000B0F5007F0FD01F4B1B6803F4C063B3F519
:10152000806F34D01B4A136823F4C06343F4806394
:10153000136000207047174B1B6803F4C063B3F5BA
:10154000007F22D0134A136823F4C06343F400736E
:101550001360114B1A68322303FB02F30F4AA2FBFC
:1015600003239B0C013300E0013B0A4A526912F449
:10157000806F01D0002BF7D1064B5B6913F4806FAD
:1015800001D10020704703207047002070470020E1
:10159000704700BF007000400800002083DE1B433E
:1015A000024A136843F480431360704700700040A0
:1015B000104A136823F4804313600F4B1A683223D8
:1015C00003FB02F30D4AA2FB03239B0C013300E053
:1015D000013B084A526912F4007F01D0002BF7D179
:1015E000044B5B6913F4007F01D100207047032096
:1015F000704700BF007000400800002083DE1B43DE
:1016000030B583B00546204B9B6D13F0805F0BD047
:10161000FFF776FFB0F5007F17D0802D1FD82DD0B3
:10162000702D2DD000211BE0174CA36D43F080538B
:10163000A365A36D03F080530193019BFFF760FF47
:10164000A36D23F08053A365E4E7802D03D9A02D7B
:1016500003D9022104E0002102E0012100E003217E
:101660000A4A136823F007030B431360136803F05F
:1016700007038B4206D0012003B030BD0221EFE703
:101680000121EDE70020F7E70010024000200240B2
:10169000284A9368D26802F0030213F00C030AD0C0
:1016A0000C2B06D0042B1FD0082B20D00020024684
:1016B00010E0012AF6D11F4A126812F0080F0CD16F
:1016C0001C4AD2F89420C2F303221B4951F822206D
:1016D00043B100200C2B0DD07047164A1268C2F39C
:1016E0000312F2E71046F5E714480022F2E7144827
:1016F0000022EFE70F4BDB6803F00303022B15D04A
:10170000032B15D00B4BD868C0F302100130D968F9
:10171000C1F3062102FB01F2B2FBF0F2D868C0F37C
:10172000416001304000B2FBF0F0D5E7034AE9E741
:10173000034AE7E700100240B85D00080024F40007
:1017400000127A00002800F00883F0B583B0044648
:10175000AD4B9D6805F00C05DE6806F003060368D6
:1017600013F0100F5ED0E5B10C2D18D0A369002B3B
:1017700000F0B880A44A136843F001031360FFF738
:10178000DDFB0746A04B1B6813F0020F40F097806B
:10179000FFF7D4FBC01B0228F4D90323E9E2012E92
:1017A000E4D1994B1B6813F0020F03D0A369002BFF
:1017B00000F0D682206A944B1B6813F0080F5ED0AD
:1017C000914B1B6803F0F00398425FD9FFF718FFB5
:1017D000002840F0C7828C4B1A6842F008021A6059
:1017E0001A6822F0F002216A0A431A605A6822F449
:1017F0007F42E16942EA01225A60FFF749FF824BCA
:101800009B68C3F30313814AD35C03F01F03D840E2
:101810007F4B18607F4B1868FFF748FB0346002892
:1018200040F0A782236813F0010F7AD0082D6FD003
:101830000C2D6BD06368B3F5803F00F09180B3F559
:10184000A02F00F09380704B1A6822F480321A6047
:101850001A6822F480221A606368002B00F09380DB
:10186000FFF76CFB0746684B1B6813F4003F58D129
:10187000FFF764FBC01B6428F5D9032379E2624BB0
:10188000D3F894301B0903F0F0039DE75E4B1A6810
:1018900042F008021A601A6822F0F002216A0A4334
:1018A0001A605A6822F47F42E16942EA01225A60D2
:1018B000206AFFF7A5FE00289FD0012359E2524B72
:1018C0001A6842F008021A601A6822F0F002216ACF
:1018D0000A431A605A6822F47F42E16942EA01220F
:1018E0005A609FE7484A136823F001031360FFF72B
:1018F00025FB0746444B1B6813F0020F92D0FFF7FD
:101900001DFBC01B0228F5D9032332E2032E91D11F
:101910003D4B1B6813F4003F03D06368002B00F0BD
:101920002382236813F0020F4FD0042D3CD00C2DDE
:1019300038D0E368002B78D0334A136843F48073BF
:101940001360FFF7FBFA06462F4B1B6813F4806FFA
:1019500062D1FFF7F3FA801B0228F5D9032308E2CE
:10196000294A136843F48033136075E703F1804319
:10197000A3F53C331A6842F480221A601A6842F4D4
:1019800080321A6068E7FFF7D9FA07461E4B1B68DA
:1019900013F4003FC5D0FFF7D1FAC01B6428F5D976
:1019A0000323E6E1022EC4D1174B1B6813F4806FAA
:1019B00003D0E368002B00F0D981134A536823F069
:1019C000F853216943EA01635360236813F0080F59
:1019D00056D06369002B3CD00B4AD2F8943043F0C8
:1019E0000103C2F89430FFF7A9FA0646064BD3F874
:1019F000943013F0020F43D1FFF7A0FA801B0228A6
:101A0000F4D90323B5E100BF00100240E85D0008EF
:101A10000800002004000020B64A536823F0F85361
:101A2000216943EA01635360CFE7B24A136823F4A4
:101A300080731360FFF782FA0646AE4B1B6813F4FF
:101A4000806FC2D0FFF77AFA801B0228F5D90323F2
:101A50008FE1A84AD2F8943023F00103C2F8943001
:101A6000FFF76CFA0646A34BD3F8943013F0020F3D
:101A700006D0FFF763FA801B0228F4D9032378E12C
:101A8000236813F0040F7AD09A4B9B6D13F0805F9C
:101A90000BD1984B9A6D42F080529A659B6D03F082
:101AA00080530193019B012600E00026924B1B68A6
:101AB00013F4807F26D0A368012B37D0052B3DD0AF
:101AC0008C4BD3F8902022F00102C3F89020D3F879
:101AD000902022F00402C3F89020A368002B3BD092
:101AE000FFF72CFA0746834BD3F8903013F0020F20
:101AF00044D1FFF723FAC01B41F288339842F2D950
:101B0000032336E17C4A136843F480731360FFF7C4
:101B100015FA0746784B1B6813F4807FCBD1FFF78B
:101B20000DFAC01B0228F5D9032322E1714AD2F82D
:101B3000903043F00103C2F89030CEE76D4BD3F8FC
:101B4000902042F00402C3F89020D3F8902042F095
:101B50000102C3F89020C0E7FFF7F0F90746654B94
:101B6000D3F8903013F0020F08D0FFF7E7F9C01B4D
:101B700041F288339842F2D90323FAE0E6B92368A8
:101B800013F0200F35D0636AE3B15A4AD2F8983087
:101B900043F00103C2F89830FFF7D0F90646554BE1
:101BA000D3F8983013F0020F23D1FFF7C7F9801B49
:101BB0000228F4D90323DCE04E4A936D23F08053CE
:101BC0009365DCE74B4AD2F8983023F00103C2F862
:101BD0009830FFF7B3F90646464BD3F8983013F028
:101BE000020F06D0FFF7AAF9801B0228F4D90323BD
:101BF000BFE0A36A002B00F0BB800C2D6FD0022B3E
:101C000023D03C4B1A6822F080721A601B6813F0D4
:101C1000006F04D1374AD36823F00303D360354AF9
:101C2000D36823F0887323F48033D360FFF786F9F9
:101C30000446304B1B6813F0007F4ED0FFF77EF94F
:101C4000001B0228F5D9032393E02A4A136823F0E6
:101C500080731360FFF772F90546264B1B6813F07B
:101C6000007F06D0FFF76AF9401B0228F5D903234D
:101C70007FE0204AD36821491940E36A206B01388C
:101C800043EA0013606B43EA0023E06B400801382D
:101C900043EA4053206C4008013843EA4063A06B9C
:101CA00043EAC0630B43D360136843F0807313604F
:101CB000D36843F08073D360FFF740F904460D4BBF
:101CC0001B6813F0007F06D1FFF738F9001B0228CC
:101CD000F5D903234DE000234BE0002349E0012B1D
:101CE0004AD0044BDB6803F00301E26A914207D05B
:101CF00001233EE000100240007000408C809D01F6
:101D000003F07002216B0139B2EB011F01D00123F6
:101D10002FE003F4FE42616BB2EB012F01D00123EF
:101D200027E003F07842A16BB2EBC16F01D0012331
:101D30001FE003F4C001E26B5208013AB1EB425FCD
:101D400001D0012315E003F0C063226C5208013A70
:101D5000B3EB426F12D001230BE00123184670470A
:101D6000012306E0012304E0012302E0012300E057
:101D70000023184603B0F0BD0123FAE70023F8E77B
:101D8000002800F09B8070B504464E4B1B6803F0A2
:101D900007038B420CD24B4A136823F007030B4313
:101DA0001360136803F007038B4201D0012070BD5C
:101DB0000D46236813F0010F39D06368032B09D057
:101DC000022B26D063BB404A126812F0020F06D1E4
:101DD0000120ECE73C4A126812F0007F70D03A49CB
:101DE0008A6822F0030213438B60FFF7A7F80646C8
:101DF000354B9B6803F00C036268B3EB820F16D07F
:101E0000FFF79CF8801B41F288339842F0D90320F9
:101E1000CDE72D4A126812F4003FE0D10120C6E759
:101E2000294A126812F4806FD9D10120BFE72368D4
:101E300013F0020F06D0244A936823F0F003A16840
:101E40000B4393601F4B1B6803F00703AB420CD995
:101E50001C4A136823F007032B431360136803F035
:101E60000703AB4201D00120A1E7236813F0040F60
:101E700006D0154A936823F4E063E1680B4393604E
:101E8000236813F0080F07D00F4A936823F46053B8
:101E9000216943EAC1039360FFF7FAFB0A4B9B6891
:101EA000C3F30313094AD35C03F01F03D840084B64
:101EB0001860084B1868FEF7F9FF78E701207047B3
:101EC000012074E70020024000100240E85D000895
:101ED0000800002004000020014B1868704700BF74
:101EE0000800002008B5FFF7F7FF054B9B68C3F318
:101EF0000223044AD35C03F01F03D84008BD00BF8F
:101F000000100240F85D000808B5FFF7E5FF054B3B
:101F10009B68C3F3C223044AD35C03F01F03D84079
:101F200008BD00BF00100240F85D0008F8B5594B2D
:101F3000DB6813F0030F18D0564BDB6803F0030384
:101F40000268934202D001252846F8BD002A00F01D
:101F50009F80504BDB68C3F3021301334268934206
:101F600001D00125F0E700251AE00368022B58D0C4
:101F7000032B5DD0012B01D001250FE0454A1268EB
:101F800012F0020F60D0434DEA6822F073024468F9
:101F9000013C43EA04131343EB600025002DD3D129
:101FA0000F4604463B4A136823F080631360FEF734
:101FB000C5FF0646374B1B6813F0006F05D0FEF7D0
:101FC000BDFF801B0228F5D90325002DBCD1002FB1
:101FD0003CD130490B6923F0784323F4FE43A068D9
:101FE000E268D20642EA002213430B61294A1368D1
:101FF00043F080631360FEF7A1FF0646254B1B6884
:1020000013F0006F05D1FEF799FF801B0228F5D968
:102010000325002D98D11F4A1369A1690B43136151
:1020200092E71C4A126812F4806FACD10125B5E723
:10203000184A126812F4003FA5D1164A126812F429
:10204000802FA0D10125A9E70125A7E7012F0FD0F7
:102050001048026922F0C06222F4FE42A16863695E
:102060005B08013B5B0643EA012313430361BDE7C1
:102070000848026922F4C00222F4FE42A1682369E2
:102080005B08013B5B0543EA012313430361ADE7B2
:10209000012559E7001002402DE9F04182B00446C5
:1020A000036813F4006F26D0436CB3F5000F06D01D
:1020B000B3F5400F1DD09BB1012637461DE0BD4A48
:1020C000D36843F48033D3600027BA4AD2F888300B
:1020D00023F44003616C0B43C2F8883000260CE007
:1020E00000210430FFF722FF07460028EDD0064606
:1020F00003E00027E9E700263746236813F4003F92
:102100006BD0AC4B9B6D13F0805F4CD1A94B9A6D9B
:1021100042F080529A659B6D03F080530193019BBE
:102120004FF00108A44A136843F480731360FEF76C
:1021300005FF0546A04B1B6813F4807F05D1FEF711
:10214000FDFE401B0228F5D90327002F40D1994BF3
:10215000D3F8903013F4407315D0E26D9A4212D048
:10216000944AD2F8903023F44073D2F8901041F49E
:102170008031C2F89010D2F8901021F48031C2F86A
:102180009010C2F8903013F0010F0FD1002F40F0E3
:10219000F780884AD2F8903023F44073E16D0B4306
:1021A000C2F8903015E04FF00008BBE7FEF7C6FE1E
:1021B0000546804BD3F8903013F0020FE6D1FEF7BE
:1021C000BDFE401B41F288339842F2D90327DDE778
:1021D0003E46B8F1000F40F0D580236813F0010FA0
:1021E00008D0744AD2F8883023F00303216A0B43E5
:1021F000C2F88830236813F0020F08D06D4AD2F875
:10220000883023F00C03616A0B43C2F888302368DE
:1022100013F0040F08D0674AD2F8883023F0300357
:10222000A16A0B43C2F88830236813F0200F08D04E
:10223000604AD2F8883023F44063E16A0B43C2F865
:102240008830236813F4007F08D05A4AD2F88830C7
:1022500023F44023E16B0B43C2F88830236813F466
:10226000806F08D0534AD2F8883023F44013216C91
:102270000B43C2F88830236813F0400F08D04D4A52
:10228000D2F8883023F44053216B0B43C2F88830D6
:10229000236813F0800F08D0464AD2F8883023F420
:1022A0004043616B0B43C2F88830236813F4807F8E
:1022B00008D0404AD2F8883023F44033A16B0B4356
:1022C000C2F88830236813F4005F0FD0394AD2F87F
:1022D000883023F04063A16C0B43C2F88830A36CB4
:1022E000B3F1006F54D0B3F1806F56D0236813F46C
:1022F000002F0FD02F4AD2F8883023F04063E16CD2
:102300000B43C2F88830E36CB3F1006F4DD0B3F1EA
:10231000806F53D0236813F4802F0FD0254AD2F852
:10232000883023F04063216D0B43C2F88830236D61
:10233000B3F1006F4AD0B3F1806F4CD0236813F42F
:10234000804F0CD01B4AD2F8883023F04053616D87
:102350000B43C2F88830636DB3F1805F43D02368CC
:1023600013F4004F08D0134AD2F8883023F080438A
:10237000A16D0B43C2F88830304602B0BDE8F08151
:102380003E4626E70B4A936D23F08053936524E77E
:10239000D36843F48013D360A8E70121201DFFF721
:1023A000C5FD0028A2D00646A0E7D36843F48013F9
:1023B000D360AFE700100240007000400121201DF3
:1023C000FFF7B4FD0028A5D00646A3E7D36843F481
:1023D0008013D360B2E70121201DFFF7A7FD00287D
:1023E000ACD00646AAE70221201DFFF79FFD00287A
:1023F000B5D00646B3E700BFF8B505460F4616460A
:102400001C462B689B6837EA03030CBF012300239B
:10241000B34237D0B4F1FF3FF3D0FEF78FFD069BF8
:10242000C01AA04201D2002CEBD12A68536823F0D5
:10243000E00353606B68B3F5827F0BD0AB6AB3F5F2
:10244000005F14D0012385F85D30002385F85C30EF
:10245000032018E0AB68B3F5004F02D0B3F5806FEE
:10246000ECD12A68136823F040031360E6E72A687A
:10247000136823F4005313602A68136843F400536D
:102480001360DFE70020F8BDF8B507460C46154697
:102490001E4602E0B6F1FF3F0BD13A689368234035
:1024A000AB423BD0B4F5C06FF4D1002DF2D1137B19
:1024B000F0E7FEF743FD069BC01AB04201D2002EA2
:1024C000EBD13A68536823F0E00353607B68B3F5BF
:1024D000827F0BD0BB6AB3F5005F14D0012387F86D
:1024E0005D30002387F85C30032018E0BB68B3F54B
:1024F000004F02D0B3F5806FECD13A68136823F037
:1025000040031360E6E73A68136823F4005313604E
:102510003A68136843F400531360DFE70020F8BD06
:1025200070B582B004460D46164600920B46002256
:102530004FF4C051FFF7A8FFB8B900962B46002210
:1025400080212046FFF758FFB8B900962B4600229D
:102550004FF4C0612046FFF797FF034650B1236E4A
:1025600043F020032366032304E0236E43F020039B
:1025700023660323184602B070BD236E43F0200388
:1025800023660323F6E770B582B004460D4616466F
:102590004368B3F5827F0FD000962B46002280213E
:1025A0002046FFF729FF034698B96268B2F5827F9B
:1025B00015D0184602B070BD8368B3F5004F02D045
:1025C000B3F5806FE8D12268136823F040031360ED
:1025D000E2E7236E43F0200323660323E9E7A268C2
:1025E000B2F5004F02D0B2F5806FE2D100962B46D3
:1025F00000224FF4C0612046FFF746FF0346002843
:10260000D7D0236E43F0200323660323D1E70028AD
:1026100053D010B504460023836290F85D30002B40
:1026200040D0022384F85D302268136823F0400311
:102630001360E368B3F5E06F39D90022B3F5706F2A
:1026400004D0B3F5E06F01D00021A162216B21B964
:10265000B3F5E06F2ED9022323636368A1680B43AF
:1026600021690B4361690B43A16901F400710B43BC
:10267000E1690B43216A0B43A06A216803430B60A5
:10268000638B03F00403616A0B43616B0B43E168E6
:102690000B43216813434B6000202066012384F81C
:1026A0005D3010BD80F85C3001F022F9B9E74FF4DD
:1026B0008052C3E701232363CFE701207047000066
:1026C00038B590F85C40012C00F0F28004460120FF
:1026D00084F85C0094F85D00C0B26568012810D0F1
:1026E000B5F5827F05D00223002284F85C201846CD
:1026F00038BDA568002D40F0D380042801D0022306
:10270000F2E7002900F0CE80002A00F0CD80002BF7
:1027100000F0CC8094F85D00C0B2042802D00520FF
:1027200084F85D0000202066A163A387E38722640C
:10273000A4F84430A4F84630E06420652268536869
:1027400023F4C0435360E368B3F5E06F27D92268F0
:10275000536823F48053536094F85D30DBB2042B4C
:1027600064D0A36D534A1A63A36D534ADA62A36D12
:10277000524A5A63A36D00229A632168B4F8463026
:10278000226C0C31A06DFEF713FD002855D0236E8E
:1027900043F010032366012384F85D30A4E7226828
:1027A000536843F480535360636D9B69B3F5806F46
:1027B00019D0A36D9B69B3F5806FCDD122685368A2
:1027C00023F480535360B4F8463013F0010F21D145
:1027D0002268536823F400535360B4F846305B0812
:1027E000A4F84630B8E7A38F13F0010F08D1226890
:1027F000536823F480435360E38F5B08E387D8E793
:102800002268536843F480435360E38F5B080133CD
:10281000E387CEE72268536843F400535360B4F86B
:1028200046305B080133A4F8463095E7A36D244A8F
:102830001A63A36D234ADA6299E72268536843F06A
:1028400001035360626D00231363626DD362626D96
:102850005363626D93632268E38F0C32A16B606DEA
:10286000FEF7A6FC034638B1236E43F0100323663F
:10287000012384F85D3037E72268116811F0400FBA
:1028800003D1116841F04001116021684A6842F0AB
:1028900020024A6021684A6842F002024A6023E747
:1028A000022321E701231FE701231DE701231BE783
:1028B00002231CE7D92800085F290008E528000842
:1028C000CD280008072900087047704708B5806ABE
:1028D000FFF7FBFF08BD704708B5806AFFF7FBFFF5
:1028E00008BD704708B5806A0268536823F0030387
:1028F0005360036E43F010030366012380F85D30DC
:10290000FFF7EFFF08BD38B50546846AFEF716FBF2
:102910002B681B6813F0200F19D12268536823F02D
:10292000200353602268536823F003035360024678
:1029300064212046FFF727FE08B1202323660023E9
:10294000A4F84630012384F85D30236E1BB920467D
:10295000FFF7BAFF38BD2046FFF7C3FFFAE738B5E7
:102960000546846AFEF7EAFA2B681B6813F0200F0D
:102970001CD12268536823F020035360024664216F
:102980002046FFF7CDFD18B1236E43F020032366E8
:102990002268536823F0030353600023E387A4F8FD
:1029A0004630012384F85D30236E1BB9204600F0C9
:1029B00023FE38BD2046FFF794FFFAE790F85D004C
:1029C000704700002DE9F0480446016883680269F9
:1029D000134342691343C269134308689E4A024085
:1029E00013430B602268536823F44053E1680B43A0
:1029F0005360A1692268994B9A4201D0236A194316
:102A0000936823F430630B4393602368944A9342A2
:102A10001FD0944A934230D0934A934246D08F4A73
:102A2000934259D010258D4A934276D0E369B3F58D
:102A3000004F00F0ED80082D00F28981DFE815F0ED
:102A400049015F01690187017401870187018701DD
:102A50007E0102F55842D2F8882002F00302032AD0
:102A600009D8DFE802F0020452060125DBE704255D
:102A7000D9E70825D7E71025D5E702F5E632D2F8E1
:102A8000882002F00C020C2A0ED8DFE802F0070DB5
:102A90000D0D090D0D0D400D0D0D0B000025C2E7AC
:102AA0000425C0E70825BEE71025BCE702F5E4329F
:102AB000D2F8882002F03002102A09D005D9202A45
:102AC00027D0302A06D10825ADE71AB90025AAE794
:102AD0000425A8E71025A6E702F5C832D2F8882019
:102AE00002F44062B2F5806F0BD007D9B2F5006FE7
:102AF00011D0B2F5406F06D1082594E71AB9002528
:102B000091E704258FE710258DE702258BE7022545
:102B100089E7022587E7022585E7082D00F21A815B
:102B2000DFE815F00C00180114001801110018015D
:102B30001801180109004FF4004008E0FFF7D2F92E
:102B400028B90020D6E0FEF7A3FDF9E74748626800
:102B500002EB4203834200F2FF80B0EB023F00F23F
:102B6000FD80082D51D8DFE805F005502050305089
:102B700050504300FFF7B6F90025070E06026268C1
:102B800050082B4616EB000B47F1000C58466146E7
:102B9000FDF7ECFE03462846A3F54071344A914206
:102BA00000F2DE802268D360A4E0560800252B46A0
:102BB000DFF8C0B04FF0000C1BEB06004CF1000139
:102BC000FDF7D4FE03462846E6E7FEF761FD002543
:102BD000070E0602626850082B4616EB000B47F101
:102BE000000C58466146FDF7C1FE03462846D3E770
:102BF0005008002700252B4610F5000047F1000182
:102C0000FDF7B4FE03462846C6E701200023C3E7CC
:102C1000082D5BD8DFE805F005303B5A465A5A5A72
:102C20005100FFF75FF96268530803EB4003B3FB01
:102C3000F2F39BB20020A3F110014FF6EF72914224
:102C400000F290809AB222F00F02C3F342031343C2
:102C50002268D3604EE000BFF369FFEF00800040C0
:102C60000038014000440040004800400024F400C7
:102C7000FFFC0F00000024F4FFF746F962685308D8
:102C800003EB4003B3FBF2F39BB20020D3E762688F
:102C9000530803F1F47303F59043B3FBF2F39BB2D3
:102CA0000020C8E7FEF7F4FC6268530803EB40031A
:102CB000B3FBF2F39BB20020BDE76268530803F553
:102CC0008033B3FBF2F39BB20020B4E70120002372
:102CD000B1E7FFF707F9636800EB5302B2FBF3F2C9
:102CE00092B20020A2F110014FF6EF7399423BD847
:102CF0002368DA60002222666266BDE8F088FFF78A
:102D000003F9636800EB5302B2FBF3F292B20020C6
:102D1000E8E763685A0802F5740202F51052B2FB44
:102D2000F3F292B20020DDE7FEF7B2FC636800EB3D
:102D30005302B2FBF3F292B20020D3E763685A0861
:102D400002F50042B2FBF3F292B20020CAE7012082
:102D50000022C7E70120CDE70120CBE70120C9E72A
:102D60000120C7E70120C5E70120C3E7436A13F04C
:102D7000010F06D00268536823F40033816A0B43C5
:102D80005360436A13F0020F06D00268536823F4BD
:102D90008033C16A0B435360436A13F0040F06D0BB
:102DA0000268536823F48023016B0B435360436A2A
:102DB00013F0080F06D00268536823F40043416BF8
:102DC0000B435360436A13F0100F06D002689368F8
:102DD00023F48053816B0B439360436A13F0200FFD
:102DE00006D00268936823F40053C16B0B439360D1
:102DF000436A13F0400F0AD00268536823F480132B
:102E0000016C0B435360036CB3F5801F0BD0436A16
:102E100013F0800F06D00268536823F40023816CFE
:102E20000B43536070470268536823F4C003416C3E
:102E30000B435360EBE72DE9F04105460F4616467C
:102E40009846069C2B68DB6937EA03030CBF012315
:102E50000023B3421CD1B4F1FF3FF3D0FEF76EF86C
:102E6000A0EB0800A04201D8002CEBD12A6813681F
:102E700023F4D07313602A68936823F001039360EE
:102E800020236B67AB67002385F87030032000E0D8
:102E90000020BDE8F0812DE9F04182B01E46436F6D
:102EA000202B55D104460D469046002955D0002AC6
:102EB00055D090F87030012B53D0012380F870303A
:102EC0000023C36721234367FEF738F80746A4F8B9
:102ED0005080A4F85280A368B3F5805F02D04FF011
:102EE000000813E0236913B14FF000080EE0A84674
:102EF00000250BE038F8023B2268C3F30803138572
:102F0000B4F85230013B9BB2A4F85230B4F85230BE
:102F10009BB273B100963B46002280212046FFF70A
:102F20008AFF00BB002DE5D0236815F8012B1A8518
:102F3000E6E700963B46002240212046FFF77BFF54
:102F4000034690B920226267002284F8702000E0D6
:102F50000223184602B0BDE8F0810123F9E70123FE
:102F6000F7E70223F5E70323F3E70323F1E730B59F
:102F700083B004460023C367FDF7E0FF05462368DE
:102F80001B6813F0080F0CD123681B6813F0040FA3
:102F900015D120236367A367002084F8700003B075
:102FA00030BD6FF07E430093034600224FF40011C2
:102FB0002046FFF740FF0028E6D00320EFE76FF040
:102FC0007E4300932B4600224FF480012046FFF7FA
:102FD00032FF0028DDD00320E1E768B310B50446D6
:102FE000436F03B3242363672268136823F001034C
:102FF00013602046FFF7E6FC012813D0636ABBB9D3
:103000002268536823F4904353602268936823F046
:103010002A0393602268136843F00103136020467B
:10302000FFF7A5FF10BD80F8703000F0CDFCD9E7A8
:103030002046FFF79BFEE3E70120704700B583B011
:1030400000228DF802208DF801000B238DF800304E
:103050004FF400614FF09040FEF719FA032301AAE4
:1030600069460A48FFF72CFB0848FFF7A7FC012830
:10307000FAD101224FF400614FF09040FEF707FAB9
:103080009DF8060003B05DF804FB00BF6802002055
:1030900000B583B08DF806108DF805000A238DF871
:1030A000043000224FF400614FF09040FEF7EFF93A
:1030B00003236A4601A90948FFF702FB0748FFF707
:1030C0007DFC0128FAD101224FF400614FF09040BD
:1030D000FEF7DDF903B05DF804FB00BF68020020D5
:1030E0002DE9F04186B080460E4615461C4600226A
:1030F00003920492ADF81420CDF80220CDF80620FA
:103100000E238DF8013006AF0B2307F8183D4FF45E
:1031100000614FF09040FEF7BAF90A2303AA39463E
:103120001748FFF7CDFA1648FFF748FC0128FAD1F7
:1031300001224FF400614FF09040FEF7A8F99DF88E
:103140000F209DF80E3043EA0223A8F800309DF8C6
:1031500011209DF8103043EA022333809DF813209C
:103160009DF8123043EA02232B809DF815209DF82C
:10317000143043EA0223238006B0BDE8F08100BF8B
:103180006802002000B585B08DF80C10030A8DF898
:103190000B308DF80A0020238DF809300A238DF8B2
:1031A000083000224FF400614FF09040FEF76FF9B5
:1031B00005236A4602A90948FFF782FA0748FFF784
:1031C000FDFB0128FAD101224FF400614FF090403D
:1031D000FEF75DF905B05DF804FB00BF6802002052
:1031E00000B585B00B0A8DF80D308DF80C10030A70
:1031F0008DF80B308DF80A0023238DF809300A234F
:103200008DF8083000224FF400614FF09040FEF737
:103210003EF906236A4602A90848FFF751FA074813
:10322000FFF7CCFB0128FAD101224FF400614FF0E7
:103230009040FEF72CF905B05DF804FB6802002011
:1032400070B58EB00026694B1E600620FDF7F4FEB7
:103250000720FDF7F1FE01AC654D0FCD0FC495E8D9
:10326000030084E8030001A8FDF700FD614C4FF660
:10327000FF7382B201A92046FFF70DFE52211F20E5
:10328000FFF706FF0120FDF75FFE3046FFF7D6FE91
:103290000246594901A801F0A1F901A8FDF7E6FC91
:1032A0004FF6FF7382B201A92046FFF7F4FD6421B7
:1032B0004FF4AF70FFF766FF4FF4B4714FF49670A0
:1032C000FFF78EFF3F212720FFF7E2FE2720FFF7C1
:1032D000B5FE0246494901A801F080F901A8FDF7B1
:1032E000C5FC4FF6FF7382B201A92046FFF7D3FD5C
:1032F00040212A20FFF7CCFE2A20FFF79FFE02463E
:103300003F4901A801F06AF901A8FDF7AFFC4FF6AB
:10331000FF7382B201A92046FFF7BDFD01212B20DA
:10332000FFF7B6FE2B20FFF789FE0246354901A8BC
:1033300001F054F901A8FDF799FC4FF6FF7382B232
:1033400001A92046FFF7A7FD13212C20FFF7A0FEBF
:103350002C20FFF773FE02462B4901A801F03EF92D
:1033600001A8FDF783FC4FF6FF7382B201A9204646
:10337000FFF791FD24212D20FFF78AFE2D20FFF776
:103380005DFE0546214E0246314601A801F026F9B0
:1033900001A8FDF76BFC4FF6FF7382B201A920462E
:1033A000FFF779FD45F00201C9B22D20FFF770FE4D
:1033B0002D20FFF743FE0246314601A801F00EF929
:1033C00001A8FDF753FC4FF6FF7382B201A9204616
:1033D000FFF761FD6420FDF7B7FD0620FDF71EFE37
:1033E0000720FDF71BFE0EB070BD00BF6404002077
:1033F000005E000878110020185E0008285E0008B2
:10340000445E0008585E00086C5E0008845E000898
:1034100030B589B00024039404940594069407946D
:10342000254BDA6C42F00402DA64DA6C02F0040232
:103430000092009ADA6C42F00102DA64DA6C02F06F
:1034400001020192019ADA6C42F00202DA64DB6C4A
:1034500003F002030293029B01224FF401614FF03B
:103460009040FEF714F803250395144B049305943C
:1034700003A94FF09040FDF739FF4FF40163039328
:10348000012304930594069503A94FF09040FDF79E
:103490002DFF224621460620FDF78CFD0620FDF774
:1034A000BDFD224621460720FDF784FD0720FDF7DC
:1034B000B5FD09B030BD00BF001002400000111082
:1034C00000B583B0224B9A6C42F001029A649A6C68
:1034D00002F001020092009A9A6C42F002029A6491
:1034E0009B6C03F002030193019B002211460E2006
:1034F000FDF760FD0E20FDF791FD002211460F2023
:10350000FDF758FD0F20FDF789FD00221146102020
:10351000FDF750FD1020FDF781FD0022114611201E
:10352000FDF748FD1120FDF779FD002211464420EA
:10353000FDF740FD4420FDF771FD002211464520B6
:10354000FDF738FD4520FDF769FD03B05DF804FB8C
:103550000010024008B50E480E4B03604FF4827312
:103560004360002383604FF4E062C2600361436103
:103570004FF4007282611022C2610362436283626F
:103580000722C262036308234363FFF740F808BDC4
:10359000680200200038004008B50948094B036064
:1035A0004FF4E133436000238360C36003610C2266
:1035B00042618361C36103624362FFF70EFD08BD90
:1035C000781100200044004008B50948094B036009
:1035D0004FF4E133436000238360C36003610C2236
:1035E00042618361C36103624362FFF7F6FC08BD79
:1035F000680400200038014070470000012800D016
:103600007047F8B50E4E0F4C06F1200735460FCD2A
:1036100020606160A260E3602E461034BD42F5D1A7
:10362000286820602B792371064C2046FDF71EFB8D
:103630004FF6FF7382B221460348FFF72CFCF8BD1A
:103640009C5E0008280300207811002030B5AFB040
:10365000242200211EA800F05DFB00241894199478
:103660001A941B941C9460222146684600F052FB79
:1036700002231D934FF480722092102221922793EF
:1036800028930122299208222A9207222B922C9316
:103690002D931DA8FEF756F80F23189303251995AF
:1036A0001A941B941C94294618A8FEF769FB0095F0
:1036B000089409946846FEF7EFFC4FF40070FDF79C
:1036C00027FF2FB030BD000080B586B0FDF714FC99
:1036D000FFF7BCFFFFF79CFEFFF7F2FEFFF73AFF94
:1036E000FFF75AFFFFF770FFFFF7AAFD65E00A201A
:1036F000FDF72AFC012210214FF09040FDF7C7FE94
:10370000674C2346A21C211DA01DFFF7E9FCB4F95C
:103710000600FCF7AFFE58A3D3E90023FCF714FF23
:10372000A668731CA36056A3D3E90023FCF756FDDB
:103730005C4D05EBC606C6E90001B4F90400FCF7D0
:1037400099FE4DA3D3E90023FCF7FEFEA668731C87
:10375000A3604DA3D3E90023FCF740FD05EBC606AB
:10376000C6E90001B4F90200FCF784FE42A3D3E9E4
:103770000023FCF7E9FEA668731CA36044A3D3E909
:103780000023FCF72BFD05EBC606C6E90001B4F9E2
:103790000000FCF76FFEA668731CA3603EA3D3E98C
:1037A0000023FCF7D1FE05EBC605C5E90001A368BF
:1037B000642B3CD01420FDF7C7FB01214FF0904053
:1037C000FDF75EFE384B18601B68002B8FD1374E1B
:1037D000374C06F1300735460FCD20606160A2609E
:1037E000E3602E461034BD42F5D12A88AB782280A2
:1037F000A3702F4C2046FDF739FA4FF6FF7382B2C3
:1038000021462C48FFF747FB002210214FF0904043
:10381000FDF73DFE6420FDF797FBFDF7A9FB0121B5
:103820004FF48040FDF746FEFDF7AAFBC2E71D4BB3
:10383000D3E9C0011E4CD3E9C667CDE90467D3E9DB
:10384000C467CDE90267D3E9C223CDE9002302466C
:103850000B461949204600F0C1FE2046FDF706FA46
:103860004FF6FF7382B221461248FFF714FB0C4B50
:1038700000229A609EE700BFFCA9F1D24D62503F42
:103880005A643BDF4F8D973F4C37894160E5A03F3D
:103890008FC2F5285C8FC23FA4703D0AD7A3B03F0A
:1038A000FC010020F004002064040020C45E000835
:1038B0002803002078110020F85E000870470000FF
:1038C00082B00A4B1A6E42F001021A661A6E02F0BA
:1038D00001020092009A9A6D42F080529A659B6DA7
:1038E00003F080530193019B02B070470010024027
:1038F00010B588B0002303930493059306930793B0
:1039000002682B4B9A4201D008B010BD044603F563
:10391000EC339A6D42F480429A659A6D02F48042CB
:103920000192019ADA6C42F00202DA64DB6C03F075
:1039300002030293029B4FF4604303930223049318
:10394000032306930523079303A91A48FDF7CEFC2A
:1039500019481A4B0360012343601023836000233E
:10396000C3608022026143618361C3610362FDF72A
:10397000A3FBB8B9104B63659C621148114B0360FF
:103980000123436000238360C3608022026143619E
:103990008361C3610362FDF78FFB30B9084BA365F8
:1039A0009C62B1E7FFF78AFFE4E7FFF787FFF5E7DF
:1039B0000038004000040048F81100205800024080
:1039C000D00200204400024030B58BB004460023F2
:1039D000059306930793089309930368544A934207
:1039E00004D0544A934251D00BB030BD524B1A6EA2
:1039F00042F480421A661A6E02F480420192019AE1
:103A0000DA6C42F00102DA64DB6C03F0010302932A
:103A1000029B4FF4C0630593022506950323089388
:103A20000723099305A94FF09040FDF75FFC434839
:103A3000434B0360456000238360C36080220261C2
:103A400043618361C3610362FDF736FBC0B93B4B41
:103A5000E3669C623B483C4B0360022343601023B7
:103A600083600023C3608022026143618361C3617C
:103A70000362FDF721FB30B9324BA3669C62B3E7CA
:103A8000FFF71CFFE3E7FFF719FFF5E72A4B9A6DF5
:103A900042F400329A659A6D02F400320392039A5E
:103AA000DA6C42F00102DA64DB6C03F00103049388
:103AB000049B0C23059302250695032308930723F3
:103AC000099305A94FF09040FDF710FC1F48204BCB
:103AD0000360456000238360C3608022026143610C
:103AE00083612022C2610362FDF7E6FAC8B9174B71
:103AF000E3669C621748184B03600223436010235F
:103B000083600023C36080220261436183612022BD
:103B1000C2610362FDF7D0FA30B90E4BA3669C6216
:103B200062E7FFF7CBFEE2E7FFF7C8FEF5E700BF6D
:103B3000003801400044004000100240D40300203F
:103B4000800402408C0300206C040240200200200C
:103B50006C0002401C040020800002407047FEE719
:103B6000FEE7FEE7FEE770477047704708B5FDF7D0
:103B7000D9F908BD08B50120FDF78EFC08BD08B5D0
:103B80000220FDF789FC08BD08B50248FDF74BFB94
:103B900008BD00BFD002002008B50248FDF743FB76
:103BA00008BD00BFF811002008B50248FDF73BFB37
:103BB00008BD00BF2002002008B50248FDF733FB16
:103BC00008BD00BF1C04002008B50248FDF72BFB10
:103BD00008BD00BF8C03002008B50248FDF723FB99
:103BE00008BD00BFD403002008B503460B4A126885
:103BF00042B10A4A106803446A46934206D8074A0B
:103C0000136008BD054A06491160F2E700F058F854
:103C10000C2303604FF0FF30F3E700BF0C020020DD
:103C2000501200200F49D1F8883043F47003C1F8D6
:103C300088300D4B1A6842F001021A60002098602B
:103C40001A6822F0A85222F410221A604FF480520F
:103C5000DA601A6822F480221A6098614FF00063DB
:103C60008B60704700ED00E000100240DFF834D0B8
:103C7000002103E00C4B5B58435004310B480C4BC4
:103C800042189A42F6D30B4A02E0002342F8043B62
:103C9000094B9A42F9D3FFF7C5FF00F017F8FFF779
:103CA00013FDFEE7000001209861000800000020DD
:103CB000E0010020E00100204C120020FEE700009F
:103CC000014B1868704700BF0C00002070B50D4E06
:103CD0000D4CA41BA4100025A54209D10B4E0C4C81
:103CE00002F05EF8A41BA4100025A54205D170BD0A
:103CF00056F8253098470135EEE756F825309847B5
:103D00000135F2E7886100088861000888610008D1
:103D10008C61000802440346934200D1704703F8C7
:103D2000011BF9E72DE9FF4755EC104B0D9FDDF81E
:103D300030A0002D0E4691461946B8BF22462B46AC
:103D400027F02007BBBF05F100431D4600232D23AC
:103D5000B8BF1446462F0B7004D0452F00D1013652
:103D6000022100E0032103AB019302AB0093324632
:103D7000534645EC104B00F0DFFC472F804602D144
:103D800019F0010F26D0462F08EB060911D198F83B
:103D90000030302B0AD10022002320462946FDF7AF
:103DA00015F818B9C6F10106CAF80060DAF8003053
:103DB00099440022002320462946FDF707F838B928
:103DC0003022039B4B4505D2591C03911A70F8E72A
:103DD000CDF80C90039B0E9AA3EB080340461360AA
:103DE00004B0BDE8F087F7B500290446BABF4942E0
:103DF0002D232B23092904F8022B437020DD0DF11C
:103E000007031F460A2691FBF6F506FB1511303114
:103E1000092D03F8011C03F1FF32294609DC30317A
:103E2000023B02F8011CBB42224604D3101A03B025
:103E3000F0BD1346E7E713F8012B04F8012BF2E776
:103E4000302319448370021DC170EFE72DE9F04F54
:103E50008DB00C46DDF8588016461F46054601F029
:103E600023FA036804931846FCF700FF00230A9323
:103E7000D8F800300590073323F0070303F1080258
:103E800094F818A0D4F800B0C8F80020D3E90023B3
:103E9000C4E91223D4E9128929F000430793CDF82D
:103EA00018804FF0FF32A74BDDE90601FCF7C0FF99
:103EB00070BB4FF0FF32A34BDDE90601FCF79AFF20
:103EC00030BB0022002340464946FCF789FF10B171
:103ED0002D2384F843309C4A9C4BBAF1470F8CBF8A
:103EE0009046984603232BF00402236122604FF092
:103EF0000009009733460BAA2146284600F0E6F950
:103F0000013040F08D804FF0FF300DB0BDE8F08FF4
:103F100042464B4640464946FCF78AFF10B18C4A60
:103F20008C4BDAE761684B1C4BF480620AA83ED1E7
:103F3000062363600023CDE9020309AB009349EC3B
:103F4000108B0DF123032260CDF804A06168284690
:103F5000FFF7E8FE0AF0DF03472B804609D1099BF3
:103F6000D81C02DB6268934247DDAAF1020A5FFABD
:103F70008AFABAF1650F099924D80139524604F139
:103F800050000991FFF72FFF0A9A1318012A814662
:103F9000236102DC2268D10701D5013323619DF83A
:103FA0002330002BA5D02D2384F84330A1E7BAF1AC
:103FB000670F00F07781BAF1470FBBD10029B9D163
:103FC0000123B6E7BAF1660F19D1002963680CDD49
:103FD000216113B92268D20702D501330B44236152
:103FE000099BA3654FF00009D9E713B92268D007F0
:103FF00001D50233F3E70123F1E74FF0670ADDE96A
:104000000932934205DB22682361D107E8D50133E9
:10401000E5E7002BD4BFC3F1020301231344DEE71D
:1040200023685A0507D42369424631462846B847D3
:1040300001302BD167E7BAF1650F40F2DC80002236
:104040000023D4E91201FCF7C1FE002833D001237C
:10405000414A31462846B84701303FF454AFDDE9C4
:1040600009239A4202DB2368D8070FD5DDE9042330
:1040700031462846B84701303FF445AF4FF00008BD
:1040800004F11A090A9B013B434509DC23689B079D
:1040900000F10381E0680B9B9842B8BF184634E7F3
:1040A00001234A4631462846B84701303FF42BAF3A
:1040B00008F10108E6E7099B002B2BDC0123264AC7
:1040C00031462846B84701303FF41DAF099B23B95C
:1040D0000A9B13B92368D907D8D5DDE904233146F3
:1040E0002846B84701303FF40EAF4FF0000904F105
:1040F0001A0A099B5B424B4501DC0A9B94E70123AA
:10410000524631462846B84701303FF4FCAE09F12B
:104110000109EEE70A9AA36D9A42A8BF1A46002A3F
:10412000914607DD1346314642462846B8470130DE
:104130003FF4E9AE04F11A034FF0000B29EAE979E4
:10414000069315E0FFFFEF7F285F0008245F00085B
:10415000305F00082C5F0008345F00080123069AD6
:1041600031462846B84701303FF4CDAE0BF1010B84
:10417000D4F858A0AAEB09035B45EFDCDDE909237D
:104180009A42D04415DB2368DA0712D40A9B0999B6
:10419000A3EB0A02A3EB010A9245A8BF9246BAF12B
:1041A000000F0EDC4FF000082AEAEA7A04F11A093F
:1041B00019E0DDE9042331462846B8470130E5D14E
:1041C000A1E65346424631462846B8470130E9D178
:1041D00099E601234A4631462846B84701303FF464
:1041E00092AE08F10108DDE909239B1AA3EB0A034B
:1041F0004345EEDC4AE70A9A012A01DCDB073AD59F
:104200000123424631462846B84701303FF47BAE91
:10421000DDE9042331462846B847013008F101089A
:104220003FF471AE0A9B002203F1FF3AD4E9120178
:104230000023FCF7CBFDC8B9534642463146284619
:10424000B84701300ED15EE601235246314628467A
:10425000B84701303FF457AE08F101080A9B013B13
:104260004345F1DC4B4604F15002DEE64FF0000816
:1042700004F11A0AF2E70123DFE701234A46314637
:104280002846B84701303FF43EAE08F10108E36824
:104290000B9A9B1A4345F0DCFCE64FF0000804F152
:1042A0001909F4E700293FF48BAE0023CDE902039E
:1042B00009AB009349EC108B2260CDF804A00DF1FE
:1042C00023032846FFF72EFD804648E62DE9F047F8
:1042D00091461F468A680B69DDF820809342B8BF7B
:1042E0001346C9F8003091F8432006460C4612B137
:1042F0000133C9F800302368990642BFD9F800306D
:104300000233C9F80030256815F0060507D104F11D
:10431000190AE368D9F800209B1AAB4228DC94F80C
:1043200043302268003318BF012392062DD404F1D4
:10433000430239463046C047013020D02368E56843
:10434000D9F8002003F00603042B08BFAD1AA368B8
:1043500022690CBF25EAE57500259342C4BF9B1A6C
:10436000ED184FF000091A344D451AD1002008E02D
:104370000123524639463046C047013003D14FF041
:10438000FF30BDE8F0870135C3E7E1185A1C302043
:1043900081F84300224494F8451082F84310023318
:1043A000C5E70123224639463046C0470130E6D0F2
:1043B00009F10109D8E700002DE9F04301F1430CB0
:1043C0000C46097E85B06E291746064698460C9A1B
:1043D00000F0B38022D8632936D00AD8002900F033
:1043E000B980582900F0838004F1420584F8421016
:1043F00032E0642901D06929F6D1206813680506E6
:1044000003F104012AD51B681160002B03DA2D2269
:104410005B4284F843206F480A2239E0732900F098
:104420009D8008D86F2920D07029DDD1236843F002
:104430002003236003E0752917D07829D4D178238D
:1044400084F84530644855E01368191D1B681160F5
:1044500004F1420584F8423001238CE01B681160AE
:1044600010F0400F18BF1BB2CFE713682568181D66
:104470001060280601D51B6802E06806FBD51B8882
:1044800054486F2914BF0A220822002184F84310DF
:104490006568A560002DC0F29580216821F00401B7
:1044A0002160002B3DD1002D40F08E806546082A0A
:1044B0000BD12368DB0708D5236962689A42DEBF07
:1044C000302305F8013C05F1FF35ACEB0503236112
:1044D000CDF800803B4603AA21463046FFF7F6FEA2
:1044E00001304DD14FF0FF3005B0BDE8F0833948C1
:1044F00084F84510136821681D1D1B6815600A06A5
:104500000BD5CA0744BF41F0200121601BB92268C6
:1045100022F0200222601022B7E74D0648BF9BB26E
:10452000EFE76546B3FBF2F102FB1133C35C05F81C
:10453000013D0B460029F5D1B9E71368256861698B
:10454000181D106028061B6801D5196002E06A0674
:10455000FBD51980002323616546B9E71368191D4F
:1045600011601D68626800212846FCF789FB08B1CC
:10457000401B606063682361002384F84330A7E731
:1045800023692A4639463046C0470130AAD02368FD
:104590009B0713D4E068039B9842B8BF1846A3E773
:1045A00001234A4639463046C04701309AD001358A
:1045B000E368039A9B1AAB42F2DCEBE7002504F1B7
:1045C0001909F5E7002BACD1037884F8423004F1E7
:1045D00042056CE7365F0008475F00080EB400B57F
:1045E0009CB01DAB029006906FF000410948079106
:1045F0000491094953F8042B05910068019302A91D
:1046000001F05EFA029B00221A701CB05DF804EB08
:1046100003B070470C0000200802FFFF2DE9F74FA0
:1046200003690C69A3428046C0F28280013C01F11B
:1046300014074FEA840C00F1140657F8245056F87A
:10464000240006EB0C03013507EB0C090193B0FBCA
:10465000F5F595B34FF0000A3846B646D34650F804
:10466000042B93B205FB03A34FEA134A9BB2ABEBB7
:104670000303120CDEF800B005FB02A213FA8BF361
:104680004FEA124A1FFA82FBDEF80020CBEB1242FF
:1046900002EB23429BB243EA024381454FEA224B9D
:1046A0004EF8043BDBD256F80C3033B9019B043B87
:1046B0009E421A4630D3C8F81040404601F02AF80E
:1046C000002825DB013530464FF0000C57F8042B4D
:1046D000D0F800E093B2ACEB0303120C13FA8EF3A4
:1046E000C2EB1E4202EB23429BB243EA0243B945AE
:1046F0004FEA224C40F8043BE8D256F8242006EB5F
:1047000084032AB9043B9E421A460BD3C8F81040D2
:10471000284603B0BDE8F08F1268043B002ACAD1D6
:10472000013CC5E71268043B002AEFD1013CEAE7EF
:104730000020EEE7000000002DE9F04F57EC106B71
:1047400097B0456A069104460B921293DDF880807B
:10475000CDE900673DB9102000F0B4FD6062C0E90A
:1047600001550560C560636A196851B15A684A60AD
:10477000012393408B60204600F0EBFD636A00222A
:104780001A603B1EBBBF23F00043019300230122AC
:10479000ACBFC8F80030C8F80020AF4BDDF804808B
:1047A00033EA080314D1129A42F20F731360009B8C
:1047B00023B9C8F31300002800F04285219BDFF8DD
:1047C000ACB2002B00F044850BF1030300F03EBDBA
:1047D000DDE900670022002330463946FCF7F6FA8F
:1047E000814668B1129A01231360219B002B00F0CF
:1047F00024859A4B219A03F1FF3B136000F028BDFA
:1048000014AA15A947EC106B204600F0FAFFC8F374
:104810000A550490002D7CD0C7F3130343F07F5B4F
:10482000B2464BF4401BA5F2FF35CDF84C90002268
:104830008B4B50465946FBF7CFFC81A3D3E90023AD
:10484000FBF782FE80A3D3E90023FBF7C7FC0646F3
:1048500028460F46FBF70EFE7DA3D3E90023FBF7A6
:1048600073FE02460B4630463946FBF7B7FC064658
:104870000F46FCF7F3FA0022824600233046394601
:10488000FCF7AEFA48B15046FBF7F4FD32463B4622
:10489000FCF79CFA08B90AF1FF3ABAF1160F59D899
:1048A000704901EBCA01DDE90023D1E90001FCF701
:1048B000B5FA002850D00AF1FF3A00230F93149B59
:1048C0005D1BB5F1010849BFC5F101030023059344
:1048D0004FF0000858BF0593BAF1000F3EDB0023EC
:1048E000D044CDF838A00793069B092B00F29080A6
:1048F000052BC4BF043B0693069BA3F10203CCBF68
:1049000000250125032B00F28F80DFE803F07D7F77
:104910003171DDE914531D4405F23240202813DDC6
:10492000C0F14000009B08FA00F805F2124023FA9B
:1049300000F048EA0000FBF78DFD01238246A1F15B
:10494000F87B013D139372E7009BC0F1200003FA4E
:1049500000F0F0E70123B1E70F90B0E7059BA3EB70
:104960000A030593CAF10003079300230E93BBE7E4
:1049700001230A930B9B002B59DD02939946666A2B
:1049800000227260042202F114009842716853D927
:10499000204600F0AAFC636A3060B9F10E0FD3F82C
:1049A00000B000F2E680002D00F0E3809DED007B7A
:1049B000BAF1000F8DED107B74DD2A4A0AF00F0367
:1049C00002EBC30393ED007B4FEA2A16F0068DED50
:1049D000087B65D5244BDDE91001D3E90823FBF7FB
:1049E000DDFECDE9000106F00F0603251E4F4CE069
:1049F00001230A930B9B534403F1010902934B4695
:104A0000012BB8BF0123BAE70023B2E70023F0E788
:104A10000125002306930A954FF0FF330293994630
:104A2000002212230B92AAE701230A93F4E7012341
:104A3000029399461A46F5E7013171605200A2E7E8
:104A400061436F63A787D23FB3C8608B288AC63F94
:104A5000FB799F501344D33F0000F07F355F00087F
:104A60000000F83F905F0008685F0008615F000881
:104A7000F10708D5DDE90801D7E90023FBF764FD5C
:104A8000CDE90801013576100837002EF0D1DDE9B7
:104A90000823DDE90001FBF781FECDE900011AE002
:104AA0000225A3E700F0A080CAF100069F4BA04FAB
:104AB00006F00F0203EBC203D3E90023DDE9100186
:104AC000FBF742FDCDE90001361100230225002E3F
:104AD0007FD1002BE1D10F9B002B00F08780DDE917
:104AE00000670022934B30463946FCF779F90028DD
:104AF0007CD0B9F1000F79D0029B002B35DD0AF193
:104B0000FF330893394600228B4B3046FBF71CFDE0
:104B1000CDE90001029F01352846FBF7ABFCDDE93A
:104B20000023FBF711FD0022844BFBF757FB0546E2
:104B3000A1F15076002F5DD10022814BDDE900010B
:104B4000FBF74AFB2A463346CDE90001FCF766F93C
:104B5000002840F088822A4606F10043DDE9000182
:104B6000FCF73EF9002840F07C82DDE91023CDE916
:104B70000023159B002BC0F25081BAF10E0F00F3F9
:104B80004C816A4B03EBCA0393ED007B0B9B002B1C
:104B90008DED027B80F2D880B9F1000F00F3D48054
:104BA00040F05E820022664B51EC170BFBF7CCFC09
:104BB000DDE90023FCF728F94F464E46002840F077
:104BC000348231230BF101058BF800300AF1010A20
:104BD0002FE2F20705D5D7E90023FBF7B5FC013535
:104BE00001237610083772E7022574E7CDF820A07C
:104BF0004F4691E74D4B03EBC70353E902010A9B74
:104C0000002B47D002460B4600204E49FBF7C6FD5D
:104C10002A463346FBF7E0FACDE90C015D46DDE9B3
:104C20000001FCF71BF90646FBF724FC02460B4685
:104C3000DDE90001FBF7D0FA303605F8016BDDE95C
:104C40000C23CDE90001FCF7CBF8002863D1DDE9A6
:104C5000002300203749FBF7BFFADDE90C23FCF7FE
:104C6000BFF8002840F0B780A5EB0B039F427FF709
:104C70007CAF0022304BDDE90C01FBF765FC002224
:104C8000CDE90C012C4BDDE90001FBF75DFCCDE922
:104C90000001C4E72A463346FBF756FCCDE90C0178
:104CA0000BEB07055E46DDE90001FCF7D7F8074688
:104CB000FBF7E0FB303702460B46DDE90001FBF76E
:104CC0008BFA06F8017BAE42CDE900014FF00002FD
:104CD00026D11C4BDDE90C01FBF780FA02460B469E
:104CE000DDE90001FCF79AF8002874D1DDE90C2316
:104CF00000201449FBF770FA02460B46DDE900017B
:104D0000FCF76EF800283FF430AF15F8013C302B6B
:104D100005F1FF3202D0DDF820A04AE01546F4E7A5
:104D2000054BFBF711FCCDE90001BCE7905F0008E3
:104D3000685F00080000F03F0000244000001C40B5
:104D4000000014400000E03FDDE900675D46DDE95A
:104D5000022330463946FBF721FDFCF77FF88046F9
:104D6000FBF788FBDDE90223FBF7EEFB02460B466F
:104D70003046394608F13006FBF72EFA05F8016B8C
:104D8000A5EB0B06B14502460B4639D1FBF726FAD7
:104D9000DDE9022306460F46FCF740F8C8B9DDE915
:104DA000022330463946FCF711F810B118F0010F14
:104DB0000FD10499204600F0CCFA0023129A2B70F0
:104DC0000AF101031360219B002B00F041821D605A
:104DD0003EE2CDF820A015F8012C392A05F1FF3369
:104DE00008D19B450AD1089B0133089330238BF8E7
:104DF00000305B461A7801321A708CE71D46EAE7EC
:104E000000229B4BFBF7A0FB0022002306460F4627
:104E1000FBF7DCFF00289AD0CBE70A9A002A00F0C3
:104E20008B80069A012A6EDC139A002A67D003F25F
:104E30003343079F059D059A01211A442046059298
:104E4000984400F026FB0646002D0CDDB8F1000F5B
:104E500009DD4545059A2B46A8BF4346D21A05925F
:104E6000ED1AA8EB0308079BEBB10A9B002B67D058
:104E70008FB131463A46204600F0AAFB049A01461B
:104E80000646204600F00EFB04990890204600F0EC
:104E900060FA089B0493079BDA1B04D00499204610
:104EA00000F096FB04900121204600F0F2FA0E9BE0
:104EB0000746002B00F0D0811A460146204600F03C
:104EC00087FB069B012B074640DC009B002B39D15A
:104ED000019BC3F31303002B36D1019B23F0004346
:104EE0001B0D1B052BB1059B0133059308F1010830
:104EF000012307930E9B002B2AD1012030E0149B45
:104F0000C3F1360395E7079B09F1FF37BB42BFBFEB
:104F1000079B0797FA1A0E9BBBBF9B180E93DF1BCC
:104F20000027B9F1000FB5BF059B059DA3EB09054F
:104F30004B46B8BF00237EE7079F059D0A9E83E787
:104F4000079AABE70023D4E7009BD2E7002307933F
:104F50003B6907EB8303186900F04DFAC0F12000AC
:104F6000404410F01F0047D0C0F12003042B3BDD6C
:104F7000059BC0F11C000344059305448044059B38
:104F8000002B05DD1A460499204600F06FFB0490C3
:104F9000B8F1000F05DD39464246204600F066FBB9
:104FA00007460F9B53B33946049800F0B3FB002823
:104FB00024DA00230A220499204600F0E1F90A9B32
:104FC00004900AF1FF3A002B00F04D810023314696
:104FD0000A22204600F0D4F9029B002B06464FDC43
:104FE000069B022B4CDD11E0C9D0059A1C331A44F4
:104FF00005921D449844C2E70346F6E7B9F1000F55
:1050000038DC069B022B35DDCDF80890029B63B996
:1050100039460522204600F0B3F9014607460498B8
:1050200000F078FB00283FF7CCAD0B9B5D466FEAA4
:10503000030A4FF000093946204600F08AF9002E95
:105040003FF4B7AEB9F1000F05D0B14503D04946E2
:10505000204600F07EF93146204600F07AF9A8E6B5
:1050600000273E46E1E7DDF820A03E46A9E500BF67
:10507000000024400A9BCDF80890002B00F0FA8035
:10508000002D05DD31462A46204600F0EFFA06469F
:10509000079B002B4CD07168204600F026F932693E
:1050A00002320546920006F10C010C3000F012F9B4
:1050B00001222946204600F0D9FA009BCDF814B011
:1050C00003F00103B1460793064639460498FFF7FB
:1050D000A5FA4946054600F13008049800F01AFB8D
:1050E000324600903946204600F02EFBC368024647
:1050F00003BB01460890049800F00CFB089A034695
:1051000011462046089300F024F9089BA3B9069A9B
:1051100092B9079A82B9B8F1390F29D0009B002BB8
:1051200001DD05F13108059B5D1C83F8008082E7F5
:105130003046C2E70123E3E7009A002A04DB25D1C9
:10514000069A1ABB079A0ABB002BECDD01220499D0
:10515000204600F08BFA3946049000F0DBFA002874
:1051600003DCE0D118F0010FDDD0B8F1390FD8D150
:10517000059B059A5D1C3923137015F8013C392BEA
:1051800005F1FF324FD00133137054E7059A002B1D
:1051900002F1010506DDB8F1390FE9D008F1010887
:1051A000059BC2E7029A05F8018CA5EB0B0393421D
:1051B00021D000230A220499204600F0E1F8B145ED
:1051C00004904FF000034FF00A024946204605D1F3
:1051D00000F0D6F881460646059576E700F0D0F84F
:1051E0003146814600230A22204600F0C9F80646CF
:1051F000F2E74FF0000901220499204600F036FA48
:105200003946049000F086FA0028B6DC02D118F086
:10521000010FB2D115F8013C302B05F1FF327FF4BC
:105220000AAF1546F6E7934505D131230AF1010A85
:105230008BF80030FFE615469FE7DFF864B007E023
:10524000219BDFF860B01BB10BF10803219A1360BA
:10525000584617B0BDE8F08F069B012B7FF735AE9F
:105260000E9B079349E6029B002B03DC069B022B57
:105270003FF7CCAE5D4639460498FFF7CFF900F111
:10528000300805F8018B029AA5EB0B039A42B0DDBA
:1052900000230A220499204600F072F80490EAE7FD
:1052A000345F0008585F0008044B1B68186A044B01
:1052B000002808BF1846F030704700BF0C000020DF
:1052C00070000020024B0146186800F045BB00BF8B
:1052D0000C00002010B5431E0A44914200D110BDBD
:1052E00011F8014B03F8014FF7E770B5456A044622
:1052F0000E463DB91020FFF7E5FF6062C0E9015599
:105300000560C560656AEB6883B1636ADB6853F862
:105310002600B8B9012101FA06F56A1D920020465F
:1053200000F0BEFA60B1C0E901650EE0212204215F
:10533000204600F0B5FA636AE860DB68002BE4D130
:10534000002070BD026843F826200023C0E9033323
:10535000F7E770B5446A06460D463CB91020FFF7E2
:10536000B1FF7062C0E901440460C4603DB1736A7A
:105370006A68DB6853F82210296043F8225070BD38
:105380002DE9F0410D691F4606460C4601F1140C4B
:105390000023DCF8000081B202FB01710F0C000C4D
:1053A00002FB007089B2013301EB00419D424FEADC
:1053B00010474CF8041BECDCD7B1A368AB4212DCFD
:1053C000616830460131FFF790FF2269023204F133
:1053D0000C01804692000C30FFF77CFF21463046DE
:1053E000FFF7B7FF444604EB850301355F61256194
:1053F0002046BDE8F081020C12040346B2B9030452
:10540000102013F07F4F04BF1B02083013F0704FC1
:1054100004BF1B01043013F0404F04BF9B00023057
:10542000002B06DB5B0003D5013070470020E8E766
:1054300020207047036813F0070201460BD0DA07FB
:1054400023D4980749BF5B089B0801200B605CBF11
:105450000B600220704798B2A8B91B0C102013F003
:10546000FF0F04BF1B0A08301A0704BF1B090430D2
:105470009A0704BF9B080230DA0702D45B0806D003
:1054800001300B6070471046E9E70020704720208C
:10549000704710B50C460121FFF727FF0122446138
:1054A000026110BD2DE9F74F14460A6923699A423B
:1054B000B8BF0B468846BCBFA0461C46D8F8107043
:1054C000D4F81090D8F80830D8F8041007EB090683
:1054D000B342B8BF0131FFF708FF00F1140505EB37
:1054E000860E2B460022734516D304F1140208F1F0
:1054F000140102EB890301EB87070093009B0192E3
:1055000093420CD8002E03DD5EF8043D002B5DD0E5
:10551000066103B0BDE8F08F43F8042BE3E7B2F86F
:1055200000B0BBF1000F23D08946AC464FF0000815
:1055300059F8044BDCF800A0A3B21FFA8AFA0BFB5F
:1055400003A34FEA144ADCF8004043444FEA1448EE
:105550000BFB0A8404EB1344E2469BB243EA044388
:105560004F454FEA14484AF8043B2BD8CCF8048046
:10557000019BB3F802A00432BAF1000F20D02B68CF
:105580008946A8464FF0000BB9F800C0B8F80240B1
:105590000AFB0C445C44C4469BB243EA04434CF807
:1055A000043B59F8043BB8F804B01B0C0AFB03B3E6
:1055B00003EB14434F454FEA134B05D8C8F80430AA
:1055C00004359BE7D446B3E7E046DDE7013E99E7C3
:1055D0002DE9F843154612F0030206460F4607D0A0
:1055E000013A214C002354F82220FFF7C9FE074658
:1055F000AD1035D0746A3CB91020FFF763FE7062BD
:10560000C0E901440460C460D6F82480D8F808409A
:105610004CB940F271213046FFF73BFF0023C8F838
:105620000800044603604FF00008EB070AD539462E
:1056300022463046FFF736FF394681463046FFF7AF
:1056400088FE4F466D100BD0206838B9224621469F
:105650003046FFF727FF2060C0F800800446E4E7EB
:105660003846BDE8F88300BF586000082DE9F047D0
:105670000C464FEA621A236949680AEB0309A368DA
:105680000746164609F10105AB4232DB3846FFF703
:105690002CFE0023804600F114011A4653452BDBF3
:1056A00020692AEAEA7A04F1140316F01F0201EBDA
:1056B0008A0103EB800C25D0C2F1200E00201E6869
:1056C0008A46964030434AF8040B53F8040B9C4535
:1056D00020FA0EF014D8486008B109F10205013D26
:1056E0003846C8F810502146FFF733FE4046BDE863
:1056F000F08701315B00C7E741F823200133CDE794
:105700005146DCE7043953F8042B41F8042F9C453B
:10571000F9D8E4E703690A699B1A30B50CD1920005
:10572000143014318418114454F8045D51F8042DD8
:10573000954203D005D30123184630BDA042F3D3D0
:10574000FAE74FF0FF33F7E72DE9F0470D4607463C
:10575000114628461446FFF7DDFF061E08D13146E4
:105760003846FFF7C2FD0123C0E90436BDE8F087E3
:10577000A4BF23462C4638466168A6BF1D460026B6
:105780000126FFF7B2FD2B69C660266905F11409F1
:1057900004F1140202EB860709EB830800F11405FB
:1057A0004FF0000E52F804AB59F8044B1EFA8AF180
:1057B000A3B2C91A230CC3EB1A4303EB214389B2EA
:1057C0004FEA234EC84541EA0343944645F8043B5B
:1057D000E8D8BC4504D355F8043D83B10661C5E75C
:1057E0005CF8041B1EFA81F31A1402EB11429BB2FF
:1057F00043EA02434FEA224E45F8043BE9E7013E03
:10580000E9E72DE9F7430E46012159EC108B1546C7
:10581000FFF76BFDC9F30A540746C9F3130334BB02
:105820000193B8F1000327D002A840F8083DFFF724
:1058300001FE0099F0B1019AC0F1200302FA03F3CE
:105840000B43C2407B610192019BBB61002B14BFE3
:10585000022101213961C4B1A4F23344044434600B
:10586000C0F135002860384603B0BDE8F08343F44A
:105870008013D5E77961E7E701A8FFF7DBFD019B1E
:105880007B61012139612030E5E707EB8103A0F25C
:10589000324030601869FFF7AEFDC0EB4110E1E720
:1058A00038B502FB01F4214600F056F8054618B160
:1058B00022460021FEF72EFA284638BD38B50546A7
:1058C000002945D051F8043C0C1F002BB8BFE41848
:1058D00000F029FA1F4A1368104633B96360146058
:1058E0002846BDE8384000F01FBAA3420CD9216811
:1058F0006218934204BF1A685B68636004BF521861
:1059000022600460ECE713465A680AB1A242FAD951
:1059100019685818A0420BD12068014458188242D7
:105920001960DDD1106852685A6001441960D7E7E8
:1059300002D90C232B60D3E7206821188A4204BFC8
:1059400011685268626004BF091821605C60C7E793
:1059500038BD00BF1402002070B5CD1C25F0030532
:1059600008350C2D38BF0C25002D064601DBA94259
:1059700003D90C233360002070BD00F0D4F9214A14
:105980001468214691B9204C23681BB9304600F0B9
:105990008FF920602946304600F08AF9431C24D153
:1059A0000C233360304600F0BFF9E4E70B685B1B63
:1059B00018D40B2B0FD90B60CD50CC18304600F00B
:1059C000B3F904F10B00231D20F00700C31AD3D054
:1059D0005A42E250D0E78C424B6816BF63601360B6
:1059E0000C46EBE70C464968CCE7C41C24F00304E2
:1059F000A04205D0211A304600F05AF90130CFD02C
:105A00002560DBE714020020180200202DE9F04792
:105A10008E689E4282460C469046994637D88A89BF
:105A200012F4906F31D0256809696F1A65690223F5
:105A300005EB450595FBF3F509F101033B449D4258
:105A400038BF1D46530530D52946FFF785FF06466A
:105A500050B90C23CAF80030A38943F04003A38156
:105A60004FF0FF30BDE8F0873A462169FFF732FC7E
:105A7000A38923F4906343F08003A38126616561C9
:105A80003E44ED1B2660A5604E464E4500D94E466D
:105A900032464146206800F02DF9A3689B1BA360A5
:105AA00023681E4426600020DCE72A4600F03DF90A
:105AB00006460028E2D121695046FFF7FFFEC8E7FD
:105AC0002DE9F04F1D468B891F069DB080460C4680
:105AD00016460FD50B696BB94021FFF73DFF2060DB
