:020000040800F2
:10000000000001208543000875420008774200087F
:10001000794200087B4200087D4200080000000091
:100020000000000000000000000000007F42000807
:100030008142000800000000834200088542000859
:10004000D5430008D5430008D5430008D543000830
:10005000D5430008D54300088D42000897420008A8
:10006000D5430008D5430008D5430008D543000810
:10007000D5430008D5430008A1420008B14200085A
:10008000C1420008D1420008D5430008D54300080A
:10009000D5430008D5430008D5430008D5430008E0
:1000A000D5430008D5430008D5430008D5430008D0
:1000B000D54300080000000000000000D543000800
:1000C000D5430008D5430008D5430008D5430008B0
:1000D000D5430008D5430008D5430008D5430008A0
:1000E000D5430008D54300080000000000000000D0
:1000F0000000000000000000000000000000000000
:1001000000000000D543000800000000D5430008AF
:100110000000000000000000D5430008D54300089F
:10012000D5430008D5430008D5430008D54300084F
:10013000D54300080000000000000000000000009F
:10014000D5430008D5430008D5430008D54300082F
:10015000E1420008F1420008D5430008D5430008F9
:10016000D5430008D5430008D5430008000000002F
:10017000D5430008D5430008D5430008000000001F
:10018000D5430008D5430008D5430008000000000F
:1001900010B5054C237833B9044B13B10448AFF3C1
:1001A00000800123237010BDE0010020000000004A
:1001B000987C000808B5034B1BB103490348AFF313
:1001C000008008BD00000000E4010020987C0008C9
:1001D00081F0004102E000BF83F0004330B54FEAF8
:1001E00041044FEA430594EA050F08BF90EA020F65
:1001F0001FBF54EA000C55EA020C7FEA645C7FEAF8
:10020000655C00F0E2804FEA5454D4EB5555B8BF1A
:100210006D420CDD2C4480EA020281EA030382EA8B
:10022000000083EA010180EA020281EA0303362D1D
:1002300088BF30BD11F0004F4FEA01314FF4801CF0
:100240004CEA113102D0404261EB410113F0004F02
:100250004FEA03334CEA133302D0524263EB4303B9
:1002600094EA050F00F0A780A4F10104D5F1200E57
:100270000DDB02FA0EFC22FA05F2801841F10001B2
:1002800003FA0EF2801843FA05F359410EE0A5F186
:1002900020050EF1200E012A03FA0EFC28BF4CF0B7
:1002A000020C43FA05F3C01851EBE37101F000456D
:1002B00007D54FF0000EDCF1000C7EEB00006EEB7A
:1002C0000101B1F5801F1BD3B1F5001F0CD3490804
:1002D0005FEA30004FEA3C0C04F101044FEA44525B
:1002E00012F5800F80F09A80BCF1004F08BF5FEAE2
:1002F000500C50F1000041EB045141EA050130BDC2
:100300005FEA4C0C404141EB010111F4801FA4F164
:100310000104E9D191F0000F04BF01460020B1FAB9
:1003200081F308BF2033A3F10B03B3F120020CDAF1
:100330000C3208DD02F1140CC2F10C0201FA0CF0CF
:1003400021FA02F10CE002F11402D8BFC2F1200C34
:1003500001FA02F120FA0CFCDCBF41EA0C019040EA
:10036000E41AA2BF01EB0451294330BD6FEA040433
:100370001F3C1CDA0C340EDC04F11404C4F120021E
:1003800020FA04F001FA02F340EA030021FA04F330
:1003900045EA030130BDC4F10C04C4F1200220FA87
:1003A00002F001FA04F340EA0300294630BD21FAC5
:1003B00004F0294630BD94F0000F83F4801306BF8B
:1003C00081F480110134013D4EE77FEA645C18BF7F
:1003D0007FEA655C29D094EA050F08BF90EA020F16
:1003E00005D054EA000C04BF1946104630BD91EA0E
:1003F000030F1EBF0021002030BD5FEA545C05D111
:100400004000494128BF41F0004130BD14F580044F
:100410003CBF01F5801130BD01F0004545F0FE41C3
:1004200041F470014FF0000030BD7FEA645C1ABFF8
:10043000194610467FEA655C1CBF0B46024650EA2F
:10044000013406BF52EA033591EA030F41F400215B
:1004500030BD00BF90F0000F04BF0021704730B5E1
:100460004FF4806404F132044FF000054FF00001B6
:1004700050E700BF90F0000F04BF0021704730B577
:100480004FF4806404F1320410F0004548BF40424C
:100490004FF000013EE700BF42004FEAE2014FEAA1
:1004A00031014FEA02701FBF12F07F4393F07F4F7C
:1004B00081F06051704732F07F4208BF704793F07F
:1004C0007F4F04BF41F40021704730B54FF4607492
:1004D00001F0004521F000411CE700BF50EA010295
:1004E00008BF704730B54FF000050AE050EA01023E
:1004F00008BF704730B511F0004502D5404261EBAE
:1005000041014FF4806404F132045FEA915C3FF4EE
:10051000D8AE4FF003025FEADC0C18BF03325FEA8B
:10052000DC0C18BF033202EBDC02C2F1200300FA3C
:1005300003FC20FA02F001FA03FE40EA0E0021FA61
:1005400002F11444BDE600BF70B54FF0FF0C4CF44F
:10055000E06C1CEA11541DBF1CEA135594EA0C0F01
:1005600095EA0C0F00F0DEF82C4481EA030621EA3C
:100570004C5123EA4C5350EA013518BF52EA033577
:1005800041F4801143F4801338D0A0FB02CE4FF029
:100590000005E1FB02E506F00042E0FB03E54FF059
:1005A0000006E1FB03569CF0000F18BF4EF0010E51
:1005B000A4F1FF04B6F5007F64F5407404D25FEA4D
:1005C0004E0E6D4146EB060642EAC62141EA555100
:1005D0004FEAC52040EA5E504FEACE2EB4F1FD0C42
:1005E00088BFBCF5E06F1ED8BEF1004F08BF5FEAC0
:1005F000500E50F1000041EB045170BD06F0004672
:1006000046EA010140EA020081EA0301B4EB5C041E
:10061000C2BFD4EB0C0541EA045170BD41F4801116
:100620004FF0000E013C00F3AB8014F1360FDEBF3B
:10063000002001F0004170BDC4F10004203C35DA17
:100640000C341BDC04F11404C4F1200500FA05F39A
:1006500020FA04F001FA05F240EA020001F000423B
:1006600021F0004110EBD37021FA04F642EB0601B1
:100670005EEA430E08BF20EAD37070BDC4F10C04DB
:10068000C4F1200500FA04F320FA05F001FA04F29F
:1006900040EA020001F0004110EBD37041F100018B
:1006A0005EEA430E08BF20EAD37070BDC4F1200596
:1006B00000FA05F24EEA020E20FA04F301FA05F2FE
:1006C00043EA020321FA04F001F0004121FA04F2A6
:1006D00020EA020000EBD3705EEA430E08BF20EA76
:1006E000D37070BD94F0000F0FD101F000464000B0
:1006F00041EB010111F4801F08BF013CF7D041EA32
:10070000060195F0000F18BF704703F00046520035
:1007100043EB030313F4801F08BF013DF7D043EA06
:100720000603704794EA0C0F0CEA135518BF95EABC
:100730000C0F0CD050EA410618BF52EA4306D1D143
:1007400081EA030101F000414FF0000070BD50EA62
:10075000410606BF1046194652EA430619D094EAEC
:100760000C0F02D150EA013613D195EA0C0F05D1D6
:1007700052EA03361CBF104619460AD181EA03012A
:1007800001F0004141F0FE4141F470014FF00000E2
:1007900070BD41F0FE4141F4780170BD70B54FF07D
:1007A000FF0C4CF4E06C1CEA11541DBF1CEA1355FD
:1007B00094EA0C0F95EA0C0F00F0A7F8A4EB0504DF
:1007C00081EA030E52EA03354FEA013100F08880D6
:1007D0004FEA03334FF0805545EA131343EA12639F
:1007E0004FEA022245EA111545EA10654FEA002654
:1007F0000EF000419D4208BF964244F1FD0404F50D
:10080000407402D25B084FEA3202B61A65EB030568
:100810005B084FEA32024FF480104FF4002CB6EB25
:10082000020E75EB030E22BFB61A754640EA0C00A5
:100830005B084FEA3202B6EB020E75EB030E22BFE5
:10084000B61A754640EA5C005B084FEA3202B6EB26
:10085000020E75EB030E22BFB61A754640EA9C00E5
:100860005B084FEA3202B6EB020E75EB030E22BFB5
:10087000B61A754640EADC0055EA060E18D04FEA73
:10088000051545EA16754FEA06164FEAC30343EA13
:1008900052734FEAC2025FEA1C1CC0D111F4801FE0
:1008A0000BD141EA00014FF000004FF0004CB6E7D9
:1008B00011F4801F04BF01430020B4F1FD0C88BF78
:1008C000BCF5E06F3FF6AFAEB5EB030C04BFB6EB83
:1008D000020C5FEA500C50F1000041EB045170BD76
:1008E0000EF0004E4EEA113114EB5C04C2BFD4EBA3
:1008F0000C0541EA045170BD41F480114FF0000E27
:10090000013C90E645EA060E8DE60CEA135594EAA2
:100910000C0F08BF95EA0C0F3FF43BAF94EA0C0FA5
:100920000AD150EA01347FF434AF95EA0C0F7FF41A
:1009300025AF104619462CE795EA0C0F06D152EA6E
:1009400003353FF4FDAE1046194622E750EA410652
:1009500018BF52EA43067FF4C5AE50EA41047FF463
:100960000DAF52EA43057FF4EBAE12E74FF0FF3CC8
:1009700006E000BF4FF0010C02E000BF4FF0010C99
:100980004DF804CD4FEA410C7FEA6C5C4FEA430C12
:1009900018BF7FEA6C5C1BD001B050EA410C0CBF61
:1009A00052EA430C91EA030F02BF90EA020F0020C3
:1009B000704710F1000F91EA030F58BF994208BF2A
:1009C00090422CBFD8176FEAE37040F001007047E7
:1009D0004FEA410C7FEA6C5C02D150EA013C07D13E
:1009E0004FEA430C7FEA6C5CD6D152EA033CD3D089
:1009F0005DF8040B704700BF8446104662468C4683
:100A00001946634600E000BF01B5FFF7B7FF0028B5
:100A100048BF10F1000F01BD4DF808EDFFF7F4FFDE
:100A20000CBF012000205DF808FB00BF4DF808ED69
:100A3000FFF7EAFF34BF012000205DF808FB00BF8C
:100A40004DF808EDFFF7E0FF94BF012000205DF8AE
:100A500008FB00BF4DF808EDFFF7CEFF94BF012063
:100A600000205DF808FB00BF4DF808EDFFF7C4FF5C
:100A700034BF012000205DF808FB00BF4FEA410CA5
:100A80007FEA6C5C02D150EA013C0AD14FEA430C88
:100A90007FEA6C5C02D152EA033C02D14FF00000C5
:100AA00070474FF0010070474FEA410212F5001203
:100AB00015D211D56FF47873B3EB625212D94FEAA5
:100AC000C12343F0004343EA505311F0004F23FA8F
:100AD00002F018BF404270474FF00000704750EAE4
:100AE000013005D111F0004008BF6FF000407047A1
:100AF0004FF00000704700BF53B94AB9002908BF42
:100B000000281CBF4FF0FF314FF0FF3000F072B9EA
:100B1000ADF1080C6DE904CE00F006F8DDF804E054
:100B2000DDE9022304B070472DE9F047089E044632
:100B30008846002B4BD18A42154667D9B2FA82F219
:100B40004AB1C2F1200701FA02F320FA07F79540F3
:100B500047EA030894404FEA154E230CB8FBFEF712
:100B60001FFA85FC0EFB178843EA084307FB0CF1CC
:100B7000994209D9EB1807F1FF3080F01B819942A7
:100B800040F21881023F2B445B1AA4B2B3FBFEF083
:100B90000EFB103344EA034400FB0CFCA44509D9C6
:100BA0002C1900F1FF3380F00781A44540F2048145
:100BB00002382C4440EA0740A4EB0C0400271EB185
:100BC000D4400023C6E900433946BDE8F0878B4294
:100BD00009D9002E00F0EB800027C6E90001384655
:100BE0003946BDE8F087B3FA83F7002F47D18B422F
:100BF00002D3824200F2FA80841A61EB03030120DF
:100C00009846002EE0D0C6E90048DDE702B9FFDED5
:100C1000B2FA82F2002A40F08F80491B4FEA154E4B
:100C20001FFA85F80127B1FBFEFC230C0EFB1C11FB
:100C300043EA014308FB0CF1994207D9EB180CF188
:100C4000FF3002D2994200F2CD808446591AA3B2F5
:100C5000B1FBFEF00EFB101443EA044408FB00F85D
:100C6000A04507D92C1900F1FF3302D2A04500F2AC
:100C7000B6801846A4EB080440EA0C409FE7C7F191
:100C8000200CBB4022FA0CFE4EEA030E01FA07F4D8
:100C900020FA0CF521FA0CF34FEA1E482543B3FB6A
:100CA000F8F92C0C08FB19331FFA8EFA44EA0343B7
:100CB00009FB0AF49C4202FA07F200FA07F10BD989
:100CC0001EEB030309F1FF3080F087809C4240F265
:100CD0008480A9F1020973441B1BADB2B3FBF8F089
:100CE00008FB103345EA034400FB0AFAA24508D981
:100CF0001EEB040400F1FF336BD2A24569D9023820
:100D0000744440EA0940A0FB0289A4EB0A044C4564
:100D1000C2464B4654D351D0002E69D0B1EB0A05E0
:100D200064EB030404FA0CFCFD40FC404CEA0505AE
:100D3000C6E90054002747E7C2F1200320FA03F771
:100D4000954001FA02F021FA03F34FEA154E3843B9
:100D5000010CB3FBFEF71FFA85F80EFB173341EACF
:100D6000034107FB08F38B4204FA02F407D9691820
:100D700007F1FF3C2FD28B422DD9023F2944CB1AD9
:100D800081B2B3FBFEF00EFB103341EA034100FBDE
:100D900008F38B4207D9691800F1FF3C17D28B4248
:100DA00015D902382944C91A40EA07473BE73746B4
:100DB000304609E70746E7E61846FBE64145ABD271
:100DC000B8EB020A69EB0E0201381346A4E760464D
:100DD000E9E7184695E76746D1E781467CE70238A0
:100DE0002C4447E7ACF1020C2B442FE7384608E7C8
:100DF0003746E9E6704700BF034613F8012B002A87
:100E0000FBD1181A013870470000000000000000F4
:100E100001F0FF01102A2BDB10F0070F08D010F8AB
:100E2000013B013A8B422DD010F0070F42B3F6D1AF
:100E3000F0B441EA012141EA014122F007047FF0C8
:100E400000070023F0E80256083C85EA010586EA1F
:100E5000010685FA47F5A3FA87F586FA47F6A5FA5B
:100E600087F68EB9EED1F0BC01F0FF0102F0070267
:100E700032B110F8013B013A83EA010313B1F8D112
:100E80000020704701387047002D06BF35460338F3
:100E9000073815F0010F07D1013015F4807F02BF2C
:100EA000013015F4C03F0130F0BC0138704700BF7D
:100EB000104B1B680BB90120704710B504464FF466
:100EC0007A70B0FBF3F30C4A1068B0FBF3F000F05B
:100ED000C7F868B90F2C01D901200AE00022214689
:100EE0004FF0FF3000F068F8024B5C60002000E03B
:100EF000012010BD000000200800002010B5094AA4
:100F0000136843F480731360032000F043F800205B
:100F1000FFF7CEFF10B10124204610BD044603F0B8
:100F20005BF8F9E700200240034A136803490968A7
:100F30000B441360704700BF1C020020000000201B
:100F4000014B1868704700BF1C02002038B50446EA
:100F5000FFF7F6FF0546B4F1FF3F02D0044B1B68D4
:100F60001C44FFF7EDFF401BA042FAD338BD00BF81
:100F700000000020024A136823F002031360704748
:100F800010E000E0024A136843F002031360704768
:100F900010E000E0074AD36823F4E0631B041B0C55
:100FA000000200F4E060184340F0BF6040F40030FD
:100FB000D060704700ED00E030B4174BDB68C3F33E
:100FC0000223C3F10704042C28BF04241D1D062D91
:100FD00018D9033B4FF0FF3505FA04F421EA040168
:100FE000994005FA03F322EA0303194300280BDBB7
:100FF0000901C9B200F1604000F5614080F80013BA
:1010000030BC70470023E5E700F00F000901C9B2CA
:10101000024B1954F4E700BF00ED00E014ED00E0CE
:10102000002807DB00F01F02400901239340024A19
:1010300042F82030704700BF00E100E000280CDBE0
:1010400000F01F024009012393402030034A42F878
:101050002030BFF34F8FBFF36F8F704700E100E088
:101060000138B0F1807F0AD2064B5860064AF02161
:1010700082F823100020986007221A607047012030
:10108000704700BF10E000E000ED00E070B4446C79
:1010900004F01C05066C0124AC40746004686360B5
:1010A0008368102B05D0036899600368DA6070BC10
:1010B000704703689A600368D960F8E7002869D030
:1010C00010B403460168344A914245D8334A0A4471
:1010D0003349A1FB0212120992004264314A0264B0
:1010E000022283F825201868016821F4FF4121F0CD
:1010F00070019A68DC6822431C6922435C692243C0
:101100009C692243DC6922431C6A22430A43026031
:101110009A68B2F5804F15D0196C224A914226D0B8
:10112000214A1168586C00F01C040F20A04021EAED
:1011300000011160116858685C6C04F01C04A04048
:10114000014311600020D863012283F8252083F831
:1011500024005DF8044B7047144A0A441049A1FB6F
:101160000212120992004264114A0264B8E7A832DE
:101170001168586C00F01C040F20A04021EA000107
:101180001160116858685C6C04F01C04A0400143B5
:101190001160D7E70120704707040240F8FFFDBF48
:1011A000CDCCCCCC00000240A8040240F8FBFDBF2F
:1011B0000004024038B590F82440012C33D00124BB
:1011C00080F8244090F82540E4B2012C04D000239C
:1011D00080F82430022038BD0446022084F825001F
:1011E0000020E0632568286820F001002860204680
:1011F000FFF74CFF236B5BB12268136843F00E03CB
:1012000013602268136843F0010313600020E2E7D3
:101210002268136823F0040313602268136843F004
:101220000A031360EDE70220D5E738B5036C1968AF
:1012300004682568436C03F01C0304229A400A42A8
:1012400015D015F0040F12D0236813F0200F03D12E
:10125000236823F004032360436C03F01C02016C39
:10126000042393404B60036B03B1984738BD0222BF
:101270009A400A421CD015F0020F19D0236813F0CF
:10128000200F06D1236823F00A032360012380F88E
:101290002530436C03F01C02016C022393404B6029
:1012A000002380F82430C36A002BDFD09847DDE7A5
:1012B000082202FA03F30B42D8D015F0080FD5D05C
:1012C000236823F00E032360436C03F01C03016CBE
:1012D000012202FA03F34B60C26380F82520002349
:1012E00080F82430436B002BC0D09847BEE7000045
:1012F000F0B482B0002336E0042400E00024B440BF
:101300003C4302355B4E46F825405B4C2568D44390
:1013100004EA05064F6817F4803F01D042EA05064B
:10132000554D2E606D6804EA05064F6817F4003FBE
:1013300001D042EA0506504D6E60AD6804EA05062C
:101340004F6817F4801F01D042EA05064A4DAE608F
:10135000ED682C404E6816F4001F01D042EA0504E7
:10136000454AD46001330A6832FA03F47ED001247E
:101370009C402240F6D04D68022D01D0122D10D194
:10138000DE08083650F826C003F00705AF000F2529
:10139000BD402CEA050C0D69BD4045EA0C0540F83E
:1013A000265006685F000325BD40ED4305EA060CA4
:1013B0004E6806F00306BE4046EA0C0606604E681C
:1013C00006F1FF3CBCF1010F03D9112E01D0122E02
:1013D00010D1866805EA060CCE68BE4046EA0C06C7
:1013E0008660466826EA04044E68C6F300169E40EE
:1013F00026434660C46825408C68BC402C43C460CA
:101400004C6814F0805FADD01C4C256E45F0010592
:101410002566246E04F001040194019C9D08AE1C15
:10142000144C54F8267003F00304A6000F24B440B3
:1014300027EA0407B0F1904F3FF460AF104CA04290
:101440000ED004F58064A0420CD004F58064A04264
:101450000AD004F58064A0423FF44EAF07244EE763
:1014600001244CE702244AE7032448E702B0F0BC19
:10147000704700BF0000014000040140001002401E
:10148000000400480369194201D10020704701207F
:1014900070470AB9816270478161704708B5054B92
:1014A0005B69034200D108BD024B586102F0A2F80B
:1014B000F9E700BF0004014010B50C46A0B90F4B7E
:1014C0005B6913F4007F0AD10D4A136923F004030A
:1014D0001361012C10D040BF20BF20BF10BD00F011
:1014E00069F80028F0D0F9E7044B5B6913F4007F3A
:1014F000EAD100F057F8E7E730BFEFE700700040AF
:1015000000ED00E0024B186800F4C060704700BFB7
:1015100000700040B0F5007F0FD01F4B1B6803F434
:10152000C063B3F5806F34D01B4A136823F4C063E3
:1015300043F48063136000207047174B1B6803F46B
:10154000C063B3F5007F22D0134A136823F4C0634D
:1015500043F400731360114B1A68322303FB02F348
:101560000F4AA2FB03239B0C013300E0013B0A4A14
:10157000526912F4806F01D0002BF7D1064B5B69E2
:1015800013F4806F01D100207047032070470020C2
:1015900070470020704700BF007000400800002026
:1015A00083DE1B43024A136843F480431360704791
:1015B00000700040104A136823F4804313600F4BFF
:1015C0001A68322303FB02F30D4AA2FB03239B0C90
:1015D000013300E0013B084A526912F4007F01D058
:1015E000002BF7D1044B5B6913F4007F01D100207D
:1015F00070470320704700BF0070004008000020C3
:1016000083DE1B4330B583B00546204B9B6D13F042
:10161000805F0BD0FFF776FFB0F5007F17D0802DED
:101620001FD82DD0702D2DD000211BE0174CA36D9D
:1016300043F08053A365A36D03F080530193019B96
:10164000FFF760FFA36D23F08053A365E4E7802DCF
:1016500003D9A02D03D9022104E0002102E00121D9
:1016600000E003210A4A136823F007030B431360C9
:10167000136803F007038B4206D0012003B030BD8E
:101680000221EFE70121EDE70020F7E7001002401B
:1016900000200240284A9368D26802F0030213F047
:1016A0000C030AD00C2B06D0042B1FD0082B20D003
:1016B0000020024610E0012AF6D11F4A126812F0FB
:1016C000080F0CD11C4AD2F89420C2F303221B4904
:1016D00051F8222043B100200C2B0DD07047164A40
:1016E0001268C2F30312F2E71046F5E7144800222D
:1016F000F2E714480022EFE70F4BDB6803F0030327
:10170000022B15D0032B15D00B4BD868C0F3021059
:101710000130D968C1F3062102FB01F2B2FBF0F2FD
:10172000D868C0F3416001304000B2FBF0F0D5E76B
:10173000034AE9E7034AE7E700100240B07C0008EB
:101740000024F40000127A00002800F00883F0B5AD
:1017500083B00446AD4B9D6805F00C05DE6806F0CD
:101760000306036813F0100F5ED0E5B10C2D18D0FE
:10177000A369002B00F0B880A44A136843F001036A
:101780001360FFF7DDFB0746A04B1B6813F0020F49
:1017900040F09780FFF7D4FBC01B0228F4D9032345
:1017A000E9E2012EE4D1994B1B6813F0020F03D03C
:1017B000A369002B00F0D682206A944B1B6813F0BB
:1017C000080F5ED0914B1B6803F0F00398425FD97D
:1017D000FFF718FF002840F0C7828C4B1A6842F0D0
:1017E00008021A601A6822F0F002216A0A431A609D
:1017F0005A6822F47F42E16942EA01225A60FFF707
:1018000049FF824B9B68C3F30313814AD35C03F007
:101810001F03D8407F4B18607F4B1868FFF748FBC9
:101820000346002840F0A782236813F0010F7AD006
:10183000082D6FD00C2D6BD06368B3F5803F00F09E
:101840009180B3F5A02F00F09380704B1A6822F4BA
:1018500080321A601A6822F480221A606368002BB2
:1018600000F09380FFF76CFB0746684B1B6813F48E
:10187000003F58D1FFF764FBC01B6428F5D9032350
:1018800079E2624BD3F894301B0903F0F0039DE733
:101890005E4B1A6842F008021A601A6822F0F002E1
:1018A000216A0A431A605A6822F47F42E16942EAD7
:1018B00001225A60206AFFF7A5FE00289FD001236D
:1018C00059E2524B1A6842F008021A601A6822F074
:1018D000F002216A0A431A605A6822F47F42E169E1
:1018E00042EA01225A609FE7484A136823F0010345
:1018F0001360FFF725FB0746444B1B6813F0020FEC
:1019000092D0FFF71DFBC01B0228F5D9032332E25A
:10191000032E91D13D4B1B6813F4003F03D0636845
:10192000002B00F02382236813F0020F4FD0042D08
:101930003CD00C2D38D0E368002B78D0334A1368A4
:1019400043F480731360FFF7FBFA06462F4B1B68C6
:1019500013F4806F62D1FFF7F3FA801B0228F5D9E8
:10196000032308E2294A136843F48033136075E7C0
:1019700003F18043A3F53C331A6842F480221A60D5
:101980001A6842F480321A6068E7FFF7D9FA07460E
:101990001E4B1B6813F4003FC5D0FFF7D1FAC01BE4
:1019A0006428F5D90323E6E1022EC4D1174B1B6846
:1019B00013F4806F03D0E368002B00F0D981134A41
:1019C000536823F0F853216943EA016353602368A5
:1019D00013F0080F56D06369002B3CD00B4AD2F8A5
:1019E000943043F00103C2F89430FFF7A9FA064699
:1019F000064BD3F8943013F0020F43D1FFF7A0FA4F
:101A0000801B0228F4D90323B5E100BF0010024077
:101A1000E07C00080800002004000020B64A53685B
:101A200023F0F853216943EA01635360CFE7B24AD8
:101A3000136823F480731360FFF782FA0646AE4BF7
:101A40001B6813F4806FC2D0FFF77AFA801B02285C
:101A5000F5D903238FE1A84AD2F8943023F001038B
:101A6000C2F89430FFF76CFA0646A34BD3F89430D3
:101A700013F0020F06D0FFF763FA801B0228F4D997
:101A8000032378E1236813F0040F7AD09A4B9B6DFF
:101A900013F0805F0BD1984B9A6D42F080529A659B
:101AA0009B6D03F080530193019B012600E000260B
:101AB000924B1B6813F4807F26D0A368012B37D08C
:101AC000052B3DD08C4BD3F8902022F00102C3F8B7
:101AD0009020D3F8902022F00402C3F89020A3684D
:101AE000002B3BD0FFF72CFA0746834BD3F89030FE
:101AF00013F0020F44D1FFF723FAC01B41F28833E1
:101B00009842F2D9032336E17C4A136843F4807388
:101B10001360FFF715FA0746784B1B6813F4807FB4
:101B2000CBD1FFF70DFAC01B0228F5D9032322E120
:101B3000714AD2F8903043F00103C2F89030CEE7FA
:101B40006D4BD3F8902042F00402C3F89020D3F8F4
:101B5000902042F00102C3F89020C0E7FFF7F0F9AF
:101B60000746654BD3F8903013F0020F08D0FFF70B
:101B7000E7F9C01B41F288339842F2D90323FAE017
:101B8000E6B9236813F0200F35D0636AE3B15A4AEF
:101B9000D2F8983043F00103C2F89830FFF7D0F93B
:101BA0000646554BD3F8983013F0020F23D1FFF7B8
:101BB000C7F9801B0228F4D90323DCE04E4A936D59
:101BC00023F080539365DCE74B4AD2F8983023F03A
:101BD0000103C2F89830FFF7B3F90646464BD3F835
:101BE000983013F0020F06D0FFF7AAF9801B0228E5
:101BF000F4D90323BFE0A36A002B00F0BB800C2DB7
:101C00006FD0022B23D03C4B1A6822F080721A60EE
:101C10001B6813F0006F04D1374AD36823F0030325
:101C2000D360354AD36823F0887323F48033D360BC
:101C3000FFF786F90446304B1B6813F0007F4ED047
:101C4000FFF77EF9001B0228F5D9032393E02A4A07
:101C5000136823F080731360FFF772F90546264B73
:101C60001B6813F0007F06D0FFF76AF9401B0228BB
:101C7000F5D903237FE0204AD36821491940E36A5C
:101C8000206B013843EA0013606B43EA0023E06BEA
:101C90004008013843EA4053206C4008013843EAC9
:101CA0004063A06B43EAC0630B43D360136843F007
:101CB00080731360D36843F08073D360FFF740F9FB
:101CC00004460D4B1B6813F0007F06D1FFF738F96F
:101CD000001B0228F5D903234DE000234BE000232D
:101CE00049E0012B4AD0044BDB6803F00301E26AB0
:101CF000914207D001233EE00010024000700040F6
:101D00008C809D0103F07002216B0139B2EB011F41
:101D100001D001232FE003F4FE42616BB2EB012FEF
:101D200001D0012327E003F07842A16BB2EBC16F31
:101D300001D001231FE003F4C001E26B5208013A15
:101D4000B1EB425F01D0012315E003F0C063226CC8
:101D50005208013AB3EB426F12D001230BE001238A
:101D600018467047012306E0012304E0012302E046
:101D7000012300E00023184603B0F0BD0123FAE779
:101D80000023F8E7002800F09B8070B504464E4B16
:101D90001B6803F007038B420CD24B4A136823F0F5
:101DA00007030B431360136803F007038B4201D052
:101DB000012070BD0D46236813F0010F39D0636810
:101DC000032B09D0022B26D063BB404A126812F0C5
:101DD000020F06D10120ECE73C4A126812F0007FA6
:101DE00070D03A498A6822F0030213438B60FFF7F0
:101DF000A7F80646354B9B6803F00C036268B3EB0B
:101E0000820F16D0FFF79CF8801B41F2883398426E
:101E1000F0D90320CDE72D4A126812F4003FE0D13B
:101E20000120C6E7294A126812F4806FD9D1012037
:101E3000BFE7236813F0020F06D0244A936823F00B
:101E4000F003A1680B4393601F4B1B6803F007036B
:101E5000AB420CD91C4A136823F007032B431360D1
:101E6000136803F00703AB4201D00120A1E7236808
:101E700013F0040F06D0154A936823F4E063E16879
:101E80000B439360236813F0080F07D00F4A936841
:101E900023F46053216943EAC1039360FFF7FAFB1F
:101EA0000A4B9B68C3F30313094AD35C03F01F0377
:101EB000D840084B1860084B1868FEF7F9FF78E720
:101EC00001207047012074E700200240001002400A
:101ED000E07C00080800002004000020014B186886
:101EE000704700BF0800002008B5FFF7F7FF054B5B
:101EF0009B68C3F30223044AD35C03F01F03D8405A
:101F000008BD00BF00100240F07C000808B5FFF7D4
:101F1000E5FF054B9B68C3F3C223044AD35C03F07F
:101F20001F03D84008BD00BF00100240F07C00082D
:101F3000F8B5594BDB6813F0030F18D0564BDB682C
:101F400003F003030268934202D001252846F8BD3E
:101F5000002A00F09F80504BDB68C3F3021301336B
:101F60004268934201D00125F0E700251AE003689A
:101F7000022B58D0032B5DD0012B01D001250FE09F
:101F8000454A126812F0020F60D0434DEA6822F011
:101F900073024468013C43EA04131343EB600025D9
:101FA000002DD3D10F4604463B4A136823F08063CB
:101FB0001360FEF7C5FF0646374B1B6813F0006F32
:101FC00005D0FEF7BDFF801B0228F5D90325002DA3
:101FD000BCD1002F3CD130490B6923F0784323F466
:101FE000FE43A068E268D20642EA002213430B6176
:101FF000294A136843F080631360FEF7A1FF064689
:10200000254B1B6813F0006F05D1FEF799FF801B6D
:102010000228F5D90325002D98D11F4A1369A1691B
:102020000B43136192E71C4A126812F4806FACD123
:102030000125B5E7184A126812F4003FA5D1164AE7
:10204000126812F4802FA0D10125A9E70125A7E786
:10205000012F0FD01048026922F0C06222F4FE4224
:10206000A16863695B08013B5B0643EA01231343F4
:102070000361BDE70848026922F4C00222F4FE426F
:10208000A16823695B08013B5B0543EA0123134315
:102090000361ADE7012559E7001002402DE9F04149
:1020A00082B00446036813F4006F26D0436CB3F586
:1020B000000F06D0B3F5400F1DD09BB10126374667
:1020C0001DE0BD4AD36843F48033D3600027BA4A89
:1020D000D2F8883023F44003616C0B43C2F8883097
:1020E00000260CE000210430FFF722FF07460028FD
:1020F000EDD0064603E00027E9E7002637462368CF
:1021000013F4003F6BD0AC4B9B6D13F0805F4CD150
:10211000A94B9A6D42F080529A659B6D03F08053F3
:102120000193019B4FF00108A44A136843F48073A4
:102130001360FEF705FF0546A04B1B6813F4807F74
:1021400005D1FEF7FDFE401B0228F5D90327002F1D
:1021500040D1994BD3F8903013F4407315D0E26D11
:102160009A4212D0944AD2F8903023F44073D2F8B5
:10217000901041F48031C2F89010D2F8901021F400
:102180008031C2F89010C2F8903013F0010F0FD1D7
:10219000002F40F0F780884AD2F8903023F4407343
:1021A000E16D0B43C2F8903015E04FF00008BBE73B
:1021B000FEF7C6FE0546804BD3F8903013F0020FB1
:1021C000E6D1FEF7BDFE401B41F288339842F2D9BA
:1021D0000327DDE73E46B8F1000F40F0D5802368C5
:1021E00013F0010F08D0744AD2F8883023F00303AB
:1021F000216A0B43C2F88830236813F0020F08D01D
:102200006D4AD2F8883023F00C03616A0B43C2F8A0
:102210008830236813F0040F08D0674AD2F888305A
:1022200023F03003A16A0B43C2F88830236813F00F
:10223000200F08D0604AD2F8883023F44063E16A66
:102240000B43C2F88830236813F4007F08D05A4A41
:10225000D2F8883023F44023E16B0B43C2F8883076
:10226000236813F4806F08D0534AD2F8883023F4DF
:102270004013216C0B43C2F88830236813F0400FE1
:1022800008D04D4AD2F8883023F44053216B0B43D9
:10229000C2F88830236813F0800F08D0464AD2F87D
:1022A000883023F44043616B0B43C2F888302368C5
:1022B00013F4807F08D0404AD2F8883023F44033AA
:1022C000A16B0B43C2F88830236813F4005F0FD072
:1022D000394AD2F8883023F04063A16C0B43C2F82E
:1022E0008830A36CB3F1006F54D0B3F1806F56D037
:1022F000236813F4002F0FD02F4AD2F8883023F030
:102300004063E16C0B43C2F88830E36CB3F1006FBB
:102310004DD0B3F1806F53D0236813F4802F0FD0CA
:10232000254AD2F8883023F04063216D0B43C2F870
:102330008830236DB3F1006F4AD0B3F1806F4CD079
:10234000236813F4804F0CD01B4AD2F8883023F056
:102350004053616D0B43C2F88830636DB3F1805F09
:1023600043D0236813F4004F08D0134AD2F88830C2
:1023700023F08043A16D0B43C2F88830304602B091
:10238000BDE8F0813E4626E70B4A936D23F080536B
:10239000936524E7D36843F48013D360A8E7012151
:1023A000201DFFF7C5FD0028A2D00646A0E7D36890
:1023B00043F48013D360AFE7001002400070004088
:1023C0000121201DFFF7B4FD0028A5D00646A3E794
:1023D000D36843F48013D360B2E70121201DFFF7D7
:1023E000A7FD0028ACD00646AAE70221201DFFF772
:1023F0009FFD0028B5D00646B3E700BFF8B50546F7
:102400000F4616461C462B689B6837EA03030CBF31
:1024100001230023B34237D0B4F1FF3FF3D0FEF7DE
:102420008FFD069BC01AA04201D2002CEBD12A6876
:10243000536823F0E00353606B68B3F5827F0BD0E1
:10244000AB6AB3F5005F14D0012385F85D3000233B
:1024500085F85C30032018E0AB68B3F5004F02D07C
:10246000B3F5806FECD12A68136823F04003136042
:10247000E6E72A68136823F4005313602A68136898
:1024800043F400531360DFE70020F8BDF8B50746BA
:102490000C4615461E4602E0B6F1FF3F0BD13A68E6
:1024A00093682340AB423BD0B4F5C06FF4D1002D0C
:1024B000F2D1137BF0E7FEF743FD069BC01AB04252
:1024C00001D2002EEBD13A68536823F0E003536049
:1024D0007B68B3F5827F0BD0BB6AB3F5005F14D085
:1024E000012387F85D30002387F85C30032018E073
:1024F000BB68B3F5004F02D0B3F5806FECD13A68FA
:10250000136823F040031360E6E73A68136823F486
:10251000005313603A68136843F400531360DFE715
:102520000020F8BD70B582B004460D4616460092F4
:102530000B4600224FF4C051FFF7A8FFB8B9009630
:102540002B46002280212046FFF758FFB8B900969D
:102550002B4600224FF4C0612046FFF797FF034649
:1025600050B1236E43F020032366032304E0236E5F
:1025700043F0200323660323184602B070BD236E88
:1025800043F0200323660323F6E770B582B00446C8
:102590000D4616464368B3F5827F0FD000962B4652
:1025A000002280212046FFF729FF034698B9626880
:1025B000B2F5827F15D0184602B070BD8368B3F5BE
:1025C000004F02D0B3F5806FE8D12268136823F082
:1025D00040031360E2E7236E43F0200323660323E6
:1025E000E9E7A268B2F5004F02D0B2F5806FE2D100
:1025F00000962B4600224FF4C0612046FFF746FFAD
:1026000003460028D7D0236E43F02003236603231C
:10261000D1E7002853D010B504460023836290F818
:102620005D30002B40D0022384F85D3022681368AF
:1026300023F040031360E368B3F5E06F39D900225B
:10264000B3F5706F04D0B3F5E06F01D00021A16243
:10265000216B21B9B3F5E06F2ED9022323636368A0
:10266000A1680B4321690B4361690B43A16901F424
:1026700000710B43E1690B43216A0B43A06A216897
:1026800003430B60638B03F00403616A0B43616BCC
:102690000B43E1680B43216813434B600020206625
:1026A000012384F85D3010BD80F85C3001F0ACFC93
:1026B000B9E74FF48052C3E701232363CFE701203A
:1026C0007047000038B590F85C40012C00F0F280B3
:1026D0000446012084F85C0094F85D00C0B265688F
:1026E000012810D0B5F5827F05D00223002284F89E
:1026F0005C20184638BDA568002D40F0D380042822
:1027000001D00223F2E7002900F0CE80002A00F079
:10271000CD80002B00F0CC8094F85D00C0B204287E
:1027200002D0052084F85D0000202066A163A38705
:10273000E3872264A4F84430A4F84630E0642065BE
:102740002268536823F4C0435360E368B3F5E06F35
:1027500027D92268536823F48053536094F85D307E
:10276000DBB2042B64D0A36D534A1A63A36D534AA2
:10277000DA62A36D524A5A63A36D00229A632168FC
:10278000B4F84630226C0C31A06DFEF713FD002822
:1027900055D0236E43F010032366012384F85D3087
:1027A000A4E72268536843F480535360636D9B69C8
:1027B000B3F5806F19D0A36D9B69B3F5806FCDD150
:1027C0002268536823F480535360B4F8463013F002
:1027D000010F21D12268536823F400535360B4F8E9
:1027E00046305B08A4F84630B8E7A38F13F0010F1A
:1027F00008D12268536823F480435360E38F5B0859
:10280000E387D8E72268536843F480435360E38F3B
:102810005B080133E387CEE72268536843F4005333
:102820005360B4F846305B080133A4F8463095E7AE
:10283000A36D244A1A63A36D234ADA6299E72268DA
:10284000536843F001035360626D00231363626DAC
:10285000D362626D5363626D93632268E38F0C32BF
:10286000A16B606DFEF7A6FC034638B1236E43F002
:1028700010032366012384F85D3037E7226811686E
:1028800011F0400F03D1116841F04001116021683F
:102890004A6842F020024A6021684A6842F0020217
:1028A0004A6023E7022321E701231FE701231DE7F5
:1028B00001231BE702231CE7DF2800086529000825
:1028C000EB280008D32800080D290008704770473E
:1028D000704708B5806AFFF7FBFF08BD704708B571
:1028E000806AFFF7FBFF08BD704708B5806A026881
:1028F000536823F003035360036E43F01003036631
:10290000012380F85D30FFF7EFFF08BD38B50546BD
:10291000846AFEF715FB2B681B6813F0200F19D192
:102920002268536823F0200353602268536823F021
:1029300003035360024664212046FFF726FE08B1D8
:10294000202323660023A4F84630012384F85D3059
:10295000236E1BB92046FFF7B9FF38BD2046FFF7AD
:10296000C3FFFAE738B50546846AFEF7E9FA2B6833
:102970001B6813F0200F1CD12268536823F020033A
:102980005360024664212046FFF7CCFD18B1236E48
:1029900043F0200323662268536823F00303536047
:1029A0000023E387A4F84630012384F85D30236ECA
:1029B0001BB92046FFF78BFF38BD2046FFF794FF79
:1029C000FAE790F85D0070472DE9F0480446016889
:1029D00083680269134342691343C2691343086859
:1029E0009E4A024013430B602268536823F440530D
:1029F000E1680B435360A1692268994B9A4201D068
:102A0000236A1943936823F430630B43936023686C
:102A1000944A93421FD0944A934230D0934A9342AF
:102A200046D08F4A934259D010258D4A934276D092
:102A3000E369B3F5004F00F0ED80082D00F28981C5
:102A4000DFE815F049015F01690187017401870121
:102A5000870187017E0102F55842D2F8882002F0F2
:102A60000302032A09D8DFE802F002045206012516
:102A7000DBE70425D9E70825D7E71025D5E702F5D8
:102A8000E632D2F8882002F00C020C2A0ED8DFE8D9
:102A900002F0070D0D0D090D0D0D400D0D0D0B0074
:102AA0000025C2E70425C0E70825BEE71025BCE7DE
:102AB00002F5E432D2F8882002F03002102A09D060
:102AC00005D9202A27D0302A06D10825ADE71AB922
:102AD0000025AAE70425A8E71025A6E702F5C832D5
:102AE000D2F8882002F44062B2F5806F0BD007D98B
:102AF000B2F5006F11D0B2F5406F06D1082594E70A
:102B00001AB9002591E704258FE710258DE70225E6
:102B10008BE7022589E7022587E7022585E7082D4F
:102B200000F21A81DFE815F00C00180114001801FA
:102B3000110018011801180109004FF4004008E0C5
:102B4000FFF7D2F928B90020D6E0FEF7A3FDF9E798
:102B50004748626802EB4203834200F2FF80B0EB19
:102B6000023F00F2FD80082D51D8DFE805F0055046
:102B70002050305050504300FFF7B6F90025070EA3
:102B80000602626850082B4616EB000B47F1000C5A
:102B900058466146FDF7B0FF03462846A3F540714D
:102BA000344A914200F2DE802268D360A4E05608E5
:102BB00000252B46DFF8C0B04FF0000C1BEB0600E1
:102BC0004CF10001FDF798FF03462846E6E7FEF7C3
:102BD00061FD0025070E0602626850082B4616EBC1
:102BE000000B47F1000C58466146FDF785FF034690
:102BF0002846D3E75008002700252B4610F5000093
:102C000047F10001FDF778FF03462846C6E701209B
:102C10000023C3E7082D5BD8DFE805F005303B5AF9
:102C2000465A5A5A5100FFF75FF96268530803EB9E
:102C30004003B3FBF2F39BB20020A3F110014FF667
:102C4000EF72914200F290809AB222F00F02C3F329
:102C5000420313432268D3604EE000BFF369FFEFE5
:102C6000008000400038014000440040004800401F
:102C70000024F400FFFC0F00000024F4FFF746F9E5
:102C80006268530803EB4003B3FBF2F39BB20020EE
:102C9000D3E76268530803F1F47303F59043B3FB81
:102CA000F2F39BB20020C8E7FEF7F4FC6268530819
:102CB00003EB4003B3FBF2F39BB20020BDE7626875
:102CC000530803F58033B3FBF2F39BB20020B4E763
:102CD00001200023B1E7FFF707F9636800EB530217
:102CE000B2FBF3F292B20020A2F110014FF6EF73A3
:102CF00099423BD82368DA60002222666266BDE80A
:102D0000F088FFF703F9636800EB5302B2FBF3F2BC
:102D100092B20020E8E763685A0802F5740202F5EF
:102D20001052B2FBF3F292B20020DDE7FEF7B2FCE4
:102D3000636800EB5302B2FBF3F292B20020D3E7D8
:102D400063685A0802F50042B2FBF3F292B2002027
:102D5000CAE701200022C7E70120CDE70120CBE729
:102D60000120C9E70120C7E70120C5E70120C3E72B
:102D7000436A13F0010F06D00268536823F400334E
:102D8000816A0B435360436A13F0020F06D0026856
:102D9000536823F48033C16A0B435360436A13F0D2
:102DA000040F06D00268536823F48023016B0B43A1
:102DB0005360436A13F0080F06D00268536823F487
:102DC0000043416B0B435360436A13F0100F06D06E
:102DD0000268936823F48053816B0B439360436ACA
:102DE00013F0200F06D00268936823F40053C16BE0
:102DF0000B439360436A13F0400F0AD00268536894
:102E000023F48013016C0B435360036CB3F5801FF4
:102E10000BD0436A13F0800F06D00268536823F486
:102E20000023816C0B43536070470268536823F49E
:102E3000C003416C0B435360EBE72DE9F0410546BD
:102E40000F4616469846069C2B68DB6937EA030353
:102E50000CBF01230023B3421CD1B4F1FF3FF3D0D8
:102E6000FEF76EF8A0EB0800A04201D8002CEBD1D1
:102E70002A68136823F4D07313602A68936823F0D8
:102E80000103936020236B67AB67002385F87030E4
:102E9000032000E00020BDE8F0812DE9F04182B080
:102EA0001E46436F202B55D104460D4690460029FF
:102EB00055D0002A55D090F87030012B53D0012303
:102EC00080F870300023C36721234367FEF738F88A
:102ED0000746A4F85080A4F85280A368B3F5805F39
:102EE00002D04FF0000813E0236913B14FF000083F
:102EF0000EE0A84600250BE038F8023B2268C3F339
:102F000008031385B4F85230013B9BB2A4F8523049
:102F1000B4F852309BB273B100963B460022802138
:102F20002046FFF78AFF00BB002DE5D0236815F887
:102F3000012B1A85E6E700963B46002240212046F9
:102F4000FFF77BFF034690B920226267002284F8D6
:102F5000702000E00223184602B0BDE8F081012392
:102F6000F9E70123F7E70223F5E70323F3E7032358
:102F7000F1E730B583B004460023C367FDF7E0FFF7
:102F8000054623681B6813F0080F0CD123681B68E3
:102F900013F0040F15D120236367A367002084F882
:102FA000700003B030BD6FF07E43009303460022F3
:102FB0004FF400112046FFF740FF0028E6D0032021
:102FC000EFE76FF07E4300932B4600224FF4800121
:102FD0002046FFF732FF0028DDD00320E1E768B389
:102FE00010B50446436F03B3242363672268136854
:102FF00023F0010313602046FFF7E6FC012813D0FD
:10300000636ABBB92268536823F490435360226813
:10301000936823F02A0393602268136843F0010346
:1030200013602046FFF7A5FF10BD80F8703001F057
:1030300057F8D9E72046FFF79BFEE3E701207047EA
:1030400000B583B000228DF802208DF801000B231B
:103050008DF800304FF400614FF09040FEF719FA00
:10306000032301AA69460A48FFF72CFB0848FFF72B
:10307000A8FC0128FAD101224FF400614FF09040E2
:10308000FEF707FA9DF8060003B05DF804FB00BFE9
:103090006802002000B583B08DF806108DF8050099
:1030A0000A238DF8043000224FF400614FF0904065
:1030B000FEF7EFF903236A4601A90948FFF702FB6F
:1030C0000748FFF77EFC0128FAD101224FF4006186
:1030D0004FF09040FEF7DDF903B05DF804FB00BF50
:1030E000680200202DE9F04186B080460E46154664
:1030F0001C46002203920492ADF81420CDF8022061
:10310000CDF806200E238DF8013006AF0B2307F80B
:10311000183D4FF400614FF09040FEF7BAF90A23D2
:1031200003AA39461748FFF7CDFA1648FFF749FCBE
:103130000128FAD101224FF400614FF09040FEF7D0
:10314000A8F99DF80F209DF80E3043EA0223A8F855
:1031500000309DF811209DF8103043EA022333809F
:103160009DF813209DF8123043EA02232B809DF82E
:1031700015209DF8143043EA0223238006B0BDE8F1
:10318000F08100BF6802002000B585B08DF80C10FA
:10319000030A8DF80B308DF80A0020238DF80930D2
:1031A0000A238DF8083000224FF400614FF0904060
:1031B000FEF76FF905236A4602A90948FFF782FA6C
:1031C0000748FFF7FEFB0128FAD101224FF4006106
:1031D0004FF09040FEF75DF905B05DF804FB00BFCD
:1031E0006802002000B585B00B0A8DF80D308DF80F
:1031F0000C10030A8DF80B308DF80A0023238DF88C
:1032000009300A238DF8083000224FF400614FF096
:103210009040FEF73EF906236A4602A90848FFF7E8
:1032200051FA0748FFF7CDFB0128FAD101224FF4EC
:1032300000614FF09040FEF72CF905B05DF804FBFB
:103240006802002070B58EB00026674B1E60062015
:10325000FDF7F4FE0720FDF7F1FE01AC634D0FCD45
:103260000FC495E8030084E8030001A8FDF7C4FD3E
:103270005F4C4FF6FF7382B201A92046FFF70DFEA7
:1032800052211F20FFF706FF0120FDF75FFE3046A9
:10329000FFF7D6FE0246574901A803F01BF901A823
:1032A000FDF7AAFD4FF6FF7382B201A92046FFF792
:1032B000F4FD32210846FFF767FF32210846FFF789
:1032C00091FF3F212720FFF7E5FE2720FFF7B8FEFB
:1032D0000246494901A803F0FDF801A8FDF78CFD5D
:1032E0004FF6FF7382B201A92046FFF7D6FD4021B9
:1032F0002A20FFF7CFFE2A20FFF7A2FE02463F4911
:1033000001A803F0E7F801A8FDF776FD4FF6FF737B
:1033100082B201A92046FFF7C0FD01212B20FFF753
:10332000B9FE2B20FFF78CFE0246354901A803F0B9
:10333000D1F801A8FDF760FD4FF6FF7382B201A935
:103340002046FFF7AAFD13212C20FFF7A3FE2C2017
:10335000FFF776FE02462B4901A803F0BBF801A84F
:10336000FDF74AFD4FF6FF7382B201A92046FFF731
:1033700094FD24212D20FFF78DFE2D20FFF760FE08
:103380000546214E0246314601A803F0A3F801A8E4
:10339000FDF732FD4FF6FF7382B201A92046FFF719
:1033A0007CFD45F00201C9B22D20FFF773FE2D20F0
:1033B000FFF746FE0246314601A803F08BF801A84C
:1033C000FDF71AFD4FF6FF7382B201A92046FFF701
:1033D00064FD6420FDF7BAFD0620FDF721FE0720FD
:1033E000FDF71EFE0EB070BDD8040020F87C00086A
:1033F000F8110020107D0008207D00083C7D0008A9
:10340000507D0008647D00087C7D000830B589B0DF
:10341000002403940494059406940794254BDA6CD5
:1034200042F00402DA64DA6C02F004020092009ABC
:10343000DA6C42F00102DA64DA6C02F00102019205
:10344000019ADA6C42F00202DA64DB6C03F00203E8
:103450000293029B01224FF401614FF09040FEF76E
:1034600018F803250395144B0493059403A94FF012
:103470009040FDF73DFF4FF4016303930123049354
:103480000594069503A94FF09040FDF731FF2246C1
:1034900021460620FDF790FD0620FDF7C1FD2246DE
:1034A00021460720FDF788FD0720FDF7B9FD09B08B
:1034B00030BD00BF001002400000111000B583B005
:1034C000224B9A6C42F001029A649A6C02F001025B
:1034D0000092009A9A6C42F002029A649B6C03F08C
:1034E00002030193019B002211460E20FDF764FDAB
:1034F0000E20FDF795FD002211460F20FDF75CFD23
:103500000F20FDF78DFD002211461020FDF754FD20
:103510001020FDF785FD002211461120FDF74CFD1E
:103520001120FDF77DFD002211464420FDF744FDEA
:103530004420FDF775FD002211464520FDF73CFDB6
:103540004520FDF76DFD03B05DF804FB001002405F
:1035500008B50E480E4B03604FF48273436000239E
:1035600083604FF4E062C260036143614FF4007214
:1035700082611022C2610362436283620722C262D7
:10358000036308234363FFF744F808BD6802002083
:103590000038004008B50948094B03604FF4E13397
:1035A000436000238360C36003610C224261836136
:1035B000C36103624362FFF712FD08BDF8110020EA
:1035C0000044004008B50948094B03604FF4E1335B
:1035D000436000238360C36003610C224261836106
:1035E000C36103624362FFF7FAFC08BDE8040020F0
:1035F00000380140012800D07047F8B50E4E0F4C3E
:1036000006F1200735460FCD20606160A260E360BF
:103610002E461034BD42F5D1286820602B792371E5
:10362000064C2046FDF7E8FB4FF6FF7382B22146B9
:103630000348FFF732FCF8BD947D000838030020F2
:10364000F811002030B5AFB0242200211EA802F0EE
:10365000DDFA0024189419941A941B941C94602287
:103660002146684602F0D2FA02231D934FF480727D
:103670002092102221922793289301222992082236
:103680002A9207222B922C932D931DA8FEF75CF80B
:103690000F231893032519951A941B941C942946FB
:1036A00018A8FEF76FFB0095089409946846FEF78A
:1036B000F5FC4FF40070FDF72DFF2FB030BD00007A
:1036C00080B588B0FDF71AFCFFF7BCFFFFF79EFE40
:1036D000FFF7F4FEFFF73CFFFFF75CFFFFF772FF19
:1036E000FFF7B0FD924D2B46AA1C291DA81DFFF720
:1036F000F9FCB5F90600FCF7BDFE7FA3D3E9002372
:10370000FCF722FF7EA3D3E90023FCF767FD064602
:103710000F46884CC4E90067B5F90400FCF7AAFE1F
:1037200075A3D3E90023FCF70FFF77A3D3E90023A8
:10373000FCF754FD80468946C4E90289B5F90200C8
:10374000FCF798FE6CA3D3E90023FCF7FDFE70A301
:10375000D3E90023FCF742FDC4E90401B5F90000F8
:10376000FCF788FE6CA3D3E90023FCF7EDFE0022F2
:10377000714BFCF731FDC4E906019FED698BB0EE9A
:10378000481AF0EE681A49EC108B00F029FE59EC4B
:10379000108BB0EE481AF0EE681A94ED040B00F0AE
:1037A0001FFE53EC102B40464946FCF717FD41EC39
:1037B000100B00F0B1FFB0EE401AF0EE601A47ECCB
:1037C000106B00F009FE5D4E57A3D3E9002351ECC6
:1037D000100BFCF7B9FEC6E9000194ED029BB0EEB8
:1037E000481AF0EE681A94ED000B00F0F9FD59EC60
:1037F000108BB0EE481AF0EE681A94ED040B00F04E
:10380000EFFD53EC102B40464946FCF7E7FC41EC3A
:10381000100B00F081FFB0EE401AF0EE601AB0EE2F
:10382000490AF0EE690A00F0D7FD454D3EA3D3E901
:10383000002351EC100BFCF787FEC5E90001B0EE48
:10384000481AF0EE681A94ED000B00F0C9FD59EC2F
:10385000108BB0EE481AF0EE681A94ED020B00F0EF
:10386000BFFD53EC102B40464946FCF7B7FC41EC3A
:10387000100B00F051FF94ED041B00F0ADFD2AA3E6
:10388000D3E9002351EC100BFCF75EFE00222D4B18
:10389000FCF7A2FC2C4BC3E90001D6E900232B4C1A
:1038A000CDE90201D5E90001CDE900012849204612
:1038B00002F010FE2046FDF79FFA4FF6FF7382B22A
:1038C00021462448FFF7E9FA2046FDF795FA4FF61E
:1038D000FF7382B221462048FFF7DFFA52E0002250
:1038E00010214FF09040FDF7D4FD1C4B00221A80B0
:1038F00072E100BFAFF30080FCA9F1D24D62503FEE
:103900005A643BDF4F8D973F4C37894160E5A03FBC
:103910008FC2F5285C8FC23FA4703D0AD7A3B03F89
:103920000000000000000040F8C1631ADCA54C4014
:10393000FC0100207005002000003140E004002060
:103940003003002000805640D002002038030020C1
:10395000BC7D0008F8110020E804002020030020AE
:10396000C94C2346A21C211DA01DFFF7BBFBA36869
:103970000433A360A368B3F5C67F00F0CF810A20AB
:10398000FDF7E4FA01214FF09040FDF77BFDBF4BBE
:1039900018601B68002BE3D1BB4D2B46AA1C291DC8
:1039A000A81DFFF79FFBB5F90600FCF763FDA6A372
:1039B000D3E90023FCF7C8FDA5A3D3E90023FCF756
:1039C0000DFC06460F46B24CC4E90067B5F9040089
:1039D000FCF750FD9CA3D3E90023FCF7B5FD9EA3A3
:1039E000D3E90023FCF7FAFB80468946C4E9028943
:1039F000B5F90200FCF73EFD93A3D3E90023FCF7E1
:103A0000A3FD97A3D3E90023FCF7E8FBC4E9040175
:103A1000B5F90000FCF72EFD93A3D3E90023FCF7D2
:103A200093FD00229B4BFCF7D7FBC4E906019FEDF9
:103A3000908BB0EE481AF0EE681A49EC108B00F04B
:103A4000CFFC59EC108BB0EE481AF0EE681A94EDEA
:103A5000040B00F0C5FC53EC102B40464946FCF724
:103A6000BDFB41EC100B00F057FEB0EE401AF0EE3B
:103A7000601A47EC106B00F0AFFC874D7EA3D3E9D2
:103A8000002351EC100BFCF75FFDC5E9000194ED3C
:103A9000029BB0EE481AF0EE681A94ED000B00F0AD
:103AA0009FFC57EC106BB0EE481AF0EE681A94EDDC
:103AB000040B00F095FC53EC102B30463946FCF714
:103AC0008DFB41EC100B00F027FEB0EE401AF0EE3B
:103AD000601AB0EE490AF0EE690A00F07DFC66A3B8
:103AE000D3E9002351EC100BFCF72EFD6B4BC3E91F
:103AF0000001B0EE481AF0EE681A94ED000B00F0E9
:103B00006FFC57EC106BB0EE481AF0EE681A94EDAB
:103B1000020B00F065FC53EC102B30463946FCF7E5
:103B20005DFB41EC100B00F0F7FD94ED041B00F081
:103B300053FC51A3D3E9002351EC100BFCF704FD17
:103B40000022574BFCF748FB06460F46554BC3E98E
:103B500000674BA3D3E90023D4E90601FCF7F4FC8A
:103B60000022514BFCF73AFB504BC3E90001D5E969
:103B700000234F49D1E90001FCF72EFBFCF794FF2D
:103B80000028B8BF40420A281DDC444BD3E900237B
:103B90004849D1E90001FCF71FFBFCF785FF00282D
:103BA000B8BF40420A280EDC32463B464249D1E9C2
:103BB0000001FCF711FBFCF777FF0028B8BF40427B
:103BC0000A287FF78CAE012210214FF09040FDF7BC
:103BD00060FC3A4B01221A80384B1B881BB22E4ADC
:103BE000D2E90001364C0693304BD3E90023CDE9EE
:103BF00004232C4BD3E90023CDE90223274BD3E93F
:103C00000023CDE9002302460B462E49204602F050
:103C100061FC2046FDF7F0F84FF6FF7382B22146B3
:103C20002948FFF73AF92046FDF7E6F84FF6FF730B
:103C300082B221462548FFF730F9254E06F13007BC
:103C400048E000BFAFF30080FCA9F1D24D62503FC5
:103C50005A643BDF4F8D973F4C37894160E5A03F69
:103C60008FC2F5285C8FC23FA4703D0AD7A3B03F36
:103C70000000000000000040F8C1631ADCA54C40C1
:103C8000CDCCCCCCCCCCFC3FFC010020D804002017
:103C90007005002000003140F0110020C01200200B
:103CA00000805640280300200000404068050020A6
:103CB000E004002030030020D00200202003002078
:103CC00038030020D87D0008F8110020E804002007
:103CD000F87D000835460FCD20606160A260E3608A
:103CE0002E461034BD42F5D12B782370AC4C2046C3
:103CF000FDF782F84FF6FF7382B22146A948FFF71D
:103D0000CCF8C820FDF722F9FDF734F901214FF472
:103D10008040FDF7D1FBFDF735F930E62546B4F9D3
:103D20000600FCF7A7FB8EA3D3E90023FCF70CFCED
:103D3000A6688DA3D3E90023FCF750FA9A4C04EB54
:103D4000C606C6E90001B5F90400FCF793FB84A39D
:103D5000D3E90023FCF7F8FBAE68013684A3D3E96E
:103D60000023FCF73BFA04EBC606C6E90001B5F9EF
:103D70000200FCF77FFB7AA3D3E90023FCF7E4FB06
:103D8000AE6802367CA3D3E90023FCF727FA04EBE4
:103D9000C606C6E90001B5F90000FCF76BFB78A385
:103DA000D3E90023FCF7D0FBAE68033600227F4B3B
:103DB000FCF712FA04EBC606C6E9000194ED009B7D
:103DC0009FED718BB0EE481AF0EE681A94ED020B7D
:103DD00000F006FB57EC106BB0EE481AF0EE681AD4
:103DE00094ED040B00F0FCFA53EC102B30463946EE
:103DF000FCF7F4F941EC100B00F08EFCB0EE401A29
:103E0000F0EE601AB0EE490AF0EE690A00F0E4FA4A
:103E1000674F5FA3D3E9002351EC100BFCF794FB31
:103E2000C7E9000194ED029BB0EE481AF0EE681A63
:103E300094ED000B00F0D4FA59EC108BB0EE481A58
:103E4000F0EE681A94ED040B00F0CAFA53EC102B54
:103E500040464946FCF7C2F941EC100B00F05CFC0F
:103E6000B0EE401AF0EE601AB0EE490AF0EE690AC0
:103E700000F0B2FA4F4E46A3D3E9002351EC100BE9
:103E8000FCF762FBC6E90001B0EE481AF0EE681AD2
:103E900094ED000B00F0A4FA59EC108BB0EE481A28
:103EA000F0EE681A94ED020B00F09AFA53EC102B26
:103EB00040464946FCF792F941EC100B00F02CFC0F
:103EC00094ED041B00F088FA31A3D3E9002351ECF0
:103ED000100BFCF739FB0022374BFCF77DF98046CD
:103EE0008946364BC3E900892BA3D3E90023D4E9E3
:103EF0000601FCF729FB0022314BFCF76FF9314B2F
:103F0000C3E90001304B1B880FFA83FCD7E900237B
:103F1000234CCDF818C0CDE90401CDE90289D6E9DA
:103F20000001CDE900012949204602F0D3FA2046DC
:103F3000FCF762FF4FF6FF7382B221461948FEF785
:103F4000ACFF2046FCF758FF4FF6FF7382B22146C4
:103F50001F48FEF7A2FF0023AB6010E5AFF300801F
:103F6000FCA9F1D24D62503F5A643BDF4F8D973F21
:103F70004C37894160E5A03F8FC2F5285C8FC23F76
:103F8000A4703D0AD7A3B03F00000000000000402D
:103F9000F8C1631ADCA54C40CDCCCCCCCCCCFC3FDA
:103FA00038030020F8110020700500200000314087
:103FB000F0110020C012002000805640280300208D
:103FC000000040406805002020030020D87D000844
:103FD000E80400207047000082B00A4B1A6E42F0DD
:103FE00001021A661A6E02F001020092009A9A6D9E
:103FF00042F080529A659B6D03F080530193019BC0
:1040000002B070470010024010B588B0002303933F
:10401000049305930693079302682B4B9A4201D0B1
:1040200008B010BD044603F5EC339A6D42F48042AB
:104030009A659A6D02F480420192019ADA6C42F01C
:104040000202DA64DB6C03F002030293029B4FF47A
:1040500060430393022304930323069305230793EA
:1040600003A91A48FDF744F919481A4B03600123C4
:104070004360102383600023C36080220261436198
:104080008361C3610362FDF719F8B8B9104B63652A
:104090009C621148114B036001234360002383603D
:1040A000C3608022026143618361C3610362FDF7E3
:1040B00005F830B9084BA3659C62B1E7FFF78AFFAA
:1040C000E4E7FFF787FFF5E7003800400004004809
:1040D0007812002058000240D8020020440002401C
:1040E00030B58BB0044600230593069307930893DD
:1040F00009930368544A934204D0544A934251D0DE
:104100000BB030BD524B1A6E42F480421A661A6EE2
:1041100002F480420192019ADA6C42F00102DA6400
:10412000DB6C03F001030293029B4FF4C063059321
:1041300002250695032308930723099305A94FF049
:104140009040FDF7D5F84348434B0360456000239A
:104150008360C3608022026143618361C361036243
:10416000FCF7ACFFC0B93B4BE3669C623B483C4B61
:10417000036002234360102383600023C360802216
:10418000026143618361C3610362FCF797FF30B949
:10419000324BA3669C62B3E7FFF71CFFE3E7FFF730
:1041A00019FFF5E72A4B9A6D42F400329A659A6D31
:1041B00002F400320392039ADA6C42F00102DA64EC
:1041C000DB6C03F001030493049B0C23059302258D
:1041D0000695032308930723099305A94FF0904000
:1041E000FDF786F81F48204B03604560002383607D
:1041F000C36080220261436183612022C261036245
:10420000FCF75CFFC8B9174BE3669C621748184B74
:10421000036002234360102383600023C360802275
:104220000261436183612022C2610362FCF746FFA1
:1042300030B90E4BA3669C6262E7FFF7CBFEE2E764
:10424000FFF7C8FEF5E700BF00380140004400401A
:1042500000100240480400208004024000040020B6
:104260006C040240200200206C00024090040020F8
:10427000800002407047FEE7FEE7FEE7FEE770477A
:104280007047704708B5FCF74FFE08BD08B5012020
:10429000FDF704F908BD08B50220FDF7FFF808BDD9
:1042A00008B50248FCF7C1FF08BD00BFD8020020D6
:1042B00008B50248FCF7B9FF08BD00BF781200201E
:1042C00008B50248FCF7B1FF08BD00BF200200207E
:1042D00008B50248FCF7A9FF08BD00BF9004002004
:1042E00008B50248FCF7A1FF08BD00BF000400208C
:1042F00008B50248FCF799FF08BD00BF480400203C
:1043000008B503460B4A126842B10A4A10680344D2
:104310006A46934206D8074A136008BD054A064913
:104320001160F2E701F048FC0C2303604FF0FF300E
:10433000F3E700BF0C020020D01200200F49D1F893
:10434000883043F47003C1F888300D4B1A6842F08E
:1043500001021A60002098601A6822F0A85222F424
:1043600010221A604FF48052DA601A6822F4802218
:104370001A6098614FF000638B60704700ED00E0B9
:1043800000100240DFF834D0002103E00C4B5B58F2
:10439000435004310B480C4B42189A42F6D30B4A57
:1043A00002E0002342F8043B094B9A42F9D3FFF79D
:1043B000C5FF01F007FCFFF783F9FEE700000120CD
:1043C0000081000800000020E0010020E001002042
:1043D000CC120020FEE7000000F0FAB90000000057
:1043E0002DE9F04F2DED028BDFF824A38BB057ECB5
:1043F000106B55EC114B00F0CFFA9AF90080B0EE3B
:10440000408AF0EE608AB8F1FF3F33D022462B4657
:1044100020462946FCF732FB834658BB32463B46D2
:1044200030463946FCF72AFB8146002866D13046E3
:10443000394600220023FCF7EFFA20B300220023C4
:1044400020462946FCF7E8FA834600287DD09FEDF8
:10445000A67B0122AA4BCDF820900092CDE90267FD
:10446000CDE904458DED067B0193B8F1000F5ED0D8
:104470009FED9F8BB0EE480AF0EE680A0BB0BDECE2
:10448000028BBDE8F08FB0EE480AF0EE680A01F04A
:1044900061FA8046002800F082804FF000084FF05B
:1044A000000951EC180B42464B46FCF7B5FA0028C0
:1044B000E0D047EC106B01F04DFA0028DAD045EC63
:1044C000104B01F047FA0028D4D09AF900308C4AFA
:1044D000019204210022022BCDE90267CDE90445B7
:1044E000CDE906890091089203D0684601F03AFAB6
:1044F00010BB01F061FB222303601DE000220023BA
:1045000020462946FCF788FA0028B3D09FED788B27
:1045100001227B4BCDF820B0B8F1020F0092CDE91B
:104520000267CDE904458DED068B0193A2D0684664
:1045300001F018FA002878D0089B1BB101F03CFB71
:10454000089B03609DED068B94E745EC104B01F052
:1045500001FA00288ED00022002320462946FCF7CD
:1045600065FA002886D0664A9AF90030CDF820B066
:104570000121CDE90267CDE90445CDE90012002B08
:1045800058D060490020022BCDE9060156D101F038
:1045900013FB21230360089B002BD3D0CEE747EC0D
:1045A000106B01F0D7F900283FF477AF45EC104BC2
:1045B00001F0D0F900283FF470AF53EC182B18EE3F
:1045C000100A1946FCF75AFA9AF9009000286FD1A0
:1045D0000323DFF82CC108902946204600930022CF
:1045E000494BCDF804C0CDE90445CDE90267FBF79E
:1045F000ABFF04460D46B9F1000F25D1DFF8149149
:104600004FF060480022002330463946CDE9068944
:10461000FCF70CFA38BB684601F0A4F90028BAD1BF
:1046200001F0CAFA22230360B5E701F0C5FA21239D
:10463000036081E79FED2C7B8DED067B684601F0E2
:1046400091F90028A7D1A2E79FED2B7B0022002340
:10465000304639468DED067BFCF7E8F9B0B9B9F183
:10466000020FDDD0D7E745EC104B01F085F922466B
:104670002B4651EC100BFCF7CFF9B0B9234B9AF94C
:1046800000904FF06042CDE90623E8E745EC104B7F
:1046900001F072F922462B4651EC100BFCF7BCF9E5
:1046A00018B9184B0022CDE906239AF90090D6E7F5
:1046B0000122134BCDF820800092CDE90267CDE9AD
:1046C00004450193B9F1000FB4D000220023104635
:1046D0001946FCF763F8B9F1020FCDE906013FF482
:1046E00056AFABE7AFF30080000000000000000011
:1046F000000000000000F03F000000000000F07F1C
:104700002C7E00080000F0FF0000E03FFFFFEFC735
:104710000C000020FFFFEF472DE9F0432DED028B49
:104720008BB055EC104B00F093FE274BB0EE408A57
:10473000F0EE608A93F90060731C12D022462B467B
:1047400020462946FCF79AF9074650B94FF0000871
:104750004FF000092046294642464B46FCF766F9D1
:1047600040B9B0EE480AF0EE680A0BB0BDEC028B1F
:10477000BDE8F0830122154B08970092CDE904456E
:10478000CDE90245019396B142464B464046494623
:10479000FCF704F8022ECDE906010AD101F00CFA6B
:1047A00021230360089B53B99DED068BD9E7CDE922
:1047B0000689684601F0D6F80028F3D1EEE701F04B
:1047C000FBF9089B0360EFE70C000020307E000837
:1047D00051EC110B43422DE9F047034321F0004E09
:1047E0006B4F4EEAD373BB4255EC104B1ED863425D
:1047F000234325F0004A4AEAD373BB42A94615D8A1
:1048000001F1404303F5801303433DD08E1706F0BA
:1048100002065AEA040346EAD5760FD1022E52D098
:10482000032E3CD148A1D1E9000103E022462B46EA
:10483000FBF7D4FC41EC100BBDE8F0875EEA000307
:1048400026D0BE452FD0BA4522D0AAEB0E0E4FEA95
:104850002E5EBEF13C0F3ADC00293CDA1EF13C0F23
:1048600039DA00200021012E51D0022E42D0002E34
:10487000E0D037A3D3E90023FBF7AEFC36A3D3E99E
:104880000023FBF7A9FCD5E7BDE8F04700F0ACBE7C
:10489000B9F1000F13DB32A1D1E90001CAE710EE34
:1048A000100A2946C6E7F24535D0022E0BD0032E5A
:1048B000B8D0012E4FF0000037D00021BAE72AA16E
:1048C000D1E90001B6E724A1D1E90001B2E724A1B2
:1048D000D1E90001C7E702460B4620462946FBF70F
:1048E0005DFF41EC100B01F02BF800F07DFE51EC68
:1048F000100BB8E716A3D3E90023FBF76DFC0246C3
:104900000B4615A1D1E90001FBF766FC92E701F126
:10491000004319468EE7022E12D0032E0CD0012E32
:1049200006D013A1D1E9000184E74FF0004181E7EF
:1049300011A1D1E900017DE711A1D1E9000179E7D9
:1049400011A1D1E9000175E7182D4454FB2109C0DC
:10495000075C143326A6A13C182D4454FB210940C2
:10496000182D4454FB21F93F182D4454FB21F9BF65
:10497000182D4454FB21E93F182D4454FB21E9BF75
:10498000D221337F7CD902C0D221337F7CD902402F
:104990000000F07F000000002DE9F04F51EC110BFA
:1049A00021F0004555EA000393B010D059EC108B6C
:1049B0006D4B29F000449C424E4610EE10AA0DDDCE
:1049C00004F1404404F5801454EA0A0356D16749BF
:1049D000002041EC100B13B0BDE8F08F0F4611EE34
:1049E00010CA48D09D42EBDC5F4B9D425FD0002E49
:1049F000CDE900015FDB4FF0000BBCF1000F0ED1E1
:104A0000594B9D4243D0594B9D4200F08C80B7F1E9
:104A1000804F00F09E80564B9F4200F0B88349ECD7
:104A2000108B00F08DFF51EC100BBAF1000F06D186
:104A3000002C5AD04D4B26F040429A4255D0F60FEA
:104A400006F1FF3A5BEA0A0373D04A4B9D4240F3FA
:104A5000998003F104739D4240F33884464B9C4295
:104A600072DD002F72DD3EA3D3E900231046194604
:104A7000FBF76AFDADE7B8F1000F05D03F4813B072
:104A8000BDE8F04F00F070BFA542F7DCACE704F1E1
:104A9000404303F5801353EA0A0398D0364B9C42F7
:104AA00040F37F83002F51DBDDE9000191E7BCF18A
:104AB000000F9CD084E7324B9D4231DCA3F154734C
:104AC0009D4298DD2B15A3F2FF33142B40F3A183F5
:104AD000C3F134032CFA03F202FA03F363458AD1DB
:104AE00002F00102C2F1020B87E7002F05DA02464D
:104AF0000B4600201D49FBF751FE002EBFF669AFA3
:104B000004F1404404F5801454EA0B0300F03A84A5
:104B1000BBF1010F7FF45DAF01F10043194658E787
:104B20004FF0020B69E7002FC0F24483404649462C
:104B30004FE742464B4610461946FBF74DFB0246EF
:104B40000B46FBF72BFE44E7002F8CDB00200021F7
:104B50003FE742464B4640464946FBF7F5FC38E7FF
:104B60009C7500883CE4377E0000F07F0000F03F39
:104B70000000E03F0000E041FFFFEF3FB87D00088C
:104B8000FFFF3F43B4F5801F80F260830022D04BCB
:104B9000FBF7DAFC6FF034060C462315CD4AC4F35C
:104BA0001304A3F2FF3344F07F559E1994420D96EF
:104BB00045F4401540F33D83C74B9C4240F30184CC
:104BC0009FEDAD7B8DED087B8DED107B9FEDAC7B7C
:104BD0008DED067B01360D96A5F580154FF000088A
:104BE000DDE9062329460646FBF7F6FADDE906234A
:104BF000CDE90A0130462946FBF7F0FA02460B469A
:104C00000020B649FBF7CAFD03460C46CDE90E3439
:104C100002460B46DDE90A01FBF796FC6B1043F0F8
:104C2000005303F500230A462F46014603EB08050F
:104C30000023CDE902120293DDE902890024CDE9C7
:104C400004122B46224640464946FBF77DFC0246AD
:104C50000B46DDE90A01FBF7BFFADDE90623CDE9E2
:104C60000A0120462946FBF7B7FA02460B463046B2
:104C70003946FBF7B1FA42464B46FBF765FC024664
:104C80000B46DDE90A01FBF7A7FADDE90E23FBF786
:104C90005BFCDDE90445CDE9060122462B462046B2
:104CA0002946FBF751FC78A3D3E9002304460D46BF
:104CB000FBF74AFC76A3D3E90023FBF78FFA2246E1
:104CC0002B46FBF741FC74A3D3E90023FBF786FADC
:104CD00022462B46FBF738FC71A3D3E90023FBF7F0
:104CE0007DFA22462B46FBF72FFC6FA3D3E9002366
:104CF000FBF774FA22462B46FBF726FC6CA3D3E99C
:104D00000023FBF76BFA224606460F462B46204649
:104D10002946FBF719FC02460B4630463946FBF79D
:104D200013FC424604460D464B46DDE90401FBF701
:104D300055FADDE90623FBF707FC22462B46FBF775
:104D40004DFA424606460F464B4640464946FBF75B
:104D5000FBFB0022624BCDE90A01FBF73FFA32462A
:104D60003B46FBF73BFA02980D46044622462B468B
:104D700040464946FBF7E8FB002280468946584BEF
:104D800020462946FBF728FADDE90A23FBF724FA37
:104D900002460B4630463946FBF71EFADDE904238E
:104DA000FBF7D2FB224606460F462B46DDE90601FD
:104DB000FBF7CAFB02460B4630463946FBF70EFAB4
:104DC00006460F4602460B4640464946FBF706FAA2
:104DD000029839A3D3E9002304460D46FBF7B4FB40
:104DE0004246CDE904014B4620462946FBF7F4F93B
:104DF00002460B4630463946FBF7EEF930A3D3E9BD
:104E00000023FBF7A1FB30A3D3E9002306460F469E
:104E100020462946FBF798FB02460B4630463946AA
:104E2000FBF7DCF9DDE91023FBF7D8F906460D980E
:104E30000F46FBF71FFB3246804689463B46DDE9BD
:104E40000401FBF7CBF9DDE90823FBF7C7F942467C
:104E50004B46FBF7C3F9029842464B4604460D46C3
:104E6000FBF7BAF9DDE90823FBF7B6F9DDE904231E
:104E700038E000BFAFF30080000000000000000039
:104E8000000000000000F03FEF4E454A287ECA3F78
:104E900065DBC9934A86CD3F01411DA96074D13FAE
:104EA0004D268F515555D53FFFAB6FDBB66DDB3FC0
:104EB000033333333333E33F000000E009C7EE3FF1
:104EC000FD033ADC09C7EE3FF5015B14E02F3EBE5F
:104ED000000040438E98030079B60B000000F03FBD
:104EE00000000840FBF778F90B4602463946304689
:104EF000FBF772F90BF1FF3353EA0A03CDE9040122
:104F000000F05F819FEDD27B8DED027BDDE900AB90
:104F1000002356465F46CDE900670093DDE9006750
:104F2000504632463B465946FBF756F922462B4639
:104F3000FBF70AFB5246804689465B46DDE90401E1
:104F4000FBF702FB02460B4640464946FBF746F993
:104F50003246804689463B4620462946CDE90489AB
:104F6000FBF7F2FA0B46024606460F464046494614
:104F7000FBF734F9D04B994204460D468A4640F37C
:104F8000258101F13F4303F5E003034340F0FE8137
:104F9000B1A3D3E90023DDE90401FBF71FF9324691
:104FA000804689463B4620462946FBF715F90246CE
:104FB0000B4640464946FBF757FD002840F0E68186
:104FC000A8464FEA2853A3F2FE324FF48013134150
:104FD0005344C3F30A52B94DA2F2FF321541C3F351
:104FE000130423EA05010020C2F1140B44F48014D9
:104FF000BAF1000F02460B4644FA0BFB3046394625
:10500000B8BFCBF1000BFBF7E7F806460F46324678
:10501000DDE904013B46FBF7E1F84FEA0B5A0D4688
:1050200000248FA3D3E9002320462946FBF78CFAFE
:105030003246804689463B4620462946FBF7CCF857
:1050400002460B46DDE90401FBF7C6F886A3D3E967
:105050000023FBF779FA86A3D3E9002306460F461F
:1050600020462946FBF770FA02460B463046394681
:10507000FBF7B4F806460F4602460B464046494643
:10508000FBF7ACF842464B4604460D46FBF7A4F846
:1050900002460B4630463946FBF79EF822468046CC
:1050A00089462B4620462946FBF74EFA72A3D3E9E0
:1050B000002306460F46FBF747FA71A3D3E9002306
:1050C000FBF78AF832463B46FBF73EFA6EA3D3E97C
:1050D0000023FBF783F832463B46FBF735FA6CA317
:1050E000D3E90023FBF778F832463B46FBF72CFA6E
:1050F00069A3D3E90023FBF771F832463B46FBF77F
:1051000023FA02460B4620462946FBF765F8064679
:105110000F4602460B4620462946FBF715FA0022A9
:10512000CDE900014FF0804330463946FBF754F893
:1051300002460B46DDE90001FBF730FB424606461E
:105140000F464B4620462946FBF7FEF942464B46A2
:10515000FBF744F802460B4630463946FBF73CF86D
:1051600022462B46FBF738F802460B4600205449EE
:10517000FBF732F88A44BAF5801F02460B46C0F2AC
:1051800030815146DDE90223FBF7DEF921E4002EF0
:10519000FFF645AC49EC108B13B0BDE8F04F00F0C2
:1051A00057B9002FBFF6D2ACDDE90034184604F140
:1051B00000410EE442464B4600204149FBF7EEFA1F
:1051C00007E49FED377B8DED027B9FE63D4B21F0A1
:1051D0000048984540F3E8803B4B0B4403430AD119
:1051E00032463B46FAF7F8FFDDE90423FBF732FCD1
:1051F00000283FF4E6AEDDE902012BA3D3E900234A
:10520000FBF7A2F928A3D3E90023FBF79DF9FFF7E9
:10521000E0BBBCF1000F40F0D080C3F1140345FAAD
:1052200003F202FA03F3AB4200F0E380E346FFF738
:10523000EABB9FED1F7B8DED087B8DED107B9FED15
:10524000047B4FF000088DED067BC9E40026A4E442
:10525000000000000000F03FFE822B654715973CE0
:1052600000000000432EE63FEF39FAFE422EE63FF3
:10527000396CA80C615C20BED0A4BE726937663E52
:10528000F16BD2C541BDBB3E2CDE25AF6A56113F46
:1052900093BDBE166CC1663F3E5555555555C53F2D
:1052A000000000000000F0BF59F3F8C21F6EA50116
:1052B0000000000000000000FFFF8F40FFFF0F0014
:1052C0000000F03FFFCB904000346F3F5C4B9C42AE
:1052D0007FF73AAC5B4B9C423FF7C3AB0022594B84
:1052E000FAF77AFF46A3D3E9002304460D46FBF7FD
:1052F0002BF945A3D3E90023804689462046294659
:10530000FBF722F90022CDE902014F4B2046294646
:10531000FBF71AF902460B463DA1D1E90001FAF765
:105320005BFF22462B46FBF70FF902460B46002097
:105330004649FAF751FF224606460F462B462046BD
:105340002946FBF701F902460B4630463946FBF782
:10535000FBF831A3D3E90023FBF7F6F802460B462E
:10536000DDE90201FAF738FF02460B4606460F4612
:1053700040464946FAF732FF002004460D464246B1
:105380004B46AFE502460B46FFF7D5BBDDE9020110
:1053900023A3D3E90023FBF7D7F821A3D3E9002304
:1053A000FBF7D2F8FFF715BB284B98453FF709AE3E
:1053B000DDE900239246934632E64FF0000BFFF7FB
:1053C0002EBB9FED197B8DED087B9FED197B8DED3D
:1053D000107B9FED197B4FF480288DED067BFFF746
:1053E000FFBB584643EC102B00F04EFB51EC100B6A
:1053F000C8E602F00102C2F1020BFFF704BB00BFD6
:10540000000000604715F73F44DF5DF80BAE543EE7
:10541000555555555555D53FFE822B654715F73FD8
:105420009C7500883CE4377E0000004003B8E23FF2
:1054300006D0CF43EBFD4C3E000000000000F83FDB
:10544000FEFFEF3F0000F03F0000D03F0000E03FD4
:105450002DE9F041624A57EC106BBA4300F0958099
:10546000002F3B4610EE101A344654DD3F1500F075
:10547000AF80C3F31303A7F2FF3743F48013E20FA7
:10548000F90702EB43034FEA440503D5ED0F05EBA3
:105490004303A50000267F10B44616224FF40011E6
:1054A0000CEB010098424FEAD5744FEA450503DC46
:1054B0001B1A00EB010C0E44013A04EB43034FEAC4
:1054C0005101EDD11046964620244FF0004209E0EC
:1054D00052D05B00013C03EBD5734FEA52024FEA16
:1054E000450536D0634502EB0E01F1DD002901EBE5
:1054F000020E0ADBE046A3EB0C03A94288BF03F1CE
:10550000FF336D1A1044C446E3E7BEF1000FF1DB30
:105510000CF10108EFE727F0004232432AD0002FB8
:1055200049D1CA0A153B4905002AFAD012F4801065
:1055300001D050E020465200D50200F10104F9D517
:10554000C4F1200501FA04F4E9401F1A41EA0203FC
:105550008FE72B4329D144087110F30701F17F51E4
:1055600001F5001148BF44F0004401EB0753224607
:1055700043EC102BBDE8F081A942AAD8002901EB29
:10558000020EC2DB98460023BBE710EE102A3B4612
:1055900010EE100A3946FAF7D7FF32463B46FAF7C3
:1055A0001DFE41EC100BBDE8F081421C16BF421CF1
:1055B00001365408D0E710EE102A30463946FAF783
:1055C0000BFE02460B46FBF7E9F841EC100BD1E766
:1055D0001A463B46AAE70C4620254FF0FF30B3E7BA
:1055E0000000F07F000000002DE9F84F55EC104B53
:1055F000C94B25F000469E42AA4610DDC74B9E428D
:1056000000F3B58000F0B080BAF1000F40F3F980EC
:10561000A5A1D1E9000141EC100BBDE8F88FC04B0A
:105620009E4200F3C380A3F1DE739E4240F3A98043
:105630004FF0FF3B22462B4620462946FAF784FFCF
:1056400002460B4680468946FAF77EFF98A3D3E9C7
:10565000002306460F46FAF777FF97A3D3E9002306
:10566000FAF7BCFD32463B46FAF76EFF94A3D3E946
:105670000023FAF7B3FD32463B46FAF765FF92A3E3
:10568000D3E90023FAF7AAFD32463B46FAF75CFF5E
:105690008FA3D3E90023FAF7A1FD32463B46FAF780
:1056A00053FF8DA3D3E90023FAF798FD42464B46FA
:1056B000FAF74AFF8AA3D3E9002380468946304699
:1056C0003946FAF741FF88A3D3E90023FAF784FDAE
:1056D00032463B46FAF738FF85A3D3E90023FAF7B1
:1056E0007BFD32463B46FAF72FFF83A3D3E9002325
:1056F000FAF772FD32463B46FAF726FF80A3D3E95C
:105700000023FAF769FD32463B46FAF71DFF0246D1
:105710000B4640464946FAF761FD22462B46FAF70A
:1057200013FFBBF1FF3F02460B466ED07D4B7E4E12
:105730004FEACB0B5B44D3E90023FAF74DFD224639
:105740002B46FAF749FDB34402460B46DBE900015C
:10575000FAF742FDBAF1000F0FDA01F100431946E2
:1057600041EC100BBDE8F88F002C3FF44DAF224602
:105770002B4620462946FAF731FD41EC100BBDE8D7
:10578000F88F61A3D3E9002310EE100A2946FAF737
:1057900025FD0022654BFBF767F900283FF448AF71
:1057A0002046294641EC100BBDE8F88F00F0C8F800
:1057B0005F4B9E4255EC104B2FDCA3F550239E42CD
:1057C00058DC10EE102A10EE100A2B462946FAF784
:1057D00005FD0022554BFAF7FFFC002206460F4656
:1057E0004FF0804320462946FAF7F8FC02460B4664
:1057F00030463946FAF7D2FF4FF0000B04460D460B
:1058000018E743A1D1E90001B7E720462946FAF796
:10581000E3FC41EC100BBDE8F88F464B9E421DDCCB
:1058200010EE100A0022444B2946FAF7D5FC00225C
:1058300006460F46404B20462946FAF785FE0022D1
:105840003A4BFAF7CBFC02460B4630463946FAF79C
:10585000A5FF4FF0020B04460D46EBE62B4610EE7B
:10586000102A00203549FAF799FF4FF0030B044640
:105870000D46DFE610EE100A00222C4B2946FAF7FF
:10588000ABFC002206460F46284B20462946FAF775
:10589000A5FC02460B4630463946FAF77FFF4FF02B
:1058A000010B04460D46C5E6182D4454FB21F93F73
:1058B00011DA22E33AAD903FEB0D76244B7BA93F02
:1058C000513DD0A0660DB13F6E204CC5CD45B73FD0
:1058D000FF8300922449C23F0D5555555555D53F7C
:1058E0002F6C6A2C44B4A2BF9AFDDE522DDEAD3F70
:1058F0006D9A74AFF2B0B33F711623FEC671BC3F10
:10590000C4EB98999999C93F9C7500883CE4377E0F
:10591000182D4454FB21F9BFFFFF0F440000F07F16
:10592000FFFFDB3F587E0008387E00080000F03F94
:10593000FFFFF23FFF7F03400000F83F0000F0BF91
:1059400051EC100B10EE102A21F0004343EC102B09
:10595000704700BF10EE903A43F0004000F5801011
:10596000C00F7047002070479FED010B704700BFCC
:10597000000000000000F87FF0B551EC100BC1F3FF
:105980000A55A5F2FF32132A83B00B464FEAD176AF
:1059900010EE104A2FDC002A4ADB394D154101EA8E
:1059A0000507074323D06D0829400C430CD04FF462
:1059B0008021132A23EA050541FA02F343EA05038D
:1059C0000CBF4FF0004400242E4A02EBC6062046CE
:1059D000D6E90045024629462046FAF7FFFBCDE905
:1059E000000122462B46DDE90001FAF7F5FB41EC08
:1059F000100B03B0F0BD332A07DDB2F5806FF6D18E
:105A000010EE102AFAF7EAFBF1E7A5F213454FF082
:105A1000FF32EA401042EAD052081042D4D04FF090
:105A2000804124EA020241FA05F542EA0504CBE787
:105A300021F000420243DAD0C1F313020243544280
:105A4000104D1443240B05EBC6004F0C04F4002149
:105A5000D0E900457F0410EE102A41EA07032046F2
:105A60002946FAF7BBFBCDE900012B462246DDE9CA
:105A70000001FAF7B1FB21F0004343EAC671B6E733
:105A8000FFFF0F00787E000838B553EC102BC3F3EE
:105A90000A511C46054629BB10EE101A23F000449B
:105AA00021431ED019460022394B3A4C10EE100A01
:105AB000FAF74AFDA54202460B4636DB0C46C1F317
:105AC0000A513639294440F2FE70814235DC002902
:105AD00014DD24F0FF4424F4E00444EA015343ECD1
