:020000040800F2
:100000000000012071300008612F0008632F0008F4
:10001000652F0008672F0008692F00080000000006
:100020000000000000000000000000006B2F00082E
:100030006D2F0008000000006F2F0008712F0008CE
:10004000C1300008C1300008C1300008C1300008CC
:10005000C1300008C1300008792F0008832F000844
:10006000C1300008C1300008C1300008C1300008AC
:10007000C1300008C13000088D2F00089D2F0008F6
:10008000AD2F0008BD2F0008C1300008C1300008A6
:10009000C1300008C1300008C1300008C13000087C
:1000A000C1300008C1300008C1300008C13000086C
:1000B000C13000080000000000000000C13000084E
:1000C000C1300008C1300008C1300008C13000084C
:1000D000C1300008C1300008C1300008C13000083C
:1000E000C1300008C130000800000000000000001E
:1000F0000000000000000000000000000000000000
:1001000000000000C130000800000000C1300008FD
:100110000000000000000000C1300008C1300008ED
:10012000C1300008C1300008C1300008C1300008EB
:10013000C1300008000000000000000000000000C6
:10014000C1300008C1300008C1300008C1300008CB
:10015000CD2F0008DD2F0008C1300008C130000895
:10016000C1300008C1300008C130000800000000A4
:10017000C1300008C1300008C13000080000000094
:10018000C1300008C1300008C13000080000000084
:1001900010B5054C237833B9044B13B10448AFF3C1
:1001A00000800123237010BD7000002000000000BB
:1001B0003439000808B5034B1BB103490348AFF3BA
:1001C000008008BD000000007400002034390008E1
:1001D00053B94AB9002908BF00281CBF4FF0FF31AE
:1001E0004FF0FF3000F072B9ADF1080C6DE904CEAC
:1001F00000F006F8DDF804E0DDE9022304B0704702
:100200002DE9F047089E04468846002B4BD18A42D0
:10021000154667D9B2FA82F24AB1C2F1200701FA53
:1002200002F320FA07F7954047EA030894404FEAA3
:10023000154E230CB8FBFEF71FFA85FC0EFB178842
:1002400043EA084307FB0CF1994209D9EB1807F17F
:10025000FF3080F01B81994240F21881023F2B440D
:100260005B1AA4B2B3FBFEF00EFB103344EA034466
:1002700000FB0CFCA44509D92C1900F1FF3380F0D8
:100280000781A44540F2048102382C4440EA07402B
:10029000A4EB0C0400271EB1D4400023C6E90043A0
:1002A0003946BDE8F0878B4209D9002E00F0EB807B
:1002B0000027C6E9000138463946BDE8F087B3FAA1
:1002C00083F7002F47D18B4202D3824200F2FA809B
:1002D000841A61EB030301209846002EE0D0C6E9A2
:1002E0000048DDE702B9FFDEB2FA82F2002A40F0F0
:1002F0008F80491B4FEA154E1FFA85F80127B1FB85
:10030000FEFC230C0EFB1C1143EA014308FB0CF11D
:10031000994207D9EB180CF1FF3002D2994200F252
:10032000CD808446591AA3B2B1FBFEF00EFB101427
:1003300043EA044408FB00F8A04507D92C1900F152
:10034000FF3302D2A04500F2B6801846A4EB0804A1
:1003500040EA0C409FE7C7F1200CBB4022FA0CFE9C
:100360004EEA030E01FA07F420FA0CF521FA0CF319
:100370004FEA1E482543B3FBF8F92C0C08FB193350
:100380001FFA8EFA44EA034309FB0AF49C4202FA7C
:1003900007F200FA07F10BD91EEB030309F1FF3056
:1003A00080F087809C4240F28480A9F10209734466
:1003B0001B1BADB2B3FBF8F008FB103345EA034456
:1003C00000FB0AFAA24508D91EEB040400F1FF3332
:1003D0006BD2A24569D90238744440EA0940A0FBB7
:1003E0000289A4EB0A044C45C2464B4654D351D073
:1003F000002E69D0B1EB0A0564EB030404FA0CFC8F
:10040000FD40FC404CEA0505C6E90054002747E7DB
:10041000C2F1200320FA03F7954001FA02F021FA15
:1004200003F34FEA154E3843010CB3FBFEF71FFAF6
:1004300085F80EFB173341EA034107FB08F38B42B3
:1004400004FA02F407D9691807F1FF3C2FD28B4256
:100450002DD9023F2944CB1A81B2B3FBFEF00EFB2B
:10046000103341EA034100FB08F38B4207D96918B6
:1004700000F1FF3C17D28B4215D902382944C91A22
:1004800040EA07473BE73746304609E70746E7E6D5
:100490001846FBE64145ABD2B8EB020A69EB0E0207
:1004A00001381346A4E76046E9E7184695E7674632
:1004B000D1E781467CE702382C4447E7ACF1020CD7
:1004C0002B442FE7384608E73746E9E6704700BF78
:1004D000034613F8012B002AFBD1181A0138704784
:1004E00001F0FF01102A2BDB10F0070F08D010F8E5
:1004F000013B013A8B422DD010F0070F42B3F6D1E9
:10050000F0B441EA012141EA014122F007047FF001
:1005100000070023F0E80256083C85EA010586EA58
:10052000010685FA47F5A3FA87F586FA47F6A5FA94
:1005300087F68EB9EED1F0BC01F0FF0102F00702A0
:1005400032B110F8013B013A83EA010313B1F8D14B
:100550000020704701387047002D06BF354603382C
:10056000073815F0010F07D1013015F4807F02BF65
:10057000013015F4C03F0130F0BC0138704700BFB6
:10058000104B1B680BB90120704710B504464FF49F
:100590007A70B0FBF3F30C4A1068B0FBF3F000F094
:1005A000B7F868B90F2C01D901200AE000222146D2
:1005B0004FF0FF3000F058F8024B5C60002000E084
:1005C000012010BD000000200800002010B5094ADD
:1005D000136843F480731360032000F033F80020A5
:1005E000FFF7CEFF10B10124204610BD044602F0F3
:1005F00069FBF9E700200240034A136803490968D0
:100600000B441360704700BFA800002000000020CA
:10061000014B1868704700BFA800002038B5044699
:10062000FFF7F6FF0546B4F1FF3F02D0044B1B680D
:100630001C44FFF7EDFF401BA042FAD338BD00BFBA
:1006400000000020074AD36823F4E0631B041B0C5E
:10065000000200F4E060184340F0BF6040F4003056
:10066000D060704700ED00E030B4174BDB68C3F397
:100670000223C3F10704042C28BF04241D1D062DEA
:1006800018D9033B4FF0FF3505FA04F421EA0401C1
:10069000994005FA03F322EA0303194300280BDB10
:1006A0000901C9B200F1604000F5614080F8001313
:1006B00030BC70470023E5E700F00F000901C9B224
:1006C000024B1954F4E700BF00ED00E014ED00E028
:1006D000002807DB00F01F02400901239340024A73
:1006E00042F82030704700BF00E100E000280CDB3A
:1006F00000F01F024009012393402030034A42F8D2
:100700002030BFF34F8FBFF36F8F704700E100E0E1
:100710000138B0F1807F0AD2064B5860064AF021BA
:1007200082F823100020986007221A607047012089
:10073000704700BF10E000E000ED00E070B4446CD2
:1007400004F01C05066C0124AC407460046863600E
:100750008368102B05D0036899600368DA6070BC69
:10076000704703689A600368D960F8E7002869D089
:1007700010B403460168344A914245D8334A0A44CA
:100780003349A1FB0212120992004264314A026409
:10079000022283F825201868016821F4FF4121F026
:1007A00070019A68DC6822431C6922435C69224319
:1007B0009C692243DC6922431C6A22430A4302608B
:1007C0009A68B2F5804F15D0196C224A914226D012
:1007D000214A1168586C00F01C040F20A04021EA47
:1007E00000011160116858685C6C04F01C04A040A2
:1007F000014311600020D863012283F8252083F88B
:1008000024005DF8044B7047144A0A441049A1FBC8
:100810000212120992004264114A0264B8E7A83237
:100820001168586C00F01C040F20A04021EA000160
:100830001160116858685C6C04F01C04A04001430E
:100840001160D7E70120704707040240F8FFFDBFA1
:10085000CDCCCCCC00000240A8040240F8FBFDBF88
:100860000004024038B590F82440012C33D0012414
:1008700080F8244090F82540E4B2012C04D00023F5
:1008800080F82430022038BD0446022084F8250078
:100890000020E0632568286820F0010028602046D9
:1008A000FFF74CFF236B5BB12268136843F00E0324
:1008B00013602268136843F0010313600020E2E72D
:1008C0002268136823F0040313602268136843F05E
:1008D0000A031360EDE70220D5E738B5036C196809
:1008E00004682568436C03F01C0304229A400A4202
:1008F00015D015F0040F12D0236813F0200F03D188
:10090000236823F004032360436C03F01C02016C92
:10091000042393404B60036B03B1984738BD022218
:100920009A400A421CD015F0020F19D0236813F028
:10093000200F06D1236823F00A032360012380F8E7
:100940002530436C03F01C02016C022393404B6082
:10095000002380F82430C36A002BDFD09847DDE7FE
:10096000082202FA03F30B42D8D015F0080FD5D0B5
:10097000236823F00E032360436C03F01C03016C17
:10098000012202FA03F34B60C26380F825200023A2
:1009900080F82430436B002BC0D09847BEE700009E
:1009A000F0B482B0002336E0042400E00024B44018
:1009B0003C4302355B4E46F825405B4C2568D443EA
:1009C00004EA05064F6817F4803F01D042EA0506A5
:1009D000554D2E606D6804EA05064F6817F4003F18
:1009E00001D042EA0506504D6E60AD6804EA050686
:1009F0004F6817F4801F01D042EA05064A4DAE60E9
:100A0000ED682C404E6816F4001F01D042EA050440
:100A1000454AD46001330A6832FA03F47ED00124D7
:100A20009C402240F6D04D68022D01D0122D10D1ED
:100A3000DE08083650F826C003F00705AF000F2582
:100A4000BD402CEA050C0D69BD4045EA0C0540F897
:100A5000265006685F000325BD40ED4305EA060CFD
:100A60004E6806F00306BE4046EA0C0606604E6875
:100A700006F1FF3CBCF1010F03D9112E01D0122E5B
:100A800010D1866805EA060CCE68BE4046EA0C0620
:100A90008660466826EA04044E68C6F300169E4047
:100AA00026434660C46825408C68BC402C43C46023
:100AB0004C6814F0805FADD01C4C256E45F00105EC
:100AC0002566246E04F001040194019C9D08AE1C6F
:100AD000144C54F8267003F00304A6000F24B4400D
:100AE00027EA0407B0F1904F3FF460AF104CA042EA
:100AF0000ED004F58064A0420CD004F58064A042BE
:100B00000AD004F58064A0423FF44EAF07244EE7BC
:100B100001244CE702244AE7032448E702B0F0BC72
:100B2000704700BF00000140000401400010024077
:100B3000000400480AB98162704781617047000073
:100B400008B5054B5B69034200D108BD024B5861F3
:100B500001F06AFEF9E700BF00040140024B18688B
:100B600000F4C060704700BF00700040B0F5007F27
:100B70000FD01F4B1B6803F4C063B3F5806F34D0F4
:100B80001B4A136823F4C06343F48063136000209E
:100B90007047174B1B6803F4C063B3F5007F22D086
:100BA000134A136823F4C06343F400731360114BBA
:100BB0001A68322303FB02F30F4AA2FB03239B0CA8
:100BC000013300E0013B0A4A526912F4806F01D000
:100BD000002BF7D1064B5B6913F4806F01D1002025
:100BE000704703207047002070470020704700BF07
:100BF000007000400800002083DE1B4330B583B046
:100C00000546204B9B6D13F0805F0BD0FFF7A6FFCE
:100C1000B0F5007F17D0802D1FD82DD0702D2DD08E
:100C200000211BE0174CA36D43F08053A365A36D17
:100C300003F080530193019BFFF790FFA36D23F016
:100C40008053A365E4E7802D03D9A02D03D90221A9
:100C500004E0002102E0012100E003210A4A1368B8
:100C600023F007030B431360136803F007038B4261
:100C700006D0012003B030BD0221EFE70121EDE7EE
:100C80000020F7E70010024000200240284A936845
:100C9000D26802F0030213F00C030AD00C2B06D02A
:100CA000042B1FD0082B20D00020024610E0012A80
:100CB000F6D11F4A126812F0080F0CD11C4AD2F864
:100CC0009420C2F303221B4951F8222043B1002093
:100CD0000C2B0DD07047164A1268C2F30312F2E7CC
:100CE0001046F5E714480022F2E714480022EFE727
:100CF0000F4BDB6803F00303022B15D0032B15D039
:100D00000B4BD868C0F302100130D968C1F306213B
:100D100002FB01F2B2FBF0F2D868C0F3416001308F
:100D20004000B2FBF0F0D5E7034AE9E7034AE7E702
:100D300000100240503900080024F40000127A002C
:100D4000002800F00883F0B583B00446AD4B9D68E1
:100D500005F00C05DE6806F00306036813F0100FBB
:100D60005ED0E5B10C2D18D0A369002B00F0B8803F
:100D7000A44A136843F001031360FFF749FC0746D8
:100D8000A04B1B6813F0020F40F09780FFF740FC68
:100D9000C01B0228F4D90323E9E2012EE4D1994BC8
:100DA0001B6813F0020F03D0A369002B00F0D6825A
:100DB000206A944B1B6813F0080F5ED0914B1B68A0
:100DC00003F0F00398425FD9FFF718FF002840F0C6
:100DD000C7828C4B1A6842F008021A601A6822F027
:100DE000F002216A0A431A605A6822F47F42E169DC
:100DF00042EA01225A60FFF749FF824B9B68C3F326
:100E00000313814AD35C03F01F03D8407F4B186063
:100E10007F4B1868FFF7B4FB0346002840F0A78219
:100E2000236813F0010F7AD0082D6FD00C2D6BD0F2
:100E30006368B3F5803F00F09180B3F5A02F00F018
:100E40009380704B1A6822F480321A601A6822F478
:100E500080221A606368002B00F09380FFF7D8FBB4
:100E60000746684B1B6813F4003F58D1FFF7D0FBCF
:100E7000C01B6428F5D9032379E2624BD3F8943080
:100E80001B0903F0F0039DE75E4B1A6842F008026D
:100E90001A601A6822F0F002216A0A431A605A683E
:100EA00022F47F42E16942EA01225A60206AFFF798
:100EB000A5FE00289FD0012359E2524B1A6842F048
:100EC00008021A601A6822F0F002216A0A431A60C6
:100ED0005A6822F47F42E16942EA01225A609FE7A0
:100EE000484A136823F001031360FFF791FB07469C
:100EF000444B1B6813F0020F92D0FFF789FBC01B15
:100F00000228F5D9032332E2032E91D13D4B1B6811
:100F100013F4003F03D06368002B00F023822368A2
:100F200013F0020F4FD0042D3CD00C2D38D0E368C5
:100F3000002B78D0334A136843F480731360FFF7B3
:100F400067FB06462F4B1B6813F4806F62D1FFF7D7
:100F50005FFB801B0228F5D9032308E2294A1368A6
:100F600043F48033136075E703F18043A3F53C330A
:100F70001A6842F480221A601A6842F480321A60B9
:100F800068E7FFF745FB07461E4B1B6813F4003F5D
:100F9000C5D0FFF73DFBC01B6428F5D90323E6E16C
:100FA000022EC4D1174B1B6813F4806F03D0E36883
:100FB000002B00F0D981134A536823F0F8532169BC
:100FC00043EA01635360236813F0080F56D0636946
:100FD000002B3CD00B4AD2F8943043F00103C2F806
:100FE0009430FFF715FB0646064BD3F8943013F008
:100FF000020F43D1FFF70CFB801B0228F4D9032317
:10100000B5E100BF00100240803900080800002050
:1010100004000020B64A536823F0F853216943EADC
:1010200001635360CFE7B24A136823F480731360FF
:10103000FFF7EEFA0646AE4B1B6813F4806FC2D082
:10104000FFF7E6FA801B0228F5D903238FE1A84AAF
:10105000D2F8943023F00103C2F89430FFF7D8FAA5
:101060000646A34BD3F8943013F0020F06D0FFF7D7
:10107000CFFA801B0228F4D9032378E1236813F008
:10108000040F7AD09A4B9B6D13F0805F0BD1984B75
:101090009A6D42F080529A659B6D03F080530193E4
:1010A000019B012600E00026924B1B6813F4807F11
:1010B00026D0A368012B37D0052B3DD08C4BD3F81D
:1010C000902022F00102C3F89020D3F8902022F063
:1010D0000402C3F89020A368002B3BD0FFF798FAD6
:1010E0000746834BD3F8903013F0020F44D1FFF73B
:1010F0008FFAC01B41F288339842F2D9032336E1BC
:101100007C4A136843F480731360FFF781FA074643
:10111000784B1B6813F4807FCBD1FFF779FAC01BA3
:101120000228F5D9032322E1714AD2F8903043F026
:101130000103C2F89030CEE76D4BD3F8902042F017
:101140000402C3F89020D3F8902042F00102C3F8C3
:101150009020C0E7FFF75CFA0746654BD3F8903064
:1011600013F0020F08D0FFF753FAC01B41F2883387
:101170009842F2D90323FAE0E6B9236813F0200F6E
:1011800035D0636AE3B15A4AD2F8983043F001038C
:10119000C2F89830FFF73CFA0646554BD3F8983022
:1011A00013F0020F23D1FFF733FA801B0228F4D982
:1011B0000323DCE04E4A936D23F080539365DCE714
:1011C0004B4AD2F8983023F00103C2F89830FFF769
:1011D0001FFA0646464BD3F8983013F0020F06D09C
:1011E000FFF716FA801B0228F4D90323BFE0A36A95
:1011F000002B00F0BB800C2D6FD0022B23D03C4B7A
:101200001A6822F080721A601B6813F0006F04D114
:10121000374AD36823F00303D360354AD36823F0F9
:10122000887323F48033D360FFF7F2F90446304B20
:101230001B6813F0007F4ED0FFF7EAF9001B02286D
:10124000F5D9032393E02A4A136823F080731360CF
:10125000FFF7DEF90546264B1B6813F0007F06D02A
:10126000FFF7D6F9401B0228F5D903237FE0204A77
:10127000D36821491940E36A206B013843EA00131F
:10128000606B43EA0023E06B4008013843EA4053B7
:10129000206C4008013843EA4063A06B43EAC06316
:1012A0000B43D360136843F080731360D36843F03B
:1012B0008073D360FFF7ACF904460D4B1B6813F045
:1012C000007F06D1FFF7A4F9001B0228F5D90323FC
:1012D0004DE000234BE0002349E0012B4AD0044BB2
:1012E000DB6803F00301E26A914207D001233EE08C
:1012F00000100240007000408C809D0103F07002DD
:10130000216B0139B2EB011F01D001232FE003F45F
:10131000FE42616BB2EB012F01D0012327E003F005
:101320007842A16BB2EBC16F01D001231FE003F43F
:10133000C001E26B5208013AB1EB425F01D00123D8
:1013400015E003F0C063226C5208013AB3EB426F20
:1013500012D001230BE0012318467047012306E059
:10136000012304E0012302E0012300E000231846EA
:1013700003B0F0BD0123FAE70023F8E7002800F0EE
:101380009B8070B504464E4B1B6803F007038B42ED
:101390000CD24B4A136823F007030B431360136806
:1013A00003F007038B4201D0012070BD0D46236876
:1013B00013F0010F39D06368032B09D0022B26D01C
:1013C00063BB404A126812F0020F06D10120ECE71D
:1013D0003C4A126812F0007F70D03A498A6822F0C5
:1013E000030213438B60FFF713F90646354B9B68E6
:1013F00003F00C036268B3EB820F16D0FFF708F915
:10140000801B41F288339842F0D90320CDE72D4A62
:10141000126812F4003FE0D10120C6E7294A1268A1
:1014200012F4806FD9D10120BFE7236813F0020FB7
:1014300006D0244A936823F0F003A1680B4393601D
:101440001F4B1B6803F00703AB420CD91C4A1368FF
:1014500023F007032B431360136803F00703AB4229
:1014600001D00120A1E7236813F0040F06D0154A2C
:10147000936823F4E063E1680B439360236813F0FF
:10148000080F07D00F4A936823F46053216943EA99
:10149000C1039360FFF7FAFB0A4B9B68C3F3031386
:1014A000094AD35C03F01F03D840084B1860084B6F
:1014B0001868FFF765F878E701207047012074E7A6
:1014C000002002400010024080390008080000207F
:1014D00004000020014B1868704700BF080000207E
:1014E00008B5FFF7F7FF054B9B68C3F30223044AD7
:1014F000D35C03F01F03D84008BD00BF00100240BA
:101500009039000808B5FFF7E5FF054B9B68C3F36A
:10151000C223044AD35C03F01F03D84008BD00BFB8
:101520000010024090390008F8B5594BDB6813F001
:10153000030F18D0564BDB6803F003030268934295
:1015400002D001252846F8BD002A00F09F80504BAC
:10155000DB68C3F3021301334268934201D00125D3
:10156000F0E700251AE00368022B58D0032B5DD06A
:10157000012B01D001250FE0454A126812F0020F3D
:1015800060D0434DEA6822F073024468013C43EAAC
:1015900004131343EB600025002DD3D10F460446FE
:1015A0003B4A136823F080631360FFF731F8064667
:1015B000374B1B6813F0006F05D0FFF729F8801B2D
:1015C0000228F5D90325002DBCD1002F3CD130498C
:1015D0000B6923F0784323F4FE43A068E268D20647
:1015E00042EA002213430B61294A136843F08063E7
:1015F0001360FFF70DF80646254B1B6813F0006FCC
:1016000005D1FFF705F8801B0228F5D90325002D29
:1016100098D11F4A1369A1690B43136192E71C4AD1
:10162000126812F4806FACD10125B5E7184A126830
:1016300012F4003FA5D1164A126812F4802FA0D1EF
:101640000125A9E70125A7E7012F0FD0104802695E
:1016500022F0C06222F4FE42A16863695B08013B8C
:101660005B0643EA012313430361BDE708480269AF
:1016700022F4C00222F4FE42A16823695B08013B08
:101680005B0543EA012313430361ADE7012559E7F5
:10169000001002402DE9F04182B00446036813F4C3
:1016A000006F26D0436CB3F5000F06D0B3F5400FA2
:1016B0001DD09BB1012637461DE0BD4AD36843F4D7
:1016C0008033D3600027BA4AD2F8883023F440032D
:1016D000616C0B43C2F8883000260CE00021043016
:1016E000FFF722FF07460028EDD0064603E000275B
:1016F000E9E700263746236813F4003F6BD0AC4B74
:101700009B6D13F0805F4CD1A94B9A6D42F08052D3
:101710009A659B6D03F080530193019B4FF0010884
:10172000A44A136843F480731360FEF771FF054603
:10173000A04B1B6813F4807F05D1FEF769FF401BA7
:101740000228F5D90327002F40D1994BD3F89030C8
:1017500013F4407315D0E26D9A4212D0944AD2F835
:10176000903023F44073D2F8901041F48031C2F8E5
:101770009010D2F8901021F48031C2F89010C2F885
:10178000903013F0010F0FD1002F40F0F780884AFE
:10179000D2F8903023F44073E16D0B43C2F89030DF
:1017A00015E04FF00008BBE7FEF732FF0546804B1F
:1017B000D3F8903013F0020FE6D1FEF729FF401B5B
:1017C00041F288339842F2D90327DDE73E46B8F16B
:1017D000000F40F0D580236813F0010F08D0744A41
:1017E000D2F8883023F00303216A0B43C2F8883013
:1017F000236813F0020F08D06D4AD2F8883023F026
:101800000C03616A0B43C2F88830236813F0040F9D
:1018100008D0674AD2F8883023F03003A16A0B431E
:10182000C2F88830236813F0200F08D0604AD2F83D
:10183000883023F44063E16A0B43C2F888302368A0
:1018400013F4007F08D05A4AD2F8883023F440239A
:10185000E16B0B43C2F88830236813F4806F08D023
:10186000534AD2F8883023F44013216C0B43C2F85A
:101870008830236813F0400F08D04D4AD2F88830E2
:1018800023F44053216B0B43C2F88830236813F0D4
:10189000800F08D0464AD2F8883023F44043616B69
:1018A0000B43C2F88830236813F4807F08D0404A85
:1018B000D2F8883023F44033A16B0B43C2F8883050
:1018C000236813F4005F0FD0394AD2F8883023F030
:1018D0004063A16C0B43C2F88830A36CB3F1006F76
:1018E00054D0B3F1806F56D0236813F4002F0FD07B
:1018F0002F4AD2F8883023F04063E16C0B43C2F8E2
:101900008830E36CB3F1006F4DD0B3F1806F53D0EA
:10191000236813F4802F0FD0254AD2F8883023F0A3
:101920004063216D0B43C2F88830236DB3F1006F23
:101930004AD0B3F1806F4CD0236813F4804F0CD0A1
:101940001B4AD2F8883023F04053616D0B43C2F834
:101950008830636DB3F1805F43D0236813F4004F88
:1019600008D0134AD2F8883023F08043A16D0B438E
:10197000C2F88830304602B0BDE8F0813E4626E726
:101980000B4A936D23F08053936524E7D36843F4A7
:101990008013D360A8E70121201DFFF7C5FD0028B3
:1019A000A2D00646A0E7D36843F48013D360AFE724
:1019B00000100240007000400121201DFFF7B4FD1F
:1019C0000028A5D00646A3E7D36843F48013D3606C
:1019D000B2E70121201DFFF7A7FD0028ACD0064685
:1019E000AAE70221201DFFF79FFD0028B5D006467B
:1019F000B3E700BFF8B505460F4616461C462B68F0
:101A00009B6837EA03030CBF01230023B34237D09E
:101A1000B4F1FF3FF3D0FEF7FBFD069BC01AA042D6
:101A200001D2002CEBD12A68536823F0E003536005
:101A30006B68B3F5827F0BD0AB6AB3F5005F14D04F
:101A4000012385F85D30002385F85C30032018E021
:101A5000AB68B3F5004F02D0B3F5806FECD12A68C4
:101A6000136823F040031360E6E72A68136823F441
:101A7000005313602A68136843F400531360DFE7D0
:101A80000020F8BDF8B507460C4615461E4602E094
:101A9000B6F1FF3F0BD13A6893682340AB423BD08D
:101AA000B4F5C06FF4D1002DF2D1137BF0E7FEF74F
:101AB000AFFD069BC01AB04201D2002EEBD13A68AE
:101AC000536823F0E00353607B68B3F5827F0BD04B
:101AD000BB6AB3F5005F14D0012387F85D300023A3
:101AE00087F85C30032018E0BB68B3F5004F02D0E4
:101AF000B3F5806FECD13A68136823F040031360AC
:101B0000E6E73A68136823F4005313603A681368F1
:101B100043F400531360DFE70020F8BD70B582B0D6
:101B200004460D46164600920B4600224FF4C05163
:101B3000FFF7A8FFB8B900962B4600228021204667
:101B4000FFF758FFB8B900962B4600224FF4C0614A
:101B50002046FFF797FF034650B1236E43F0200362
:101B60002366032304E0236E43F02003236603234C
:101B7000184602B070BD236E43F020032366032392
:101B8000F6E770B582B004460D4616464368B3F5D5
:101B9000827F0FD000962B46002280212046FFF73F
:101BA00029FF034698B96268B2F5827F15D01846BE
:101BB00002B070BD8368B3F5004F02D0B3F5806FFB
:101BC000E8D12268136823F040031360E2E7236E34
:101BD00043F0200323660323E9E7A268B2F5004F30
:101BE00002D0B2F5806FE2D100962B4600224FF46E
:101BF000C0612046FFF746FF03460028D7D0236E7A
:101C000043F0200323660323D1E7002853D010B507
:101C100004460023836290F85D30002B40D00223FD
:101C200084F85D302268136823F040031360E36892
:101C3000B3F5E06F39D90022B3F5706F04D0B3F576
:101C4000E06F01D00021A162216B21B9B3F5E06FF3
:101C50002ED9022323636368A1680B4321690B43D8
:101C600061690B43A16901F400710B43E1690B4306
:101C7000216A0B43A06A216803430B60638B03F066
:101C80000403616A0B43616B0B43E1680B432168FA
:101C900013434B6000202066012384F85D3010BDA3
:101CA00080F85C3001F026F8B9E74FF48052C3E7C2
:101CB00001232363CFE701207047000038B590F877
:101CC0005C40012C00F0F2800446012084F85C00A6
:101CD00094F85D00C0B26568012810D0B5F5827F28
:101CE00005D00223002284F85C20184638BDA56880
:101CF000002D40F0D380042801D00223F2E7002910
:101D000000F0CE80002A00F0CD80002B00F0CC80C7
:101D100094F85D00C0B2042802D0052084F85D006C
:101D200000202066A163A387E3872264A4F84430DF
:101D3000A4F84630E06420652268536823F4C04369
:101D40005360E368B3F5E06F27D92268536823F442
:101D50008053536094F85D30DBB2042B64D0A36DE4
:101D6000534A1A63A36D534ADA62A36D524A5A6307
:101D7000A36D00229A632168B4F84630226C0C31BE
:101D8000A06DFEF76FFD002855D0236E43F01003C1
:101D90002366012384F85D30A4E72268536843F486
:101DA00080535360636D9B69B3F5806F19D0A36D49
:101DB0009B69B3F5806FCDD12268536823F48053BB
:101DC0005360B4F8463013F0010F21D122685368F4
:101DD00023F400535360B4F846305B08A4F846304F
:101DE000B8E7A38F13F0010F08D12268536823F4DA
:101DF00080435360E38F5B08E387D8E7226853682A
:101E000043F480435360E38F5B080133E387CEE7FD
:101E10002268536843F400535360B4F846305B08BB
:101E20000133A4F8463095E7A36D244A1A63A36DE5
:101E3000234ADA6299E72268536843F0010353604A
:101E4000626D00231363626DD362626D5363626DD2
:101E500093632268E38F0C32A16B606DFEF702FD85
:101E6000034638B1236E43F010032366012384F840
:101E70005D3037E72268116811F0400F03D1116817
:101E800041F04001116021684A6842F020024A6036
:101E900021684A6842F002024A6023E7022321E7F0
:101EA00001231FE701231DE701231BE702231CE792
:101EB000D51E00085B1F0008E11E0008C91E0008AF
:101EC000031F00087047704708B5806AFFF7FBFFE3
:101ED00008BD704708B5806AFFF7FBFF08BD704773
:101EE00008B5806A0268536823F003035360036EE9
:101EF00043F010030366012380F85D30FFF7EFFF26
:101F000008BD38B50546846AFEF782FB2B681B685E
:101F100013F0200F19D12268536823F02003536077
:101F20002268536823F0030353600246642120466D
:101F3000FFF727FE08B1202323660023A4F84630CC
:101F4000012384F85D30236E1BB92046FFF7BAFFEA
:101F500038BD2046FFF7C3FFFAE738B50546846A67
:101F6000FEF756FB2B681B6813F0200F1CD122686C
:101F7000536823F020035360024664212046FFF794
:101F8000CDFD18B1236E43F0200323662268536809
:101F900023F0030353600023E387A4F846300123B2
:101FA00084F85D30236E1BB9204600F02FFC38BD4D
:101FB0002046FFF794FFFAE790F85D0070470000B5
:101FC0002DE9F048044601688368026913434269B9
:101FD0001343C269134308689E4A024013430B60CF
:101FE0002268536823F44053E1680B435360A169AE
:101FF0002268994B9A4201D0236A1943936823F4CB
:1020000030630B4393602368944A93421FD0944AF1
:10201000934230D0934A934246D08F4A934259D04C
:1020200010258D4A934276D0E369B3F5004F00F056
:10203000ED80082D00F28981DFE815F049015F018C
:102040006901870174018701870187017E0102F51B
:102050005842D2F8882002F00302032A09D8DFE8A8
:1020600002F0020452060125DBE70425D9E7082522
:10207000D7E71025D5E702F5E632D2F8882002F03E
:102080000C020C2A0ED8DFE802F0070D0D0D090D29
:102090000D0D400D0D0D0B000025C2E70425C0E716
:1020A0000825BEE71025BCE702F5E432D2F8882007
:1020B00002F03002102A09D005D9202A27D0302A70
:1020C00006D10825ADE71AB90025AAE70425A8E737
:1020D0001025A6E702F5C832D2F8882002F4406243
:1020E000B2F5806F0BD007D9B2F5006F11D0B2F501
:1020F000406F06D1082594E71AB9002591E7042519
:102100008FE710258DE702258BE7022589E7022559
:1021100087E7022585E7082D00F21A81DFE815F030
:102120000C00180114001801110018011801180101
:1021300009004FF4004008E0FFF7D2F928B9002069
:10214000D6E0FEF7A3FDF9E74748626802EB4203D9
:10215000834200F2FF80B0EB023F00F2FD80082DC9
:1021600051D8DFE805F00550205030505050430062
:10217000FFF7B6F90025070E0602626850082B46E5
:1021800016EB000B47F1000C58466146FEF720F8AD
:1021900003462846A3F54071344A914200F2DE809E
:1021A0002268D360A4E0560800252B46DFF8C0B0B3
:1021B0004FF0000C1BEB06004CF10001FEF708F895
:1021C00003462846E6E7FEF761FD0025070E0602F6
:1021D000626850082B4616EB000B47F1000C58467E
:1021E0006146FDF7F5FF03462846D3E75008002770
:1021F00000252B4610F5000047F10001FDF7E8FF30
:1022000003462846C6E701200023C3E7082D5BD814
:10221000DFE805F005303B5A465A5A5A5100FFF79D
:102220005FF96268530803EB4003B3FBF2F39BB220
:102230000020A3F110014FF6EF72914200F290805E
:102240009AB222F00F02C3F3420313432268D36011
:102250004EE000BFF369FFEF00800040003801400E
:1022600000440040004800400024F400FFFC0F0040
:10227000000024F4FFF746F96268530803EB4003BB
:10228000B3FBF2F39BB20020D3E76268530803F17B
:10229000F47303F59043B3FBF2F39BB20020C8E75D
:1022A000FEF7F4FC6268530803EB4003B3FBF2F360
:1022B0009BB20020BDE76268530803F58033B3FB8F
:1022C000F2F39BB20020B4E701200023B1E7FFF74F
:1022D00007F9636800EB5302B2FBF3F292B20020FD
:1022E000A2F110014FF6EF7399423BD82368DA60F0
:1022F000002222666266BDE8F088FFF703F9636892
:1023000000EB5302B2FBF3F292B20020E8E76368FD
:102310005A0802F5740202F51052B2FBF3F292B2BF
:102320000020DDE7FEF7B2FC636800EB5302B2FB6E
:10233000F3F292B20020D3E763685A0802F5004234
:10234000B2FBF3F292B20020CAE701200022C7E7F5
:102350000120CDE70120CBE70120C9E70120C7E735
:102360000120C5E70120C3E7436A13F0010F06D03F
:102370000268536823F40033816A0B435360436A55
:1023800013F0020F06D00268536823F48033C16A49
:102390000B435360436A13F0040F06D0026853687E
:1023A00023F48023016B0B435360436A13F0080F3F
:1023B00006D00268536823F40043416B0B4353601B
:1023C000436A13F0100F06D00268936823F4805319
:1023D000816B0B439360436A13F0200F06D00268B1
:1023E000936823F40053C16B0B439360436A13F06B
:1023F000400F0AD00268536823F48013016C0B432A
:102400005360036CB3F5801F0BD0436A13F0800F49
:1024100006D00268536823F40023816C0B43536099
:1024200070470268536823F4C003416C0B43536048
:10243000EBE72DE9F04105460F4616469846069C07
:102440002B68DB6937EA03030CBF01230023B34287
:102450001CD1B4F1FF3FF3D0FEF7DAF8A0EB08008F
:10246000A04201D8002CEBD12A68136823F4D07362
:1024700013602A68936823F00103936020236B673D
:10248000AB67002385F87030032000E00020BDE832
:10249000F0812DE9F04182B01E46436F202B55D1CB
:1024A00004460D469046002955D0002A55D090F894
:1024B0007030012B53D0012380F870300023C367A4
:1024C00021234367FEF7A4F80746A4F85080A4F838
:1024D0005280A368B3F5805F02D04FF0000813E08C
:1024E000236913B14FF000080EE0A84600250BE069
:1024F00038F8023B2268C3F308031385B4F852305E
:10250000013B9BB2A4F85230B4F852309BB273B185
:1025100000963B46002280212046FFF78AFF00BB41
:10252000002DE5D0236815F8012B1A85E6E7009603
:102530003B46002240212046FFF77BFF034690B92F
:1025400020226267002284F8702000E002231846EF
:1025500002B0BDE8F0810123F9E70123F7E7022388
:10256000F5E70323F3E70323F1E730B583B004462F
:102570000023C367FEF74CF8054623681B6813F079
:10258000080F0CD123681B6813F0040F15D120230A
:102590006367A367002084F8700003B030BD6FF05C
:1025A0007E430093034600224FF400112046FFF7BC
:1025B00040FF0028E6D00320EFE76FF07E43009352
:1025C0002B4600224FF480012046FFF732FF0028FF
:1025D000DDD00320E1E768B310B50446436F03B3D1
:1025E000242363672268136823F0010313602046E5
:1025F000FFF7E6FC012813D0636ABBB92268536871
:1026000023F4904353602268936823F02A03936075
:102610002268136843F0010313602046FFF7A5FF0B
:1026200010BD80F8703000F0D1FBD9E72046FFF7ED
:102630009BFEE3E70120704730B589B00024039486
:102640000494059406940794204BDA6C42F001023E
:10265000DA64DA6C02F001020192019ADA6C42F05B
:102660000202DA64DB6C03F002030293029B012294
:102670004FF400614FF09040FEF75CFA032503959C
:10268000134B0493059403A94FF09040FEF788F98B
:102690004FF400630393012304930594069503A963
:1026A0004FF09040FEF77CF9224621460620FDF7C8
:1026B000DBFF0620FEF70CF8224621460720FDF737
:1026C000D3FF0720FEF704F809B030BD0010024028
:1026D0000000111000B583B0224B9A6C42F0010249
:1026E0009A649A6C02F001020092009A9A6C42F08D
:1026F00002029A649B6C03F002030193019B002287
:1027000011460E20FDF7B0FF0E20FDF7E1FF00227D
:1027100011460F20FDF7A8FF0F20FDF7D9FF00227B
:1027200011461020FDF7A0FF1020FDF7D1FF002279
:1027300011461120FDF798FF1120FDF7C9FF002277
:1027400011464420FDF790FF4420FDF7C1FF002211
:1027500011464520FDF788FF4520FDF7B9FF03B07E
:102760005DF804FB0010024008B50E480E4B0360F4
:102770004FF482734360002383604FF4E062C260D1
:10278000036143614FF4007282611022C2610362EF
:10279000436283620722C262036308234363FFF735
:1027A00034FA08BDF40000200038004008B509489C
:1027B000094B03604FF4E133436000238360C3603F
:1027C00003610C2242618361C36103624362FFF7CC
:1027D00002FF08BD340300200044004008B509484A
:1027E000094B03604FF4E133436000238360C3600F
:1027F00003610C2242618361C36103624362FFF79C
:10280000EAFE08BDB4020020003801400268044B13
:102810009A4200D07047034B01221A60FAE700BFCA
:102820000038004000040020012800D07047024B0F
:1028300008221A60FAE700BF5801002030B5AFB097
:10284000242200211EA800F067FC0024189419948B
:102850001A941B941C9460222146684600F05CFC8C
:1028600002231D934FF4807220921022219227930D
:1028700028930122299208222A9207222B922C9334
:102880002D931DA8FEF75CFA0F23189303251995C5
:102890001A941B941C94294618A8FEF76FFD009506
:1028A000089409946846FEF7F5FE4FF40070FEF7B1
:1028B0005DF92FB030BD000000B583B000228DF867
:1028C00002208DF801000B238DF800300F4B1A60A9
:1028D0004FF400614FF09040FEF72CF9032301AA5A
:1028E00069460B48FFF7EAF90948FFF765FB01283D
:1028F000FAD101224FF400614FF09040FEF71AF92F
:102900009DF8060003B05DF804FB00BF0004002042
:10291000F400002000B583B08DF806108DF8050096
:102920000A238DF8043000220E4B1A604FF4006128
:102930004FF09040FEF7FEF803236A4601A90A48CB
:10294000FFF7BCF90848FFF737FB0128FAD101224D
:102950004FF400614FF09040FEF7ECF803B05DF8E3
:1029600004FB00BF00040020F4000020F0B58FB08D
:102970000027554B1F600126544B1E600620FDF7B3
:10298000B5FE0720FDF7B2FE01AC514D0FCD0FC4CF
:1029900095E8030044F8040B218001A8FDF798FD99
:1029A0004C4C4FF6FF7382B201A92046FFF771FD30
:1029B00052211F20FFF7AEFF3046FDF72FFE3846AD
:1029C000FFF77AFF0246444901A800F0ADFB01A8D9
:1029D000FDF77EFD4FF6FF7382B201A92046FFF797
:1029E00058FD2C20FFF768FF3C4D0246294601A800
:1029F00000F09AFB01A8FDF76BFD4FF6FF7382B262
:102A000001A92046FFF745FD11212C20FFF782FF89
:102A10002C20FFF751FF0246294601A800F084FB55
:102A200001A8FDF755FD4FF6FF7382B201A92046BC
:102A3000FFF72FFD31462A20FFF76CFF2A20FFF712
:102A40003BFF0246264901A800F06EFB01A8FDF7F6
:102A50003FFD4FF6FF7382B201A92046FFF719FD33
:102A600040212B20FFF756FF2B20FFF725FF0246C2
:102A70001C4901A800F058FB01A8FDF729FD4FF6FD
:102A8000FF7382B201A92046FFF703FD22212D200A
:102A9000FFF740FF2D20FFF70FFF0246124901A864
:102AA00000F042FB01A8FDF713FD4FF6FF7382B261
:102AB00001A92046FFF7EDFC0620FDF709FE0720DF
:102AC000FDF706FE0FB0F0BD580100200004002005
:102AD0009839000834030020B0390008C0390008D4
:102AE000D4390008E8390008FC390008F0B585B091
:102AF00007460E461546002202928DF80C20ADF8CE
:102B000002208DF8042008238DF8013004AC0B233B
:102B100004F8103D124B1A604FF400614FF09040E2
:102B2000FEF708F8052302AA21460E48FFF7C6F86B
:102B30000C48FFF741FA0128FAD101224FF4006155
:102B40004FF09040FDF7F6FF9DF90A303B709DF97C
:102B50000B3033709DF90C302B7005B0F0BD00BF09
:102B600000040020F4000020F0B585B007460E46B2
:102B70001446002202920392CDF80220ADF80620FE
:102B80000E238DF8013004AD0B2305F8103D134BD7
:102B90001A604FF400614FF09040FDF7CBFF08231F
:102BA0000DEB030229460E48FFF788F89DF80B202D
:102BB0009DF80A3003EB02233B809DF80D209DF821
:102BC0000C3003EB022333809DF80F209DF80E306C
:102BD00003EB0223238005B0F0BD00BF00040020FA
:102BE000F400002000B583B0FDF7F0FCFFF726FEEF
:102BF000FFF722FDFFF76EFDFFF7B6FDFFF7D6FDED
:102C0000FFF7ECFDFFF7B2FE1EE0264C2246611CEA
:102C1000A01CFFF76BFF94F9013094F90220224DBC
:102C200094F9001000912149284600F07DFA2846C9
:102C3000FDF74EFC4FF6FF7382B229461C48FFF7A2
:102C400028FC1C4B00221A601B4B1B68012BFBD17C
:102C5000184B1B68082BD8D0164B1B680C2BF3D1D4
:102C6000104C221DA11D04F10800FFF77DFFB4F9EF
:102C70000630B4F908200C4DB4F9041000910F4946
:102C8000284600F051FA2846FDF722FC4FF6FF7364
:102C900082B229460648FFF7FCFB064B00221A6069
:102CA000D2E700BF8C000020A8010020103A0008E5
:102CB000340300205801002000040020243A0008BA
:102CC0007047000082B00A4B1A6E42F001021A6689
:102CD0001A6E02F001020092009A9A6D42F0805240
:102CE0009A659B6D03F080530193019B02B070477E
:102CF0000010024010B588B000230393049305939D
:102D00000693079302682B4B9A4201D008B010BD7E
:102D1000044603F5EC339A6D42F480429A659A6D4D
:102D200002F480420192019ADA6C42F00202DA6403
:102D3000DB6C03F002030293029B4FF460430393A6
:102D400002230493032306930523079303A91A4838
:102D5000FDF726FE19481A4B036001234360102338
:102D600083600023C3608022026143618361C36189
:102D70000362FDF7FBFCB8B9104B63659C62114818
:102D8000114B03600123436000238360C3608022F2
:102D9000026143618361C3610362FDF7E7FC30B9FF
:102DA000084BA3659C62B1E7FFF78AFFE4E7FFF7F2
:102DB00087FFF5E70038004000040048B803002012
:102DC000580002405C0100204400024030B58BB046
:102DD0000446002305930693079308930993036819
:102DE000544A934204D0544A934251D00BB030BD60
:102DF000524B1A6E42F480421A661A6E02F48042F6
:102E00000192019ADA6C42F00102DA64DB6C03F0A1
:102E100001030293029B4FF4C063059302250695BC
:102E2000032308930723099305A94FF09040FDF76A
:102E3000B7FD4348434B0360456000238360C36094
:102E40008022026143618361C3610362FDF78EFCEE
:102E5000C0B93B4BE3669C623B483C4B036002239A
:102E60004360102383600023C360802202614361BA
:102E70008361C3610362FDF779FC30B9324BA3660D
:102E80009C62B3E7FFF71CFFE3E7FFF719FFF5E7E5
:102E90002A4B9A6D42F400329A659A6D02F4003220
:102EA0000392039ADA6C42F00102DA64DB6C03F0FD
:102EB00001030493049B0C23059302250695032329
:102EC00008930723099305A94FF09040FDF768FD8B
:102ED0001F48204B0360456000238360C36080224D
:102EE0000261436183612022C2610362FDF73EFCFF
:102EF000C8B9174BE3669C621748184B036002235E
:102F00004360102383600023C36080220261436119
:102F100083612022C2610362FDF728FC30B90E4BA9
:102F2000A3669C6262E7FFF7CBFEE2E7FFF7C8FE0D
:102F3000F5E700BF003801400044004000100240A7
:102F40002402002080040240DC0100206C040240C6
:102F5000AC0000206C0002406C02002080000240A7
:102F60007047FEE7FEE7FEE7FEE7704770477047F1
:102F700008B5FDF741FB08BD08B50120FDF7E0FDF0
:102F800008BD08B50220FDF7DBFD08BD08B5024805
:102F9000FDF7A3FC08BD00BF5C01002008B5024896
:102FA000FDF79BFC08BD00BFB803002008B5024830
:102FB000FDF793FC08BD00BFAC00002008B5024837
:102FC000FDF78BFC08BD00BF6C02002008B502486D
:102FD000FDF783FC08BD00BFDC01002008B50248F6
:102FE000FDF77BFC08BD00BF2402002008B50346A6
:102FF0000B4A126842B10A4A106803446A46934277
:1030000006D8074A136008BD054A06491160F2E771
:1030100000F058F80C2303604FF0FF30F3E700BFD7
:1030200098000020100400200F49D1F8883043F4A4
:103030007003C1F888300D4B1A6842F001021A6023
:10304000002098601A6822F0A85222F410221A6018
:103050004FF48052DA601A6822F480221A60986174
:103060004FF000638B60704700ED00E000100240FD
:10307000DFF834D0002103E00C4B5B58435004319F
:103080000B480C4B42189A42F6D30B4A02E000233D
:1030900042F8043B094B9A42F9D3FFF7C5FF00F011
:1030A00017F8FFF79FFDFEE700000120883A0008AF
:1030B0000000002070000020700000200C040020A0
:1030C000FEE70000014B1868704700BF0C000020AD
:1030D00070B50D4E0D4CA41BA4100025A54209D1BE
:1030E0000B4E0C4C00F026FCA41BA4100025A5429E
:1030F00005D170BD56F8253098470135EEE756F8F2
:10310000253098470135F2E7783A0008783A000808
:10311000783A00087C3A000802440346934200D102
:10312000704703F8011BF9E70EB400B59CB01DAB66
:10313000029006906FF000410948079104910949F7
:1031400053F8042B05910068019302A900F066F87A
:10315000029B00221A701CB05DF804EB03B07047AC
:103160000C0000200802FFFF2DE9F0478E689E4208
:1031700082460C469046994637D88A8912F4906F59
:1031800031D0256809696F1A6569022305EB450589
:1031900095FBF3F509F101033B449D4238BF1D4601
:1031A000530530D5294600F02BFB064650B90C23B9
:1031B000CAF80030A38943F04003A3814FF0FF30E9
:1031C000BDE8F0873A46216900F0A8FAA38923F404
:1031D000906343F08003A381266165613E44ED1B4B
:1031E0002660A5604E464E4500D94E4632464146C1
:1031F000206800F09EFAA3689B1BA36023681E440E
:1032000026600020DCE72A4600F054FB0646002832
:10321000E2D12169504600F0A5FAC8E72DE9F04F48
:103220001D468B891F069DB080460C4616460FD55D
:103230000B696BB9402100F0E3FA2060206128B9E6
:103240000C23C8F800304FF0FF30C8E04023636122
:103250000023099320238DF8293030238DF82A305C
:1032600003954FF0010B37463D4615F8013B0BB176
:10327000252B3ED1B7EB060A0BD0534632462146EA
:103280004046FFF771FF013000F0A480099B5344D2
:1032900009933B78002B00F09D8000234FF0FF3214
:1032A000CDE90523049307938DF853301A932F46E5
:1032B000052217F8011B5048FDF712F9049BD0B9FD
:1032C000D90644BF20228DF853201A0744BF2B2271
:1032D0008DF853202A782A2A15D0079A2F460020E5
:1032E0000A25394611F8013B303B092B4DD9B8B1BD
:1032F0000FE02F46B8E7404A801A0BFA00F0184357
:1033000004903D46D3E7039A111D12680391002AE9
:1033100001DB079204E0524243F002030792049358
:103320003B782E2B0CD17B782A2B33D1039B1A1D93
:103330001B680392002BB8BF4FF0FF330237059391
:103340002E4D397803222846FDF7CAF838B14023BC
:10335000401B03FA00F0049B0343013704933978C0
:1033600027488DF8281006227E1CFDF7B9F80028A2
:1033700038D0244B13BB039B073323F007030833D8
:103380000393099B4B4409936DE705FB023201202F
:103390000F46A6E700230137059319460A2538464C
:1033A00010F8012B303A092A03D9002BC8D0059117
:1033B000C6E705FB012101230746F0E703AB0093B5
:1033C0002246114B04A94046AFF30080B0F1FF3F05
:1033D0008146D6D1A3895B063FF535AF09981DB06C
:1033E000BDE8F08F03AB00932246074B04A940468B
:1033F00000F082F8EAE700BF383A00083E3A0008D9
:10340000423A000800000000693100082DE9F04749
:1034100091461F468A680B69DDF820809342B8BF49
:103420001346C9F8003091F8432006460C4612B105
:103430000133C9F800302368990642BFD9F800303B
:103440000233C9F80030256815F0060507D104F1EC
:10345000190AE368D9F800209B1AAB4228DC94F8DB
:1034600043302268003318BF012392062DD404F1A3
:10347000430239463046C047013020D02368E56812
:10348000D9F8002003F00603042B08BFAD1AA36887
:1034900022690CBF25EAE57500259342C4BF9B1A3B
:1034A000ED184FF000091A344D451AD1002008E0FC
:1034B0000123524639463046C047013003D14FF010
:1034C000FF30BDE8F0870135C3E7E1185A1C302012
:1034D00081F84300224494F8451082F843100233E7
:1034E000C5E70123224639463046C0470130E6D0C1
:1034F00009F10109D8E700002DE9F04301F1430C7F
:103500000C46097E85B06E291746064698460C9AE9
:1035100000F0B38022D8632936D00AD8002900F001
:10352000B980582900F0838004F1420584F84210E4
:1035300032E0642901D06929F6D1206813680506B4
:1035400003F104012AD51B681160002B03DA2D2238
:103550005B4284F843206F480A2239E0732900F067
:103560009D8008D86F2920D07029DDD1236843F0D1
:103570002003236003E0752917D07829D4D178235C
:1035800084F84530644855E01368191D1B681160C4
:1035900004F1420584F8423001238CE01B6811607D
:1035A00010F0400F18BF1BB2CFE713682568181D35
:1035B0001060280601D51B6802E06806FBD51B8851
:1035C00054486F2914BF0A220822002184F84310AE
:1035D0006568A560002DC0F29580216821F0040186
:1035E0002160002B3DD1002D40F08E806546082AD9
:1035F0000BD12368DB0708D5236962689A42DEBFD6
:10360000302305F8013C05F1FF35ACEB05032361E0
:10361000CDF800803B4603AA21463046FFF7F6FE70
:1036200001304DD14FF0FF3005B0BDE8F08339488F
:1036300084F84510136821681D1D1B6815600A0673
:103640000BD5CA0744BF41F0200121601BB9226895
:1036500022F0200222601022B7E74D0648BF9BB23D
:10366000EFE76546B3FBF2F102FB1133C35C05F8EB
:10367000013D0B460029F5D1B9E71368256861695A
:10368000181D106028061B6801D5196002E06A0643
:10369000FBD51980002323616546B9E71368191D1E
:1036A00011601D68626800212846FCF719FF08B107
:1036B000401B606063682361002384F84330A7E700
:1036C00023692A4639463046C0470130AAD02368CC
:1036D0009B0713D4E068039B9842B8BF1846A3E742
:1036E00001234A4639463046C04701309AD0013559
:1036F000E368039A9B1AAB42F2DCEBE7002504F186
:103700001909F5E7002BACD1037884F8423004F1B5
:1037100042056CE7493A00085A3A000810B5431EC2
:103720000A44914200D110BD11F8014B03F8014F3A
:10373000F7E7884210B501EB020307D8421E994211
:103740000AD011F8014B02F8014FF8E78342F5D98E
:103750008118D21AD34200D110BD13F8014D01F8DF
:10376000014DF7E738B50546002945D051F8043C2E
:103770000C1F002BB8BFE41800F0D2F81F4A1368E2
:10378000104633B9636014602846BDE8384000F045
:10379000C8B8A3420CD921686218934204BF1A68C2
:1037A0005B68636004BF521822600460ECE7134654
:1037B0005A680AB1A242FAD919685818A0420BD126
:1037C00020680144581882421960DDD1106852689F
:1037D0005A6001441960D7E702D90C232B60D3E764
:1037E000206821188A4204BF11685268626004BFD1
:1037F000091821605C60C7E738BD00BFA000002049
:1038000070B5CD1C25F0030508350C2D38BF0C25EF
:10381000002D064601DBA94203D90C2333600020AA
:1038200070BD00F07DF8214A1468214691B9204C02
:1038300023681BB9304600F063F820602946304603
:1038400000F05EF8431C24D10C233360304600F0B6
:1038500068F8E4E70B685B1B18D40B2B0FD90B60DF
:10386000CD50CC18304600F05CF804F10B00231D5D
:1038700020F00700C31AD3D05A42E250D0E78C425E
:103880004B6816BF636013600C46EBE70C46496853
:10389000CCE7C41C24F00304A04205D0211A304612
:1038A00000F02EF80130CFD02560DBE7A00000202B
:1038B000A4000020F8B5074614460E4621B911466B
:1038C000BDE8F840FFF79CBF22B9FFF74BFF254644
:1038D0002846F8BD00F026F8A0420FD2214638460F
:1038E000FFF78EFF05460028F2D031462246FFF74B
:1038F00015FF31463846FFF735FFE9E73546E7E77C
:1039000038B5064C0023054608462360FFF76EFBDA
:10391000431C02D1236803B12B6038BD080400208A
:103920007047704751F8043C181F002BBCBF0B5860
:10393000C0187047F8B500BFF8BC08BC9E46704779
:10394000F8B500BFF8BC08BC9E46704700000000F8
:10395000A0860100400D0300801A060000350C000F
:1039600040420F0080841E0000093D0000127A00D2
:103970000024F40000366E010048E801006CDC020F
:10398000000000000000000001020304060708090F
:103990000000000001020304496E697469617469E2
:1039A0006E67204144584C333632210D0A00000026
:1039B000494430203D20307825580D0A0000000091
:1039C00046494C5445525F43544C203D20307825A5
:1039D000580D0A00494E544D415031203D20307859
:1039E00025580D0A00000000494E544D4150322028
:1039F0003D20307825580D0A00000000504F5745F3
:103A0000525F43544C203D20307825580D0A000069
:103A1000252B30346420252B30346420252B303482
:103A2000640D0A00252B30356420252B30356420A9
:103A3000252B3035640D0A00232D302B2000686CB7
:103A40004C006566674546470030313233343536C1
:103A500037383941424344454600303132333435FA
:103A60003637383961626364656600000000000023
:083A700090C7FF7F0100000078
:083A7800B50100080000000088
:083A80009101000800000000A4
:103A8800010000001000000000093D0010000020A7
:103A9800000000000000000000000000000000001E
:103AA800000000000000000000000000000000000E
:103AB80000000000000000000000000000000000FE
:103AC80000000000000000000000000000000000EE
:103AD80000000000000000000000000000000000DE
:103AE80000000000000000000000000000000000CE
:04000005080030714E
:00000001FF
