:020000040800F2
:10000000000001200D4C0008814A00088F4A0008BA
:10001000954A00089B4A0008A14A00080000000019
:10002000000000000000000000000000A74A0008D7
:10003000B54A000800000000C34A0008D14A000881
:100040005D4C00085D4C00085D4C00085D4C0008EC
:100050005D4C00085D4C0008DD4A0008EB4A0008D2
:100060005D4C00085D4C00085D4C00085D4C0008CC
:100070005D4C00085D4C0008F94A00080D4B000873
:10008000214B0008354B00085D4C00085D4C000812
:100090005D4C00085D4C00085D4C00085D4C00089C
:1000A0005D4C00085D4C00085D4C00085D4C00088C
:1000B0005D4C000800000000000000005D4C0008DE
:1000C0005D4C00085D4C00085D4C00085D4C00086C
:1000D0005D4C00085D4C00085D4C00085D4C00085C
:1000E0005D4C00085D4C00080000000000000000AE
:1000F0000000000000000000000000000000000000
:10010000000000005D4C0008000000005D4C00088D
:1001100000000000000000005D4C00085D4C00087D
:100120005D4C00085D4C00085D4C00085D4C00080B
:100130005D4C00080000000000000000000000000E
:100140005D4C00085D4C00085D4C00085D4C0008EB
:100150005D4C00085D4C00085D4C00085D4C0008DB
:100160005D4C00085D4C00085D4C0008000000007C
:100170005D4C00085D4C00085D4C0008000000006C
:100180005D4C00085D4C00085D4C0008000000005C
:1001900010B5054C237833B9044B13B10448AFF3C1
:1001A00000800123237010BD7000002000000000BB
:1001B000D054000808B5034B1BB103490348AFF303
:1001C000008008BD0000000074000020D05400082A
:1001D00053B94AB9002908BF00281CBF4FF0FF31AE
:1001E0004FF0FF3000F072B9ADF1080C6DE904CEAC
:1001F00000F006F8DDF804E0DDE9022304B0704702
:100200002DE9F047089E04468846002B4BD18A42D0
:10021000154667D9B2FA82F24AB1C2F1200701FA53
:1002200002F320FA07F7954047EA030894404FEAA3
:10023000154E230CB8FBFEF71FFA85FC0EFB178842
:1002400043EA084307FB0CF1994209D9EB1807F17F
:10025000FF3080F01B81994240F21881023F2B440D
:100260005B1AA4B2B3FBFEF00EFB103344EA034466
:1002700000FB0CFCA44509D92C1900F1FF3380F0D8
:100280000781A44540F2048102382C4440EA07402B
:10029000A4EB0C0400271EB1D4400023C6E90043A0
:1002A0003946BDE8F0878B4209D9002E00F0EB807B
:1002B0000027C6E9000138463946BDE8F087B3FAA1
:1002C00083F7002F47D18B4202D3824200F2FA809B
:1002D000841A61EB030301209846002EE0D0C6E9A2
:1002E0000048DDE702B9FFDEB2FA82F2002A40F0F0
:1002F0008F80491B4FEA154E1FFA85F80127B1FB85
:10030000FEFC230C0EFB1C1143EA014308FB0CF11D
:10031000994207D9EB180CF1FF3002D2994200F252
:10032000CD808446591AA3B2B1FBFEF00EFB101427
:1003300043EA044408FB00F8A04507D92C1900F152
:10034000FF3302D2A04500F2B6801846A4EB0804A1
:1003500040EA0C409FE7C7F1200CBB4022FA0CFE9C
:100360004EEA030E01FA07F420FA0CF521FA0CF319
:100370004FEA1E482543B3FBF8F92C0C08FB193350
:100380001FFA8EFA44EA034309FB0AF49C4202FA7C
:1003900007F200FA07F10BD91EEB030309F1FF3056
:1003A00080F087809C4240F28480A9F10209734466
:1003B0001B1BADB2B3FBF8F008FB103345EA034456
:1003C00000FB0AFAA24508D91EEB040400F1FF3332
:1003D0006BD2A24569D90238744440EA0940A0FBB7
:1003E0000289A4EB0A044C45C2464B4654D351D073
:1003F000002E69D0B1EB0A0564EB030404FA0CFC8F
:10040000FD40FC404CEA0505C6E90054002747E7DB
:10041000C2F1200320FA03F7954001FA02F021FA15
:1004200003F34FEA154E3843010CB3FBFEF71FFAF6
:1004300085F80EFB173341EA034107FB08F38B42B3
:1004400004FA02F407D9691807F1FF3C2FD28B4256
:100450002DD9023F2944CB1A81B2B3FBFEF00EFB2B
:10046000103341EA034100FB08F38B4207D96918B6
:1004700000F1FF3C17D28B4215D902382944C91A22
:1004800040EA07473BE73746304609E70746E7E6D5
:100490001846FBE64145ABD2B8EB020A69EB0E0207
:1004A00001381346A4E76046E9E7184695E7674632
:1004B000D1E781467CE702382C4447E7ACF1020CD7
:1004C0002B442FE7384608E73746E9E6704700BF78
:1004D000034613F8012B002AFBD1181A0138704784
:1004E00001F0FF01102A2BDB10F0070F08D010F8E5
:1004F000013B013A8B422DD010F0070F42B3F6D1E9
:10050000F0B441EA012141EA014122F007047FF001
:1005100000070023F0E80256083C85EA010586EA58
:10052000010685FA47F5A3FA87F586FA47F6A5FA94
:1005300087F68EB9EED1F0BC01F0FF0102F00702A0
:1005400032B110F8013B013A83EA010313B1F8D14B
:100550000020704701387047002D06BF354603382C
:10056000073815F0010F07D1013015F4807F02BF65
:10057000013015F4C03F0130F0BC0138704700BFB6
:1005800080B582B000AF0023FB710C4B1B680B4A97
:1005900043F480731360032000F07EF9002000F024
:1005A0000FF80346002B02D00123FB7101E004F099
:1005B00009F9FB7918460837BD4680BD0020024086
:1005C00080B584B000AF78600023FB73164B1B68C6
:1005D000002B22D0154B1A68134B1B684FF47A710D
:1005E000B1FBF3F3B2FBF3F3184600F098F90346BE
:1005F000002B0FD17B680F2B09D8002279684FF0B0
:10060000FF3000F054F90A4A7B68136007E00123C9
:10061000FB7304E00123FB7301E00123FB73FB7B0D
:1006200018461037BD4680BD040000200800002099
:100630000000002080B400AF054B1A68054B1B6812
:100640001344034A136000BFBD465DF8047B704746
:10065000A80000200400002080B400AF034B1B68FA
:100660001846BD465DF8047B704700BFA800002017
:1006700080B584B000AF7860FFF7EEFFB8607B68AC
:10068000FB60FB68B3F1FF3F04D0094B1B68FA68BD
:100690001344FB6000BFFFF7DFFF0246BB68D31ABD
:1006A000FA689A42F7D800BF1037BD4680BD00BF38
:1006B0000400002080B485B000AF78607B6803F050
:1006C0000703FB600C4BDB68BB60BA684FF6FF03A7
:1006D0001340BB60FB681A02BB68134343F0BF635F
:1006E00043F40033BB60044ABB68D36000BF1437D7
:1006F000BD465DF8047B704700ED00E080B400AFBC
:10070000044BDB681B0A03F007031846BD465DF87F
:10071000047B704700ED00E080B483B000AF034677
:10072000FB7197F90730002B0BDBFB7903F01F02FD
:10073000074997F907305B09012000FA02F241F8F6
:10074000232000BF0C37BD465DF8047B704700BF17
:1007500000E100E080B483B000AF0346FB7197F97D
:100760000730002B10DBFB7903F01F02094997F9D2
:1007700007305B09012000FA02F2203341F8232000
:10078000BFF34F8FBFF36F8F00BF0C37BD465DF8CF
:10079000047B704700E100E080B483B000AF034603
:1007A0003960FB7197F90730002B0ADB3B68DAB23E
:1007B0000C4997F907301201D2B20B4483F8002399
:1007C0000AE03B68DAB20849FB7903F00F03043B07
:1007D0001201D2B20B441A7600BF0C37BD465DF849
:1007E000047B704700E100E000ED00E080B489B0D8
:1007F00000AFF860B9607A60FB6803F00703FB6143
:10080000FB69C3F10703042B28BF0423BB61FB6909
:100810000433062B02D9FB69033B00E000237B6114
:100820004FF0FF32BB6902FA03F3DA43BB681A40A8
:100830007B699A404FF0FF317B6901FA03F3D9439A
:100840007B680B40134318462437BD465DF8047B94
:100850007047000080B582B000AF78607B68013BD4
:10086000B3F1807F01D301230FE00A4A7B68013B8B
:1008700053600F214FF0FF30FFF78EFF054B002232
:100880009A60044B07221A60002318460837BD46B9
:1008900080BD00BF10E000E080B582B000AF78609E
:1008A0007868FFF707FF00BF0837BD4680BD80B5F9
:1008B00086B000AF0346B9607A60FB7300237B61AA
:1008C000FFF71CFF78617A68B9687869FFF78EFFD7
:1008D000024697F90F3011461846FFF75DFF00BF3B
:1008E0001837BD4680BD80B582B000AF0346FB71AE
:1008F00097F907301846FFF70FFF00BF0837BD46CE
:1009000080BD80B582B000AF0346FB7197F9073018
:100910001846FFF71FFF00BF0837BD4680BD80B5F2
:1009200082B000AF78607868FFF794FF03461846FE
:100930000837BD4680BD000080B485B000AF786048
:100940007B68002B01D1012398E07B681B681A4665
:100950004D4B9A420FD87B681B681A464B4B134489
:100960004B4AA2FB03231B099A007B685A647B68ED
:10097000484A1A640EE07B681B681A46464B1344CB
:10098000434AA2FB03231B099A007B685A647B68D5
:10099000424A1A647B68022283F825207B681B6820
:1009A0001B68FB60FB6823F4FF4323F07003FB60CC
:1009B0007B689A687B68DB681A437B681B691A430B
:1009C0007B685B691A437B689B691A437B68DB69B8
:1009D0001A437B681B6A1343FA681343FB607B6806
:1009E0001B68FA681A607B689B68B3F5804F39D042
:1009F0007B681B6C274A93421AD1294B1A687B6883
:100A00005B6C03F01C030F2101FA03F3DB43244961
:100A100013400B60224B1A687B6859687B685B6CDB
:100A200003F01C0301FA03F31D4913430B6019E0A3
:100A30001C4B1A687B685B6C03F01C030F2101FAE6
:100A400003F3DB43174913400B60164B1A687B68AE
:100A500059687B685B6C03F01C0301FA03F31149CE
:100A600013430B607B680022DA637B68012283F802
:100A700025207B68002283F82420002318461437A1
:100A8000BD465DF8047B704707040240F8FFFDBFD8
:100A9000CDCCCCCC00000240F8FBFDBF00040240EE
:100AA000A8000240A804024080B586B000AFF860FC
:100AB000B9607A603B600023FB75FB6893F82430D3
:100AC000012B01D102234BE0FB68012283F8242093
:100AD000FB6893F82530DBB2012B3AD1FB68022288
:100AE00083F82520FB680022DA63FB681B681A681C
:100AF000FB681B6822F001021A603B687A68B968DB
:100B0000F86800F0E0F8FB681B6B002B08D0FB686E
:100B10001B681A68FB681B6842F00E021A600FE03F
:100B2000FB681B681A68FB681B6822F004021A60E5
:100B3000FB681B681A68FB681B6842F00A021A60AF
:100B4000FB681B681A68FB681B6842F001021A60A8
:100B500005E0FB68002283F824200223FB75FB7D5F
:100B600018461837BD4680BD80B584B000AF7860A8
:100B70007B681B6C1B68FB607B681B681B68BB6029
:100B80007B685B6C03F01C0304229A40FB681340F3
:100B9000002B26D0BB6803F00403002B21D07B6818
:100BA0001B681B6803F02003002B07D17B681B68C0
:100BB0001A687B681B6822F004021A607B685B6C11
:100BC00003F01C027B681B6C042101FA02F25A60DC
:100BD0007B681B6B002B71D07B681B6B7868984718
:100BE0006CE07B685B6C03F01C0302229A40FB689C
:100BF0001340002B2ED0BB6803F00203002B29D03A
:100C00007B681B681B6803F02003002B0BD17B68FB
:100C10001B681A687B681B6822F00A021A607B68EE
:100C2000012283F825207B685B6C03F01C027B6843
:100C30001B6C022101FA02F25A607B68002283F8E1
:100C400024207B68DB6A002B38D07B68DB6A7868FD
:100C5000984733E07B685B6C03F01C0308229A40E2
:100C6000FB681340002B2AD0BB6803F00803002B5D
:100C700025D07B681B681A687B681B6822F00E020F
:100C80001A607B685B6C03F01C027B681B6C0121A3
:100C900001FA02F25A607B680122DA637B68012262
:100CA00083F825207B68002283F824207B685B6B17
:100CB000002B04D07B685B6B7868984700BF00BF4F
:100CC0001037BD4680BD80B485B000AFF860B96014
:100CD0007A603B60FB685B6C03F01C02FB681B6C7A
:100CE000012101FA02F25A60FB681B683A685A60F7
:100CF000FB689B68102B08D1FB681B687A689A60B8
:100D0000FB681B68BA68DA6007E0FB681B68BA68B2
:100D10009A60FB681B687A68DA6000BF1437BD46CA
:100D20005DF8047B7047000080B487B000AF786046
:100D3000396000237B6154E13B681A6801217B69BB
:100D400001FA03F31340FB60FB68002B00F04681BF
:100D50003B685B68022B03D03B685B68122B23D196
:100D60007B69DA087B68083253F822303B617B6983
:100D700003F007039B000F2202FA03F3DB433A69F7
:100D800013403B613B681A697B6903F007039B00D2
:100D900002FA03F33A6913433B617B69DA087B6823
:100DA0000832396943F822107B681B683B617B6914
:100DB0005B00032202FA03F3DB433A6913403B6111
:100DC0003B685B6803F003027B695B0002FA03F394
:100DD0003A6913433B617B683A691A603B685B6818
:100DE000012B0BD03B685B68022B07D03B685B682C
:100DF000112B03D03B685B68122B30D17B689B685A
:100E00003B617B695B00032202FA03F3DB433A692F
:100E100013403B613B68DA687B695B0002FA03F3CD
:100E20003A6913433B617B683A699A607B685B6807
:100E30003B6101227B6902FA03F3DB433A69134009
:100E40003B613B685B681B0903F001027B6902FAA6
:100E500003F33A6913433B617B683A695A607B68E4
:100E6000DB683B617B695B00032202FA03F3DB432F
:100E70003A6913403B613B689A687B695B0002FA00
:100E800003F33A6913433B617B683A69DA603B6874
:100E90005B6803F08053002B00F0A080584B1B6E62
:100EA000574A43F001031366554B1B6E03F00103D1
:100EB000BB60BB68534A7B699B08023352F82330FE
:100EC0003B617B6903F003039B000F2202FA03F3EB
:100ED000DB433A6913403B617B68B3F1904F19D013
:100EE0007B68494A934213D07B68484A93420DD0AD
:100EF0007B68474A934207D07B68464A934201D1B8
:100F0000042308E0072306E0032304E0022302E0B1
:100F1000012300E000237A6902F00302920093406B
:100F20003A6913433B6137497B699B0802333A694D
:100F300041F82320384B1B683B61FB68DB433A696F
:100F400013403B613B685B6803F48033002B03D0A4
:100F50003A69FB6813433B612F4A3B6913602E4B90
:100F60005B683B61FB68DB433A6913403B613B686C
:100F70005B6803F40033002B03D03A69FB6813432A
:100F80003B61254A3B695360234B9B683B61FB688F
:100F9000DB433A6913403B613B685B6803F48013B1
:100FA000002B03D03A69FB6813433B611A4A3B6943
:100FB0009360194BDB683B61FB68DB433A69134084
:100FC0003B613B685B6803F40013002B03D03A6974
:100FD000FB6813433B61104A3B69D3607B69013373
:100FE0007B613B681A687B6922FA03F3002B7FF46C
:100FF000A3AE00BF1C37BD465DF8047B704700BF41
:1010000000100240000001400004004800080048B1
:10101000000C0048001000480004014080B483B078
:1010200000AF78600B467B8013467B707B78002B8B
:1010300003D07A887B689A6102E07A887B689A623A
:1010400000BF0C37BD465DF8047B704780B582B0A9
:1010500000AF0346FB80084B5A69FB881340002B06
:1010600006D0054AFB885361FB88184602F0C4FF8E
:1010700000BF0837BD4680BD0004014080B400AF0A
:10108000044B1B6803F4C0631846BD465DF8047B3F
:10109000704700BF0070004080B485B000AF78603A
:1010A0007B68B3F5007F30D1234B1B6803F4C0632A
:1010B000B3F5007F38D0204B1B6823F4C0631E4A71
:1010C00043F4007313601D4B1B68322202FB03F3D1
:1010D0001B4AA2FB03239B0C0133FB6002E0FB686D
:1010E000013BFB60144B5B6903F48063B3F5806FD5
:1010F00002D1FB68002BF2D10F4B5B6903F48063D4
:10110000B3F5806F10D103230FE00B4B1B6803F482
:10111000C063B3F5806F07D0074B1B6823F4C0632F
:10112000054A43F480631360002318461437BD4614
:101130005DF8047B704700BF00700040080000208D
:1011400083DE1B4380B588B000AF78607B68002BDE
:1011500001D10123DBE3A44B9B6803F00C03BB61CB
:10116000A14BDB6803F003037B617B681B6803F022
:101170001003002B00F0E180BB69002B07D0BB6996
:101180000C2B40F088807B69012B40F08480964BCB
:101190001B6803F00203002B05D07B689B69002BC2
:1011A00001D10123B3E37B681A6A8F4B1B6803F0FC
:1011B0000803002B04D08C4B1B6803F0F00305E000
:1011C000894BD3F894301B0903F0F003934223D2E8
:1011D0007B681B6A184600F047FD0346002B01D0D0
:1011E000012394E3804B1B687F4A43F0080313609C
:1011F0007D4B1B6823F0F0027B681B6A7A4913431E
:101200000B60794B5B6823F47F427B68DB691B02D0
:10121000754913434B6022E0734B1B68724A43F0DD
:1012200008031360704B1B6823F0F0027B681B6A95
:101230006D4913430B606C4B5B6823F47F427B6802
:10124000DB691B02684913434B607B681B6A1846C5
:1012500000F00AFD0346002B01D0012357E300F004
:1012600041FC0146604B9B681B0903F00F035F4A7A
:10127000D35C03F01F0321FA03F35D4A13605D4B57
:101280001B681846FFF79CF90346FB73FB7B002B9A
:1012900052D0FB7B3BE37B689B69002B32D0524BE7
:1012A0001B68514A43F001031360FFF7D5F9386119
:1012B00008E0FFF7D1F902463B69D31A022B01D9A6
:1012C000032324E3484B1B6803F00203002BF0D0F8
:1012D000454B1B68444A43F008031360424B1B68AC
:1012E00023F0F0027B681B6A3F4913430B603E4BBF
:1012F0005B6823F47F427B68DB691B023A49134336
:101300004B601AE0384B1B68374A23F00103136027
:10131000FFF7A2F9386108E0FFF79EF902463B6942
:10132000D31A022B01D90323F1E22F4B1B6803F0E0
:101330000203002BF0D100E000BF7B681B6803F0C4
:101340000103002B74D0BB69082B05D0BB690C2BA3
:101350000ED17B69032B0BD1234B1B6803F40033A5
:10136000002B64D07B685B68002B60D10123CEE248
:101370007B685B68B3F5803F06D11B4B1B681A4A3C
:1013800043F4803313601DE07B685B68B3F5A02FE6
:101390000CD1154B1B68144A43F480231360124B85
:1013A0001B68114A43F4803313600BE00E4B1B683B
:1013B0000D4A23F4803313600B4B1B680A4A23F455
:1013C000802313607B685B68002B1CD0FFF744F917
:1013D000386111E0FFF740F902463B69D31A642BEC
:1013E0000AD9032393E200BF001002408855000889
:1013F0000800002000000020AE4B1B6803F40033FF
:10140000002BE7D014E0FFF727F9386108E0FFF779
:1014100023F902463B69D31A642B01D9032376E2F0
:10142000A44B1B6803F40033002BF0D100E000BF95
:101430007B681B6803F00203002B60D0BB69042BA0
:1014400005D0BB690C2B19D17B69022B16D1994BA6
:101450001B6803F48063002B05D07B68DB68002BDE
:1014600001D1012353E2934B5B6823F0F8527B6870
:101470001B691B068F4913434B6040E07B68DB68A8
:10148000002B23D08B4B1B688A4A43F48073136074
:10149000FFF7E2F8386108E0FFF7DEF802463B6943
:1014A000D31A022B01D9032331E2824B1B6803F4C8
:1014B0008063002BF0D07F4B5B6823F0F8527B6891
:1014C0001B691B067B4913434B6018E0794B1B6873
:1014D000784A23F480731360FFF7BEF8386108E0A0
:1014E000FFF7BAF802463B69D31A022B01D903234E
:1014F0000DE2704B1B6803F48063002BF0D17B6816
:101500001B6803F00803002B3CD07B685B69002B51
:101510001CD0684BD3F89430664A43F00103C2F8FC
:101520009430FFF799F8386108E0FFF795F8024624
:101530003B69D31A022B01D90323E8E15D4BD3F8B1
:10154000943003F00203002BEFD01BE0594BD3F88B
:101550009430584A23F00103C2F89430FFF77CF826
:10156000386108E0FFF778F802463B69D31A022B8E
:1015700001D90323CBE14F4BD3F8943003F002039E
:10158000002BEFD17B681B6803F00403002B00F0F5
:10159000A5800023FB77474B9B6D03F08053002B06
:1015A0000DD1444B9B6D434A43F080539365414BAF
:1015B0009B6D03F08053BB60BB680123FB773E4B00
:1015C0001B6803F48073002B18D13B4B1B683A4A0D
:1015D00043F480731360FFF73FF8386108E0FFF7CA
:1015E0003BF802463B69D31A022B01D903238EE153
:1015F000314B1B6803F48073002BF0D07B689B6831
:10160000012B08D12B4BD3F890302A4A43F0010329
:10161000C2F8903024E07B689B68052B10D1254BE5
:10162000D3F89030234A43F00403C2F89030214BA2
:10163000D3F890301F4A43F00103C2F890300FE016
:101640001C4BD3F890301B4A23F00103C2F89030B2
:10165000184BD3F89030174A23F00403C2F89030A7
:101660007B689B68002B16D0FEF7F6FF38610AE016
:10167000FEF7F2FF02463B69D31A41F288329342E9
:1016800001D9032343E10B4BD3F8903003F002035D
:10169000002BEDD019E0FEF7DFFF38610EE0FEF71A
:1016A000DBFF02463B69D31A41F28832934205D9E7
:1016B00003232CE10010024000700040964BD3F849
:1016C000903003F00203002BE9D1FB7F012B05D101
:1016D000914B9B6D904A23F0805393657B681B6808
:1016E00003F02003002B3CD07B685B6A002B1CD0EE
:1016F000894BD3F89830884A43F00103C2F89830F8
:10170000FEF7AAFF386108E0FEF7A6FF02463B6934
:10171000D31A022B01D90323F9E07F4BD3F8983079
:1017200003F00203002BEFD01BE07B4BD3F8983083
:10173000794A23F00103C2F89830FEF78DFF386133
:1017400008E0FEF789FF02463B69D31A022B01D954
:101750000323DCE0704BD3F8983003F00203002B36
:10176000EFD17B689B6A002B00F0D080BB690C2B0B
:1017700000F08D807B689B6A022B5AD1664B1B68F8
:10178000654A23F080731360FEF766FF386108E056
:10179000FEF762FF02463B69D31A022B01D90323ED
:1017A000B5E05D4B1B6803F00073002BF0D15A4B82
:1017B000DA685A4B13407A68D16A7A68126B013A38
:1017C000120111437A68526B120211437A68D26B8C
:1017D0005208013A520511437A68126C5208013AD4
:1017E000520611437A68926BD2060A434A49134360
:1017F000CB60494B1B68484A43F080731360464BEB
:10180000DB68454A43F08073D360FEF725FF3861FB
:1018100008E0FEF721FF02463B69D31A022B01D9EB
:10182000032374E03C4B1B6803F00073002BF0D0E3
:101830006CE0394B1B68384A23F080731360364BD9
:101840001B6803F00063002B05D1334BDB68324A81
:1018500023F00303D360304BDB682F4A23F08873F7
:1018600023F48033D360FEF7F7FE386108E0FEF71B
:10187000F3FE02463B69D31A022B01D9032346E04B
:10188000254B1B6803F00073002BF0D13EE07B6812
:101890009B6A012B01D1012339E01F4BDB687B617F
:1018A0007B6903F003027B68DB6A9A422CD17B6977
:1018B00003F070027B681B6B013B1B019A4223D132
:1018C0007B6903F4FE427B685B6B1B029A421BD16F
:1018D0007B6903F078427B689B6BDB069A4213D1ED
:1018E0007B6903F4C0027B68DB6B5B08013B5B0533
:1018F0009A4209D17B6903F0C0627B681B6C5B086C
:10190000013B5B069A4201D0012300E00023184608
:101910002037BD4680BD00BF001002408C809D0175
:1019200080B584B000AF786039607B68002B01D14E
:101930000123C8E0664B1B6803F007033A689A422C
:1019400010D9634B1B6823F0070261493B681343BE
:101950000B605F4B1B6803F007033A689A4201D0A3
:101960000123B0E07B681B6803F00103002B4CD01F
:101970007B685B68032B07D1564B1B6803F0007331
:10198000002B21D101239EE07B685B68022B07D1ED
:10199000504B1B6803F40033002B15D1012392E058
:1019A0007B685B68002B07D14A4B1B6803F002037E
:1019B000002B09D1012386E0464B1B6803F48063AA
:1019C000002B01D101237EE0424B9B6823F00302F0
:1019D0007B685B683F4913438B60FEF73DFEF86010
:1019E0000AE0FEF739FE0246FB68D31A41F288325C
:1019F000934201D9032366E0364B9B6803F00C0247
:101A00007B685B689B009A42EBD17B681B6803F0A4
:101A10000203002B08D02F4B9B6823F0F0027B6859
:101A20009B682C4913438B60294B1B6803F0070309
:101A30003A689A4210D2264B1B6823F007022449C9
:101A40003B6813430B60224B1B6803F007033A68A3
:101A50009A4201D0012336E07B681B6803F004033F
:101A6000002B08D01B4B9B6823F4E0627B68DB688B
:101A7000184913438B607B681B6803F00803002B35
:101A800009D0144B9B6823F460527B681B69DB0010
:101A9000104913438B6000F025F801460D4B9B68FD
:101AA0001B0903F00F030C4AD35C03F01F0321FA58
:101AB00003F30A4A13600A4B1B681846FEF780FDC1
:101AC0000346FB72FB7A18461037BD4680BD00BF47
:101AD0000020024000100240885500080800002045
:101AE0000000002080B489B000AF0023FB61002318
:101AF000BB613D4B9B6803F00C033B613A4BDB68D9
:101B000003F00303FB603B69002B05D03B690C2B02
:101B100021D1FB68012B1ED1334B1B6803F0080356
:101B2000002B07D1304BD3F894301B0A03F00F037E
:101B3000FB6105E02C4B1B681B0903F00F03FB61E5
:101B40002A4AFB6952F82330FB613B69002B0DD117
:101B5000FB69BB610AE03B69042B02D1244BBB61EA
:101B600004E03B69082B01D1224BBB613B690C2B84
:101B700033D11D4BDB6803F00303BB60BB68022B52
:101B800002D0032B03D005E0194B7B6105E0194B14
:101B90007B6102E0FB697B6100BF134BDB681B09C3
:101BA00003F0070301337B600F4BDB681B0A03F074
:101BB0007F037A6902FB03F27B68B2FBF3F37B617C
:101BC000094BDB685B0E03F0030301335B003B60F2
:101BD0007A693B68B2FBF3F3BB61BB6918462437F3
:101BE000BD465DF8047B704700100240A055000818
:101BF0000024F40000127A0080B400AF034B1B688D
:101C00001846BD465DF8047B704700BF0800002001
:101C100080B500AFFFF7F0FF0146064B9B681B0A3B
:101C200003F00703044AD35C03F01F0321FA03F314
:101C3000184680BD001002409855000880B500AFDE
:101C4000FFF7DAFF0146064B9B68DB0A03F0070348
:101C5000044AD35C03F01F0321FA03F3184680BD46
:101C6000001002409855000880B586B000AF78603B
:101C700000233B612A4B9B6D03F08053002B03D064
:101C8000FFF7FCF9786114E0254B9B6D244A43F083
:101C900080539365224B9B6D03F08053FB60FB6880
:101CA000FFF7ECF978611E4B9B6D1D4A23F08053C2
:101CB00093657B69B3F5007F0BD17B68802B19D9C5
:101CC0007B68A02B02D902233B6113E001233B6117
:101CD00010E07B68802B02D903233B610AE07B681C
:101CE000802B02D102233B6104E07B68702B01D181
:101CF00001233B610B4B1B6823F0070209493B6939
:101D000013430B60074B1B6803F007033A699A42C1
:101D100001D0012300E0002318461837BD4680BDDE
:101D2000001002400020024080B586B000AF78600D
:101D30000023FB740023BB747B681B6803F40063FF
:101D4000002B2FD07B685B6CB3F5000F05D0B3F58B
:101D5000400F15D0002B07D00FE05D4BDB685C4ACD
:101D600043F48033D3600CE07B68043300211846D1
:101D700000F01EFA0346FB7403E00123FB7400E04D
:101D800000BFFB7C002B0BD1514BD3F8883023F4E0
:101D900040027B685B6C4E491343C1F8883001E018
:101DA000FB7CBB747B681B6803F40033002B00F0E2
:101DB0009E8000237B74464B9B6D03F08053002B69
:101DC00001D1012300E00023002B0DD0404B9B6D7F
:101DD0003F4A43F0805393653D4B9B6D03F0805326
:101DE000BB60BB6801237B743A4B1B68394A43F4E0
:101DF00080731360FEF730FCF86009E0FEF72CFCFE
:101E00000246FB68D31A022B02D90323FB7405E0B8
:101E1000304B1B6803F48073002BEFD0FB7C002B4E
:101E20005AD12B4BD3F8903003F440737B617B691C
:101E3000002B1ED07B68DB6D7A699A4219D0244B47
:101E4000D3F8903023F440737B61214BD3F890306A
:101E50001F4A43F48033C2F890301D4BD3F89030C2
:101E60001B4A23F48033C2F89030194A7B69C2F8C8
:101E700090307B6903F00103002B16D0FEF7ECFBDA
:101E8000F8600BE0FEF7E8FB0246FB68D31A41F26C
:101E90008832934202D90323FB7406E00C4BD3F83B
:101EA000903003F00203002BECD0FB7C002B0BD115
:101EB000074BD3F8903023F440727B68DB6D044904
:101EC0001343C1F8903009E0FB7CBB7406E000BF0F
:101ED0000010024000700040FB7CBB747B7C012B37
:101EE00005D1B24B9B6DB14A23F0805393657B685B
:101EF0001B6803F00103002B0AD0AC4BD3F88830E9
:101F000023F003027B681B6AA8491343C1F8883099
:101F10007B681B6803F00203002B0AD0A34BD3F8A5
:101F2000883023F00C027B685B6AA0491343C1F838
:101F300088307B681B6803F00403002B0AD09B4B9E
:101F4000D3F8883023F030027B689B6A97491343AB
:101F5000C1F888307B681B6803F02003002B0AD08F
:101F6000924BD3F8883023F440627B68DB6A8F4958
:101F70001343C1F888307B681B6803F40073002B9F
:101F80000AD08A4BD3F8883023F440227B68DB6B7D
:101F900086491343C1F888307B681B6803F480636B
:101FA000002B0AD0814BD3F8883023F440127B6891
:101FB0001B6C7E491343C1F888307B681B6803F0B3
:101FC0004003002B0AD0794BD3F8883023F44052D9
:101FD0007B681B6B75491343C1F888307B681B68AD
:101FE00003F08003002B0AD0704BD3F8883023F421
:101FF00040427B685B6B6D491343C1F888307B6856
:102000001B6803F48073002B0AD0684BD3F8883028
:1020100023F440327B689B6B64491343C1F88830DA
:102020007B681B6803F40053002B28D05F4BD3F868
:10203000883023F040627B689B6C5C491343C1F895
:1020400088307B689B6CB3F1006F06D1574BDB681F
:10205000564A43F48013D36011E07B689B6CB3F164
:10206000806F0CD17B6804330121184600F0A0F882
:102070000346FB74FB7C002B01D0FB7CBB747B68AC
:102080001B6803F40023002B28D0484BD3F888307A
:1020900023F040627B68DB6C44491343C1F888300D
:1020A0007B68DB6CB3F1006F06D1404BDB683F4AC5
:1020B00043F48013D36011E07B68DB6CB3F1806F75
:1020C0000CD17B6804330121184600F071F80346F7
:1020D000FB74FB7C002B01D0FB7CBB747B681B6812
:1020E00003F48023002B28D0304BD3F8883023F022
:1020F00040627B681B6D2D491343C1F888307B68B3
:102100001B6DB3F1006F06D1284BDB68274A43F4FF
:102110008013D36011E07B681B6DB3F1806F0CD12D
:102120007B6804330121184600F042F80346FB7433
:10213000FB7C002B01D0FB7CBB747B681B6803F429
:102140008043002B1CD0194BD3F8883023F0405229
:102150007B685B6D15491343C1F888307B685B6D04
:10216000B3F1805F0CD17B6804330221184600F084
:102170001FF80346FB74FB7C002B01D0FB7CBB7477
:102180007B681B6803F40043002B0AD0074BD3F88D
:10219000883023F080427B689B6D04491343C1F86B
:1021A0008830BB7C18461837BD4680BD0010024001
:1021B00080B584B000AF786039600023FB73734B47
:1021C000DB6803F00303002B18D0704BDB6803F0CF
:1021D00003027B681B689A420DD17B681B68002B49
:1021E00009D06A4BDB681B0903F007035A1C7B68A4
:1021F0005B689A4244D00123FB7341E07B681B6813
:10220000022B0CD0032B13D0012B20D15F4B1B686A
:1022100003F00203002B1DD10123FB731AE05B4B7B
:102220001B6803F48063002B16D10123FB7313E0BA
:10223000564B1B6803F40033002B0FD1534B1B6824
:1022400003F48023002B09D10123FB7306E0012353
:10225000FB7304E000BF02E000BF00E000BFFB7BB7
:10226000002B0DD1494BDB6823F073027B681968A2
:102270007B685B68013B1B010B4344491343CB6004
:10228000FB7B002B7CD1414B1B68404A23F08063D1
:102290001360FEF7E1F9B86009E0FEF7DDF90246E8
:1022A000BB68D31A022B02D90323FB7305E0374B1B
:1022B0001B6803F00063002BEFD1FB7B002B5FD189
:1022C0003B68002B10D1314B1B6923F0784323F47A
:1022D000FE437A68926811027A68D268D2060A438D
:1022E0002A4913430B6127E03B68012B12D1274B8E
:1022F0001B6923F4C00323F4FE437A689268110239
:102300007A6812695208013A52050A431F49134379
:102310000B6111E01D4B1B6923F0C06323F4FE43E6
:102320007A68926811027A6852695208013A520634
:102330000A43164913430B61144B1B68134A43F0BD
:1023400080631360FEF788F9B86009E0FEF784F94E
:102350000246BB68D31A022B02D90323FB7305E0A4
:102360000A4B1B6803F00063002BEFD0FB7B002BB4
:1023700006D1064B1A697B689B69044913430B61BC
:10238000FB7B18461037BD4680BD00BF00100240E1
:1023900080B584B000AF78607B68002B01D1012349
:1023A0007CE07B6800229A627B6893F85D30DBB248
:1023B000002B06D17B68002283F85C20786802F04D
:1023C00025FA7B68022283F85D207B681B681A6807
:1023D0007B681B6822F040021A607B68DB68B3F5FB
:1023E000E06F02D90023FB6002E04FF48053FB60F2
:1023F0007B68DB68B3F5706F07D07B68DB68B3F58B
:10240000E06F02D07B6800229A627B681B6B002B16
:102410000BD17B68DB68B3F5E06F03D97B680222E0
:102420001A6302E07B6801221A637B685A687B6842
:102430009B681A437B681B691A437B685B691A4374
:102440007B689B6903F400731A437B68DB691A435A
:102450007B681B6A42EA03017B689A6A7B681B6897
:102460000A431A607B689B691B0C03F004027B68BB
:102470005B6A1A437B685B6B1A437B68DB6842EAE2
:1024800003017B681B68FA680A435A607B68002274
:102490001A667B68012283F85D20002318461037F6
:1024A000BD4680BD80B588B000AFF860B9603B60C4
:1024B0001346FB800023FB77FB6893F85C30012B0D
:1024C00001D1022350E1FB68012283F85C20FEF772
:1024D000C3F8B861FB88FB82FB6893F85D30DBB220
:1024E000012B02D00223FB7735E1BB68002B02D021
:1024F000FB88002B02D10123FB772CE1FB68032230
:1025000083F85D20FB6800221A66FB68BA689A634C
:10251000FB68FA889A87FB68FA88DA87FB680022EA
:102520001A64FB680022A3F84420FB680022A3F889
:102530004620FB6800221A65FB680022DA64FB680B
:102540009B68B3F5004F07D1FB681B681A68FB68EE
:102550001B6842F480421A60FB681B681B6803F02A
:102560004003402B07D0FB681B681A68FB681B6898
:1025700042F040021A60FB68DB68B3F5E06F4BD9AC
:10258000FB685B68002B02D0FB8A012B3ED1FB6805
:102590009B6B1A88FB681B68DA60FB689B6B9A1C54
:1025A000FB689A63FB68DB8F9BB2013B9AB2FB68C6
:1025B000DA872BE0FB681B689B6803F00203022BA1
:1025C00012D1FB689B6B1A88FB681B68DA60FB689A
:1025D0009B6B9A1CFB689A63FB68DB8F9BB2013B89
:1025E0009AB2FB68DA8711E0FEF736F80246BB695B
:1025F000D31A3A689A4203D83B68B3F1FF3F02D13D
:102600003B68002B02D10323FB77A4E0FB68DB8F40
:102610009BB2002BCED17CE0FB685B68002B02D024
:10262000FB8A012B70D1FB68DB8F9BB2012B12D987
:10263000FB689B6B1A88FB681B68DA60FB689B6B06
:102640009A1CFB689A63FB68DB8F9BB2023B9AB2D1
:10265000FB68DA8758E0FB689A6BFB681B680C33F1
:1026600012781A70FB689B6B5A1CFB689A63FB68B4
:10267000DB8F9BB2013B9AB2FB68DA8744E0FB68D0
:102680001B689B6803F00203022B2BD1FB68DB8FD6
:102690009BB2012B12D9FB689B6B1A88FB681B68E5
:1026A000DA60FB689B6B9A1CFB689A63FB68DB8FA4
:1026B0009BB2023B9AB2FB68DA8725E0FB689A6B13
:1026C000FB681B680C3312781A70FB689B6B5A1CF2
:1026D000FB689A63FB68DB8F9BB2013B9AB2FB6895
:1026E000DA8711E0FDF7B8FF0246BB69D31A3A68F2
:1026F0009A4203D83B68B3F1FF3F02D13B68002BFD
:1027000002D10323FB7726E0FB68DB8F9BB2002B13
:10271000B5D1BA693968F86800F00FFF0346002B9D
:1027200002D0FB6820221A66FB689B68002B0AD146
:1027300000233B61FB681B68DB683B61FB681B682F
:102740009B683B613B69FB681B6E002B02D0012339
:10275000FB7700E000BFFB68012283F85D20FB6887
:10276000002283F85C20FB7F18462037BD4680BDE1
:1027700080B588B002AFF860B9603B601346FB805B
:102780000023FB75FB685B68B3F5827F12D1FB68A1
:102790009B68002B0ED1FB68042283F85D20FA8829
:1027A0003B6800931346BA68B968F86800F008F906
:1027B000034601E1FB6893F85C30012B01D1022351
:1027C000FAE0FB68012283F85C20FDF745FF3861E1
:1027D000FB6893F85D30DBB2012B02D00223FB755E
:1027E000E1E0BB68002B02D0FB88002B02D1012363
:1027F000FB75D8E0FB68042283F85D20FB680022AB
:102800001A66FB68BA681A64FB68FA88A3F8442061
:10281000FB68FA88A3F84620FB6800229A63FB68ED
:1028200000229A87FB680022DA87FB680022DA64BC
:10283000FB6800221A65FB68DB68B3F5E06F08D916
:10284000FB681B685A68FB681B6822F480525A6058
:1028500007E0FB681B685A68FB681B6842F48052FB
:102860005A60FB689B68B3F5004F07D1FB681B6893
:102870001A68FB681B6822F480421A60FB681B68B8
:102880001B6803F04003402B07D0FB681B681A68E5
:10289000FB681B6842F040021A60FB68DB68B3F516
:1028A000E06F67D830E0FB681B689B6803F00103AA
:1028B000012B17D1FB681B6803F10C02FB681B6C32
:1028C0001278D2B21A70FB681B6C5A1CFB681A642F
:1028D000FB68B3F846309BB2013B9AB2FB68A3F8A1
:1028E000462011E0FDF7B8FE02463B69D31A3A686C
:1028F0009A4203D83B68B3F1FF3F02D13B68002BFB
:1029000002D10323FB754EE0FB68B3F846309BB25F
:10291000002BC8D134E0FB681B689B6803F00103FF
:10292000012B15D1FB681B68DA68FB681B6C92B23F
:102930001A80FB681B6C9A1CFB681A64FB68B3F86E
:1029400046309BB2013B9AB2FB68A3F8462011E0E7
:10295000FDF782FE02463B69D31A3A689A4203D8D1
:102960003B68B3F1FF3F02D13B68002B02D1032348
:10297000FB7518E0FB68B3F846309BB2002BCAD158
:102980003A693968F86800F080FD0346002B02D0F0
:10299000FB6820221A66FB681B6E002B02D0012305
:1029A000FB7500E000BFFB68012283F85D20FB6837
:1029B000002283F85C20FB7D18461837BD4680BD99
:1029C00080B58AB000AFF860B9607A607B8001237F
:1029D0007B62002387F82330FB6893F85C30012B7F
:1029E00001D10223FBE1FB68012283F85C20FDF7A3
:1029F00033FEF861FB6893F85D30FB76FB685B683B
:102A00007B617B887B827B883B82FB7E012B0ED0A7
:102A10007B69B3F5827F06D1FB689B68002B02D1EE
:102A2000FB7E042B03D0022387F82330CDE1BB6863
:102A3000002B05D07B68002B02D07B88002B03D1B4
:102A4000012387F82330C0E1FB6893F85D30DBB2E7
:102A5000042B03D0FB68052283F85D20FB6800226D
:102A60001A66FB687A681A64FB687A88A3F84620BD
:102A7000FB687A88A3F84420FB68BA689A63FB680D
:102A80007A88DA87FB687A889A87FB680022DA649A
:102A9000FB6800221A65FB68DB68B3F5E06F02D8BB
:102AA0003B8A012B08D9FB681B685A68FB681B68C6
:102AB00022F480525A6007E0FB681B685A68FB6882
:102AC0001B6842F480525A60FB681B681B6803F065
:102AD0004003402B07D0FB681B681A68FB681B6823
:102AE00042F040021A60FB68DB68B3F5E06F7CD906
:102AF000FB685B68002B02D07B8A012B69D1FB68E5
:102B00009B6B1A88FB681B68DA60FB689B6B9A1CDE
:102B1000FB689A63FB68DB8F9BB2013B9AB2FB6850
:102B2000DA8756E0FB681B689B6803F00203022B00
:102B30001BD1FB68DB8F9BB2002B16D07B6A012B6D
:102B400013D1FB689B6B1A88FB681B68DA60FB6813
:102B50009B6B9A1CFB689A63FB68DB8F9BB2013B03
:102B60009AB2FB68DA8700237B62FB681B689B686C
:102B700003F00103012B1CD1FB68B3F846309BB274
:102B8000002B16D0FB681B68DA68FB681B6C92B2DE
:102B90001A80FB681B6C9A1CFB681A64FB68B3F80C
:102BA00046309BB2013B9AB2FB68A3F84620012352
:102BB0007B62FDF751FD0246FB69D31A3A6B9A42DC
:102BC00007D83B6BB3F1FF3F03D0032387F82330D3
:102BD000FBE0FB68DB8F9BB2002BA3D1FB68B3F853
:102BE00046309BB2002B9DD1DFE0FB685B68002B79
:102BF00003D07B8A012B40F0CB80FB68DB8F9BB23C
:102C0000012B12D9FB689B6B1A88FB681B68DA6082
:102C1000FB689B6B9A1CFB689A63FB68DB8F9BB21B
:102C2000023B9AB2FB68DA87B2E0FB689A6BFB68FA
:102C30001B680C3312781A70FB689B6B5A1CFB687C
:102C40009A63FB68DB8F9BB2013B9AB2FB68DA8721
:102C50009EE0FB681B689B6803F00203022B34D1E3
:102C6000FB68DB8F9BB2002B2FD07B6A012B2CD112
:102C7000FB68DB8F9BB2012B12D9FB689B6B1A8818
:102C8000FB681B68DA60FB689B6B9A1CFB689A63A5
:102C9000FB68DB8F9BB2023B9AB2FB68DA8712E0DB
:102CA000FB689A6BFB681B680C3312781A70FB6820
:102CB0009B6B5A1CFB689A63FB68DB8F9BB2013BE2
:102CC0009AB2FB68DA8700237B62FB681B689B680B
:102CD00003F00103012B48D1FB68B3F846309BB2E7
:102CE000002B42D0FB68B3F846309BB2012B23D9AE
:102CF000FB681B68DA68FB681B6C92B21A80FB6881
:102D00001B6C9A1CFB681A64FB68B3F846309BB2D4
:102D1000023B9AB2FB68A3F84620FB68B3F8463042
:102D20009BB2012B1FD8FB681B685A68FB681B68A5
:102D300042F480525A6016E0FB681B6803F10C02F3
:102D4000FB681B6C1278D2B21A70FB681B6C5A1CA1
:102D5000FB681A64FB68B3F846309BB2013B9AB239
:102D6000FB68A3F8462001237B62FDF775FC024651
:102D7000FB69D31A3A6B9A4203D83B6BB3F1FF3F1E
:102D800002D13B6B002B03D1032387F823301CE0D7
:102D9000FB68DB8F9BB2002B7FF45BAFFB68B3F863
:102DA00046309BB2002B7FF454AFFA69396BF86858
:102DB00000F0C3FB0346002B06D0012387F8233025
:102DC000FB6820221A6600E000BFFB68012283F83E
:102DD0005D20FB68002283F85C2097F823301846BA
:102DE0002837BD4680BD000080B586B000AFF860D2
:102DF000B9607A607B800023FB75FB6893F85C30D8
:102E0000012B01D102236CE1FB68012283F85C20D5
:102E1000FB6893F85D30BB75FB685B683B61BB7D0D
:102E2000012B0DD03B69B3F5827F06D1FB689B680F
:102E3000002B02D1BB7D042B02D00223FB754BE19A
:102E4000BB68002B05D07B68002B02D07B88002B51
:102E500002D10123FB753FE1FB6893F85D30DBB2E3
:102E6000042B03D0FB68052283F85D20FB68002259
:102E70001A66FB68BA689A63FB687A889A87FB6867
:102E80007A88DA87FB687A681A64FB687A88A3F81C
:102E90004420FB687A88A3F84620FB680022DA64A5
:102EA000FB6800221A65FB681B685A68FB681B6890
:102EB00022F4C0425A60FB68DB68B3F5E06F08D9C2
:102EC000FB681B685A68FB681B6822F480525A60D2
:102ED0006FE0FB681B685A68FB681B6842F480520D
:102EE0005A60FB685B6D9B69B3F5806F26D1FB6808
:102EF0009B8F03F00103002B0FD1FB681B685A68FE
:102F0000FB681B6822F480425A60FB68DB8F9BB22F
:102F10005B089AB2FB68DA8710E0FB681B685A68A6
:102F2000FB681B6842F480425A60FB68DB8F9BB2EF
:102F30005B089BB201339AB2FB68DA87FB689B6D32
:102F40009B69B3F5806F34D1FB681B685A68FB68D6
:102F50001B6822F480525A60FB68B3F846309BB27B
:102F600003F00103002B11D1FB681B685A68FB6852
:102F70001B6822F400525A60FB68B3F846309BB2DB
:102F80005B089AB2FB68A3F8462012E0FB681B6856
:102F90005A68FB681B6842F400525A60FB68B3F839
:102FA00046309BB25B089BB201339AB2FB68A3F830
:102FB0004620FB6893F85D30DBB2042B08D1FB6838
:102FC0009B6D4A4A1A63FB689B6D494ADA6207E0C7
:102FD000FB689B6D474A1A63FB689B6D464ADA6241
:102FE000FB689B6D454A5A63FB689B6D00229A63A0
:102FF000FB68986DFB681B680C331946FB681B6CFB
:103000001A46FB68B3F846309BB2FDF74DFD034608
:10301000002B0CD0FB681B6E43F01002FB681A6695
:103020000123FB75FB68012283F85D2054E0FB68F7
:103030001B685A68FB681B6842F001025A60FB6813
:103040005B6D00221A63FB685B6D0022DA62FB682D
:103050005B6D00225A63FB685B6D00229A63FB681C
:10306000586DFB689B6B1946FB681B680C331A464E
:10307000FB68DB8F9BB2FDF717FD0346002B0CD0DE
:10308000FB681B6E43F01002FB681A660123FB7598
:10309000FB68012283F85D201EE0FB681B681B684B
:1030A00003F04003402B07D0FB681B681A68FB68DD
:1030B0001B6842F040021A60FB681B685A68FB6894
:1030C0001B6842F020025A60FB681B685A68FB6864
:1030D0001B6842F002025A60FB68002283F85C2001
:1030E000FB7D18461837BD4680BD00BF653200081D
:1030F0005131000881320008D53100089D320008A6
:1031000080B483B000AF786000BF0C37BD465DF877
:10311000047B704780B483B000AF786000BF0C3789
:10312000BD465DF8047B704780B483B000AF786023
:1031300000BF0C37BD465DF8047B704780B483B098
:1031400000AF786000BF0C37BD465DF8047B704768
:1031500080B584B000AF78607B689B6AFB60FDF748
:103160007BFAB8607B681B681B6803F02003202B88
:103170002AD0FB681B685A68FB681B6822F0200293
:103180005A60FB681B685A68FB681B6822F00302E0
:103190005A60BA686421F86800F077F90346002B9A
:1031A00002D0FB6820221A66FB680022A3F84620A2
:1031B000FB68012283F85D20FB681B6E002B03D0A7
:1031C000F868FFF7BBFF02E0F868FFF799FF1037D8
:1031D000BD4680BD80B584B000AF78607B689B6AD7
:1031E000FB60FDF739FAB8607B681B681B6803F069
:1031F0002003202B30D0FB681B685A68FB681B68D3
:1032000022F020025A60BA686421F86800F095F94B
:103210000346002B05D0FB681B6E43F02002FB68C1
:103220001A66FB681B685A68FB681B6822F0030279
:103230005A60FB680022DA87FB680022A3F8462068
:10324000FB68012283F85D20FB681B6E002B03D016
:10325000F868FFF773FF02E0F86800F0B7FE103778
:10326000BD4680BD80B584B000AF78607B689B6A46
:10327000FB60F868FFF74EFF00BF1037BD4680BD0A
:1032800080B584B000AF78607B689B6AFB60F868AB
:10329000FFF74AFF00BF1037BD4680BD80B584B040
:1032A00000AF78607B689B6AFB60FB681B685A68AC
:1032B000FB681B6822F003025A60FB681B6E43F038
:1032C0001002FB681A66FB68012283F85D20F8682B
:1032D000FFF734FF00BF1037BD4680BD80B584B016
:1032E00000AFF860B9603B601346FB714CE03B688F
:1032F000B3F1FF3F48D0FDF7AFF90246BB69D31ADF
:103300003A689A4202D93B68002B3DD1FB681B68A2
:103310005A68FB681B6822F0E0025A60FB685B6831
:10332000B3F5827F11D1FB689B68B3F5004F04D0E1
:10333000FB689B68B3F5806F07D1FB681B681A6850
:10334000FB681B6822F040021A60FB689B6AB3F5B9
:10335000005F0FD1FB681B681A68FB681B6822F4CA
:1033600000521A60FB681B681A68FB681B6842F40D
:1033700000521A60FB68012283F85D20FB6800227E
:1033800083F85C2003230FE0FB681B689A68BB6826
:103390001340BA689A420CBF01230023DBB21A46DD
:1033A000FB799A42A3D1002318461037BD4680BD51
:1033B00080B584B000AFF860B9607A603B6057E0D8
:1033C000BB68B3F5C06F06D17B68002B03D1FB68E7
:1033D0001B680C331B783B68B3F1FF3F48D0FDF707
:1033E0003BF90246BB69D31A3A689A4202D93B6854
:1033F000002B3DD1FB681B685A68FB681B6822F0F4
:10340000E0025A60FB685B68B3F5827F11D1FB680C
:103410009B68B3F5004F04D0FB689B68B3F5806FE1
:1034200007D1FB681B681A68FB681B6822F0400222
:103430001A60FB689B6AB3F5005F0FD1FB681B68DD
:103440001A68FB681B6822F400521A60FB681B684C
:103450001A68FB681B6842F400521A60FB6801227C
:1034600083F85D20FB68002283F85C20032308E0DA
:10347000FB681B689A68BB6813407A689A429FD1C0
:10348000002318461037BD4680BD80B586B002AF18
:10349000F860B9607A60FB685B68B3F5827F11D130
:1034A000FB689B68B3F5004F04D0FB689B68B3F5DD
:1034B000806F07D1FB681B681A68FB681B6822F0E5
:1034C00040021A607B680093BB6800228021F86884
:1034D000FFF704FF0346002B07D0FB681B6E43F089
:1034E0002002FB681A66032323E0FB685B68B3F5E0
:1034F000827F1DD1FB689B68B3F5004F04D0FB6849
:103500009B68B3F5806F13D17B680093BB68002282
:103510004FF4C061F868FFF74BFF0346002B07D05C
:10352000FB681B6E43F02002FB681A66032300E071
:10353000002318461037BD4680BD80B586B002AF67
:10354000F860B9607A607B680093BB6800224FF432
:10355000C051F868FFF72CFF0346002B07D0FB682B
:103560001B6E43F02002FB681A66032327E07B688A
:103570000093BB6800228021F868FFF7AFFE034686
:10358000002B07D0FB681B6E43F02002FB681A6615
:10359000032314E07B680093BB6800224FF4C061F2
:1035A000F868FFF705FF0346002B07D0FB681B6E8A
:1035B00043F02002FB681A66032300E0002318464C
:1035C0001037BD4680BD80B582B000AF78607B68A3
:1035D000002B01D1012340E07B685B6F002B06D1FB
:1035E0007B68002283F87020786801F0ADF97B6871
:1035F00024225A677B681B681A687B681B6822F064
:1036000001021A60786800F0BFF80346012B01D16F
:10361000012322E07B685B6A002B02D0786800F00F
:10362000A5FB7B681B685A687B681B6822F4904284
:103630005A607B681B689A687B681B6822F02A02C4
:103640009A607B681B681A687B681B6842F00102FD
:103650001A60786800F02CFC034618460837BD460F
:1036600080BD80B58AB002AFF860B9603B60134698
:10367000FB80FB685B6F202B40F08180BB68002BD8
:1036800002D0FB88002B01D1012379E0FB6893F87D
:103690007030012B01D1022372E0FB68012283F814
:1036A0007020FB680022DA67FB6821225A67FCF76A
:1036B000D3FF7861FB68FA88A3F85020FB68FA888A
:1036C000A3F85220FB689B68B3F5805F08D1FB68C4
:1036D0001B69002B04D10023FB61BB68BB6103E0C5
:1036E000BB68FB610023BB612DE03B6800937B69F5
:1036F00000228021F86800F020FC0346002B01D056
:1037000003233DE0FB69002B0BD1BB691A88FB68E2
:103710001B68C2F3080292B21A85BB690233BB610F
:1037200008E0FB691A78FB681B6892B21A85FB698E
:103730000133FB61FB68B3F852309BB2013B9AB294
:10374000FB68A3F85220FB68B3F852309BB2002B01
:10375000CBD13B6800937B6900224021F86800F0E0
:10376000ECFB0346002B01D0032309E0FB68202279
:103770005A67FB68002283F87020002300E00223D0
:1037800018462037BD4680BD2DE9904888B000AF6F
:10379000786000237B610023FB740023FB607B685F
:1037A0009A687B681B691A437B685B691A437B686C
:1037B000DB691343FB617B681B681A68AF4B1340DE
:1037C0007A681268F9690B4313607B681B685B6851
:1037D00023F440517B68DA687B681B680A435A60AF
:1037E0007B689B69FB617B681B68A54A934204D098
:1037F0007B681B6AFA691343FB617B681B689B68E3
:1038000023F430617B681B68FA690A439A607B681D
:103810001B689C4A934221D19B4BD3F8883003F01C
:103820000303032B16D801A252F823F03D380008F9
:1038300049380008433800084F3800080123FB7658
:1038400098E00223FB7695E00423FB7692E00823C0
:10385000FB768FE01023FB7600BF8BE07B681B6854
:103860008A4A934234D1884BD3F8883003F00C0352
:103870000C2B29D801A252F823F000BFB138000860
:10388000C9380008C9380008C9380008BD38000820
:10389000C9380008C9380008C9380008B738000816
:1038A000C9380008C9380008C9380008C3380008FA
:1038B0000023FB765EE00223FB765BE00423FB76CD
:1038C00058E00823FB7655E01023FB7600BF51E05B
:1038D0007B681B686E4A934220D16B4BD3F88830CB
:1038E00003F03003102B0FD0102B02D8002B05D083
:1038F00010E0202B05D0302B09D00BE00023FB7605
:1039000038E00223FB7635E00423FB7632E008231F
:10391000FB762FE01023FB7600BF2BE07B681B6853
:10392000574A934224D1584BD3F8883003F440636C
:10393000B3F5806F12D0B3F5806F02D8002B07D09B
:1039400012E0B3F5006F06D0B3F5406F09D00BE07D
:103950000023FB760EE00223FB760BE00423FB76CC
:1039600008E00823FB7605E01023FB7600BF01E0AA
:103970001023FB767B681B68414A934240F0F48039
:10398000FB7E082B23D801A252F823F0B13900089E
:10399000CF390008B9390008CF390008BF3900080D
:1039A000CF390008CF390008CF390008C7390008DF
:1039B000FEF72EF9F8600DE0364BFB600AE0FEF7EB
:1039C00091F8F86006E04FF40043FB6002E0012349
:1039D000FB7400BFFB68002B00F0B9817B685A685C
:1039E00013465B001344FA689A4205D37B685B6810
:1039F0001B03FA689A4202D90123FB74A7E1FB7EFC
:103A0000082B00F29E8001A252F823F0313A000800
:103A1000433B0008993A0008433B0008CD3A0008B0
:103A2000433B0008433B0008433B0008193B0008A8
:103A3000FEF7EEF8034619464FF000024FF0000380
:103A40004FF00004140244EA11640B027A685268D1
:103A5000520811464FF0000213EB010B44EB020C2D
:103A6000584661467B685B684FF000041A4623465F
:103A7000FCF7AEFB03460C467B6165E0F369FFEFA4
:103A80000080004000380140001002400044004027
:103A9000004800400024F4007B685B685B084FF03E
:103AA0000004B1494FF0000213EB010B44EB020C90
:103AB000584661467B685B684FF000041A4623460F
:103AC000FCF786FB03460C467B613DE0FEF70AF8F7
:103AD000034619464FF000024FF000034FF0000478
:103AE000140244EA11640B027A68526852081146C3
:103AF0004FF0000213EB010B44EB020C58466146F9
:103B00007B685B684FF000041A462346FCF760FBB5
:103B100003460C467B6117E07B685B685B084FF0EF
:103B2000000413F5000044F100017B685B684FF06E
:103B300000041A462346FCF74BFB03460C467B6108
:103B400002E00123FB7400BF7B69B3F5407F08D31B
:103B50007B69B3F5801F04D27B681B687A69DA60E1
:103B6000F5E00123FB74F2E07B68DB69B3F5004FFD
:103B70007FD1FB7E082B5CD801A252F823F000BF56
:103B8000A53B0008C33B0008E13B0008333C0008AC
:103B9000FD3B0008333C0008333C0008333C000880
:103BA0001B3C0008FEF734F803465A007B685B684C
:103BB0005B081A447B685B68B2FBF3F39BB27B61E2
:103BC0003AE0FEF73BF803465A007B685B685B0807
:103BD0001A447B685B68B2FBF3F39BB27B612BE01A
:103BE0007B685B685B0803F1F47303F590437A68C4
:103BF0005268B3FBF2F39BB27B611DE0FDF772FFED
:103C000003465A007B685B685B081A447B685B6804
:103C1000B2FBF3F39BB27B610EE07B685B685B08F1
:103C200003F580327B685B68B2FBF3F39BB27B6188
:103C300002E00123FB7400BF7B690F2B16D97B695F
:103C4000B3F5803F12D27B699BB223F00F037B81D7
:103C50007B695B089BB203F007039AB27B8913432D
:103C60007B817B681B687A89DA6070E00123FB74D2
:103C70006DE0FB7E082B59D801A252F823F000BF5B
:103C8000A53C0008C13C0008DD3C00082D3D0008B3
:103C9000F93C00082D3D00082D3D00082D3D000891
:103CA000153D0008FDF7B4FF02467B685B685B08C2
:103CB0001A447B685B68B2FBF3F39BB27B6138E02C
:103CC000FDF7BCFF02467B685B685B081A447B68B3
:103CD0005B68B2FBF3F39BB27B612AE07B685B68B5
:103CE0005B0803F5740303F510537A685268B3FB5D
:103CF000F2F39BB27B611CE0FDF7F4FE02467B68A9
:103D00005B685B081A447B685B68B2FBF3F39BB2A9
:103D10007B610EE07B685B685B0803F500427B68B3
:103D20005B68B2FBF3F39BB27B6102E00123FB749F
:103D300000BF7B690F2B08D97B69B3F5803F04D2A4
:103D40007B681B687A69DA6001E00123FB747B6899
:103D500000221A667B6800225A66FB7C18462037D0
:103D6000BD46BDE8908800BF000024F480B483B055
:103D700000AF78607B685B6A03F00103002B0AD018
:103D80007B681B685B6823F400317B689A6A7B68F8
:103D90001B680A435A607B685B6A03F00203002BCE
:103DA0000AD07B681B685B6823F480317B68DA6A21
:103DB0007B681B680A435A607B685B6A03F00403F4
:103DC000002B0AD07B681B685B6823F480217B682A
:103DD0001A6B7B681B680A435A607B685B6A03F056
:103DE0000803002B0AD07B681B685B6823F4004142
:103DF0007B685A6B7B681B680A435A607B685B6A06
:103E000003F01003002B0AD07B681B689B6823F427
:103E100080517B689A6B7B681B680A439A607B6859
:103E20005B6A03F02003002B0AD07B681B689B6849
:103E300023F400517B68DA6B7B681B680A439A6045
:103E40007B685B6A03F04003002B1AD07B681B6819
:103E50005B6823F480117B681A6C7B681B680A43DB
:103E60005A607B681B6CB3F5801F0AD17B681B68A6
:103E70005B6823F4C0017B685A6C7B681B680A434B
:103E80005A607B685B6A03F08003002B0AD07B6872
:103E90001B685B6823F400217B689A6C7B681B6855
:103EA0000A435A6000BF0C37BD465DF8047B70477B
:103EB00080B586B002AF78607B680022DA67FCF7D5
:103EC000CBFBF8607B681B681B6803F00803082BBA
:103ED0000ED16FF07E430093FB6800224FF4001177
:103EE000786800F02AF80346002B01D0032320E075
:103EF0007B681B681B6803F00403042B0ED16FF072
:103F00007E430093FB6800224FF48001786800F044
:103F100014F80346002B01D003230AE07B6820221B
:103F20005A677B6820229A677B68002283F870209A
:103F3000002318461037BD4680BD80B584B000AF61
:103F4000F860B9603B601346FB712AE0BB69B3F1CE
:103F5000FF3F26D0FCF780FB02463B68D31ABA69C4
:103F60009A4202D3BB69002B1BD1FB681B681A68FD
:103F7000FB681B6822F4D0721A60FB681B689A68A1
:103F8000FB681B6822F001029A60FB6820225A67D6
:103F9000FB6820229A67FB68002283F870200323C5
:103FA0000FE0FB681B68DA69BB681340BA689A4285
:103FB0000CBF01230023DBB21A46FB799A42C5D01D
:103FC000002318461037BD4680BD000080B483B082
:103FD00000AF78607B681B68054A934202D1054BAD
:103FE00001221A6000BF0C37BD465DF8047B7047A4
:103FF00000380040F802002080B483B000AF0346D0
:10400000FB80FB88012B02D1044B08221A6000BF01
:104010000C37BD465DF8047B704700BF5C01002093
:1040200080B582B002AFFCF7ABFA00F05DF800F0AB
:104030006FF900F037F900F0C7F800F003F900F06D
:1040400025FA1E4B1B68012BFBD11D4B1B68082B4F
:1040500016D11C4A1C491D4800F00EFB1B4B1B7857
:104060001A46194B1B781946164B1B7800930B46C2
:104070001749184800F026FE114B00221A60E0E7AD
:104080000F4B1B680C2BDCD1134A1449144800F069
:1040900039FB134BB3F900301A46104BB3F900301B
:1040A00019460D4BB3F9003000930B460D490948F2
:1040B00000F008FE024B00221A60C2E7F80200205E
:1040C0005C0100208E0000208D0000208C0000206C
:1040D000E8540008AC010020940000209200002069
:1040E00090000020FC54000880B5AEB000AF07F18E
:1040F000740344220021184600F0DCFD07F1600340
:1041000000221A605A609A60DA601A613B466022A7
:104110000021184600F0CEFD02237B674FF4807328
:10412000C7F880301023C7F884300223C7F89C30CA
:104130000223C7F8A0300123C7F8A4300823C7F82A
:10414000A8300723C7F8AC300223C7F8B0300223E9
:10415000C7F8B43007F174031846FCF7F3FF0346C1
:10416000002B01D000F026FB0F233B6603237B6668
:104170000023BB660023FB6600233B6707F1600357
:1041800003211846FDF7CCFB0346002B01D000F0BD
:1041900011FB02233B6000237B623B461846FDF780
:1041A000C3FD0346002B01D000F004FB4FF4007068
:1041B000FCF772FF0346002B01D000F0FBFA00BFB2
:1041C000B837BD4680BD000080B500AF1B4B1C4A10
:1041D0001A601A4B4FF482725A60184B00229A6090
:1041E000164B4FF4E062DA60144B00221A61134B55
:1041F00000225A61114B4FF400729A610F4B10224A
:10420000DA610E4B00221A620C4B00225A620B4BF1
:1042100000229A62094B0722DA62084B00221A63D5
:10422000064B08225A630548FEF7B2F80346002BF6
:1042300001D000F0BFFA00BF80BD00BFF800002031
:104240000038004080B500AF144B154A1A60134B7C
:104250004FF4E1325A60114B00229A600F4B00225A
:10426000DA600E4B00221A610C4B0C225A610B4B88
:1042700000229A61094B0022DA61084B00221A627F
:10428000064B00225A620548FFF79DF90346002BB2
:1042900001D000F08FFA00BF80BD00BF2C020020CB
:1042A0000044004080B582B000AF184B9B6C174AA9
:1042B00043F001039364154B9B6C03F001037B6097
:1042C0007B68002200210E20FCF7F1FA0E20FCF79B
:1042D0000AFB002200210F20FCF7E9FA0F20FCF76F
:1042E00002FB002200211020FCF7E1FA1020FCF76D
:1042F000FAFA002200211120FCF7D9FA1120FCF76C
:10430000F2FA00BF0837BD4680BD00BF0010024072
:1043100080B588B000AF07F10C0300221A605A6024
:104320009A60DA601A61284BDB6C274A43F001037C
:10433000D364254BDB6C03F00103BB60BB68224BED
:10434000DB6C214A43F00203D3641F4BDB6C03F0A8
:1043500002037B607B6801224FF400614FF09040C4
:10436000FCF75CFE0323FB60184B3B6100237B6181
:1043700007F10C0319464FF09040FCF7D5FC4FF4C1
:104380000063FB6001233B6100237B610323BB616E
:1043900007F10C0319464FF09040FCF7C5FC0022D2
:1043A00000210620FCF783FA0620FCF79CFA002285
:1043B00000210720FCF77BFA0720FCF794FA00BFE6
:1043C0002037BD4680BD00BF001002400000111024
:1043D00080B584B000AF0346FB710023BB72FB794C
:1043E0007B720B233B720F4B00221A6000224FF4AA
:1043F00000614FF09040FCF711FE07F10C0207F14D
:10440000080103230848FEF7EFFC01224FF4006186
:104410004FF09040FCF702FEBB7B18461037BD46BC
:1044200080BD00BFF8020020F800002080B584B0F5
:1044300000AF03460A46FB711346BB71BB79BB73E1
:10444000FB797B730A233B730E4B00221A60002218
:104450004FF400614FF09040FCF7E0FD07F10802D7
:1044600007F10C0103230848FEF7BEFC01224FF4BC
:1044700000614FF09040FCF7D1FD00BF1037BD4602
:1044800080BD00BFF8020020F8000020B0B58EB05B
:1044900000AF002387F837306E4B00221A606E4B56
:1044A00001221A600620FCF72CFA0720FCF729FAF3
:1044B0003B1D6A4A1C4615460FCD0FC495E8030004
:1044C0002060043421803B1D1846FCF701F80346A8
:1044D0009AB2391D4FF6FF736148FFF7C2F80A2000
:1044E000FCF7C6F852211F20FFF7A0FF3220FCF78F
:1044F000BFF80020FFF76CFF034687F8373097F8C6
:1045000037203B1D5749184600F0DCFB3B1D184681
:10451000FBF7DEFF03469AB2391D4FF6FF73504892
:10452000FFF79FF82C20FFF753FF034687F837303B
:1045300097F837203B1D4C49184600F0C3FB3B1D44
:104540001846FBF7C5FF03469AB2391D4FF6FF73B5
:104550004348FFF786F811212C20FFF767FF2C2036
:10456000FFF736FF034687F8373097F837203B1DB3
:104570003D49184600F0A6FB3B1D1846FBF7A8FF77
:1045800003469AB2391D4FF6FF733548FFF769F8B5
:1045900001212A20FFF74AFF2A20FFF719FF0346CF
:1045A00087F8373097F837203B1D3049184600F020
:1045B00089FB3B1D1846FBF78BFF03469AB2391D5A
:1045C0004FF6FF732648FFF74CF840212B20FFF7EA
:1045D0002DFF2B20FFF7FCFE034687F8373097F8B6
:1045E00037203B1D2249184600F06CFB3B1D184646
:1045F000FBF76EFF03469AB2391D4FF6FF7318485A
:10460000FFF72FF822212D20FFF710FF2D20FFF7B5
:10461000DFFE034687F8373097F837203B1D1549F2
:10462000184600F04FFB3B1D1846FBF751FF0346B1
:104630009AB2391D4FF6FF730948FFF712F80620AA
:10464000FCF751F90720FCF74EF900BF3837BD469B
:10465000B0BD00BF5C010020F8020020105500082A
:104660002C02002028550008385500084C55000839
:10467000605500087455000880B58AB000AFF86036
:10468000B9607A6000237B620EE007F11C027B6A4E
:10469000134400221A7007F114027B6A13440022AB
:1046A0001A707B6A01337B627B6A072BEDDD0E2378
:1046B0007B750B233B7500224FF400614FF0904057
:1046C000FCF7ACFC07F11C0207F1140108230C48AD
:1046D000FEF78AFB01224FF400614FF09040FCF797
:1046E0009DFCBA7FFB681A7097F82020BB681A708F
:1046F00097F822207B681A7000BF2837BD4680BD1E
:10470000F800002080B588B000AFF860B9607A602A
:1047100007F1180300221A609A8008237B750B2387
:104720003B75224B00221A6000224FF400614FF0CB
:104730009040FCF773FC07F114010A2302221C4885
:10474000FDF7B0FE07F118010A2306221848FEF70C
:104750000FF801224FF400614FF09040FCF75EFC2F
:104760007B7E9BB21B029AB23B7E9BB213449BB2F0
:104770001AB2FB681A80FB7E9BB21B029AB2BB7E08
:104780009BB213449BB21AB2BB681A807B7F9BB268
:104790001B029AB23B7F9BB213449BB21AB27B6856
:1047A0001A8000BF2037BD4680BD00BFF802002040
:1047B000F800002080B400AF00BFBD465DF8047B68
:1047C0007047000080B483B000AF0F4B1B6E0E4AE1
:1047D00043F0010313660C4B1B6E03F001037B6077
:1047E0007B68094B9B6D084A43F080539365064BE9
:1047F0009B6D03F080533B603B6800BF0C37BD46A8
:104800005DF8047B704700BF0010024080B58AB09D
:1048100000AF786007F1140300221A605A609A60B2
:10482000DA601A617B681B68404A93427AD1404B38
:104830009B6D3F4A43F4804393653D4B9B6D03F46E
:1048400080433B613B693A4BDB6C394A43F00203DE
:10485000D364374BDB6C03F00203FB60FB684FF45F
:1048600060437B610223BB610023FB6103233B6246
:1048700005237B6207F1140319462E48FCF754FA0E
:104880002D4B2E4A1A602C4B01225A602A4B1022C3
:104890009A60294B0022DA60274B80221A61264B4E
:1048A00000225A61244B00229A61234B0022DA61D4
:1048B000214B00221A622048FCF73EF80346002BE9
:1048C00001D0FFF777FF7B681B4A5A651A4A7B685D
:1048D00093621B4B1B4A1A60194B01225A60184BFA
:1048E00000229A60164B0022DA60154B80221A6172
:1048F000134B00225A61124B00229A61104B002286
:10490000DA610F4B00221A620D48FCF715F80346D6
:10491000002B01D0FFF74EFF7B68094A9A65084AD1
:104920007B68936200BF2837BD4680BD00380040D9
:104930000010024000040048B0020020580002406D
:10494000600100204400024080B58AB000AF78606A
:1049500007F1140300221A605A609A60DA601A6143
:104960007B681B68404A93427AD1404B9B6D3F4A1B
:1049700043F4003393653D4B9B6D03F400333B617F
:104980003B693A4BDB6C394A43F00103D364374B44
:10499000DB6C03F00103FB60FB680C237B610223EB
:1049A000BB610023FB6103233B6207237B6207F1AA
:1049B000140319464FF09040FCF7B6F92C4B2D4AE2
:1049C0001A602B4B02225A60294B00229A60284B16
:1049D0000022DA60264B80221A61254B00225A61A0
:1049E000234B00229A61224B2022DA61204B0022C5
:1049F0001A621F48FBF7A0FF0346002B01D0FFF708
:104A0000D9FE7B681A4ADA66194A7B6893621A4BA8
:104A10001A4A1A60184B02225A60174B10229A60E9
:104A2000154B0022DA60144B80221A61124B0022CF
:104A30005A61114B00229A610F4B2022DA610E4B12
:104A400000221A620C48FBF777FF0346002B01D0C7
:104A5000FFF7B0FE7B68084A9A66074A7B68936254
:104A600000BF2837BD4680BD004400400010024012
:104A7000AC0000206C000240E001002080000240F9
:104A800080B400AF00BFBD465DF8047B704780B4C2
:104A900000AFFEE780B400AFFEE780B400AFFEE7F2
:104AA00080B400AFFEE780B400AF00BFBD465DF844
:104AB000047B704780B400AF00BFBD465DF8047B47
:104AC000704780B400AF00BFBD465DF8047B7047FF
:104AD00080B500AFFBF7AEFD00BF80BD80B500AF75
:104AE0000120FCF7B3FA00BF80BD80B500AF022003
:104AF000FCF7ACFA00BF80BD80B500AF0248FCF700
:104B000033F800BF80BD00BF6001002080B500AF5A
:104B10000248FCF729F800BF80BD00BFB0020020AA
:104B200080B500AF0248FCF71FF800BF80BD00BF92
:104B3000AC00002080B500AF0248FCF715F800BFBC
:104B400080BD00BFE001002080B584B000AF786078
:104B5000114B1B68002B02D10F4B104A1A600E4BF1
:104B60001B68FB600C4B1A687B6813446A469342CF
:104B700007D900F075F802460C2313604FF0FF339D
:104B800006E0054B1A687B681344034A1360FB6810
:104B900018461037BD4680BD9C0000200803002049
:104BA00080B400AF174BD3F88830164A43F4700333
:104BB000C2F88830144B1B68134A43F0010313609A
:104BC000114B00229A60104B1B680F4A23F0A85328
:104BD00023F4102313600C4B4FF48052DA600A4B1D
:104BE0001B68094A23F480231360074B00229A6153
:104BF000044B4FF000629A6000BFBD465DF8047B35
:104C0000704700BF00ED00E000100240DFF834D034
:104C1000002103E00C4B5B58435004310B480C4B14
:104C200042189A42F6D30B4A02E0002342F8043BB2
:104C3000094B9A42F9D3FFF7B3FF00F017F8FFF7DB
:104C4000EFF9FEE7000001202056000800000020D8
:104C5000700000207000002004030020FEE7000028
:104C6000014B1868704700BF0C00002070B50D4E56
:104C70000D4CA41BA4100025A54209D10B4E0C4CD1
:104C800000F026FCA41BA4100025A54205D170BD90
:104C900056F8253098470135EEE756F82530984705
:104CA0000135F2E7105600081056000810560008AB
:104CB0001456000802440346934200D1704703F89B
:104CC000011BF9E70EB400B59CB01DAB0290069035
:104CD0006FF00041094807910491094953F8042BEA
:104CE00005910068019302A900F066F8029B00227A
:104CF0001A701CB05DF804EB03B070470C00002084
:104D00000802FFFF2DE9F0478E689E4282460C465E
:104D10009046994637D88A8912F4906F31D0256829
:104D200009696F1A6569022305EB450595FBF3F5E3
:104D300009F101033B449D4238BF1D46530530D560
:104D4000294600F02BFB064650B90C23CAF8003068
:104D5000A38943F04003A3814FF0FF30BDE8F08703
:104D60003A46216900F0A8FAA38923F4906343F03E
:104D70008003A381266165613E44ED1B2660A5602A
:104D80004E464E4500D94E4632464146206800F018
:104D90009EFAA3689B1BA36023681E442660002024
:104DA000DCE72A4600F054FB06460028E2D12169E0
:104DB000504600F0A5FAC8E72DE9F04F1D468B8953
:104DC0001F069DB080460C4616460FD50B696BB981
:104DD000402100F0E3FA2060206128B90C23C8F8D4
:104DE00000304FF0FF30C8E0402363610023099397
:104DF00020238DF8293030238DF82A3003954FF089
:104E0000010B37463D4615F8013B0BB1252B3ED132
:104E1000B7EB060A0BD05346324621464046FFF711
:104E200071FF013000F0A480099B534409933B7843
:104E3000002B00F09D8000234FF0FF32CDE90523C9
:104E4000049307938DF853301A932F46052217F8D1
:104E5000011B5048FBF744FB049BD0B9D90644BF63
:104E600020228DF853201A0744BF2B228DF853209F
:104E70002A782A2A15D0079A2F4600200A25394673
:104E800011F8013B303B092B4DD9B8B10FE02F464B
:104E9000B8E7404A801A0BFA00F0184304903D46E8
:104EA000D3E7039A111D12680391002A01DB0792D0
:104EB00004E0524243F00203079204933B782E2B06
:104EC0000CD17B782A2B33D1039B1A1D1B680392CC
:104ED000002BB8BF4FF0FF33023705932E4D3978C2
:104EE00003222846FBF7FCFA38B14023401B03FAA3
:104EF00000F0049B034301370493397827488DF869
:104F0000281006227E1CFBF7EBFA002838D0244B31
:104F100013BB039B073323F0070308330393099B59
:104F20004B4409936DE705FB023201200F46A6E7CB
:104F300000230137059319460A25384610F8012B3E
:104F4000303A092A03D9002BC8D00591C6E705FBE2
:104F5000012101230746F0E703AB00932246114BE2
:104F600004A94046AFF30080B0F1FF3F8146D6D19F
:104F7000A3895B063FF535AF09981DB0BDE8F08FFA
:104F800003AB00932246074B04A9404600F082F889
:104F9000EAE700BFD0550008D6550008DA550008EA
:104FA00000000000054D00082DE9F04791461F461E
:104FB0008A680B69DDF820809342B8BF1346C9F8B0
:104FC000003091F8432006460C4612B10133C9F86F
:104FD00000302368990642BFD9F800300233C9F87F
:104FE0000030256815F0060507D104F1190AE368B9
:104FF000D9F800209B1AAB4228DC94F84330226891
:10500000003318BF012392062DD404F14302394620
:105010003046C047013020D02368E568D9F8002029
:1050200003F00603042B08BFAD1AA36822690CBF66
:1050300025EAE57500259342C4BF9B1AED184FF091
:1050400000091A344D451AD1002008E001235246C8
:1050500039463046C047013003D14FF0FF30BDE83C
:10506000F0870135C3E7E1185A1C302081F843006E
:10507000224494F8451082F843100233C5E7012317
:10508000224639463046C0470130E6D009F10109D1
:10509000D8E700002DE9F04301F1430C0C46097EEE
:1050A00085B06E291746064698460C9A00F0B380E4
:1050B00022D8632936D00AD8002900F0B9805829AF
:1050C00000F0838004F1420584F8421032E0642944
:1050D00001D06929F6D120681368050603F104019F
:1050E0002AD51B681160002B03DA2D225B4284F85D
:1050F00043206F480A2239E0732900F09D8008D8C8
:105100006F2920D07029DDD1236843F0200323606C
:1051100003E0752917D07829D4D1782384F8453055
:10512000644855E01368191D1B68116004F14205BD
:1051300084F8423001238CE01B68116010F0400FAE
:1051400018BF1BB2CFE713682568181D106028062A
:1051500001D51B6802E06806FBD51B8854486F29FF
:1051600014BF0A220822002184F843106568A56054
:10517000002DC0F29580216821F004012160002BF0
:105180003DD1002D40F08E806546082A0BD1236862
:10519000DB0708D5236962689A42DEBF302305F831
:1051A000013C05F1FF35ACEB05032361CDF8008030
:1051B0003B4603AA21463046FFF7F6FE01304DD1AB
:1051C0004FF0FF3005B0BDE8F083394884F8451052
:1051D000136821681D1D1B6815600A060BD5CA07D8
:1051E00044BF41F0200121601BB9226822F0200257
:1051F00022601022B7E74D0648BF9BB2EFE7654635
:10520000B3FBF2F102FB1133C35C05F8013D0B4621
:105210000029F5D1B9E7136825686169181D106088
:1052200028061B6801D5196002E06A06FBD51980C3
:10523000002323616546B9E71368191D11601D68D5
:10524000626800212846FBF74BF908B1401B6060FB
:1052500063682361002384F84330A7E723692A4663
:1052600039463046C0470130AAD023689B0713D483
:10527000E068039B9842B8BF1846A3E701234A465B
:1052800039463046C04701309AD00135E368039A69
:105290009B1AAB42F2DCEBE7002504F11909F5E7B4
:1052A000002BACD1037884F8423004F142056CE75E
:1052B000E1550008F255000810B5431E0A4491421A
:1052C00000D110BD11F8014B03F8014FF7E78842F8
:1052D00010B501EB020307D8421E99420AD011F81B
:1052E000014B02F8014FF8E78342F5D98118D21A31
:1052F000D34200D110BD13F8014D01F8014DF7E77D
:1053000038B50546002945D051F8043C0C1F002B48
:10531000B8BFE41800F0D2F81F4A1368104633B93A
:10532000636014602846BDE8384000F0C8B8A34266
:105330000CD921686218934204BF1A685B686360E5
:1053400004BF521822600460ECE713465A680AB1A1
:10535000A242FAD919685818A0420BD1206801441A
:10536000581882421960DDD1106852685A600144B1
:105370001960D7E702D90C232B60D3E720682118E6
:105380008A4204BF11685268626004BF0918216034
:105390005C60C7E738BD00BFA000002070B5CD1C21
:1053A00025F0030508350C2D38BF0C25002D0646C9
:1053B00001DBA94203D90C233360002070BD00F04B
:1053C0007DF8214A1468214691B9204C23681BB905
:1053D000304600F063F820602946304600F05EF861
:1053E000431C24D10C233360304600F068F8E4E716
:1053F0000B685B1B18D40B2B0FD90B60CD50CC184E
:10540000304600F05CF804F10B00231D20F007008B
:10541000C31AD3D05A42E250D0E78C424B6816BF31
:10542000636013600C46EBE70C464968CCE7C41C8C
:1054300024F00304A04205D0211A304600F02EF8D3
:105440000130CFD02560DBE7A0000020A4000020C1
:10545000F8B5074614460E4621B91146BDE8F84096
:10546000FFF79CBF22B9FFF74BFF25462846F8BD42
:1054700000F026F8A0420FD221463846FFF78EFFF3
:1054800005460028F2D031462246FFF715FF314687
:105490003846FFF735FFE9E73546E7E738B5064C0C
:1054A0000023054608462360FFF74EFB431C02D14C
:1054B000236803B12B6038BD00030020704770479C
:1054C00051F8043C181F002BBCBF0B58C018704784
:1054D000F8B500BFF8BC08BC9E467047F8B500BFE1
:0854E000F8BC08BC9E467047B1
:1054E800252B30346420252B30346420252B303490
:1054F800640D0A00252B30356420252B30356420B7
:10550800252B3035640D0A00496E69746961746928
:105518006E67204144584C333632210A0D00000092
:10552800494430203D20307825580D0A00000000FD
:1055380046494C5445525F43544C203D2030782511
:10554800580D0A00494E544D415031203D203078C5
:1055580025580D0A00000000494E544D4150322094
:105568003D20307825580D0A00000000504F57455F
:10557800525F43544C203D20307825580D0A0000D6
:1055880000000000000000000102030406070809EB
:105598000000000001020304A0860100400D030082
:1055A800801A060000350C0040420F0080841E005F
:1055B80000093D0000127A000024F40000366E0154
:1055C8000048E801006CDC02232D302B2000686CB9
:1055D8004C0065666745464700303132333435360E
:1055E8003738394142434445460030313233343547
:1055F8003637383961626364656600000000000070
:08560800F8ABFF7F0100000078
:08561000B501000800000000D4
:085618009101000800000000F0
:10562000100000000100000000093D0010000020F3
:10563000000000000000000000000000000000006A
:10564000000000000000000000000000000000005A
:10565000000000000000000000000000000000004A
:10566000000000000000000000000000000000003A
:10567000000000000000000000000000000000002A
:10568000000000000000000000000000000000001A
:0400000508004C0D96
:00000001FF
